:020000040000FA
:06000000020AA60201D96C
:03002B0002075B6E
:0300330002064B77
:0300430002078130
:030053000201198E
:03006B0002062565
:1000830002016D01FF01010503010F10FEFFA12510
:1000930000000000752400000000FF000000FF00C6
:1000A30001881300000020FD00020000081A000070
:1000B30000000000C21A0000000000000000000061
:1000C300000000000000000000000000000000002D
:1000D30000000000000006FFFF01010100B80E0050
:1000E3000000E803FFFF300FE80364006400B80179
:1000F3000202000800000502070101051E02051E99
:10010300020A0A0103B80B02803E0102E8030A0552
:100113000001FFFF0114C0E074F21203F0A2AFE488
:1001230033F508D2AFAFA7AEA1EE5F54106006124D
:10013300179275A1EFEE5F5408600812179875A126
:10014300F78023EEA2E092F0EFA2E082F050179046
:100153006198E0F89007CEE0C398A2D265D03350FF
:1001630002E8F075A1FEE5088063C0E074F21203B3
:10017300F0A2AFE433FED2AF9061A4E0F8759B0028
:10018300E59158540860087591F71217E08023E54C
:100193009158541060087591EF1217E68014E59199
:1001A300A2E092F0E8A2E082F05007E0C2E0F01291
:1001B30019309061A3E0F8E5E9585404600E121970
:1001C3000675E9FB906193E0A2E640F2EEA2E092AD
:1001D300AF7F0102044FC0E074F21203F0A2AFE458
:1001E30033FED2AF9061A5E0F8E5BF585404600632
:1001F30075BFFB12194880D4C3E498F8E499F91247
:10020300023C8026C3E49AFAE49BFBE920E7E91267
:10021300023CE498F8E499F922C3E498F8E499F9E4
:1002230012023CE498F8E499F9C3E49AFAE49BFBDC
:1002330022EB20E7CFE920E7E0B90010BB0008E894
:100243008AF084F8AAF022E4FBC8FA22EB70227B3E
:1002530010C833C8C933C9335007C39AC3DBF2800C
:10026300069A50012ADBEAC833F4C8C933F4C9FA41
:100273002275F008E4C833C8C933C933C99AC99B86
:100283005004C92AC93BD5F0ECFBC833F4C8E4C910
:10029300FA22080808EAC0E0EBC0E086F0E7A4FA17
:1002A300180986F0E7A42AFA180986F0E7A42AFABF
:1002B300180986F0E7A42AFA1986F0E7A4FBE5F00B
:1002C3002AFA190886F0E7A42BFBE5F03AFA190895
:1002D30086F0E7A42BFBE5F03AFA18180986F0E755
:1002E300A4C5F02BFBE43AFA1908E7C5F0C6A42627
:1002F300F6E5F03BFBE43AFA1886F0E7A4F6E5F0FE
:100303000826F6E43B08F6E43A08F6D0E0FBD0E032
:10031300FA22E4CFC0E0E4CEC0E0E4CDC0E0E4CC18
:10032300C0E075F020E626F608E633F608E633F675
:1003330008E633F6181818EC33FCED33FDEE33FE04
:10034300EF33FFC3EC9709ED9709EE9709EF971980
:100353001919400FFFEC97FC09ED97FD09EE97FE85
:10036300191906D5F0BFECF709EDF709EEF709EF18
:10037300F7191919D0E0FCD0E0FDD0E0FED0E0FF82
:10038300222518C582C0E0E51934FFC583C0E0E526
:1003930018C3958224F810AF0885831985821880C5
:1003A30008858319858218D2AFCEF0A3E520F0A388
:1003B3007808E608F0A3DEFAEFF0A3E58124FAF863
:1003C300E608F0A3E608F0A3E608F0A30808E608A9
:1003D300F0A3E608F0A315811581D0E0FED0E0F884
:1003E300158115811581E8C0E0EEC0E022C0D0255B
:1003F30018C582C0E0E51934FFC583C0E0E518C322
:10040300958224F310AF08858319858218800885A7
:100413008319858218D2AFC8F0A3E9F0A3EAF0A349
:10042300EBF0A37908E709F0A3D8FAECF0A3EDF019
:10043300A3EEF0A3EFF0A3D0E0F0A3D0E0F0A3D0BD
:10044300E0F0A3E520F0A3E5F0F0A322851983856E
:100453001882E0C0E0A3E0F9A3E0FAA3E0FBA378ED
:1004630008E0F608A3DFFAE0FCA3E0FDA3E0FEA3A7
:10047300E0FFA3E0C0E0A3E0C0E0A3E0F5D0A3E089
:10048300F520A3E0A3F5F010AF0885831985821842
:100493008008858319858218D2AFD082D083D0E0BB
:1004A300F8D0E032120B14B900030204E6E490031F
:1004B3000178B8790D8002F0A3D8FCD9FA7AB87B19
:1004C3000F900086789479018015E493A3AD82AEF2
:1004D300838A828B83F0A3AA82AB838D828E83D897
:1004E300E9D9E77582D57583D174041208447582FE
:1004F30038758323740012084475F0108E1A8F1B0D
:1005030085821F85831E851882851983E0CEA3E02B
:10051300CF851F82851E83EBC9EAC8EDCBECCAC326
:10052300E833C8E933C9EA33CAEB33CBC3EA9EF5F0
:100533001DEB9FF51CB35004AB1CAA1DEC33CCED93
:1005430033CDD5F0DAAE1AAF1B22D083D082ECC004
:10055300E0EDC0E0E493A3FCE493A3FDED4C600D58
:10056300120669EC24FFFCED34FFFD80EFE493A356
:10057300FCE493A3FDED4C600D120706EC24FFFC95
:10058300ED34FFFD80EFD0E0FDD0E0FCE493A3C0A9
:10059300E0E493C0E022D083D082E9C0E0E493A3F7
:1005A300C386F0C5F095F0F908E493A386F0C5F08F
:1005B30095F0700BE493A3C3994005E9048002A36B
:1005C300E475F002A42582F582E5F03583F583D046
:1005D300E0F9E493A3C0E0E493C0E02285198385A6
:1005E3001882E0A3FEE0A3F5207808E0A3F608DF75
:1005F300FAE0A3FFE0A3C0E0E0A3C0E0E0A3C0E013
:10060300E0A3C0E0E0A3C0E010AF088582188583B3
:10061300198008858218858319D2AFD083D08202CE
:10062300084AC0E074F21203F0A2AFE433FED2AF83
:10063300E589A2E15003121696758900C2C5EEA2A0
:10064300E092AF7F0102044FC0E074F21203F0A204
:10065300AFE433FED2AFE58BA2E0500312169675DA
:100663008B00C2E880D8C0E0C3E49396087401937A
:100673009618400FE4936670080874019366187027
:10068300007019A3A3C3E49396087401939618A367
:10069300A3400DD0E0D0E0D0E0020589A3A3A3A33B
:1006A300A3A3D0E0227404800474028000CCC0E0D1
:1006B300EDC0E0E518C39CCCAD1950011D10AF0689
:1006C3008C188D1980068C188D19D2AF1207C6D0DD
:1006D300E0FDD0E0FC2274028000CCC0E0EDC0E07D
:1006E300E518C39CCCAD1950011D10AF068C188DB5
:1006F3001980068C188D19D2AF1207A4D0E0FDD053
:10070300E0FC22C0E0C0F088F0E49366700808744F
:10071300019366187000A8F0A3A3700BD0F0D0E08B
:10072300D0E0D0E0020589A3A3D0F0D0E022D083AB
:10073300D082CCC0E0E493A360061208251470FABB
:10074300E493A360061209161470FAD0E0FCE49354
:10075300A3C0E0E493C0E022C0E0C0D0E8C0E0E979
:10076300C0E0A9A8D2AFC2C7E9A2E7E433F8E9A27F
:10077300E792AFD0E0F9D0E0F8D0D0D0E032C0E0DB
:1007830074F21203F0A2AFE433FED2AFC2C0E5D1DC
:10079300A2E45003121702EEA2E092AF7F0102041B
:1007A3004FCAC0E0E493A3C582CCC582C583CDC53F
:1007B30083F0A3C582CCC582C583CDC583DAE5D0DA
:1007C300E0CA22CAC0E0E0A3C582CCC582C583CDFE
:1007D300C583F0A3C582CCC582C583CDC583DAE6C4
:1007E300D0E0CA227009080808226016181818C633
:1007F300C333C608C633C608C633C608C633C6D510
:10080300E0EA22C008C3E096F50808A3E096420890
:1008130008A3E096420808A3E09645087001D3D0E8
:100823000822C0E0E493A3D39C5010E493A3C39C99
:10083300400AD0E0D0E0D0E002074EA3A3A3D0E06B
:1008430022C09FF59FE473D09F22D083D082C09FA4
:10085300E493C0E0740193C0E0740293F59F2274A3
:1008630004800A74038006740280027401C0E0F4F9
:100873000412087DD0E0120AE3222518F58210AF96
:1008830008F518400C15198008F51840021519D2FF
:10089300AF8519832200C0D0251810AF08F5185072
:1008A3000C05198008F51850020519D2AFD0D022D3
:1008B300BB0102E722C082C08389828A83BB000313
:1008C300E08002E493D083D082226016080808C631
:1008D300C313C618C613C618C613C618C613C6D57F
:1008E300E0EA22C3E0C696F608A3E0C696F608A39C
:1008F300E0C696F608A3E0C696F6222518F8E43576
:1009030019F9222518FAE43519FB222518FCE435D8
:1009130019FD22C0E0E493A36C7009D0E0D0E0D0CD
:10092300E002074EA3A3D0E022251810AF08F51864
:10093300400C15198008F51840021519D2AF22E7AB
:100943006670100809E766700A0809E7667004080C
:1009530009E76622C3E09608A3E09608A3E0960899
:10096300A3E096A2D265D03322E066701008A3E01C
:1009730066700A08A3E066700408A3E06622C3E079
:1009830096F008A3E096F008A3E096F008A3E0969B
:10099300F022C3E697F60809E697F60809E697F604
:1009A3000809E697F622C3E4939608740193960820
:1009B30074029396087403939622700422600D18B0
:1009C300C6C333C608C633C6D5E0F41822E647F6D5
:1009D3000809E647F60809E647F60809E647F62256
:1009E300E026F008A3E036F008A3E036F008A3E021
:1009F30036F022E627F60809E637F60809E637F661
:100A03000809E637F622E657F60809E657F6080915
:100A1300E657F60809E657F622E056F608A3E0562D
:100A2300F608A3E056F608A3E056F622E026F608F9
:100A3300A3E036F608A3E036F608A3E036F622E094
:100A430056F008A3E056F008A3E056F008A3E056DA
:100A5300F022E4C396F608E496F608E496F608E472
:100A630096F622600D08C6A2E713C618C613C6D5AC
:100A7300E0F322C6F4C608C6F4C608C6F4C608C620
:100A8300F4C622C3E7960809E7960809E79608091A
:100A9300E79622C3E09608A3E09608A3E09608A38E
:100AA300E0962275D00075813F7518017519030012
:100AB3000204A7E6F008A3E6F008A3E6F008A3E61D
:100AC300F022600C08C6C313C618C613C6D5E0F4DB
:100AD30022E0F608A3E0F608A3E0F608A3E0F62276
:100AE300CAC0E0E6F0A308DAFAD0E0FA22E8F0A3FD
:100AF300E9F0A3EAF0A3EBF022E0F8A3E0F9A3E026
:100B0300FAA3E0FB22E0FAA3E0FBA3E0FCA3E0FDF1
:100B130022E5C754F84401F5C77901222518F58267
:100B2300E43519F58322C2AF75D69F020000221265
:100B3300084DB0A90212084D84AB0212084D63ACF4
:100B43000212084D9CAD0212084D4FB00212084D1F
:100B530062B30212084D71B30212084D0AB40212B5
:100B6300084D51B40212084DD7B40212084D68B7AC
:100B73000212084DC1B80212084D54B90212084DB1
:100B8300DEB90212084D44BA0212084D83BA0212AA
:100B9300084DF9BA0212084D4EBC0212084DF1BCC1
:100BA3000212084D09BD0212084DACBD0212084DD8
:100BB30036C00212084DD7C10212084DF5C1021208
:100BC300084DA9270012084D03280012084D6D286F
:100BD3000012084DF6280012084DB2290012084DE4
:100BE300412A0012084D5A2A0012084D7F2A00128A
:100BF300084DBD2A0012084D0C2B0012084D352B51
:100C03000012084D842B0012084D302C0012084DA1
:100C1300F82C0012084D5D2D0012084D2A2E0012EB
:100C2300084D702E0012084D8C2E0012084DBE2E5A
:100C33000012084D66300012084D3D310012084D78
:100C430069310012084D9D310012084DBE3100126A
:100C5300084DCD310012084DD8310012084D8C32A9
:100C63000012084DFF320012084D71330012084D77
:100C730079330012084D9C340012084DCF34001212
:100C8300084D91350012084D40360012084D883644
:100C93000012084DEA360012084DFB360012084DCB
:100CA30073370012084DFB370012084D5F380012EE
:100CB300084D44390012084D75390012084D883922
:100CC3000012084DFB390012084D433A0012084D3B
:100CD300503A0012084D593A0012084D593C00127F
:100CE300084DA33D0012084DB33D0012084DC23E0E
:100CF3000012084D3B3F0012084D7D3F0012084D86
:100D0300B93F0012084D8D410012084DF243001205
:100D1300084D06440012084D10440012084D1A44B1
:100D23000012084D24440012084D3D440012084DA2
:100D330047440012084D51440012084D5B44001211
:100D4300084D83440012084D8E440012084DD844C8
:100D53000012084DE3440012084D07450012084DE8
:100D63002B450012084D8C450012084DD745001243
:100D7300084DF3450012084D5D460012084DA94683
:100D83000012084DF1460012084D6C470012084D41
:100D930006480012084DCA490012084D384A00128D
:100DA300084D6A4B0012084D904B0012084D004D40
:100DB3000012084DB4500012084DB4520012084DF1
:100DC3008C540012084D25550012084D3757001258
:100DD300084DF9570012084D45580012084DAB58FD
:100DE3000012084DBD580012084D0D5B0012084D4E
:100DF3003A5C0012084D8C5C0012084D315D001204
:100E0300084DEC5E0012084D1D600012084D3B605A
:100E13000012084D90600012084D8E610012084DBB
:100E2300B6610012084D19620012084D1A630012D0
:100E3300084D8D630012084DBB640012084D2665F2
:100E43000012084D16660012084D7C680012084D0A
:100E5300AA680012084DA5690012084D436B0012E1
:100E6300084D936B0012084D4B6C0012084D006D3A
:100E73000012084D646D0012084D1D6E0012084DDE
:100E8300BD6E0012084D216F0012084D6B6F0012EA
:100E9300084DA86F0012084D10710012084D3582DD
:100EA3000112084D6D820112084D46850112084D4D
:100EB3008C850112084DA9860112084D0E87011277
:100EC300084D5F880112084D508B0112084D6F8C3D
:100ED3000112084D44970112084DE3970112084D82
:100EE300D69A0112084DD69B0112084D4C9C011253
:100EF300084D899D0112084DF29F0112084D00A271
:100F03000112084D8DA20112084D61A30112084D73
:100F1300EDA30112084DF7A30112084D20A40112FD
:100F2300084DCDA40112084DB8A50112084D90A695
:100F33000112084DF4A60112084D1DA70112084D18
:100F43004AA70112084D9BA90112084D76AA011266
:100F5300084DBAAA0112084D2BAB0112084DE4ABA0
:100F63000112084D16AC0112084D5DAC0112084D7B
:100F730090AC0112084DF5AC0112084D44AD0112BD
:100F8300084D49AD0112084D9DAD0112084DE7AD65
:100F93000112084DE3AE0112084D48AF0112084D8E
:100FA300AFAF0112084DD4B20112084DA8B301121C
:100FB300084D12B50112084DECB70112084D94B853
:100FC3000112084DBBBA0112084D60BB0112084D56
:100FD3009EBB0112084D77BD0112084D8ABD011257
:100FE300084D93BD0112084D9CBD0112084DB1BDC2
:100FF3000112084DD0BD0112084DAFBF0112084DBB
:1010030002C00112084D0CC00112084D2DC001127F
:10101300084D7CC10112084DC5C10112084DA5C27E
:101023000112084DD0C30112084D86C40112084DA8
:1010330088C50112084D8AC60112084D70C70112F6
:10104300084D87C70112084DC4C70112084DCEC70A
:101053000112084DD9C70112084DF7C70112084DF7
:1010630039C80112084D97C80112084DBCC80112B6
:10107300084DD6C80112084D63C90112084D9CC919
:101083000112084DEACA0112084D3CCB0112084D6A
:1010930056CC0112084D7DCC0112084D19CD011219
:1010A300084D95CD0112084DE1CE0112084DFCCF3C
:1010B3000112084DC2D00112084D6CD10112084D26
:1010C300F1D10112084D59D20112084D0ED301126C
:1010D300084D60D30112084DC6D30112084D8FD4B9
:1010E3000112084DB2D40112084D6AD50112084D00
:1010F3008ED50112084DB0D50112084D11D601123B
:10110300084D5CD80112084D37D90112084DE1D9B9
:101113000112084D22DC0112084D70DC0112084D4A
:10112300B3DC0112084D0BDD0112084D69DD01121C
:10113300084D93DD0112084DB7DD0112084DE8DDBE
:101143000112084D12DE0112084D59DE0112084D3D
:10115300ADDE0112084D09DF0112084D0AE001124C
:10116300084D74E10112084DB2E10112084DDBE1B3
:101173000112084D6CE20112084DB6E20112084D4E
:10118300DAE20112084D2DE30112084D48E3011282
:10119300084D03E40112084D2DE40112084D70E4DB
:1011A3000112084DC6E40112084DD2E70112084DA1
:1011B30005E80112084DC2E80112084D9DE901122C
:1011C300084D2DEA0112084D6EEA0112084D008008
:1011D3000412084D38800412084D59800412084D3A
:1011E3009B800412084DFF800412084D09810412EC
:1011F300084D19810412084D50810412084DF984D9
:101203000412084DC1860412084DB5880412084D16
:1012130053890412084DDA890412084D7BC2021265
:10122300084D24C30212084D03C40212084D1EC503
:101233000212084D3EC50212084D60C60212084D47
:10124300FDC70212084D6AC80212084D40C90212B6
:10125300084D46CA0212084DABCA0212084DE7CA2E
:101263000212084D40CB0212084D79CB0212084DF1
:10127300C2CB0212084D54CC0212084DF1CC02121B
:10128300084DC6CD0212084D93CE0212084D20CF51
:101293000212084D46CF0212084D73CF0212084DB9
:1012A300A4CF0212084D79D00212084D89D0021240
:1012B300084DDCD00212084DE9D00212084DF6D0D9
:1012C3000212084DFFD00212084D63D10212084DDD
:1012D300C1D10212084D0CD20212084D27D20212BC
:1012E300084D4ED20212084D6BD20212084D77D22E
:1012F3000212084D1BD40212084D34D40212084DB9
:10130300B0D40212084DC3D40212084DD3D4021232
:10131300084D79D50212084DE9D60212084DFCD7C3
:101323000212084D9CD80212084DA6D80212084D8D
:1013330014D90212084D25D90212084D64D902129C
:10134300084D92D90212084D5FDA0212084DB6DA3F
:101353000212084DFBDA0212084D51DB0212084D4E
:101363006FDB0212084DBDDB0212084D8BDC02124B
:10137300084DD9DC0212084D1BDD0212084D9EDD1B
:101383000212084DC8DD0212084DFEDD0212084D9F
:101393000DDE0212084D6BDE0212084DE3DE02126F
:1013A300084D24DF0212084D73DF0212084D9EDF41
:1013B3000212084DB8DF0212084DD2DF0212084DA7
:1013C300A7E00212084DB1E00212084DECE0021250
:1013D300084DFCE00212084D4DE10212084D61E197
:1013E3000212084D7FE20212084D94E20212084DE8
:1013F3002EE30212084DADE30212084D50E402122F
:10140300084D5BE40212084DA8E50212084DC4E53D
:101413000212084D1CE60212084D8AE60212084D1C
:10142300D6E60212084DF0E60212084D50E702120A
:10143300084DEEE70212084D39E80212084D9CEA06
:101443000212084D34EB0212084DABEB0212084DA9
:10145300F1ED0212084D09EE0212084D0CEE0212D4
:10146300084D18EE0212084D2CEE0212084D34EE10
:101473000212084D6BEE0212084D5FEF0212084D87
:10148300E9EF0212084D6BF00212084DE0F0021270
:10149300084DB8F10212084DDAF10212084D71F24B
:1014A3000212084D7DF20212084DDAF20212084DC3
:1014B300DDF20212084D4CF30212084D98F40212A9
:1014C300084DABF50212084D36F60212084D49F7E6
:1014D3000212084D13F80212084D44F80212084D87
:1014E3006AF80212084D73F80212084DA2F80212AC
:1014F300084D52F90212084D02FA0212084D75FA0C
:101503000212084D27FB0212084D9AFB0212084DE6
:10151300D9FB0212084D22FC0212084DE1DF03122F
:10152300084D4CE00312084D98E00312084DE8E023
:101533000312084D6CE10312084DB0E30312084D8A
:10154300CEE50312084D4EE90312084D89E9031253
:10155300084DA7E90312084D07EA0312084D2FEAC5
:101563000312084D60EA0312084D8DEA0312084D79
:10157300F6EA0312084DE9D20312084D65D30312AC
:10158300084D91D30312084DC3D30312084D25D53B
:101593000312084D41D50312084D7FD50312084DA0
:1015A3000CD60312084D68D60312084D2ED703122A
:1015B300084DEDD70312084D32D80312084D93D8C6
:1015C3000312084D08D90312084D31D90312084DEF
:1015D30072D90312084D19DB0312084DFDDB031208
:1015E300084DB4DC0312084DA1DD0312084DDBDD09
:1015F3000312084D33DE0312084D55DE0312084D66
:10160300EDDE0312084D94DF0312084D22ED0412A0
:10161300084D86B40412084D89B40412084D64B50C
:101623000412084D82B70412084D91E90412084DC3
:10163300A2E90412084D40EA0412084D6DDC0412BD
:10164300084D7BDC0412084DE5FF0212084DFAEA4F
:101653000412084D0AEB0412084D22EB0412084D44
:101663008AEB0412084D9AE70412084D1EE804128F
:10167300084D84E80412084D77A20212084DDDDFFD
:101683000412084D43E00412084D62E00412084DB1
:10169300AAE00412084D03E10412084DA6DA04126D
:1016A300084DBBDA0412084DF6DA0412084D1CDBB0
:1016B3000412084D8DDB0412084D77C00412084D47
:1016C30085C00412084DFEC00412084DD3C1041294
:1016D300084D92C30412084D67EC0412084D71A71C
:1016E3000212084D52A10412084D12A20412084D11
:1016F30086A20412084D91A30412084D17A50412E3
:10170300084D7CA50412084DD4A50412084DDDA58F
:101713000412084DECA50412084D02A60412084D4C
:1017230015A60412084D1EA60412084D5D9B041253
:10173300084D899B0412084D2F9E0412084D869E66
:101743000412084DC29E0412084DD69E0412084D81
:10175300EF9E0412084DE09F0412084DBCA0041232
:10176300084DD0A00412084D42E10412084D66E171
:101773000412084D7FE10412084DBDE10412084D27
:10178300F3E10412084D26E20412084D92E204121A
:10179300084D95E20412084D9FE20412084DACE295
:1017A3000412084D74CC0412084D97CC0412084D52
:1017B300E2CC0412084D00CD0412084D1BCD0412D7
:1017C300084D81CD0412084D8DCD0412084DEACD8C
:1017D3000412084D0ECE0412084DD4CE0412084D47
:1017E300E1CE0412084DF2CE0412084D26EC041289
:1017F300084D3EEC0412084D64EC0412084DE3AFAF
:101803000412084D79B10412084D87B10412084D32
:101813009BB10412084DB8B10412084DCDB10412A6
:10182300084DE0B10412084D62B20412084DC7B26C
:101833000412084D5DB30412084D36B40412084D6A
:1018430046B40412084D55B40412084D61EA04125B
:10185300084D85EA0412084DADEA0412084DD5EA95
:101863000412084DD7C60412084D43C70412084D8D
:1018730062C70412084DD7C70412084DA1C9041248
:10188300084DBAC90412084DD1C90412084DDAC96A
:101893000412084DF8C90412084D02CA0412084D77
:1018A3000CCA0412084D1FCA0412084DACCA041214
:1018B300084D1BCB0412084D49CB0412084D9ACB9B
:1018C3000412084DE6CB0412084D01CC0412084D56
:1018D3000BCC0412084D1CCC0412084D5FCC04122F
:1018E300084D8B7F0012084D868A0412084DB28A78
:1018F3000412084DD58A0412084DE88A0412084DD3
:10190300038B0412084D638B0412084D918B041250
:10191300084D958F0412084DD2900412084D04917E
:101923000412084D6B910412084DEB920412084DFA
:1019330013930412084D28930412084D389304128C
:10194300084D78930412084DBA930412084DCA93B4
:101953000412084DB6E20412084DC6E20412084D03
:10196300EAE20412084D13E30412084D3DE30412A6
:10197300084D61E30412084D78E30412084DA6E311
:101983000412084DC9E30412084DE2EB0412084D9A
:1019930057FC0212084D67FC0212084D83FD021228
:1019A300084DB5FD0212084DDBFD0212084D03FE82
:1019B3000212084D15FE0212084D51FE0212084D87
:1019C300B7FE0212084DF3FE0212084D38FF021251
:1019D300084D65FF0212084D91FF0212084D45E5BF
:1019E3000412084D63E50412084DC5E50412084DC1
:1019F30072E60412084D9DE80412084D1BDE041222
:101A0300084D6CDF0412084D41EB0312084DF7EB50
:101A13000312084D1CEC0312084D3CEC0312084D55
:101A230050EC0312084DACEC0312084DD0EC03123A
:101A3300084D4BEE0312084D73EF0312084D4DF0A2
:101A43000312084DAAF00312084DE0F00312084DEB
:101A530062F10312084DBBF10312084DDCF10312CE
:101A6300084D5EF20312084D93F20312084DF6F28D
:101A73000312084DB4F40312084D80F50312084D08
:101A8300B8F50312084D0CF60312084DDBD8041207
:101A9300084DFCD80412084D2FDA0412084D59DA08
:101AA3000412084D20CF0412084D94CF0412084DA0
:101AB3009FCF0412084DC0CF0412084D6BC403120C
:101AC300084D6EC40312084D40C50312084D7CC572
:101AD3000312084DBCC50312084DEEC50312084D91
:101AE3001CC60312084D59C60312084D87C60312BC
:101AF300084D85C70312084DCCC70312084D0EC805
:101B03000312084D87C80312084D24C90312084D58
:101B130047C90312084DB1C90312084D1FCB031265
:101B2300084DD7CB0312084DC4CC0312084DB1CDD9
:101B33000312084D6ACE0312084D9FCE0312084DBF
:101B43000BCF0312084DA6CF0312084DD4CF0312B7
:101B5300084D7CD10312084DFAD10312084D3AD235
:101B63000312084DB7D60412084DDAD60412084DF5
:101B7300CBD70412084DABD80412084D01E404126C
:101B8300084D37E40412084D53E40412084D95E45C
:101B93000412084DA5E40412084D38E50412084D5B
:101BA30042E50412084D20F60312084D2AF60312EB
:101BB300084D71F60312084DDAF60312084DFBF6D1
:101BC3000312084D14F70312084DC6F70312084D0C
:101BD30030FA0312084D39FA0312084D8AFA031238
:101BE300084DC0FA0312084DD7FA0312084D44FBFF
:101BF3000312084DD4FB0312084D0AFC0312084DCF
:101C030053FC0312084DB4FC0312084DEEFC0312FF
:101C1300084D56FD0312084DA9FD0312084DECFDB6
:101C23000312084D29FE0312084D3BFE0312084D13
:101C33004DFE0312084D6CFE0312084D75FE031290
:101C4300084D3AFF0312084D86FF0312084DC4FFE7
:101C53000312084D31A60412084D77A70412084D4C
:101C6300A0A70412084DB1A70412084DC9A9041274
:101C7300084DE9A90412084DAEFF0112084D73D4B3
:101C83000412084DA9D40412084DF8D40412084DC7
:101C930054D60412084D4FB00312084D8DB10312F0
:101CA300084DC9B10312084D98B30312084DC2B3CE
:101CB3000312084D59B60312084D99B60312084D85
:101CC3002FB80312084DC4B80312084D22B90312EA
:101CD300084DA8B90312084DE0B90312084D22BA02
:101CE3000312084D93BB0312084D17BD0312084D91
:101CF30040BF0312084D6EBF0312084D9ABF031273
:101D0300084DA3BF0312084DF9BF0312084D89C044
:101D13000312084D8CC30312084D0EC40312084D61
:101D230002ED0412084D18ED0412084DA7B8041271
:101D3300084DC0B80412084D65B90412084DA5B981
:101D43000412084DBEB90412084DF1B90412084D2E
:101D53003EBA0412084D72BA0412084DB4BA041202
:101D6300084D9DBC0412084D87E60412084DF9E6A0
:101D73000412084D37E70412084D78E70412084DA2
:101D830000800312084D5B800312084DE8800312A4
:101D9300084DF0810312084DCA820312084D718366
:101DA3000312084DBD830312084D16840312084D18
:101DB3006B840312084DDA840312084DF284031274
:101DC300084D8B870312084D0E880312084D458872
:101DD3000312084D8E880312084D7A8A0312084DA8
:101DE300F58A0312084DC88B0312084D018C0312A8
:101DF300084D208C0312084D6B8C0312084D818C07
:101E03000312084D8E8C0312084DC78C0312084D24
:101E1300D98C0312084DA68D0312084DB18D031200
:101E2300084D018E0312084D548E0312084D938EF4
:101E33000312084DB18F0312084D09920312084D86
:101E43003A920312084D46930312084D6A93031204
:101E5300084DDF930312084DA9940312084DEB9428
:101E63000312084D55950312084D09960312084DA8
:101E730033960312084D3D960312084D47960312FD
:101E8300084D4A960312084DC2960312084DFB965D
:101E93000312084D0E970312084D3B970312084D8A
:101EA30076970312084D79970312084DA8970312EA
:101EB300084DC2970312084DDD970312084D0C9885
:101EC3000312084D2C980312084D69980312084D0C
:101ED300A4980312084DAD990312084D94EB041214
:101EE300084DACEB0412084DF8FF0212084DFA93AB
:101EF3000412084D49940412084D07960412084D24
:101F0300DB970412084D19980412084D2499041202
:101F1300084D2E9A0412084D509A0412084DAC9A9B
:101F23000412084D2D9B0412084D0C9B0312084DFF
:101F33002F9B0312084D299C0312084D729C031218
:101F4300084DCD9C0312084D2B9D0312084D7C9D1B
:101F53000312084DE19D0312084D689E0312084DBC
:101F6300E09E0312084D259F0312084D94A303120C
:101F7300084DC4A50312084DFDA50312084D3CA648
:101F83000312084D9EA70312084DA1A70312084D83
:101F930068A80312084DB3A90312084DB9AB031285
:101FA300084D65AC0312084D74AD0312084DE4AD42
:101FB3000312084D28AF0312084D8BAF0312084DCF
:101FC3002FEB0112084DCAEB0112084D3DEC011233
:101FD300084D4DEC0112084DD5EC0112084D31EDC1
:101FE3000112084D6CEE0112084D90EE0112084DDE
:101FF30007EF0112084D58EF0112084DB6EF011219
:10200300084D11F00112084DBEF20112084DB5F34F
:102013000112084D2BF40112084D02F60112084D6E
:10202300A5F60112084D5EF70112084DC3F7011220
:10203300084D32F80112084D55F90112084D1BFBEA
:102043000112084D3BFC0112084DC8FC0112084D5A
:1020530038FD0112084D4AFE0112084D837100122A
:10206300084DEC710012084D34720012084D87724E
:102073000012084DED720012084D4F730012084D07
:10208300C4730012084DFB740012084D237500122F
:10209300084D0F760012084D20760012084D387651
:1020A3000012084D2B770012084D5A770012084D85
:1020B30018780012084D3C780012084D537800122E
:1020C300084D6D780012084D91780012084D6B7918
:1020D3000012084DC5790012084DAC7A0012084D64
:1020E300127B0012084D4B7B0012084D507B0012EF
:1020F300084D9B7B0012084D9D7C0012084D887D86
:102103000012084D2A7E0012084D977E0012084DDA
:10211300AC7E0012084D4D7F0012084DF7C3041228
:10212300084DAAC40412084D69C50412084DD1C54F
:102133000412084D45C60412084DAABC0412084DEA
:10214300C8BC0412084D0CBD0412084D32BD041264
:10215300084D54BD0412084D6CBD0412084D84BDD6
:102163000412084D9CBD0412084D46BE0412084DCE
:1021730088BE0412084D92BE0412084DA7BF041274
:10218300084DB0BF0412084DB9BF0412084DC2BFB9
:102193000412084DCCBF0412084D3DAB0412084D88
:1021A30069AF0412084D77AF0412084D7CAF0412D7
:1021B300084DF9D20412084DD6EC0412084D9FECD9
:1021C3000412084DD67F0012084D40ED0412084D4D
:1021D30063A20212084D4FA20212084D8CA10212F3
:1021E300084DD9A00212084D889E0212084D5D9E2B
:1021F3000212084DFE9D0212084D6F9C0212084DFB
:10220300FD9B0212084DC09B0212084D559B021202
:10221300084D1A9B0212084DB0990212084D3699C7
:102223000212084D73980212084D69970212084D65
:1022330020970212084DFA960212084D36960212A2
:10224300084D80940212084D20940212084DF19318
:102253000212084DEE930212084DD9930212084D53
:1022630010A70212084DB7A60212084D3EA602128D
:10227300084D14A60212084DD6A50212084D81A5D9
:102283000212084D96930212084D7D930212084DD7
:1022930085920212084D44920212084D7CA4021248
:1022A300084D11920212084DA5910212084D729128
:1022B3000212084D17910212084DE3A20212084DB3
:1022C300E6900212084DE4A00412084DAF8D0212ED
:1022D300084DC18C0212084D7B8B0212084D278BCF
:1022E3000212084D1B8B0212084D828A0212084DFE
:1022F30050890212084DAB860212084D4E84021219
:10230300084D02840212084DE7820212084D7C82B6
:102313000212084DA4810212084D6B800212084D6F
:10232300B3A20212084D32800212084D008002123D
:10233300084DBBDF0400000080FBE4730001363668
:10234300010100010201000103010001040106066D
:1023530005020000070100340801000F0904010110
:102363000D0100FF0E08000017020000190100FF15
:102373001A0100011B0100FE1C0100081D020000E0
:102383001F01000120010001210200002301000FB1
:10239300240200002601000127010008280200FF93
:1023A3002A0100072B0102402C0100002D0100012E
:1023B3002E0100012F0100FF30010B1C310800002A
:1023C3003A0100083B01000F3C0100013D0100FF01
:1023D3003E04000042040000460400004A040000DA
:1023E3004E04000052040000560400005A0400008A
:1023F3005E20FFFF36000100060000000F00000012
:102403000000000000000000000003FFFF000004C4
:1024130003FFFF0000FFFF0FF4010005C4040320C6
:10242300000100000B000000000000000003010F8A
:102433000000000000000000000000000000000099
:102443000000000000000000000000000000000089
:102453000000000000000000000000000000000079
:102463000000000000000000000000000000000069
:1024730000000103710301030103010301030103CD
:1024830022030203010310030003000300030003FC
:1024930000030003000342030003240306030003B5
:1024A3000003040312032503230325032303040367
:1024B3000403000300030003440300030003230396
:1024C30000036503210035038103000305030003B3
:1024D3000003000300032503230303047104020420
:1024E30060041104700402040204010402041004D1
:1024F3006104000414046304730472046204430457
:102503000004130406040004000404041204000479
:1025130000040004000451046400000400040004E7
:1025230044040004000400040004650400043504AA
:10253300810464000504000483040004030271029F
:1025430030016002110270020102020202028002E3
:10255300100261023A0041006302730272026202D6
:1025630043020002130238000002000204021202B6
:1025730000020002000200020402040237003700D6
:102583003C0244020002390000020002650200021C
:102593003502810200020502820283020002030067
:1025A30071003001600011007000310220035004FB
:1025B30080001000610000001400630073007200CB
:1025C3006200430000001300060000000000040046
:1025D30012000000000000000000040004003700A7
:1025E30037003C02440000000000000000006500CA
:1025F300000035008100000005000000830000009A
:102603000101710101010101110101013101010107
:1026130001018001100161013B001400630173019A
:102623007201620143010001130106013D013500FE
:102633000401120100010001000100010401040171
:10264300330133013C014401320136000001000132
:10265300650100013500810100010501820183014B
:102663000001000002201300961F01000220020057
:10267300481F03004E1F0400541F05005A1F060085
:10268300661F11008A1F1400901F1500781F1F007A
:102693007E1FFFFF000001DA0E06040F08FE0E0B7B
:1026A3001C0F10500E02E00E05F20E07E60E0CC2D0
:1026B3000E0DCE0E648E0CFF000007ECFDFDFDEC4D
:1026C300DCDCCCBCACAC9C9C8C7C7C6C6C5C5C5CC7
:1026D3004C4C3C3C2C2C1C1C03EAF5E5D5D5C5B56C
:1026E300A595958585757565655555454535352597
:1026F3002515150500160F00000B150B020002220D
:102703000F3300000E5A6967426565416C6C69615D
:102713006E6365303901030507090B0D0F000204D1
:1027230006080A0C0D303017181921301B1D1F30F5
:10273300303016181920231A1C1E3000393D3F373C
:102743003C3C362C442D00034A49434E181A2505B8
:102753000200011916181616182303000C0E020B9B
:10276300040B0A0708000F02040201010101090218
:10277300000000000000E803000000BE040A3C0063
:10278300000000003C007F00E8030E000C0A030574
:10279300080910040008FF1E1E0C05280903040481
:1027A30000081501030CC082C0837900EA1229AE28
:1027B3003BF583C082C083900342126EB3D083D0B3
:1027C30082C3E09CA3E09D500CEA240B1227FB126A
:1027D30027DB600109023F76EA75F00BA4FAA8F043
:1027E30075F00BEBA428FB900344E02AF8A3E03B2D
:1027F3008882F583E0540F22F582E43B1250AC2229
:1028030074F71203848908124745A3E0F9E875F0C9
:102813000BA4F8ACF075F00BE9A42C122A29E8FEFE
:10282300E9FF7401650860067402650870228A82F4
:102833008B83122D55740265087021EA2403FA5024
:10284300010B120BE6E970148E828F83E4F0800C87
:10285300EA2403FCE43B122D4C120BE08E828F839F
:10286300E0D2E7F0121E7C02440174F412038412D6
:102873002E0F79008E828F83E06075890A890B8021
:1028830064E50A75F00BA4FAA8F075F00BE50B12DA
:1028930027E77049E50A75F00BA4F8AAF075F00B69
:1028A300E50B122A0A8E828F83E0850882850983CD
:1028B300123F2A122CCCEE2403FCE43F1229A1126E
:1028C3000BE0124580125ADD1237F2D2E7F0121EE6
:1028D3007C7901900342E0F50AA3E0F50B050AE5D4
:1028E3000A7002050B122C28E50A9AE50B9B40910E
:1028F300024A3374F5120384EAFEEBFF750A01748E
:102903000B120B1F1233F9EC4D6015EC1229AE3D7F
:10291300122E1D7901120BC8E50845096075802345
:10292300E508450960441229AC3509122E1D122908
:10293300A2120BE6E96401701BEEFAEFFB120BCE59
:10294300E9F50A850882850983122CC47902AA084D
:10295300AB098011122D4D120BE6E9640170347935
:1029630003EEFAEFFB120BC880298E828F83A3E05C
:1029730064FE7003A3E0F4700B122D4D120BE6E915
:102983006401700CEEFAEFFB120BCEE9F50A80033B
:10299300750A00023285E50A2403FCE4350BFDE5E4
:1029A300082403FAE43509FB22E508125EE22274E7
:1029B300F712038490034212469DEA4B602FEA7597
:1029C300F00BA4FAA8F075F00BEBA428FBEAFEEBDE
:1029D300FF121C8A90034412469D900344125097A1
:1029E3006012EEFCEFFD7900121BB88007900344E0
:1029F300E4F0A3F0024401F9023198E875F00BA466
:102A0300F8AAF075F00BE9A42AF9900344E028F53D
:102A130008A3E039F50922F9E875F00BA4F8AAF048
:102A230075F00BE9A42AF9900344E028F8A3E039F0
:102A3300F9229003421243E8C3EE98EF9922C08231
:102A4300C083EC4D6005121D7A80097C087D0079F6
:102A530000121BB8023F7674F61203847900EA4B26
:102A630060177800EA28F582E41257F460047901CC
:102A7300780808E8C3940840EB02319874F712030E
:102A83008474F312092CECFEEDFF851882851983FB
:102A9300E4F004120B1FEAF0A3EB1243DA120C0466
:102AA3007403120B1FAC82AD83EEFAEFFB120BE043
:102AB300EEFAEFFB120BE60243FC74F71203847485
:102AC300F312092CECFEEDFF851882851983E4F0DF
:102AD300EAFCEBFD7403120B1FAA82AB83120BE01B
:102AE300AA18AB19120C0A7401120B1F123F378E6E
:102AF300828F831243CB74FE68700374FF69600492
:102B03007901800279000243FC74F7120384EAFE20
:102B1300EBFF120BC2E9F508740165087011122B63
:102B230075F4FA88828983E05A4480F0121E7C028D
:102B3300376774F7120384EAFEEBFF7508008E8291
:102B43008F83E0602A120BC2E9F5087401650870EF
:102B53001E122B75FA88828983E05A70128E828F37
:102B630083E04480FA88828983E04AF0121E7C0263
:102B7300376712458412393F122A1A8E828F83E0F7
:102B83002274F41203848A088B097C007D00EA1204
:102B930029A4120BE0E508122CE67900850882854A
:102BA3000983A3E064FE7003A3E0F460757E007FF5
:102BB300008066EEFAEFFB1227DB6058EEFAEFFBBC
:102BC300EA75F00BA4FAA8F075F00BEBA428FB90C0
:102BD3000344E02AF50AA3E03BF50B850882850947
:102BE30083A31257CF850A82850B83A3E06A700300
:102BF300A3E06B701FE50A2403FAE4350BFB120B09
:102C0300E6E964017006122999120BE0122CDB79B4
:102C130001126CE70EEE70010F122C28EE9AEF9B57
:102C23004091024A339003421250AEC32274F3120E
:102C330003848A088B098A828B83122CC4EA122CA0
:102C4300E6750C00EA1229A4120BE6E96401706A26
:102C53007E007F00805FEEF8EFF9E875F00BA4F8D3
:102C6300AAF075F00BE9A42AF9900344126D59E018
:102C7300540F603CEEF8EFF9E875F00BA4F8AAF0F6
:102C830075F00BE9A42AF9900344E028F50AA3E0C0
:102C930039F50B122999121D74E964017012850A22
:102CA30082850B83122CCC122CDB750C01126CE782
:102CB3000EEE70010F122A35409CA90C7F05020508
:102CC300DFA374FEF0A304F022A31243E885088275
:102CD300850983A3123C5322E508122CF0EEF0A3DE
:102CE300EFF022122CF074FEF0A304F022125EE641
:102CF3003509F5832274F5120384EAFEEBFF8E8215
:102D03008F83122CC47C007D00122D4D120BE0EE3C
:102D1300FAEFFB120BC2E9F50A7401650A70271278
:102D230043E11229FE850882F583122D551229A24B
:102D3300120BE6E96401700EE5082403FCE435098F
:102D4300122D4C120BE0023285FDEE2403FAE43F10
:102D5300FB22A31257D9123C532274F21203847438
:102D6300E612092C122E0F750C0175080075090067
:102D7300750A00750B00851882851983E4F0EE242B
:102D830003FCE43FFD7403120B1FAA82AB83120BF7
:102D9300E0AA18AB19120C0AE96401701F740B1234
:102DA3000B1F122E1F7401120B1F1257D37003A394
:102DB300E069604AA818A91988088909740D120BDB
:102DC3001F123F29A3123F37740E120B1F1243CB5E
:102DD300740D120906120C04E964017009740D12D2
:102DE30008FE880A890B780A12086AAC08AD09EE56
:102DF300FAEFFB120BD47402120898E9F50CEEFA01
:102E0300EFFB120BFEA90C741A02572FEAFEEBFF1D
:102E130012458474FEF0A304F022F58312393FF9BE
:102E2300124584123C5322C082C08378007900800B
:102E33000508E8700109122C28E89AE99B5029E853
:102E4300FAE9FBEA75F00BA4FAACF075F00BEBA40E
:102E53002CFB900344E02AFCA3E03B8C82F583E047
:102E6300540F70CD790080027901023F76C082C091
:102E7300839027A5E49375F016A4FCADF079FF7A4F
:102E8300907B08121BB8023F7674F6120384EAF8AB
:102E93007508007D008012ED1257E6C3994009E0E2
:102EA300FAE8C39A400205080D9027A5E493FAEDCA
:102EB300C39A40E3AA087B0002319874F01203849A
:102EC30074F312092C8A0C8B0D8C088D09890AEC7A
:102ED30045096016AA08AB09120C528A0E8B0FAE75
:102EE3000EAF0FEE4F6003022FB17B0080010B1278
:102EF3005AD3500F12305970F5749028FE74083964
:102F0300FF80047E007F00EE4F70030230059027A0
:102F13008512302C60217403650A60067404650A07
:102F230070157A047903120C289027A5E493FC907A
:102F33002785123032502990278312302C60287451
:102F430001650A60067402650A701C7A027901122F
:102F53000C289027A5E493FC902783123032400776
:102F63007A007B000230298518828519837401F069
:102F7300120B1FE50CF0A3E50DF0AC08AD097403CB
:102F8300120B1FAA82AB83120BE0AA18AB19120C07
:102F930016740B120B1F123C4C8E828F83A3A3A3B8
:102FA300A3A3A3E4126EAFAA0CAB0D1211327800E7
:102FB300E50A6007C39405500278048E828F83E587
:102FC3000CF0A3E50D126493E50AF0E88E828F837B
:102FD300A3A3A3A3A3125AE45001097A027B00120C
:102FE300023412343FA312570FA3123483E50A604D
:102FF3000DC39403500812340E12304A8003123466
:1030030025F07A047900120C288A089027A5E49306
:10301300FAC3E5089AEB94004005900FBBE4F01265
:10302300100CEEFAEFFB0233E3123042E8492212AE
:103033003042ECC398F8E499F9C3EA98EB9922E497
:1030430093F8740193F922F9EE2414F582E43FF521
:1030530083E8F0A3E922EB75F016A4F8A9F0123483
:1030630078F42274F212038474F312092C8A088B05
:1030730009ECFEEDFF750A00EEFAEFFB120C528A23
:103083000C8B0DA80CA90DE849700302312A888224
:103093008983E065087004A3E06509700302312A9F
:1030A30088828983A3A3A3A3E0C39405507988826C
:1030B3008983126313124801E0603488828983A3F1
:1030C300A3A3A3E0C394035026902781E493FA7447
:1030D3000193FB123679902787E493FA740193FBEB
:1030E300E82414F582E439F583EAF0A3EB800DE8D4
:1030F3002412123131F0E82414123131F085188290
:103103008519837401F0120B1F126313F0EEFCEFA9
:10311300FD7403120B1FAA82AB83120BE0AA18AB38
:1031230019120C16750A01A90A740D02572FF5829C
:10313300E439F58374FEF0A3042274F612038412B7
:103143000C4C8A088B09A808A909E84960148882ED
:103153008983A3A3A3A3E06009C394055004790161
:1031630080027900802F74F6120384120C4C8A08B3
:103173008B09A808A909E849601488828983A3A355
:10318300A3A3E06009C3940350047901800279008A
:1031930080031208987F020205DF74F6120384127B
:1031A3000C4C8A828B83E5824583600BA3A3A3A384
:1031B300E0700479018002790080DAC082C083EA7A
:1031C300FCEBFD7A007B00023F73C082C0837C006E
:1031D3007D00023F7374F512038474F312092CEA21
:1031E300FEEBFF8C088D09C3EC94F8ED94FF4004CB
:1031F300EE4F606A750A00801974FF6508700474E5
:10320300FF6509600B1266107004A3E06509603B5B
:10321300050A9027A5E493F8E50AC3985040E50A08
:1032230012305A60EBEE4F60D012326C120B1F1249
:1032330043D6120C10E960D87403120B1FAC82AD95
:1032430083EEFAEFFB121D74E960C5E50A75F0160B
:10325300A4F8A9F0749028FA740839FB80047A0062
:103263007B00740D120898801B851882851983745E
:1032730001F0749228F582740839F5831243E874D7
:103283000B22A90A7F030205DF74F412038474F38B
:1032930012092C750800120C528A0A8B0BAE0AAF66
:1032A3000BEE4F601F1232EF12327F120B1F1243CD
:1032B300D6120BF87C167D0079FFEEFAEFFB121B9A
:1032C300B87508017A047900120C288A0A9027A598
:1032D300E493FAC3E50A9AEB94005009900FBB7488
:1032E30001F012100CA908740D024A30851882856A
:1032F30019837401F08E828F83A3A32274F71203C0
:1033030084E9FC74FE6A700374FF6B7D00700380B4
:103313002C0D1233615026ED12305A60F41270F402
:103323006A7003A3E06B70E98012ED75F016A4F8E0
:10333300A9F01270E76018E0640360130D123361A3
:103343005015EC60E512346C60F2C3940550ED1235
:1033530068541257CC80047AFE7BFF024401902705
:10336300A5E493F8EDC39822120C64023F76C08261
:10337300C083790180F274F01203848A0A8B0B7A7A
:10338300047901120C288A0C8B0DEA450D6040EA82
:103393002AFAEB33FB121C8A8A088B09AE08AF09A1
:1033A300EE4F60267AFE7BFF120C6A74FE6A70038E
:1033B30074FF6B601E85088285098312469DE508AC
:1033C3002402F50850E2050980DE750C0080047EB6
:1033D300007F00850A82850B83E50C1245D18005A9
:1033E300740D1208987F080205DFE493F8ECC39884
:1033F30022126EB7EC22E0F508A3E0F509221208C9
:10340300987F0C0205DF7F070205DF9027811230CA
:1034130042EE12684B123C53902787E493F87401F1
:103423009322EE2412123433F0EE24141234332296
:10343300F582E43FF58374FEF0A30422E88E828FC5
:1034430083A3A3A3A3A3A3A3A31234647401123479
:1034530064A374AAF0EE2410F582E43FF583E4F04C
:10346300221264B6A3A3A3A322ED75F016A4F8A9B0
:10347300F012347822749428F5827408126FA32210
:10348300A3F0124584E4F0EE240CF582E43FF583C7
:10349300E4F0A3F0A3F0A3F022C082C0837D0080F8
:1034A30009EA24FF1AEB34FFFB0D123361501612A5
:1034B300346CC3940550F2EA4B70E6749028FA74A6
:1034C3000839FB80047A007B00023F7674F712030D
:1034D3008474F312092C7E00023567EF75F017A48C
:1034E300F8A9F01270CA1258B575F016A4FAABF029
:1034F30074902AF5827408125B077003A3E0696075
:1035030040EF75F017A4F8AAF0EAF91270CA39F57A
:1035130083123F377401120B1FE0687003A3E06945
:10352300601FEF75F017A4F8EAF9746028FC740AB9
:1035330039FD7403120B1FAA82AB83121D74E96059
:1035430013EF75F017A4F8A9F0745E28FA740A391A
:10355300FB12113E0F902795E493F8EFC3985003A5
:103563000234DE0E9027A5126C39501FEE1270ED57
:10357300F47003A3E0F460EB12326C120B1F1243DE
:10358300D6120C10E960DC7F0080CA0243FC74F79A
:1035930012038474F312092C9004151250977003CC
:1035A30002363D750800802BE50875F016A4F8EA8D
:1035B300F974A428F5827408126F9F64FE7003A344
:1035C300E0F4600D74A228F582740839F58312576C
:1035D3002505089027A51256EE505FE50875F016ED
:1035E300A4F8AAF0EAF912347460E6C3940350E134
:1035F30074A228F582740812509470ACE50875F033
:1036030016A4F8EAF9749028F8740839F9E8FEE981
:10361300FF1236DB1236D112233D1232EF12327F04
:10362300120B1F1243D6120C10E960A57403120B80
:103633001FAA82AB83120C5E80970243FC74F612BE
:103643000384120C4C8A088B09A808A909E849606D
:103653002088828983A3A3A3A3E06011C3940350AA
:103663000CE82414F582E41257CC123679790180E0
:10367300027900023198E82412F582E439F583EAED
:10368300F0A3EBF02274F7120384EAFEEBFF90043D
:103693000F125097603090041512509760289004D1
:1036A30019125097602012699512233DE970171281
:1036B30036CC12233DE96401700C8E828F83A3A361
:1036C30012698212233D0244011236DBA3A3125076
:1036D300AE90041512698C22902787E493FC740141
:1036E30093FD8E828F8322C082C08390034F74EC3C
:1036F300F0A3740EF0023F7674F7120384EAFEEB34
:10370300FF900385E06408601CE0640460178E8208
:103713008F83E0540364017041125487F812376CAD
:10372300E0640670358E828F83A3A3E064FE70038A
:10373300A3E0F460258E828F83A3A3125EC8700377
:10374300A3E0697008EE2415125EBD6005120FA098
:103753008003120FA6E9F50880037508C2EEFAEF9D
:10376300FB121C90A908024401A3E0F5838882227E
:1037730074F41203848A088B0912393BFAE82AFA93
:10378300E43400FB121C8A8A0A8B0BAE0AAF0BEEE1
:103793004F6055850882850983E0FC7D007900121E
:1037A3001BB88E828F83A3122CC4120FDC8E828FE0
:1037B30083A3A3A3A3EAF0A3EB1237F2F8EE28F84E
:1037C300E43F122E22850882850983A3E0C0E0121C
:1037D3005AC9D0E0F0120FEE125ABFE9123C2FE0A3
:1037E300C0E0123C25D0E0F0EEFAEFFB024A33F0E2
:1037F300850882850983E02274F412038474E81235
:10380300092C8A088B098C0A8D0BE9FE900385E04D
:1038130064046005E06408700479C2803CA37808FE
:10382300120AB6EE90038C123969121BB8851882FE
:103833008519837808120AB67405120B1FEEF0740B
:1038430004120B1F7401F07407120B1FE4F09003B2
:103853008574021243DA122164024A2E74F41203AD
:103863008474E812092CEAFEEBFF9003461250978A
:1038730060030239367A077B00121C8A90034612D2
:10388300469D90034612509770030239328E828F01
:1038930083120AFC900346E0FCA3E0F5838C8212BA
:1038A3000AF0EE2404F50AE43FF50B850A82F5835A
:1038B300E0C0E090034612506BA3A3A3D0E0F0EE68
:1038C3002405F508E43FF509850882F583E0C0E0A7
:1038D300900346125079D0E01243D0C0E0900346E3
:1038E30012393FC82406F582E438F583D0E0123953
:1038F30069121BB88E828F83120AFC851882851980
:1039030083120AF0850A82850B83E0C0E0740512F6
:103913000B1FD0E01237F2C0E07404120B1FD0E08B
:10392300F07407120B1FE41243DA12216480067944
:103933001080027901024A2E8A828B83E0F8A3E089
:1039430022C082C0839003461250976010900346B2
:103953001257CF121C90900346E4F0A3F0120F16F7
:103963001210DE023F76F07C187D007900AA18ABB6
:103973001922C082C08390034AE07003121F84128D
:103983000CBE023F7674F012038490034AE0900F5A
:10399300BA700FE060057900121E46900FBAE4F08A
:1039A300804AE06401600890034AE0F9121E4690E1
:1039B3000FBA7401F090034AE0F46030E0F50CE4D0
:1039C300F50DF50EF50FF09081CC7808120AD47836
:1039D3000C7908120295780C1208627A807B0090A9
:1039E30003D0E0F9121D4474041208987ABA7B0FCD
:1039F300794112214C0233E874F412038474E812FF
:103A0300092C8A088B098C0A8D0BE9FE90038574B7
:103A130001123969121BB885188285198378081237
:103A23000AB67405120B1FEEF07404120B1F740315
:103A3300F07407120B1FE41243DA122164024A2EB8
:103A430074F71203847C01120CD602440174F7123A
:103A530003847C0080F174F012038474FC12092C3B
:103A6300E9851882851983F0EAFEEBFF8C0A126E52
:103A7300B0120F0A8A088B09EA4509700579CA0250
:103A83003C208A828B83A3A3A3A3A3A3A3E064FE06
:103A93007003A3E0F4700579C3023C20120FDC8AA3
:103AA3000C8B0DA80CA90D850882850983A3A3A3FC
:103AB300A3A3A3A3E0687003A3E069700579C2021E
:103AC3003C20900383123F37850882850983E06891
:103AD3007003A3E0696012850882850983123D9C07
:103AE300AA08AB09795012214C9003831257CF12C5
:103AF3001144850882850983A3A3A3A3A3A3A3A336
:103B0300A3A3E004900396123D88121D7A74021257
:103B13000B1F7402F0141209061210428A0C8B0D4B
:103B2300AE0CAF0DEE4F7003023C161249B774068C
:103B3300F0A3A882A983900370125BF51254641258
:103B43000FD6124694EE2413125467125AB57440DA
:103B5300F0A3E4123C2FA3A3A3A3A3123C4C123C57
:103B630025E50A1245D1120C9AE9F50B6003023CD4
:103B7300199003857409F0E5082407FEE43509FF6D
:103B8300EEFAEFFB794B12214C8E828F83123D921A
:103B9300900378E0F8851882851983E068600CE06B
:103BA3009003781243DA79E112214C901021123FED
:103BB30037901023E0687003A3E0696028900348FE
:103BC3001243CB9010231257CF121006123C3978B0
:103BD3000C1208627A017B009003D0E0F9121D44B5
:103BE30074041208987A007B049003D0E0F9121D44
:103BF30050123C397402780C1207E7780C120862F1
:103C03007A007B049003D0E0F9121D447404120877
:103C1300988003750B10900E9BE4F0A90B740402BB
:103C230033E5EE2411F582E43FF58322F085088223
:103C3300850983A3A322901023E0F508A3E0850858
:103C43000CF50DE4F50EF50F22125AFF123C532228
:103C5300E8F0A3E9F02274F612038474E212092C4B
:103C6300851882851983ECF0A3EDF0EAFEEBFF895A
:103C730008900385E064046005E06408700579C278
:103C8300023D837429120B1FE064FE7003A3E0F46A
:103C9300700579C3023D837C197D00790074051298
:103CA3000906121BB890038574031243DA79501284
:103CB300214C7429120906794B12214C85188285EF
:103CC3001983123D9CE508900378F07429120B1FA9
:103CD300123D927428120B1FE0F509900370123DF8
:103CE30088121D7A74CE55094480C0E0741D120BEE
:103CF3001FD0E0F0742B120B1FE004900396F074B6
:103D03001A120B1F7402F07429120B1F123F37741F
:103D130012120B1FE8F0A3E9123F30741B120B1FA2
:103D23001243CB7410120B1FE508F0740D120B1F16
:103D3300E4F090038B740FF07A8B7B037954122198
:103D43004C90038A740FF07A8A7B03794712214CD3
:103D530090038AE0C3940F501F7410120B1FE0C02E
:103D6300E07402120B1FD0E0F07404120B1F7401F5
:103D7300F004120906122170740512090612215269
:103D8300741E023195F0EEFCEFFD7A977B0322124D
:103D930043E8900379123C5322126875123C532274
:103DA30074F7120384EB90038DF0120EF8024401B2
:103DB30074F712038474E912092CEAFEEBFF750809
:103DC300008E828F83A3A3A3E0C0E07406120B1FAF
:103DD300D0E01232F7E0C0E07408120B1FD0E0F01D
:103DE3007409120B1F7401123F2A125097600D8E33
:103DF300828F831257CF120BE6E970357407120BCB
:103E03001FE4F0120FD67404120B1F12469D900389
:103E130085E06404700E120FE27402120B1FEAF0C5
:103E2300A3EB80487402120B1F74FDF0A374FF8090
:103E33003BAC18AD198E828F831257CF120BF28EC3
:103E4300828F83A3A3A3A3E070307407120B1F74A4
:103E530001123F307402120B1F1243CB8E828F83E9
:103E6300123F377404120B1FE8F0A3E9F074021237
:103E7300090612102AE9F508803E123F31740A122E
:103E83000B1F1243CB7414120B1F1232F5A3E0C0A5
:103E9300E07415120B1FD0E0F07416120B1F123FC3
:103EA30029126EB3740C120B1FAA82AB83121D7AF4
:103EB300740A120906121E5EA90874170243FE74DF
:103EC300F712038474F812092CEAFEEBFF790090D1
:103ED3000385E064086005E0640470458518828505
:103EE300198374FDF0A374FFF0120FD67402120B42
:103EF3001F12469D7405120B1F123F29A3E0C0E059
:103F03007404120B1FD0E0123F2AE0C0E0740612C3
:103F13000B1FD0E0F07407120B1FE41243DA1210E8
:103F23002A74080243FEE4F08E828F8322F0851800
:103F3300828519831243E822C082C0839003577499
:103F4300A2F0A3740DF09003FD7484F0A37410F039
:103F530090035B74D8F0A3740DF090035D74A2F02A
:103F6300A3740DF090035F74DEF0A3740DF080036F
:103F7300120C58D083D08202084A74F4120384745A
:103F8300F912092C8A088B098C0A8D0B85188285F6
:103F930019837808120AB67404120B1FE9F074052A
:103FA300120B1FE4F07406120B1FE41243DA120C17
:103FB300AC7407024A3074F51203848A088B098AA9
:103FC300828B83126CEAEE4F7003024171900314EB
:103FD30012509760158A828B83A3A3E0F9EEFAEF60
:103FE300FB90031512376D12233D8E828F83A3A39B
:103FF300A3A3A3A3A3A3A3E0640260030240DA8EF6
:10400300828F83A3A3A3A3A3A3E05402700302405C
:10401300FE850882850983A3A3E064E97003024057
:10402300FE850882850983A3A3E064CD7003024063
:10403300FE850882850983A3A3E064F07003024030
:10404300FE8E828F83A3A3A3A3A3A3A3A3A3A3E00F
:104053007016901039E0048E828F83A3A3A3A3A3C9
:10406300A3A3A3A3A3F0801012418212105AE970F4
:10407300077A307B01121EE8850882850983A3A392
:10408300E0701F750A0080097A367B01121EE8056D
:104093000A850882850983A3A3A3E0F8E50AC398E8
:1040A30040E68E828F83A3A3A3A3A3A3A3A3126437
:1040B300AAA3A3A3A37404F090103A125AF9E81226
:1040C3004174121D56EA4B4C4D700C7A207B0090C4
:1040D30003D0E0F9121C188E828F83A3A3A3A3A39A
:1040E300A3A3A3A3E0640260128E828F83A3A3A37E
:1040F300A3A3A3A3A3A3E0640670738E828F83A3F9
:10410300A3A3A3A3A3E0A2E0506485088285098347
:10411300A3A3E0F9EEFAEFFB1216788E828F83A346
:10412300A3A3A3A3A3E054FEF012418212105AE901
:10413300850882850983A3A3702AE070237A2F7BE5
:1041430001121EE87E00850882850983A3A3A3E0EC
:10415300F8EEC39850187A367B01121EE80E80E6FB
:104163007A318005E070077A2D7B01121EE8023256
:1041730087F0A3E9F07A207B009003D0E0F9228E48
:10418300828F8312698C1250AE2274EC12038474F2
:10419300DB12092CEAFEEBFF8C108D11750E0074F7
:1041A3000512090E120B687412120B1FE0700874CB
:1041B30015120B1FE060207405120B1FE0A2E650DE
:1041C3001B8E828F83A3A3A3A3A3A3A3A3A312578B
:1041D300CF12105AE960057A350242D67405120BE4
:1041E3001FE0540C64047005750D018003750D0008
:1041F300E0A2E55030750E01E50DA2E04027120F55
:10420300DC8A088B09A808A909125487687003A3DC
:10421300E0696011740512090E125ED71221EEE9EE
:1042230060030242D47405120B1FE0A2E65022740D
:1042330006120B1FE0540370187405120B1FE05491
:104243000C640C600CE0540C64086005750C018070
:1042530003750C007405120B1FE05403F874026815
:10426300700E740512090E125ED7120B7A0243C048
:104273007401687041E50CA2E0500B740512090E3D
:10428300125ED7120B6E74051208FE7403120B1F15
:10429300E8F0A3E91243E0851882851983E8F0A3C7
:1042A300E91243D0C0E07402120B1FD0E01243DACC
:1042B3001223140243C0E860030243C090036DE07D
:1042C300640170178E828F83A3A3A3A3A3A3E070BB
:1042D3000A7A347B01121EE80243C07424120B1FB6
:1042E30074021243E0741C120B1F1243CBE50CA2A1
:1042F300E0500B740512090E125ED7120B6E74395F
:10430300120B1F7808120AD4E50DA2E0EE507224B6
:104313000F125EBDC0E07417120B1FD0E0F09003C4
:104323001612509770030243C0120FDC8A128B13CC
:10433300A812A913741C120B1FE0687003A3E06991
:10434300707B7808120862E50EF508780812086E8B
:104353008E828F83A3A3A3A3E0F508780812086EC7
:10436300781012086AA90C740D12090E742412092C
:104373000690031612584112233D740812089880C0
:104383003C125EBBF50C780C12086E7808120862BA
:10439300E50EF508780812086E781012086A900383
:1043A300831206ACEE2412125EBDF9742612090EB6
:1043B300740F1209061222BA740A1208987425029D
:1043C3003401A3A3A3A3A3A3E8123C54221264B20F
:1043D300A3E022E8F0A3E9F0AA18AB1922F01245F2
:1043E300841243E8221243EC22E0F8A3E0F922749A
:1043F300F7120384121E288005740D1208987F019A
:104403000205DF74F7120384121E3A80F1C082C0E2
:1044130083121E34023F7674F7120384121E408007
:10442300DD74F71203847409120B1FE0F508780892
:1044330012086E121E52740180C1C082C083121E04
:104443005E023F76C082C083121E64023F7674F719
:10445300120384121E6A80A674F7120384EAFEEB29
:10446300FF89087401650870147900120E1A9027E9
:104473009AE493FC7900EEFAEFFB120D90024401EB
:1044830074F7120384121E5802440174F412038455
:1044930074F912092CE9FE8A088B098C0A8D0B909A
:1044A3000EF0125097602BEE851882851983F074F5
:1044B30001120B1F7808120AB67413120B1F123F56
:1044C300377405120B1F1243D6900EF01258411287
:1044D300233D023FB474F7120384121E7602440193
:1044E30074F7120384900FBDE0F97E00800B12472E
:1044F30053540D64017001190E1246EA5003E9701A
:10450300ED02440174F7120384900FBEE0F97E00BC
:10451300800B124753548D64817001190E1246EAC1
:104523005003E970ED02440174F2120384890BE92C
:1045330075F006A4A9F0240CF508E439F509E5089B
:104543002AFAE43509FB121C8A8A0C8B0DAE0CAFD8
:104553000DEE4F6021AC08AD097900121BB812456E
:1045630080E50BF0EE2508F8EF3509F98E828F838D
:10457300A3A3A31243C5EEFAEFFB025732124584FD
:1045830022EE125EE63FF5832274F6120384EAFEFE
:10459300EBFF120D6C900FBCE0F8E9C39840099053
:1045A30003531257CF120D72EE2402F8E43FF98839
:1045B300088909900355125BF5900355E0041245F1
:1045C300D1120D78850882850983E00229FAF0EE7D
:1045D300FAEFFB22C082C083790090035380010964
:1045E3001257CF8A828B83E582458370F2023F762E
:1045F30074F7120384EAFEEBFFEE4F605A90035305
:104603001250976052888289837A007B00EE65821C
:104613007003EF65836013AA82AB83123F378882EE
:104623008983E5824583602F80E39003531258B852
:10463300687002EF698E828F837008123F37900390
:1046430053800312697A1243CBEEFAEFFB1222E492
:10465300EEFAEFFB121C90024401C082C083900368
:1046630053800488828983125097600A88828983E1
:104673001233F44D70ED8A828B83E4F0A3F0E849A2
:10468300600688828983800390035312469D023F0C
:1046930076EE241AF582E43FF583EAF0A3EBF022E9
:1046A3001250AEEA4B2274F7120384900353800432
:1046B3008A828B831246A360277E0080010E1246F6
:1046C300EA50EDEE75F006A4FCADF0EA2CFCEB3DF0
:1046D300FDEC2410F582E43DF583E06970DF80048E
:1046E3007A007B00024401124749EEC3982274F713
:1046F3001203847D0080010D124745EDC398503BA2
:10470300ED75F006A4FEA8F0E8FFEA2EFEEB3FFFEE
:10471300EE2410125EBD6970DEED75F006A4FEE8AE
:10472300FFEA2EFAEB3FFBEA2411F582E41257F479
:104733004CF0EA240CFA50070B80047A007B000249
:10474300440112474922EA125EE63BF583E0F82270
:10475300EE75F006A4FCADF0EA2CFCEB3DFDEC2479
:1047630011F582E43DF583E02274F6120384120E00
:10477300867B008016EB75F006A4F8A9F0125C2383
:10478300E4124801F0A3125BEBF00B9027A8125A36
:10479300D640E27A0080168A087509007403780807
:1047A3001209BD1256F6125AF4A3E4F00A902798A0
:1047B300E493F8EAC39840DF7900801A8908750901
:1047C30000740378081209BD7486126CF2740D121A
:1047D3006B2B122CC5099027941262F940DE9027A7
:1047E300A6E493900361F09081CC1206A87A107B23
:1047F300009003D0E0F9121D4A740402319512634C
:1048030007A32274F012038474F512092C8A088B0F
:1048130009890A8C0BE9A2E050147508FC7509FF9D
:10482300A2E15005D2E40248CFD2E30248CF120EF0
:104833006E8A0C8B0DA80CA90D900376E0687003AB
:10484300A3E069600EAC0A7902AA08AB09120E68EC
:10485300E9700579000249A0E50AF50C780C120805
:104863006E79027CFE7DFFAA08AB09120DE4740188
:10487300120898E9600302499EE50AC2E5F50A9029
:1048830003C3E07049E50AA2E64043740312090E2C
:10489300AA08AB09120BECE9702E12507212112008
:1048A3008A0C8B0DAE0CAF0DEE4F6022EE2402FA94
:1048B300E43FFB120BE6E96015EE2402FCE43FFD46
:1048C3007403120906121D7AE50AD2E5F50A90036C
:1048D30056E0F50C900376124B62780E12086A7D4F
:1048E300017C00900356E0F9AA0EAB0F120E26745A
:1048F30002120898E9F8900356E004F0E860030216
:10490300499EE50AA2E55004740E80027406C0E0D5
:104913007401120B1FD0E01243DA1210428A0E8B7D
:104923000FAE0EAF0FEE4F606E125464120FD6121D
:1049330046941249B77401F07478550AA3126F1C98
:10494300E50C126F1CA3E508F0E5091249A5E4F094
:10495300E50AA2E5500F740312090EE82406FAE4EF
:1049630039FB121D7A8E828F83A3A374FDF0A37487
:10497300FFF0E50B601890279BE493F8E50BC398D1
:10498300500CEE2413F582E43FF583E50BF0EEFAC9
:10499300EFFB120C9A80067910800279C7740B0220
:1049A30033E588828983A3A3A3A31249B1221263A7
:1049B3000BA3A322EE125EE23F1249C022F583123B
:1049C30043EC888289832274F41203847A007B1077
:1049D3009003D0E0F9121D56EA4B4C4D600890034A
:1049E300E27401F08043900FA1E0640190103670EF
:1049F30006E0FC79018004E0FC79037A007B001275
:104A03000D9090278BE493F508740193F509E4F571
:104A13000AF50B78081208627A007B109003D0E045
:104A2300F9121D447404120898800574181208982A
:104A33007F040205DF74F01203848A088B098C0A51
:104A43008D0B890C12105AE960057AFF024B2690F0
:104A53001035E064026003024B529027A7E493F9F8
:104A6300AA08AB09120E98E96003024B4C7900AA1D
:104A730008AB09120E6EA90C120E628A0E8B0FAED2
:104A83000EAF0FEE4F7003024B388E828F83A3A3BA
:104A9300A3A3A312620F70731257CF8E828F83A3C7
:104AA300A3A3A3A3A3E05418604D902799E4938E86
:104AB300828F83A3A3A3A3F07410120B1F126EB3F0
:104AC3007412120B1F124B62EA650A7003EB650B3B
:104AD3006012EA6C7002EB6D600AEA650E7003EB1C
:104AE300650F701B780E12086AAA0AAB0B12115CD1
:104AF300740212089880089003751264A1A3F074DD
:104B0300FE6A700374FF6B601E8051A3A3A3E0646D
:104B130003602A8E828F83A3A3A3A3A3E0640470FC
:104B2300067AFE7BFF80358E828F83A3A3A3A3A384
:104B3300E0640270089003C2E0640270127907AA6D
:104B430008AB09120E98E96006AA08AB09800DAA02
:104B530008AB0990035712584112233D0233E8E092
:104B6300F50EA3E0F50F2274F7120384EAFEEBFFC0
:104B7300120C3AE9700AEEFAEFFB120C46E96006F2
:104B8300EEFAEFFB80047AFE7BFF02440174EE121F
:104B930003848A0A8B0B8C0C8D0D890E7508001209
:104BA300105AE979006003024CF6AA0AAB0B120E05
:104BB3006EA90E120E628A108B11AE10AF11EE4F5A
:104BC30060198E828F83A3A3A3A3A3E06402705210
:104BD3009003C2E064027003024CF4AA0AAB0B1206
:104BE300583E12233D120C4C8A108B11A810A911A8
:104BF300E8497003024CF488828983A3A3A3A3A387
:104C0300E0A2E04003024CF4750901A2E1504B79A4
:104C130001AC0AAD0BAA0CAB0D120DC0E970470233
:104C23004CF48E828F83A3A3A3A3A3E06403602524
:104C33008E828F83A3A3A3A3A3E064016003024C2A
:104C4300F479078E828F83A3A31257CF120E98E9AC
:104C53006003024CF4750902801088828983A3A340
:104C6300A3A3A3D2E1F0EE4F603A8E828F83A3A376
:104C7300A3A3A3A3E05418602B7508018E828F832E
:104C8300A3A31206AC7510FE7511FF781012086A03
:104C93007900AC0AAD0BAA0CAB0D120E7A74041298
:104CA3000898804D7900AA0CAB0D120E6E8A108BFA
:104CB30011A810A911900376E0687003A3E069704E
:104CC3001490279AE493FCA90EAA0AAB0B120D9039
:104CD300750801801CA909AC0AAD0BAA0CAB0D1217
:104CE3000DC0E9700C750801A90EAA0AAB0B120ED0
:104CF3001AA90880031208987F0A0205DF74EB12D1
:104D0300038474F012092C8A0C8B0D8C088D0975A1
:104D13001206900403125097601712507212114A30
:104D23008A108B11EA451160088A828B83A3E060A5
:104D330068E50C241DF50EE4350DF50F850E821282
:104D4300528EF51488828983A3A3A3E0FA8882890B
:104D530083A3A3A3A3E0F8E4C8F9EA28FEE439FF98
:104D6300AA08AB09120E20850E82850F8312507993
:104D7300E029F50BE50AA2E5500375120E74875579
:104D83000A700F7418550A6418600712505C651294
:104D9300600C7AD37B00121EE87900025046530A56
:104DA30078C3EE94F8EF94FF50247900EEFAEFFB0A
:104DB300120E628A0E8B0FA80EA90FE849600F88A6
:104DC300828983A3A3A3A3A3A3E0541870CB780879
:104DD30012086A7D00AC0BA9141250A3120E26749C
:104DE30002120898E9F874036860AE7425120B1F69
:104DF300126CF76003024EBD7418550A7003024F1C
:104E030078E50AD2E0F50AA2E45004D2E1F50AA952
:104E13000A1250A3120E628A128B13A812A913E866
:104E230049605C88828983A3A3A3A3A3A3E0541846
:104E3300604D88828983A3A3A3A3A3E06401703F89
:104E4300E51045116039126EB088828983A3A312DD
:104E530057CF12114A8A128B13A812A913E849607B
:104E63001E88828983A3E06016851082851183A33F
:104E7300E0FA88828983A3E0C39A5003024D9CE53C
:104E83000AF510781012086E12509D120DE4740189
:104E9300120898E970247C007D00850E82850F83BB
:104EA30074FFF012547FA3A3A3E0600612505012C4
:104EB3006EB3A90B1250A3120D42850E82850F8388
:104EC300E0F47003A3E0F4603C9003C2E06402707A
:104ED30003024D9C1250A390035912584112233DD3
:104EE300EA65087003EB65096003024D9CEEFAEF77
:104EF300FB90035912584112233D850E82850F837F
:104F0300EAF0A3EBF0780812086A7D01AC0BA91450
:104F13001250A3120E267402120898A90AEEFAEF91
:104F2300FB120E6E8A088B09A808A909900376E084
:104F3300687003A3E0696003025038EEFAEFFB12D6
:104F43000C4C8A088B09A808A909E849606F888274
:104F53008983A3A3A3A3E06401600D88828983A34B
:104F6300A3A3A3E064027055AC18AD19EEFAEFFBEE
:104F7300120BEC805690036FE06014E50AF510788D
:104F83001012086E12509D120DE47401120898E578
:104F93000AF510781012086E79027CFE7DFFEEFA96
:104FA300EFFB120DE47401120898E96003024EBD91
:104FB300850E82850F8374FFF0A3024F07120FD66D
:104FC300EAFCEBFDAA18AB19121D7A850C82850D3C
:104FD30083A3A3A3A3A3A3A3A3E06401700E12500E
:104FE30050126EB37408120906121D7A1252761209
:104FF3005069E04430F508780812086E740112080D
:10500300FE88088909780812086A740B1208FE885A
:10501300088909780812086AE514F508780812085F
:105023006E7900EEFCEFFD1250A3120DBA74061256
:105033000898024D9C125276F583125079E50BF0D5
:10504300120FEE74101208987F0D0205DFE50C2491
:1050530015F582E4350DF58322E50C2417F582E47A
:10506300350DF583E022F583E0F812376CA3229027
:1050730003831252AA2212698CA3A3A3A3A322E53A
:105083000D75F006A4F8AAF0EAF974EA28F582741B
:105093000C39F5831243E8E849227901AC08AD09DC
:1050A300125EE0350D1250AC22F583E0FAA3E0FB6B
:1050B3002274EE12038474F012092C8A0C8B0DEC0B
:1050C300FAEDFB750F089004031250976031126ECE
:1050D300B012114A8A088B09AC08AD09EC4D601F68
:1050E3008C828D83A3E07017125AE95001097A026A
:1050F3007B00120234E88C828D83F0A37407F012D4
:10510300527612528EF50E88828983125280E0FA0B
:10511300E4CAFBEC2AFEE43BFF88828983A3A31243
:105123005280A3A3E0FBECF508E43BF509888289F0
:1051330083A3A3A3A3A3A3A3E0F50BE50AA2E450CF
:1051430003750F10A2E550067408250FF50F748F31
:10515300550A700712505C650F600A7AD37B001200
:105163001EE8025271530A707800E50AA2E4501F48
:10517300E50C241D1250602408FCA3E03400FD74E8
:1051830008120906121D7A7808E50AC2E4F50AE551
:105193000AA2E55022E50C241D12506028F8A3E072
:1051A3003400F9E82408FCE439FDAA18AB19121DF0
:1051B3007AE50AC2E5F50AA90EEEFAEFFB120E5CD8
:1051C3009027981262F95029891075110074037899
:1051D300101209BD744B2510F582740D3511F5833A
:1051E300E0F8E50BC3985007E50BF07800800480E6
:1051F3007D7804900376E06E7003A3E06F605FE850
:105203007019E50AF50F780F12086E12529D120DF0
:10521300E47401120898E970558005740468704EAF
:10522300780A12086E74011208FE880C890D780C36
:1052330012086A740B1208FE880C890D780C120888
:105243006AE50EF50A780A12086EA90BAC08AD09D7
:10525300EEFAEFFB120DBA74061208988010780A62
:1052630012086E12529D120DE47401120898741004
:10527300024CF8E50C241DF582E4350D22A3A3A30B
:10528300E0FC88828983A3A3A3A3221249C0A3E0DD
:10529300F50A88828983A3A3E0227901125EE035AF
:1052A3000DF5831252AA22E0FCA3E0FDAA08AB0984
:1052B3002274EB12038474F512092C8A088B098C6F
:1052C3000A8D0B89147420120B1FE0F511F9120ECD
:1052D3005CE9F50C9027981262F9501B750D007468
:1052E30003780C1209BD7449250CF582740D350D34
:1052F300F583124B62801E9003591250976010AAD7
:1053030008AB0912376D12233D8A0E8B0F80067589
:105313000EFE750FFF7401120B1F7408F074251233
:105323000B1FE0F510A2E450087401120B1F741058
:10533300F0E510A2E550097401120B1FE02408F0F8
:10534300AA18AB191210428A0C8B0DAE0CAF0DEEDE
:105353004F700302545F125464120FD612469474B2
:1053630021120B1FE0F512A3E0F513740312090ECB
:10537300AA0EAB0F120BECE96013EE24161254675E
:1053830074031208FEEE241812304E8027E510A293
:10539300E45022E50E65087004E50F65097016EE0A
:1053A3002416125467EE2418F582E43FF583E512C0
:1053B300F0A3E513F0125487F50CA3E0F50D850C6B
:1053C30082F5837402F0A3E510125471E5111254AF
:1053D30071A3E508F0E509850C82850D83A3A3A3DA
:1053E30012547FE50AF0E50B850C82850D83A3A398
:1053F300A3A3A3A3F0AA0EAB0F120E20E9251485D5
:105403000C82850D83A3A3A3A3A3A3A3F075080014
:10541300E510A2E45013AC12AD13E50C2408FAE432
:10542300350DFB121D7A750808E510A2E5501B74B3
:1054330023120B1F126EB3E50C2508F8E4350DF9A2
:10544300E82408FAE439FB121D7A8E828F83A3A322
:10545300E50EF0A3E50F1245D1120C9A740B02501E
:1054630048EE2417F582E43FF5837401F0221254C9
:105473007522F0850C82850D83A3A322A312547594
:10548300A3A3A322124584E02274F41203848A089E
:105493008B09ECFEEDFF750B01900376E065087058
:1054A30004A3E065096013750B00780B12086E12F4
:1054B300109C7401120898E9F50B7900AA08AB094E
:1054C300120E6E8A088B09A808A909900376E06872
:1054D3007003A3E06970467900EEFAEFFB120E62E7
:1054E300EA4B60308A828B83A3A3A3A3A3A3E054D4
:1054F3001860217508FE7509FF780812086A8A8208
:105503008B83A3A31206AC126E0D120E7A740412CF
:10551300089880097901EEFAEFFB120D3CA90B0202
:105523004A3374F21203847ECE7F0B7A107B009091
:1055330003D0E0F9121D56EA4B4C4D70179081CC05
:105543001206A87A107B009003D0E0F9121D4A746A
:1055530004120898900361E014F060030256079068
:1055630027A6E493900361F07C0079057A007B0021
:10557300120F648A088B090255FE7C007905AA087C
:10558300AB09120F648A0A8B0B850882850983A3F2
:10559300A3A3A3125097605DE5082404F8E435093A
:1055A300F9888289831257258882898312509770DC
:1055B30044850882850983A3A3A3A3A3A3E054047A
:1055C3006013850882850983A3A3A3A3A3A3A3A32D
:1055D300E0F9120E4A850882850983A3A3A3A3A336
:1055E300A3A3A3A37406F07AF08508828509831226
:1055F300637E120EB6850A08850B09E50845096026
:105603000302557D75080080608E828F83A3A3A358
:10561300A3E0604CF46049EE2404125EBD14F07004
:105623003F8E828F83A3A3A3A3A3E06403701579A2
:10563300028E828F83126EB38E828F83A3A312573F
:10564300CF120DC08E828F83A3A3A3A3A3E0640113
:10565300600E8E828F8374FEF0A30412570FE4F062
:105663000508EE2407FE50010F90279E1256EE40C8
:10567300987E008039120F888E08750900740378AC
:10568300081209BD74462508FC740D3509FD7ACC52
:105693007B0D120F76EA4B70DC8E087509007403DC
:1056A30078081209BD1256F6125BEBE4F00E902750
:1056B30098126C39501B8E08750900740378081210
:1056C30009BD125704E82407126F9C14F070DE80A2
:1056D300A77B008009EB125713600214F00B90278D
:1056E300A8125AD640EF80479027A8E493F8E5081C
:1056F300C3982212570488828983A374FEF0A304FB
:105703002274462508F8740D3509F9221264B22271
:1057130075F006A4F8A9F074E628F582740C126FEC
:10572300A322E024FFF0A3E034FFF0221208987FC5
:10573300060205DF74F712038474DF12092CECFEF2
:10574300EDFF750800EE4F606912393BC8241FF561
:1057530082E438125095605A8A828B831257CFACF9
:1057630018AD19EA241EF582E41257F4F9EA241F4E
:105773001227FB120FBE740B120B1F1257D37003A9
:10578300A3E069702D7402120B1FE064017023748F
:105793001D120B1F125841E064017016741D120B89
:1057A3001F12506DA3E0F88E828F83E0687003753B
:1057B3000801A90874210243FEE50D75F006A4F85B
:1057C300EAF974EA28F582740C39F5831250AE2293
:1057D3001257D9E068221257DD221243EC8E828FD2
:1057E30083A32275F016A4FAABF074942AF582749D
:1057F300083BF583E02274F4120384E970247900F2
:1058030090035B12584112233D8A0A8B0BAE0AAFF9
:105813000B74FE6E700374FF6F701A9027A3E493EA
:105823006013790190035B12584112233D8A0A8B5E
:105833000BAE0AAF0B12100C0237EB90035D12692B
:105843008C2274F612038474F312092C121BD08A6F
:10585300088B09AE08AF09900376E06E7003A3E0EE
:105863006F60E9120FE2EA6E7002EB6F60DEEEFA30
:10587300EFFB12105AE970D4EE4F60D08518828581
:105883001983E4F004120B1FEEF0A3EF1243DA12B4
:105893000C04E970B774FE6E700374FF6F60ADEEB5
:1058A300FAEFFB740D023195C082C08312100C0213
:1058B3003F7639F5831243E8EE2274F2120384EA49
:1058C300FEEBFF8C0A8D0B890874FC6E700374FF6A
:1058D3006F7003025AB07900120E6E8A0C8B0DAEF4
:1058E3000CAF0D740E120B1FE0F509900376E06EFA
:1058F3007003A3E06F7009E509A2E64003025AB002
:10590300A909120E628A0C8B0DA80CA90DE8497027
:105913004679007AFE7BFF120E628A0C8B0DA80C6F
:10592300A90DE84970317418550960267B00800180
:105933000B90279E125AD65019EB75F007A4F8A9BD
:10594300F0126C40541870E874CE28F8740B39F9CF
:10595300801D7902025AB288828983A3A3A3A3A3D9
:10596300A3E054186009741855097003025AB088EB
:10597300828983EEF0A3EFF074FE650A700474FF6E
:10598300650B600A88828983A3A3125ADDF088829B
:105993008983A3A3A3A3A3A3E509F0A2E0500D88E1
:1059A300828983A3A3A3A3A3A3D2E2F0740165080E
:1059B30088828983A3A3A3A3A370357401125AF425
:1059C300E054186025902799E49388828983A3A3E0
:1059D300A3A3126EAFAA0AAB0B12114A8B0DEA45B1
:1059E3000D6003025AB07E008031900375E080DAC7
:1059F300E064017003025AB088828983A3A3A3A33E
:105A0300A3A3E054186007902799E49380049003BC
:105A130074E01249A5E508025AAF0E902795126C5F
:105A2300394003025AB07D00802BED75F007A4F8CE
:105A3300A9F074D028F582740B1258B575F017A429
:105A4300FAABF0745E2AF582740A125B077003A343
:105A5300E06960C60D90279E12336440CDE4936DD8
:105A630070B8EE75F017A4F8A9F0745E28FE740AF6
:105A730039FF7C177D007900EEFAEFFB121BB88E1D
:105A8300828F83125ADDF0900383125AF91243C5B1
:105A9300125AB574AAF0125ABF7401125AE4500193
:105AA300097A027B00120234125AC9E8F079000223
:105AB3005732EE240FF582E43FF58322EE240EF5F0
:105AC30082E43FF58322EE240DF582E43FF5832241
:105AD3009027A5E493F8EBC39822E50AF0A3E50B1E
:105AE30022F0125AE922902791E49379002401F8D5
:105AF300221249B1A322125AFFA3A3221257DDA3F4
:105B030022F582E43BF583E0682274F21203848A6F
:105B1300088B09890C1262F240057905025BE812D1
:105B23001EA6AA08AB09120DF6E9F50D9027A8E405
