:020000040020DA
:1000000084620020F11E2100251F2100271F2100EE
:10001000291F2100291F2100291F210000000000A5
:10002000000000000000000000000000291F210067
:10003000291F210000000000291F2100691C210048
:10004000211F2100291F2100211F2100291F21001C
:1000500000000000291F2100B1902000291F21006D
:10006000291F210000000000000000000000000027
:100070000000000000000000291F21000000000017
:100080000000000000000000291F2100291F21009E
:10009000291F2100291F2100291F2100291F2100BC
:1000A000291F2100291F210087492000ED49200038
:1000B000291F2100291F2100291F2100291F21009C
:1000C000492021003F492000291F2100291F21002C
:1000D000291F2100000000000000000000000000B7
:1000E0000000000000000000000000000000000010
:1000F000291F210000000000291F2100291F2100C5
:1001000010B5DFF8004B0FF2B520606782B00FF238
:100110009920A06706E0204602F04EF9009000A862
:1001200001F08DF820680028F5D1606838B1201DF5
:1001300002F042F9009000A801F081F8F5E7206094
:10014000A072E072207313BD38B504460FF2380078
:10015000255C284602F04CF820B1291841600021A6
:10016000017232BD022002F043F850B10FF2B42107
:10017000615C01701A2141700146A648007802F0C6
:1001800058F8002032BD0000004246484045453F37
:10019000354D3600821DD2B2C90711D50A2192FB16
:1001A000F1F101EB8103A2EB4301C9B241B10A3283
:1001B000521AD2B20529A4BF0A32D2B20B32D2B23D
:1001C0001328ACBF142006208018C0B209300A21C1
:1001D00090FBF1F0C0B2704780B5DFF8280A007ECE
:1001E000800706D502F0E6FA401E8041C043C00FEA
:1001F00002BD002002BDDFF80C0A017E89070FD581
:10020000807A58B9DFF8000AC06D48B1407E00F02E
:100210008001481E8041C043C00F704701207047D5
:1002200000207047DFF8DC19DFF8D029097B9278CD
:10023000914238BF01F0DCBF0020704738B50400A0
:1002400008BF02F0E9FA02F015FC00F00100216895
:1002500080F0010561B1DFF8AC295369A1F1080014
:100260008B4204BF002151610021216002F0A0FDFA
:100270000DB102F0FBFB002032BD000011B581B0D2
:10028000007B20B101282CD003282CD03EE0DFF8E1
:100290007049607B0F281EBFDFF86809807E032845
:1002A00004D0DFF864190198496E8847019994F8E1
:1002B0003A008873142001990870DFF848490199C1
:1002C000201D02F05FF802F0D5FB217B491C217351
:1002D00008B902F0CBFB20214E48007802F0C7F8A5
:1002E00013BD1520E7E70198007A78B101994A68B3
:1002F000521C4A6012F8011D019A5173019A01992A
:10030000D27D497B32B109B10A2912DB01A800F084
:1003100096FF13BD0A0008D00A2A06DA0FF2300150
:10032000511811F8011C884203D0082A08BF082878
:10033000ECD10199401E087201980199407B0A3066
:10034000087001980199407B401C4873B5E7000094
:10035000020402010101010902000000DFF8A40803
:10036000C06F010018BF00470020704738B5044631
:100370000120207504F1140104F1380042884A80FC
:100380000279CA7104F12C024079087220464B8C24
:1003900094F8381000F0CCFF050004BF204600F0B0
:1003A0001EF9284632BD0000DFF85808807E032879
:1003B00001D001207047202070470000417E41F0AD
:1003C000010141767047017D027E012904D11307A6
:1003D0005CBF417800F0F8BD530603D50D49407865
:1003E000896D0847012903D1120748BF30210BD47A
:1003F00042781B2A08BF222106D0002A0CBF0FF228
:1004000018020FF22002895C017001460148007851
:1004100001F00FBFA4670020303016181920231AEE
:100420001C1E3000303017181921301B1D1F3000E2
:1004300038B5DFF8D4470546E06D002876D025B101
:100440001B2D05D1017D052956D00021417055E0B5
:10045000E92D2BD1807E30B902F0AEF918B1E06DF4
:10046000807D40072BD5EE2002F0FCFCE06D817E04
:10047000002942D0827D520705D4491E8176BDE80D
:10048000314002F088BD017E01F07F010176E06D10
:10049000017D032903D1417E41F004014176ED2025
:1004A00002F0E0FCE06D216E88472AE0E12D1CD1CE
:1004B00002F082F900B3E06D807D40071CD4DFF8C4
:1004C0004007E26D00F12201897C9176E26D90F89F
:1004D00022105268917090F82210491C80F8221066
:1004E0000120BDE8324002F0C9BC1C2D04D1A16E30
:1004F00088470020E06531BDE06D4570E06DFFF795
:1005000062FFE06D807D000609D5DFF8F40600F299
:100510002205287E02F0E4FEE87D02F0AAFE00201B
:10052000E0651021BDE8344000F0E2BC31BD0000C0
:100530002DE9F041002402F09DFA00F00100DFF8FF
:10054000C85680F00108E86D90BBDFF8B876B86F48
:1005500080473E6840F0100002E0344656F8086CD0
:1005600036B3717E01408142F7D12246314638468A
:1005700001F03FFFEE65707E000620D4F87A401E41
:10058000F872B8F1000F18BF02F070FAEC6DE18A52
:10059000207AFFF7FFFD3881A07D000613D5E07EAD
:1005A00002F09EFEE86D007FBDE8F04102F061BE02
:1005B000B8F1000F11D0BDE8F04102F057BAB87A97
:1005C000401EB872DDE7207EBDE8F041400800F033
:1005D000010080F0010002F051BCBDE8F08138B5A7
:1005E000DFF8205604466869A04204BF0020686115
:1005F000207E000706D4207D012803D1DFF8FC050A
:10060000027802E0DFF8F40542782146284601F03E
:100610000DFFC0B1696F20468847A07D40070DD40B
:1006200002F028FAE97A491CE97208B902F01EFAC8
:10063000E08AC0050DD4BDE8314079E7296F204636
:10064000BDE834400847F12060702046BDE83240E4
:10065000B9E631BD6CE710B5DFF8A815098B044683
:1006600000208A0705D404F134029279520748BF6A
:10067000E8206022114205D104F13401897989070B
:1006800048BFE820DFF8481C227A8979914238BFB8
:10069000E82004F134010979002902BF94F83410EC
:1006A0000029F52004D010B92046FFF75FFE28B1DD
:1006B00001462046BDE8104000F086BC10BD000099
:1006C0000D21017001F084BF00B585B000210170DB
:1006D0004170DFF8281590F83A300978DFF82425C2
:1006E0005B0715D4D27A8A4215D30C218DF80010FD
:1006F000019090F839108DF80210C16802910C3009
:100700008188ADF80C10817AC9060CD5002110E063
:10071000927A8A42E9D20146DFF8D80B007801F0DC
:1007200088FD05B000BDDFF8D417827B91F8341046
:10073000891A8DF80E10417C8DF80F10817C8DF890
:100740001010C07C8DF81100F1208DF8010000A878
:1007500001F03EFF05B000BD10B5044604F158009D
:1007600080B201F045FD18B1047200F158014160FA
:1007700010BDDFF8840B0FF25511016002220FF259
:100780008D4141600FF2C51181600FF22121C160DE
:100790000FF2E93101610FF2553141610FF215316C
:1007A00081610FF2F941C1610FF21D5101620FF237
:1007B0008D5141620FF2F15181620FF25121C162FC
:1007C0000FF2C10101630FF2910141630FF2713128
:1007D00081630FF2B951C163DFF8441B01640FF26A
:1007E000DD5141640FF2316181640021DFF8340B87
:1007F00080F85C1080F85F100FF2F161C1633C304B
:100800000161027101210175704730B50446251D53
:1008100083B00120688204F12E010220287400A810
:1008200002F031FE6068AB8E401E606000AA616815
:1008300094F83A00087083212879401C28712046DA
:1008400000F076FD050004BF2046FFF7C8FE2846ED
:1008500003B030BD0000000038B5DFF8A403DFF8B6
:10086000C45A90F8350000EB40010C0102F07DFE07
:100870000019A86405F14400BDE83440DFF8AC1A63
:1008800001F06EBB30B5DE4C607B93B00F2807D013
:100890002E208DF8000000A800F0D1FB13B030BD71
:1008A000DFF8805A05F1340001F088FB608E1421D6
:1008B000B0FBF1F402F059FE0019A86305F1340011
:1008C000DFF8681A01F04CFB13B030BD10B50446D8
:1008D000607888BB94F8361002291CBF0329E820F1
:1008E00094F82B100B39122928BFE82025D218BB09
:1008F00004F12B01E12002F0DEFE04F1380150206A
:1009000002F0D9FE94F83610BD48022902D1E18DDB
:10091000018407E04FF6FE710184163004F12E01C8
:1009200002F0D1FD0B2204F12001DFF8FC0901F0F7
:1009300079FB2046FFF769FF30B160701720207007
:100940002046BDE810407AE310BD000070B5DFF826
:10095000D44994F85F0084B028BB012084F85F007C
:1009600003F003F800A800F0B5FC04F15401A4481A
:10097000C58C0520FFF7E8FB060014D00120F082AB
:100980000B220520307504F1540106F1200001F01E
:1009900049FB2B4600AA0321304600F0C9FC10B9E0
:1009A0003046FFF71CFE04B070BD000010B50446D1
:1009B00082B0012002F0E7FF2078202804BFEB205E
:1009C0006070DFF8600990F85F104A0744BF01F0DB
:1009D000FB0180F85F1090F85F108A0710D501F0D6
:1009E000FD0180F85F100A2160788DF801008DF814
:1009F000001000208DF8020000A801F0E9FD13BDF1
:100A00002A202070204600F01AFB13BD70B5054661
:100A100086B0012002F0B7FFDFF8084904F1340086
:100A200001F0CCFA04F1440001F0C8FA68680178DA
:100A3000427801EB0221ADF80410867846B901A98D
:100A4000532002F038FE05F11C014A2002F033FE6B
:100A50000B2205F10F0104F1540001F0E3FABDF897
:100A600004008DF8096002218DF808100EB14FF6D0
:100A7000FF70ADF80A000B2204F1540103A801F045
:100A8000D1FA02A801F0A4FD94F85F0080070BD50D
:100A900068788DF801000A2100208DF802008DF899
:100AA000001000A801F094FD002084F85F0006B05B
:100AB00070BD000010B5044682B0EB206070DFF816
:100AC000640890F85F0080070BD50A208DF80000BD
:100AD000EB208DF8010000208DF8020000A801F045
:100AE00077FD204600F002F813BD000030B5054642
:100AF00085B0012002F047FFDFF8284804F13400F8
:100B000001F05CFA04F1440001F058FA002084F886
:100B10005C0084F85F000B2202208DF8000004F1D5
:100B2000540168788DF801004FF6FF70ADF80200AF
:100B300001A801F077FA00A801F04AFD05B030BD28
:100B400010B5044682B0EB206070DFF8D80790F84B
:100B50005F0080070BD50A208DF80000EB208DF890
:100B6000010000208DF8020000A801F031FD2046B0
:100B7000FFF7BCFF204600F02DFE13BD10B5044664
:100B800082B0012002F0FFFE207A002814BF00206E
:100B9000EB206070DFF88C0790F85F104A0744BFC5
:100BA00001F0FB0180F85F1090F85F108A0716D5FE
:100BB00001F0FD0180F85F10A07B00F0100001281B
:100BC000ACBF0120002061788DF802000A228DF868
:100BD00000208DF8011000A801F0FAFC08E0C80719
:100BE00006D52A202070EB206070204600F027FAFE
:100BF0000D202070204601F0EBFC13BD40202100A9
:100C0000C0650020C4410020444100202DE9F84384
:100C10000446DFF8100790F85F1041F0020180F8F9
:100C20005F10012002F0A1FE607840BBB348408D08
:100C30004FF6FE718842ACBF0325022504F110086F
:100C4000B4F80E901A2641460520FFF77DFA0700FA
:100C500014D00120F8820B2205203875414607F197
:100C6000200001F0DFF94B46221D2946384600F0EE
:100C70005FFB060004BF3846FFF7B1FC6670607882
:100C800050B18DF801000A2100208DF802008DF886
:100C9000001000A801F09CFCBDE8F18310B50446EB
:100CA00082B0012002F06FFE2078202804BFEB20E4
:100CB0006070DFF8700690F85F104A0744BF01F0DB
:100CC000FB0180F85F104BE038B50446012002F0CC
:100CD0005AFEDFF8505605F1340001F06FF9207A22
:100CE000002814BF0020EB20607095F85F004107DA
:100CF00044BF00F0FB0085F85F0095F85F008107B6
:100D000015D500F0FD0085F85F00A07B00F0100015
:100D10000128ACBF0120002061788DF802000A2272
:100D20008DF800208DF8011000A801F051FC0D2075
:100D30002070204601F04CFC31BD000010B5044687
:100D400082B0012002F01FFEEB206070DFF8D405B6
:100D500090F85F104A0744BF01F0FB0180F85F1074
:100D600090F85F108A070FD501F0FD0180F85F1041
:100D70000A2160788DF801008DF8001000208DF8B0
:100D8000020000A801F024FC13BD000010B50446C9
:100D9000DFF8540B01F012F92046FFF7CFFF204691
:100DA000BDE8104000F016BD10B50446DFF8380B62
:100DB00001F004F92046BDE81040BFE710B5044635
:100DC00086B004F11C01DFF8240B02F036FB08B3F7
:100DD00009208DF80000EF208DF80100606801788F
:100DE000427801EB0221ADF8021000798DF8040081
:100DF000207A082806BF6068C07900208DF80500B9
:100E00000B2204F10F010DF1060001F00BF900A80F
:100E100001F0DEFB06B010BD4DF804ED85B00920F1
:100E20008DF80000EE208DF8010000A801F0D0FB45
:100E300005B000BDDFF8B80ADFF8BC1481623831B4
:100E4000C1620FF2BC0101660FF218114166DFF8B2
:100E5000A41A0164018B41F001010183704702462D
:100E60000146022013E130B5044685B01C2001F094
:100E7000BFF9050003D00620287018220AE00A20D6
:100E80008DF800001A208DF8010000A801F0A0FBE9
:100E900005B030BD002068702146281D01F0C2F861
:100EA000DFF850040078294601F0C3F905B030BDE1
:100EB00010B5DFF83C4A206982B018B104F1100087
:100EC00000F0BDF90020A076DFF8DC0A006858B118
:100ED00002E000A800F0B3F9DFF81804007801F090
:100EE000F5F900900028F4D113BD00004FEA00018D
:100EF000DFF80004007801F0BABA0000C0650020F5
:100F00000101710101010101110101013101010121
:100F100001018001100161013B00140063017301B4
:100F20007201620143010001130106013D01350018
:100F3000040112010001000100010001040104018B
:100F4000330133013C01440132013600000100014C
:100F50006501000135008101000105018201830165
:100F600000010000030271023001600211027002F0
:100F70000102020202028002100261023A004100F4
:100F8000630273027202620243020002130238001B
:100F9000000200020402120200020002000200022B
:100FA00004020402370037003C0244020002390008
:100FB0000002000265020002350281020002050201
:100FC000820283020002000000B585B00378DFF8DA
:100FD000542A9A5C8DF800200B2A01D100F0FDBA4A
:100FE0005AB30C2A24D11A2902D1002001901FE003
:100FF000019090F839208DF80220C2680292028A8E
:10100000ADF80C20827DD20648BF002205D4DFF85F
:101010001C2A837E92F83420D21A8DF80E20427F4B
:101020008DF80F20827F8DF81020C07F8DF8110081
:101030008DF8011000A801F0CBFA05B000BD18B47E
:10104000DFF8AC188A7E037801EB820203F07F039D
:10105000D26D037002EB43035B7801EB8304E46D14
:1010600004B18B76037812F81320140901EB840184
:10107000C96921B90B2B08DA14BC1821A4E702F0C6
:101080000F0251F8221014BC084711BC7047F0B58C
:1010900007460FF2800087B03C5C0D46204601F009
:1010A000A7F8060016D03770002070702946A019E6
:1010B0007060002030720FF268003A5C06F1200088
:1010C00000F0B0FF8B480078314601F0B2F8002004
:1010D00007B0F0BDDFF84C098DF80070385C8DF872
:1010E00004000B2806D11A208DF8010000A800F09A
:1010F000C5FA0AE048B10C2804BF002002901A206B
:101100008DF8050001A801F063FA1A2007B0F0BDC0
:1011100000000000000555534D581C202807020010
:1011200000011C181A18181C2403000071490870CB
:10113000704770B50C4682B0A006DFF8B45717D4DC
:101140001BE001F097FC297B491E297308B901F0C7
:101150008DFC30788DF800006E613046FFF76FFF30
:101160009DF8000015281CBF05F1140000F067F879
:10117000281D01F021F90600E3D1200407D40CE07A
:101180006861FFF75CFF05F1140000F058F859485A
:10119000007801F09BF80028F2D1E00605D52D205B
:1011A0008DF8000000A8FFF74AFFE00705D52420CE
:1011B0008DF8000000A8FFF742FFA00705D5252005
:1011C0008DF8000000A8FFF73AFF600705D526203C
:1011D0008DF8000000A8FFF732FF200705D5282072
:1011E0008DF8000000A8FFF72AFF600608D5002050
:1011F0008DF801002C208DF8000000A8FFF71FFFDC
:10120000200608D500208DF801002F208DF8000061
:1012100000A8FFF714FF286978B101F02BFC2C69B6
:101220000021296108B901F021FC6C612046FFF71B
:1012300006FF05F1140000F002F8002076BD38B575
:10124000040008BF01F0E8FA01F014FC00F001000E
:10125000216880F0010561B1DFF894265369A1F19E
:1012600008008B4204BF002151610021216001F080
:101270009FFD002D1CBFBDE8314001F0F7BB31BD23
:101280001C480FF2553181600FF25931C1600FF2E5
:10129000C5310161DFF8A41A41610FF2E1318161CA
:1012A000DFF8D41AC161DFF8341B01620FF27971E3
:1012B000C1630FF2794101640FF2CD4141640FF235
:1012C0006D5181640FF20D51C1640021417070476E
:1012D00040202100DFF854170A8C4FF6FE739A4223
:1012E00004BF163102F0CFB802220272098C0180CD
:1012F00070470000A467002050680020017ADFF8E2
:101300002C27022907D1118C0088814201D10120AC
:10131000704700207047014602F1160002F08DB8B8
:10132000BB1C20003467002088670020B0410020EB
:101330002DE9F84F1546044600222F7ADFF8EC8697
:10134000994608064EBF4FF6FF7608F11400468A0C
:1013500001F07F00A17D89064CBF08210021217684
:10136000A17D49074CBF802110216176A17DC9066E
:101370004CBF002198F83410A176E18ACB0748BF12
:101380002022090748BF42F010026168237D491EF0
:10139000022B07DB0B2B1CBF5B1E01F8013942F04F
:1013A000030200E01A4398F84930012B04D1237A54
:1013B000672BA8BF42F4805242EA80321FFA82FAB9
:1013C000022809D108F11400C28A120A01F8012981
:1013D000C08A01F801090CE0032809D1A1F1070B2B
:1013E00008F13C01584602F06EF8ABF1010100E053
:1013F00050B127B14E4508BF4AF0400A04D0301220
:1014000001F8010901F801694AEA872086B2022F32
:1014100007D12888000A01F80109288801F8010984
:1014200009E0032F06D1CF1F2946384602F04BF8BA
:10143000791E00E02FB14FEA192001F8010901F8E7
:1014400001994A1E207D28B998F81430581C88F854
:10145000140004E008F11400837B5D1C85730B709D
:10146000300A107002F8016D207A61680818801A3D
:101470002072626000206070BDE8F28F2DE9F047B5
:10148000099F8A460546904699461A263946FEF730
:101490005BFE04001AD00898E08225750B223946BD
:1014A00004F1200000F0BEFD4B4642465146204666
:1014B000FFF73EFF060009D1ED1F012D03D8607E26
:1014C00040F0200060762046FFF789F83046BDE8FE
:1014D000F08730B5044683B094F83910012001B18B
:1014E0000520251D04F12C0168820420287400A821
:1014F00001F0C9FF60686B8E401E606000AA6168E1
:1015000094F83800087003212879401C287120467F
:10151000FFF70EFF050004BF2046FFF760F8FFF756
:1015200096B970B5044605200D4620702E1D95F81D
:101530003D00A0706068F16A416105F11C0101F095
:10154000A2FF6068718E41810B2295F83A104174B8
:10155000002160680176C17305F10F0160681930E0
:1015600000F060FD6168B07A88736868616810F89F
:10157000012B8A8110F8013B42EA03228A8110F88C
:10158000012BD3095B1E9B41DB43DB0F0B7402F085
:1015900007014A1E9241D24301EB410101EBD27196
:1015A000C9B2081810F8011B2172E060217A01F01D
:1015B0000702490801F0380101EB42010818606197
:1015C00031796A688B18834227BF081A10180020E7
:1015D0002072207470BD00007047417000F04EF81A
:1015E00005B000BD00B585B002780FF2AC71515C5A
:1015F0008DF800100B2901D11921EEE739B30C2920
:101600001FD1019090F839108DF80210C168029135
:10161000018AADF80C10817DC90648BF002105D4B0
:10162000DFF80814827E91F83410891A8DF80E10B4
:10163000417F8DF80F10817F8DF81010C07F8DF8DD
:10164000110019208DF8010000A800F0C1FF05B0BD
:1016500000BD000038B5DFF8B0590446286930B144
:101660001921FFF7B1FC05F11000FFF7E8FD6869EB
:10167000A04204BF002068612C6131BD10B5044652
:101680008AB02078032808D0052808D0182804D06C
:101690001E2818BF1F2802D018E0002000E00120FB
:1016A0008DF8180004F12B0103A801F00CFF0320B2
:1016B0008DF81400DFF87403418DC08CADF8021072
:1016C000ADF8160002218DF80A101CE002208DF8FA
:1016D000180004F11C0103A801F0F5FE03208DF8A9
:1016E00014000B22DFF84403418DC08CADF80210CA
:1016F000ADF8160002218DF80A100DF1190004F161
:101700000F0100F08FFC0B208DF800000B22607899
:101710008DF8010004F10F010DF1190000F082FCB9
:1017200000A800F055FF0AB010BD000038B504460F
:1017300065789DB9DFF8F412E08EC98C884218BF35
:10174000E82504F12C00FFF7D9FD88B1002084F8CA
:1017500039001DB92046FFF7BCFE05463DB1657056
:10176000192020702046BDE83240FFF768BC31BD2B
:10177000DFF8981894F8390091F8201080F00100F3
:101780000843E6D1E825EAE710B586B004218DF8D4
:10179000041041788DF80510C18EADF8101000F1DD
:1017A0002C010DF1060001F06EFE0DF10600FFF7B1
:1017B000A5FD50B14FF6FF74ADF8004000A95320CD
:1017C00001F079FFDFF84808048401A800F000FF69
:1017D00006B010BD10B588B0044603208DF8040093
:1017E00004F11C010DF1060001F06DFE6068007847
:1017F0008DF80E000B2204F10F010DF10F0000F027
:1018000011FC04F11C00FFF779FD50B14FF6FF7495
:10181000ADF8004000A9532001F04DFFDFF8F007BC
:10182000048401A800F0D4FE08B010BDF0B5054650
:1018300095B068687D4C4078400611D5A61CE98EAD
:10184000B08C88420CD1DFF8CC07407808B309206F
:101850008DF81800EE208DF8190006A800F0B8FEEB
:101860000BA80190294600A8FFF75BFE2B208DF8FE
:10187000000000A8FFF7E3FBA07810B19DF810006E
:1018800028B105208DF8000000A800F0A1FE15B0D9
:10189000F0BD94F830000028E2D005F11C00FFF7FD
:1018A0002DFD0028DCD105F20F05B68C2946062057
:1018B000FEF74AFC0700EAD00120F8820B2206203E
:1018C0003875294607F1200000F0ACFB334604F1DF
:1018D000160203213846FFF72BFD0028D7D13846E2
:1018E000FEF77DFE15B0F0BD68670020D6650020CC
:1018F000C441002073072000F8B5054601F0BAF88E
:1019000000F0010080F001040DB101F08DFE01F046
:1019100092FA464D05F22607387D01F0E1FCF87C8D
:1019200001F0A7FCDFF8EC66707801F088FCE88C29
:1019300001F091FCB88801F090FC05F13C0001F049
:1019400093FCDFF8C476386C010018BF8047786CD0
:10195000010018BF8047B86C010018BF8047F86CC1
:10196000010018BF8047386D010018BF8047786DAF
:10197000010018BF8047B86D010018BF804700F014
:1019800021FAFFF795FA00203071FEF7B9FBFFF757
:1019900077FC05F12901522001F08DFE0CB101F018
:1019A00065F80020F2BD0000486B002038B5044601
:1019B000072000F01DFC050010D00920287003222C
:1019C000002068702146281D00F02CFB2946BDE848
:1019D0003440DFF84006007800F02BBC31BDDFF862
:1019E00034060FF26901416200F108020FF2513131
:1019F00081620FF28931C1620FF2091101630FF2A6
:101A0000092141630FF2B1118163DFF8FC15CA614E
:101A100000F13C02243048620A620020088301F091
:101A2000FBB90000981D200070470000C065002031
:101A3000072202700A7A82708A7AC2704A6842600B
:101A400000220272C969C1607047000038B50446BF
:101A5000DFF8C45500206870207A0628A4BFE8206B
:101A60006870607A0F2804DB207A032804D0E8200D
:101A70006870207A032806D1DFF88C05007EC00745
:101A80005CBFE820687021462846FFF7D1FF6168F7
:101A900005F11800890A81600B22617A0173E17AED
:101AA0004173217B8173617BC173A17B01740A2126
:101AB0004174CB4991F83A108174DFF86015A9613F
:101AC0000421017105F12B0004F10F0100F0AAFAC5
:101AD0006878002804BF607800280CD1681C407822
:101AE00008B1EA21697001F040FC26202070042032
:101AF00001F019FF01E0292020702046BDE83240A6
:101B0000FFF79DBAF0B5DFF810556E1C04467078EB
:101B100085B005F10C0760B9787F0A2809D001F07B
:101B200065FCE9687A7F511801F80B0CF079401CCC
:101B3000F0717869797F40087861491C7977C0072E
:101B400002D4C9B21D29F4DBC9B21D292DD005F17B
:101B50002901E12001F0AFFD02208DF810004FF6C1
:101B6000FF737078ADF80830002818BF022804D140
:101B7000204600F021F805B0F0BD012807BF08207D
:101B800080210720832105F12B020192002200927F
:101B900002AAFFF773FCDB2818BFE52804D0F3285E
:101BA0001CBFDF28E82805D1687029202070204656
:101BB000FFF745FA05B0F0BD38B5DFF85C44616861
:101BC00094F82920012000FA02F291436160A17883
:101BD000032907D1DFF8380490F8350000EB400105
:101BE0000D0109E094F824209040401C00EB4002D5
:101BF000150109B901F0F8FB01F0B7FC401960616B
:101C000004F11000FEF738BE2DE9F043DFF8086458
:101C1000751C804668788FB002281CBF01280528F3
:101C200040D100207070414600A80A9009A8FFF733
:101C300078FC06F10C07EC79787E844220D2D6F845
:101C40000C900DE0B9F80A00BDF80A10884204D1E2
:101C500000A9484601F0F1FB90B9641E09F124097E
:101C6000E4B2002CEED1F068EB7903EBC30624223A
:101C700000A900EB860000F0D5F9E879401CE87176
:101C8000DFF88C03807820B19DF8340008B9787EA5
:101C900010B909A800F09CFC787E58B1E97981421E
:101CA00008D101E0E8207070292088F80000404643
:101CB000FFF7C5F90FB0BDE8F08338B5044694F8D6
:101CC0002400032804BF94F82E0003282CD104F12B
:101CD0001C014A2001F0EFFC60680178427801EBBA
:101CE0000221ADF80010851C00A9502001F0E3FC92
:101CF0002878697800EB0120ADF80000AD1C00A940
:101D00004B2001F0D8FC2946E12001F0D4FC681CEE
:101D10000178407801EB0020ADF8000000A95320C5
:101D200001F0C9FC002000E0E820DFF8EC12487068
:101D3000292020702046FFF782F931BD5706200088
:101D400010B5DFF8D44204F1100000F037F901F0CB
:101D500029FB042001F017FEA078032804BF607857
:101D6000002804D004F12A01E12001F0A4FC20465F
:101D7000BDE8104000F02CBC5506200000B585B031
:101D8000014600A8FFF754FEFC208DF8010000A8D2
:101D900000F01EFC05B000BD0C0E020B040B0A0780
:101DA00008000F0030B5044685B0202000F020FA6E
:101DB000050004D0072028701C22FFF76BB807200D
:101DC000FFF75EB891480021C16601674FF47F01BB
:101DD000416781670021C16770470000C10620008C
:101DE000C065002010B5894C0020E067E06E68B146
:101DF000616F4068884209DA01F0B7FBE16E4A681A
:101E00008242B8BF02464A60E06EE067206F38B198
:101E1000E16F19B1426849688A4203DAE06701E07C
:101E2000E06F40B1E06F616F40688842BCBFBDE8C1
:101E3000104001F0BEBBBDE8104001F0E1BBF8B5B9
:101E400000F018FE00F00100704D80F00104E86F12
:101E5000002840D0696F4068814204DA00F0DCFC61
:101E6000E86F002837D001F080FBE96F49688842AD
:101E700031D3002948BF00F0CFFCEE6F00F0FAFD2F
:101E800000F0010080F00107E96E05F16C0001E04F
:101E90000846114621B10A68B142F9D1026004E056
:101EA00005F17001304600F07CF8E86F864208BF0B
:101EB000FFF798FF0FB100F0D9FD377BB6680CB182
:101EC00000F0D4FD3846B04700F0D4FD00F001002A
:101ED00080F00104C4E7002C1CBFBDE8F14000F015
:101EE000C5BDF1BD38B504460D460EE047496868EA
:101EF000C96F20188D4202D1002848BF00206860B9
:101F0000002848BF00F088FC2D68002DEED131BDBF
:101F100070B500F0AFFD00F001003C4D2E6FE96E92
:101F200080F00104686F4042FFF7DCFF06E0686F55
:101F300071688142A4BF081A70603668002EF6D11D
:101F4000A86F696F81421CBF686701F0F7FAFFF75D
:101F500049FF002C1CBFBDE8704000F087BD70BD7C
:101F600070B504460D4600F085FD00F0010080F0DC
:101F700001062968284601E00846096819B1626827
:101F80004B689A42F8DA046021602868A04208BFD2
:101F9000FFF728FF002E1CBFBDE8704000F066BDB3
:101FA00070BD0A6801E011461A462AB113688242E0
:101FB000F9D10B60012070470020704770B50446CE
:101FC00000F058FD114EF16E00F0010080F00105A7
:101FD00006F16C0001E00846114621B10A68A142F1
:101FE000F9D1026004E006F170012046FFF7D9FF45
:101FF000F06F844208BFFFF7F5FE002D1CBFBDE85F
:10200000704000F033BD70BDC44100204441002049
:10201000C0650020A4670020D4680020ED0E2000D9
:1020200001F05CBD2AB111F8013B00F8013B521EE2
:10203000F9D1704742B110F8013B11F801CB521EA3
:102040006345F7D0002070470120704710B5044663
:1020500010460A460146204601F05CFD204610BDB0
:102060000278022903D1407802EB0020704703294F
:1020700006D14178807802EB012101EB00407047E6
:10208000042909D1417802EB01218278C07801EB63
:10209000024101EB00607047104670472DE9F043A4
:1020A00089B006460D46144603A80A2101F066FDD4
:1020B00068460A2101F062FD06A80A2101F05EFDD2
:1020C00000200A2C287069D142F21070B6FBF0F0A3
:1020D00042F2107101FB10640A46B0FBF2F201FB00
:1020E0001207DFF8D404B6FBF0F91FFA89F9B9F149
:1020F000000FBFB204D00A2206A9484601F076FDBF
:1021000027B10A226946384601F070FDA0B218B125
:102110000A2203A901F06AFDB9F1000F14D006A943
:10212000284601F089FD00260FF2542804E04146BC
:10213000284601F0A3FD761C684601F0CFFCC0F1F3
:102140000400F6B28642F2D36946284601F096FDB5
:1021500057EA090710D000260FF2242804E0414670
:10216000284601F08BFD761C03A801F0B7FCC0F1F6
:102170000400F6B28642F2D303A9284601F07EFDA0
:10218000002F04BFA4B2002C04D17DA001782970D7
:1021900041786970284609B0BDE8F083102CFAD167
:1021A000370C344604D010226946384601F01EFD33
:1021B000A0B218B1102203A901F018FD002FDBD046
:1021C0006946284601F038FD00260FF2B41804E0F5
:1021D0004146284601F052FD761C03A801F07EFC22
:1021E000C0F10400F6B28642F2D3C5E701F022BD89
:1021F00010B5040001D1002010BD04F1080080B228
:1022000000F072FD28B1002101608480FF218171FE
:10221000083010BD80B508B9052002BD10F8021CB9
:10222000FF2901D0042002BD083800F0C1FD0020C4
:1022300002BD38B50D00044636D0DFF88023127891
:1022400015F8020C944207D3FF2804BFA5F108003B
:1022500000F0AEFD032032BD55F8081C002908BF70
:10226000FF281BD105F8024C00F004FC002145F8C2
:10227000081C00F00100DFF848130A6880F0010034
:1022800012B90D6006E00A4652F8081C0029FAD17E
:1022900042F8085C08B100F0E9FB07E0FF2804BF42
:1022A000A5F1080000F084FD052032BD00F0E2FB3E
:1022B000DFF81013096831F8142042F4004221F8C5
:1022C000142008B900F0D2FB002032BD2DE9F04106
:1022D000804600F0CFFB00F00100DFF8E44280F020
:1022E000010720680026002503E005B9064650F8DE
:1022F000080C68B110F8021C4145F6D1002D08BF4A
:102300000546F4D04FF40041404600F0B0F811E02B
:10231000AA49097888450CD200F0ACFBA9490968A4
:1023200031F81820C2F30E0221F8182008B900F085
:102330009DFB25B132462946204600F05AF80FB1E0
:1023400000F094FB2846BDE8F08170B504460D46C8
:1023500000F090FB9A490E6800F0010080F0010047
:1023600001E056F8086C36B116F8021CA14204BF11
:102370003178A942F5D108B100F078FB304670BD44
:102380003000000038B504460D4600F073FB002114
:1023900045F8081C00F00100216880F0010011B927
:1023A000256006E0114651F8082C002AFAD141F8C0
:1023B000085C00B119E031BD38B5054600F05AFBA4
:1023C00000F001002968002480F0010041B10C46B2
:1023D000A4F108010A682A6000220A60FF228A71BB
:1023E00008B100F043FB204632BDBDE8314000F0AB
:1023F0003DBB70B504460D46164600F03BFBA5F10B
:10240000080123680A689D420CBF226046F8082C28
:1024100000220A6000F00100FF2280F001008A71B2
:1024200018B1BDE8704000F021BB70BDF8B507469B
:102430000D46164600F01EFB00F00100396800242E
:1024400080F0010021B93D600BE0F1B251B11146BD
:1024500051F8082C761E002AF7D1F6B216B141F8D1
:10246000085C012408B100F001FB2046F2BD38B53C
:102470000D46524909788842044607D200F0FAFA1C
:102480005049096831F814202A4318E7032032BD67
:1024900038B50D46494909788842044607D200F00C
:1024A000E9FA4849096831F81420AA4307E70320EC
:1024B00032BD80B5FF2803D100F0D8FA002002BD5C
:1024C000072002BD80B5FF2803D100F0D3FA002019
:1024D00002BD072002BD80B500F0DAFB38490020BC
:1024E000086001F0D9FB01F0D1FC01F0D7FC00F04D
:1024F000E1FB002002BD80B500F001F8FCE72DE90A
:10250000F04101F01DFD2D482E4C00782168002679
:10251000F6B231F816201AB9761CF2B28242F7D31D
:10252000F1B2814224D200F0A5FA2168F6B2354614
:1025300031F81580002221F8152008B900F096FA2C
:10254000214F224A3E70414652F82520304690479E
:102550000646FF20387000F08DFA216831F815200A
:10256000324321F8152018B9BDE8F04100F07EBAD9
:10257000BDE8F08101700A0A42700A0C090E8270EF
:10258000C170001D704701700A0A090C4270817009
:10259000C01C704710B448B1002300E05B1CDCB2E3
:1025A000944206D210F8014B8C42F7D010BC0020A8
:1025B000704710BC0120704700E1F5053C20210068
:1025C000446B0020486B00206D4200202020210039
:1025D000F1B582B004780FF22C20065DADF80060F2
:1025E000002E00F0E5800D2C14D16946532001F037
:1025F00039F8BDF800004FF6FE7188421CBF4FF657
:10260000FF7188421EBF0298007A002800F0AB805C
:10261000029D73E0052C04D10299097C24318819AC
:102620000DE0072C0DD10298807810B906F11B003F
:1026300005E00299097A01EBC10206EB8200ADF8D0
:102640000000BDF80000FFF7D3FD050021D10C2CE0
:1026500040F0AE8002984068002800F0A98000F0A9
:1026600009FA00F0010080F001070298001DFEF752
:10267000E6FDBDF80000FFF7BBFD050006D1002F09
:1026800000F0968000F0F2F903B0F0BD0FB100F059
:10269000EDF9029932462846FFF7C4FC052C11D10A
:1026A0006968242205F11800FFF7BCFC05F1180049
:1026B00068602A7C69692430FFF7B4FC68682430BC
:1026C00068611BE0072C19D149480668B6B10021A2
:1026D0000160A878002805F11000E86002D11B22F3
:1026E000314606E0287A00EBC0018A00314605F148
:1026F0001000FFF797FC304600F05AFB3D48016898
:10270000080003D028468847002848D10D2C2FD137
:10271000029840684178007800F00302022A22DA29
:10272000354A927CC0F38300904204BFE02001420E
:1027300002BF029890F82400022814D195F83B00BB
:1027400005F13A0100F03AF80298C08C4FF6FF719B
:1027500088421FD102984068807902281ADB2846F7
:1027600001F0BFFD20B302A8FEF769FD03B0F0BD84
:102770000C2C0FD1029840781A281EBF281D016822
:10278000002907D0897DC90704D5007B05F10F0119
:1027900000F014F8194800782946FFF74AFD0C2C80
:1027A00006D10298406818B10298001DFEF747FD57
:1027B00003B0F0BD0020704700207047104A127827
:1027C000130013D00B783228B8BF322002DB6F28F9
:1027D000A8BF6E20012A05D1323858433C2290FB15
:1027E000F2F39BB2FF2BC8BFFF230B7070470000B2
:1027F000206B00205C6B00204C660020A26B002048
:102800009D6B002000161000001815100200022415
:10281000144000001000000000BF2DE9F04F83B00D
:1028200000F028F98B494FF40010086001F06FFEAA
:10283000894801680903FCD58849DFF82492DFF84C
:1028400024B2894F082008604FF0010A00F0A1F976
:1028500001F004FE01F0D3FD01F09AFD01F02DFE20
:102860000421484601F098FE0821484601F094FEF4
:102870000221484601F090FE1021484601F08CFEEE
:1028800000220421484601F07FFE0022082148462C
:1028900001F07AFE00220221484601F075FE002276
:1028A0001021484601F070FE00220421484601F044
:1028B0006BFE00220821484601F066FE002202213C
:1028C000484601F061FE00221021484601F05CFEFE
:1028D0000DF104080FE0484601F056FE641CE4B216
:1028E000082C04BF00246D1C042D68DB0022042189
:1028F000484601F049FE0024002001E00098401CF9
:1029000000900098B0F5503FF8D30421484601F0FC
:1029100038FEC243D2B20421484601F035FE0821F8
:10292000484601F02EFEC243D2B20821484601F0CB
:102930002BFE0221484601F024FEC243D2B20221FE
:10294000484601F021FE1021484601F01AFEC2431C
:10295000D2B21021484601F017FE387820B100208D
:10296000387003B0BDE8F08F0821584601F009FE29
:102970000028C0D1641CE4B20A2CBDD1002204217D
:10298000484601F001FE00220821484601F0FCFD06
:1029900000220221484601F0F7FD0022102148469E
:1029A00001F0F2FD00240821584601F0EAFD00B9CB
:1029B0000024641CB4F5FA7FF5DB0024002508210F
:1029C000584601F0DEFD0028F9D1042204214846D2
:1029D00001F0DAFD08220821484601F0D5FD022267
:1029E0000221484601F0D0FD002C07BF1022102123
:1029F00000221021484601F0C7FD00260821584654
:102A000001F0BFFD00B90026761CB6F5FA7FF5DBB4
:102A100000220421484601F0B7FD00220821484663
:102A200001F0B2FD00220221484601F0ADFD002276
:102A30001021484601F0A8FD18F80500C4F107016F
:102A40000AFA01F1084219BF0422042100220421DC
:102A500041E7000008ED00E004200D4008300D4083
:102A600000B00D4000900D408C6B002080B501F04F
:102A7000FDFD02E080B501F0F5FD00B10120C0B21E
:102A800002BD10B50FF22813820853F822201368F4
:102A900000F00300C000FF248440A34301FA00F0CB
:102AA0001843106010BD3E49042803D1086840F463
:102AB000803022E0052803D1086840F400301CE093
:102AC000062803D1086840F4802016E00F2805D1BD
:102AD0003448016841F002010160704710280DD3AD
:102AE000A0F110010FF26C12490952F821101038B0
:102AF000012200F01F0002FA00F008607047284928
:102B0000042803D1086820F4803022E0052803D18E
:102B1000086820F400301CE0062803D1086820F47F
:102B2000802016E00F2805D11E48016821F002011F
:102B30000160704710280DD3A0F110010FF2281288
:102B4000490952F821101038012200F01F0002FA42
:102B500000F00860704714490E2803D1086840F05F
:102B6000006014E00F2803D1086840F000700EE008
:102B700010280DD3A0F110010FF20012490952F8EC
:102B800021101038012200F01F0002FA00F0086046
:102B900070470648016841F001010160704700007C
:102BA00024ED00E010E000E004ED00E098200D408E
:102BB0000000000018ED00E01CED00E020ED00E05A
:102BC00000E400E004E400E008E400E00CE400E0DD
:102BD00010E400E014E400E018E400E01CE400E08D
:102BE00020E400E024E400E028E400E02CE400E03D
:102BF00030E400E034E400E038E400E03CE400E0ED
:102C000040E400E044E400E048E400E04CE400E09C
:102C100050E400E054E400E058E400E05CE400E04C
:102C200060E400E064E400E068E400E06CE400E0FC
:102C300070E400E074E400E078E400E07CE400E0AC
:102C400080E400E084E400E088E400E08CE400E05C
:102C500090E400E000E100E004E100E008E100E0D1
:102C60000CE100E010E100E080E100E084E100E040
:102C700088E100E08CE100E090E100E080E200E02B
:102C800084E200E088E200E08CE200E090E200E014
:102C90005D4841F2FC72002181525C4908604FF4AA
:102CA00027710180084448F20401018041F25C511F
:102CB0008180704738B5012000F016F8040008BF85
:102CC000FFF7AAFDFFF7D6FE05465049201F086012
:102CD000204600F06DF84E49012008701DB9BDE88E
:102CE0003140FFF7C3BE31BDF8B500240025061DF5
:102CF00016F003001CBF311D0E1AFFF7BBFE44493E
:102D0000097800F001000A0080F0010002D0B6B29C
:102D1000112E02D23D4A176800E03E4F3B68C3F3D4
:102D2000C0320AB1002522E0B6B2D5B12268134400
:102D30004FEAD23EC3F30E0343EACE332360C3F31C
:102D40000E03B34213DB274647B33B68C3F30E04BD
:102D5000A41BA4B2082C13D3BC5346F400423A80FF
:102D600011E0C3F30E03B342EEDA01253C463A68A4
:102D7000C2F30E0217443A88002ACFD100270DE093
:102D800043F400423A6041B120490A68BA4204D192
:102D90003A68C2F30E023A440A603F1D08B1FFF7D9
:102DA00065FE17F0030018BFFFF736FD3846F2BD89
:102DB00010B515498842044604D34FF4C05211445B
:102DC000884201D3FFF728FD54F8040CC0F3C0304B
:102DD00008B9FFF721FDFFF74DFE54F8041C0B4A1C
:102DE00021F4004144F8041C211F136800F0010085
:102DF000994280F0010038BF116018B1BDE8104061
:102E0000FFF734BE10BD0000844200208462002021
:102E1000946B00202445002080B501F02BFC00F0CD
:102E2000F7F900F07BFD01F041FE00F021F8BDE86C
:102E3000014000F04BBB80B5FFF71CFE18B9FFF74F
:102E400015FEFFF7E9FC0648007818B901F054FEBA
:102E500000F0E6F900F052FBBDE8014002F0D4B901
:102E60006A42002070470268531C0360117070476B
:102E7000DFF8780300210170C171704738B5DFF8C1
:102E80006C430546207808B1FFF7C6FC012020708E
:102E9000DFF85C03007808B11D205EE0022D65704C
:102EA00002D102F0A1FA1BE0002D1CBF012DFFF79B
:102EB000B3FCDFF840136278002020710968CE4827
:102EC000897D49064CBF90F8461090F8251022B92C
:102ED000C07810B10329A8BF0221A17000F046F804
:102EE000E079B8B9C34D286808B9FFF795FC2868A0
:102EF000C24B41680A7802F02002A2718A7862719E
:102F0000027A481E911C0170EE211960511CC9B251
:102F100002F0AAFBBA4DFFF7ADFDBA492A7809784D
:102F200000F00100114380F001001AD183212170CB
:102F300008B1FFF79BFDB4480168490849000160EA
:102F4000002028706078022800D159E040B9FDF7D0
:102F500005FAE178814203D31C20BDE8324024E128
:102F600052E00221217000B152E031BD80B500F085
:102F700064F99E4991F9023001229A40521E104094
:102F8000C870487818B9BDE8014002F0B0B9BDE892
:102F9000014002F076B995480121C17140786DE792
:102FA00038B5974C974821780078084318BFFFF749
:102FB00033FC8E4DFFF75EFD297800F001000229F9
:102FC00080F0010019D18321297008B1FFF74EFD6F
:102FD0008D48016849084900016000202070687828
:102FE000022800D10CE038B9FDF7B8F9E978814240
:102FF00002D3BDE832404AE006E000B108E031BD4E
:10300000BDE8314002F01ABABDE8314002F0B9B96A
:10301000BDE83140FFF72ABD10B5744C607801005F
:103020001CBF0128FFF7F8FB0420207000F0F2FC21
:1030300020797649401C2071C0B20A7882420DD2B4
:103040000020E071207000F0E5FC00F030F900F0A5
:1030500062F9BDE81040E120FDF7EAB9487BA178AC
:103060004A1C8242B8BF481CA070FFF77FFF832034
:103070002070607838B9FDF771F9E178814202D3A8
:10308000BDE8104003E0BDE8104002F07AB91C2012
:103090008BE038B5FFF7EEFC00F00100534D80F0F7
:1030A00001042878832818D1A87990B98520287040
:1030B0000CB1FFF7DBFC0020E871287000F0AAFCDF
:1030C00000F0F5F800F027F9BDE832400020FDF7E8
:1030D000AFB98620287002F001FA04B198E731BD3B
:1030E000F8B505460E46FFF7C5FC00F001003F4C61
:1030F00080F00107207886282ED18720207002F0EA
:103100005BFA0FB1FFF7B2FC6079854216D156B178
:103110000020E071207000F07DFC00F0C8F800F0A5
:10312000FAF81B2014E00020E071207000F072FC1F
:1031300000F0BDF800F0EFF8002009E00020E07199
:10314000207000F067FC00F0B2F800F0E4F8E9202D
:10315000BDE8F240FDF76CB91FB1BDE8F140FFF7E3
:1031600085BCF1BD38B5FFF785FC00F001001F4DAF
:1031700080F001042878862814D18720287002F076
:103180001BFA0CB1FFF772FC0020E871287000F008
:1031900041FC00F08CF800F0BEF8BDE83240E920B8
:1031A000FDF746B904B133E731BD10B504460F4809
:1031B0000021C171017000F02DFC00F078F800F0E2
:1031C000AAF82046BDE81040FDF732B910B5094C09
:1031D000206808B9FFF720FB00F0D9F92168C86022
:1031E00001F000FB2168088210BD0000DC6A0020AD
:1031F0006A420020A0410020C065002038880840B5
:10320000026A0020006A002090860840E4650020E1
:1032100068480B218170FF214170C17001707047B7
:1032200065490020087065496548C08C00F0FF02C0
:103230000A60000A486001F0F0BB01F0BABA6149C7
:103240000A68431E9B41DB43DB0F22F0020040EA89
:10325000430008607047594900E05B4900F0FF02F5
:103260000A60000A4860704701460822574802F089
:10327000E9B970B5564D2E78044640B271B281421C
:10328000B8BF344604DB69784AB29042B8BF0C46F6
:10329000FFF7F0FB311B891CC9B2464A695CD1704B
:1032A00008B9FFF7E3FB00F002F8204670BD10B547
:1032B000FFF7E0FB3F49CA780C7800F00100A2421A
:1032C00080F0010009D0434B1B7833B9424B1B7887
:1032D0001B0602D40A7041490A6000B141E010BDEA
:1032E00038B50446A4F10B00122828BFFFF794FA62
:1032F000FFF7C0FB00F0010080F001052D4884704D
:103300003548007808B900F006F81DB1BDE8314035
:10331000FFF7ACBB31BD10B52F48007808B1FFF7FF
:103320007BFA244CFFF7A6FBA178637800F001003C
:10333000994280F0010011D0617008B1FFF796FB4F
:1033400000F09BFB6078264900EB80002C38086079
:1033500001F0E2FBBDE8104000F03CBB00B100E032
:1033600010BDBDE81040FFF781BB38B504461D48CD
:10337000007808B1FFF750FA0F4D287808B1FFF731
:103380004BFA20000CBF0120032C09D0012C1CBFDC
:10339000022CFFF741FA0949FF220A6002204A6025
:1033A000287031BD04490020087004490448C08CCD
:1033B00054E70000406B0020016A0020C8850840E7
:1033C000C065002000860840D0850840A8850840D8
:1033D000DC1F2100026A0020DC6A002040860840D1
:1033E0003C8608406A42002001F00DBB80B501F028
:1033F00014FB493840B210F1570FB8BF6FF05600B8
:1034000002DB0B28A8BF0A205730C0EB0020612147
:1034100090FBF1F0C0B202BD10F1570FB8BF6FF0D2
:10342000560002DB0B28A8BF0A205730C0EB002053
:10343000612190FBF1F0C0B2704710B4027A0C7AAF
:10344000A2421CD113001AD0022A04D10088098894
:10345000884214D112E0032A11D1082203780C7893
:10346000A3420CD1431C4C1C581C611C1B782478B3
:10347000A34204D1921ED3B2002BEFD120E0FFE78C
:1034800010BC002070470A7A0272032A04BF082287
:10349000FEF7C8BD09880180704710B40822037880
:1034A0000C78A34200D0EBE7431C4C1C581C611C59
:1034B0001B782478A342F6D1921ED3B2002BEED112
:1034C00010BC012070470822FEF7ACBD80B500207B
:1034D00001F0B7F94FF47F0000F030F84F486FF07B
:1034E00008014160016841F0080101606FF01001BE
:1034F0004160016841F01001016001BD10B5474C09
:10350000206820F010002060206820F00800206073
:10351000002001F096F94FF47F0000F00FF86FF0F3
:1035200008006060206840F0080020606FF0100024
:103530006060206840F01000206010BD38B504467F
:1035400001F060F9A04228BFFFF766F9FFF792FA91
:10355000054633480460204601F0C0F905B900E093
:1035600031BDBDE83140FFF781BA38B5FFF782FAC7
:10357000044601F047F905460CB9FFF777FA2848E9
:103580000068854201D3002032BD284632BD38B5DF
:10359000FFF770FA044601F03DF905460CB9FFF754
:1035A00065FA1F480068854201D3002032BD2846D5
:1035B00032BD70B51A4D04462868844228BFFFF713
:1035C0002BF9FFF757FA00F0010080F001066C605C
:1035D000204601F057F901F015F984420AD111494A
:1035E0006FF0100008600EB1FFF740FABDE87040C0
:1035F000FEF725BC1EB1BDE87040FFF737BA70BDBD
:103600007047FEF71CBC80B501F010FABDE8014020
:10361000FEF77EBC0248006870470000088808403A
:10362000CC6A00200C88084010B588B0694C202274
:1036300004F16C016846FEF7F5FC20460FF2981184
:103640008C2202F043F82022694604F16C00FEF758
:10365000E9FC1434FFF7F1FDA073FFF7EEFD2070D5
:1036600008B010BD70B5A0F140021E2A0C4638BF4C
:10367000A0F1400506D3A0F1E001102934BF00F10C
:103680003E052E25EDB22E2D01D1F42070BDFFF7A1
:10369000F1F906460FF2CC1000EB85014A7810F8DC
:1036A00025004C4901442046FEF7BCFC0EB9FFF74B
:1036B000DDF9002070BD2DE9F0410C460146452999
:1036C00002D14448846081E00546A5F140021E2AEB
:1036D00038BF403804D3A5F1E002102A04D23E30AE
:1036E000C0B22E28024602D1F420BDE8F0810FF2CC
:1036F000741000EB8206B078020004BFF278002A52
:1037000016D0F278904208BFFB2060D0582905D12E
:1037100020888F3846F22241884206D22078B2783B
:10372000904224BFF178814202D2E820BDE8F081C6
:10373000FFF7A0F907463078DFF8988072782146C5
:103740004044FEF76FFC0FB9FFF790F9502D12D0EF
:10375000522D1BD0532D14D0E02D2DD0E12D20D093
:10376000E22D24D0E52D2DD0E62D02BF207808F1E2
:103770002A01C8772AE008F10800C08BFFF76BFD2B
:1037800024E0B8F82A00FFF768FD1FE098F8290048
:1037900018B1022000F0C7F818E0022000F0F3F89A
:1037A00014E008F12A00007CFFF79AFD0EE008F112
:1037B0003C00FFF759FD09E008F12A00C07BFFF744
:1037C00058FD03E0207808F12A0188770020BDE841
:1037D000F0810000C06500203600010006000000F6
:1037E00000000000000F00000000000000000000CA
:1037F0000000000000000300FFFF00000403FFFFC3
:103800000000FFFF0F00F4010005C40403200001C5
:1038100000000B0000000000000000000300010F8A
:103820000000000000000000000000000000000098
:103830000000000000000000000000000000000088
:103840000000000000000000000000000000000078
:103850000000000000000000000000000000000068
:1038600000000000000136360101000102010001E4
:103870000301000104010606080400000C010034E5
:103880000D01000F10040101140100FF16080000D3
:1038900020020000220100FF23010001240100FE9C
:1038A000250100082602000028010001290100016D
:1038B0002A0200002C01000F2E020000300100013E
:1038C00031010008320200FF3401000735010240D7
:1038D000360100003701000138010001390100FF05
:1038E0003A010B1C3C080000460100084701000F8C
:1038F00048010001490100FF4C0400005004000091
:1039000054040000580400005C040000600400003F
:1039100064040000680400006C20FFFF6748002179
:1039200041700170704770B5060008BFFEF774FF64
:10393000FFF7A0F800F00100604D80F00104687806
:1039400030436870FFF796F800F00100297880F0A6
:10395000010021B901212970E321594A116008B100
:10396000FFF784F804B1B5E070BD10B5040008BFDE
:10397000FEF752FFFFF77EF850494A7822434A701B
:1039800000B961E010BD10B5040008BFFEF744FFA8
:10399000FFF770F849494A7884F0FF031A404A70EB
:1039A00008B9FFF763F8BDE8104033E080B5FFF7D2
:1039B00061F8424900224A700A70EF2240490A60C9
:1039C000ED220A600A6008B9FFF750F8BDE801402F
:1039D00001F0A2B838B5FFF74DF800F00100374DFF
:1039E00080F00104687878B1FFF744F800F0010036
:1039F000297880F0010021B901212970E321304AA2
:103A0000116008B1FFF732F81CB1BDE83140FFF793
:103A10002DB831BD10B5FFF72DF800F0010080F092
:103A200001042648407860B926480078000608D48A
:103A30002548007828B925480078000658BF00F0CE
:103A40001CF804B100E010BDBDE81040FFF70EB84F
:103A500080B5FFF70FF819490A7800F0010080F0EF
:103A6000010022B901220A70E321154A116018B140
:103A7000BDE80140FEF7FABF01BD70B5FEF7FAFFE1
:103A800000F0010080F001040C48017899B1002198
:103A90000170EF200E4D6860ED2068606860FEF7F1
:103AA000E9FF06462A20FFF756F86FF00400286069
:103AB0000EB9FEF7DBFF04B10CE070BD876B002090
:103AC00038880840006A0020026A0020DC6A002072
:103AD00034880840BDE87040FEF7C8BF00F101031C
:103AE000810704D010F8011B89B18107FAD102685F
:103AF000B2F10131914311F0803F04BF50F8042F1F
:103B0000F6E710F8011B11B110F8011BFBE7C01A12
:103B10007047000062F30F2262F31F42401810F05A
:103B2000030308D0C91A1FD3DB0748BF00F8012DD3
:103B300028BF20F8022D130030B414461546103962
:103B400028BF20E93C00FAD8490728BF20E90C002B
:103B500048BF40F8042D890028BF20F8022D48BF37
:103B600000F8012D30BC7047C91818BF00F8012DAE
:103B7000CB0728BF00F8012D704700000022FFF797
:103B8000CDBF000080B528B9FF20FEF79BFC0021C7
:103B9000002004E01349002008700FF21D01BDE869
:103BA000044001F0BEBD10490A78FF2A02D1087016
:103BB000012070470020704738B50B4D0446287827
:103BC000FF280ED00420FEF713FB50B1C021017076
:103BD000C4700021817001462878BDE83440FEF7AA
:103BE00028BB31BD936B00206C4200207CB46B4637
:103BF000002480B290FBF2F502FB1500C0B20A2847
:103C0000B4BF30263726301818702846ADB225B11B
:103C1000641C5B1CE4B2052CEBDB0020401C13F899
:103C2000012901F8012BC5B2AC42F7D2002008707F
:103C300073BC704700F0C8BD5FEA000C830706D074
:103C400011F8013B00F8013BB3B18307F8D10A68D2
:103C5000B2F1013323EA020313F0803F02BF40F8C0
:103C6000042B51F8042FF3E711F8013B00F8013B56
:103C700013B111F8013BF9E760467047024600E0D6
:103C8000521C1378002BFBD111F8013B137012F872
:103C9000013B002BF8D170477B49002048607047FA
:103CA000F8B5794C074620680D46164600E00068D6
:103CB00038B10189A94204BF817AB942F7D146607F
:103CC000F2BD1020FFF710F870B1877205814660D1
:103CD00000210160C160216811B92060F2BD114668
:103CE0000A68002AFBD10860F2BDF8B504460D460B
:103CF0001646FEF7BFFE0746324629462046FFF726
:103D0000CFFF04460FB9FEF7B1FE0CB10020F2BDA3
:103D10000820F2BDF8B504460D461646FEF7AAFE89
:103D200000F0010080F00107324629462046FFF7E7
:103D3000B7FF040018BFE6600FB1FEF797FE0CB1A5
:103D40000020F2BD0820F2BD70B504460D46FEF716
:103D500091FE4D490E6800F0010080F0010000E086
:103D600036683EB13189A94204BFB17AA142F7D188
:103D70000021318108B1FEF779FE0EB1002070BD3F
:103D8000062070BD70B504460E46FEF773FE00F0C7
:103D90000100002580F001003B49096831B10A8922
:103DA000B24204BF8A7AA242F7D14D6808B1FEF749
:103DB0005DFE284670BD2DE9F14781B0FEF75AFE41
:103DC000314C019A61685118616008B9FEF74EFEE6
:103DD0002768002F52D09DF80580BDF806A0002569
:103DE000FEF748FE00F00100002680F001095FEABE
:103DF0000A0008BF5FEA080007D138799DF804205F
:103E0000904202D3801A387106E0786801998142A5
:103E10003ABF401A78607E60B88858B9F88858B9B7
:103E2000F86868B1398908000AD0B87AFEF71FFB34
:103E3000F8687860B88808B9F88808B1388930B966
:103E40003868002D0CBF206028603E4600E03D46EB
:103E50003F68B9F1000F18BFFEF708FE66B1B088E1
:103E6000002804BFF088002803D13189B07AFEF71A
:103E7000FEFA3046FEF79CFF002FB1D1BDE8F38774
:103E80000148406870470000FC6A00200248002199
:103E90008171018070470000F46A002080B50E2017
:103EA000FEF722FF0E4908600E220021FEF7CEF831
:103EB0000020FDF73BF9012001F036FC022000F064
:103EC00011F8032002F0E8F9042002F06BFD052050
:103ED00003F078F8BDE80240062004F0E8B80000DE
:103EE000486B002015490870704780B504F06EFDDE
:103EF00004F0F8FD04F018FEBDE8014005F0E7B855
:103F000038B50C4620040BD50C4D01E0FEF782F9C4
:103F10002878FEF7DBF90028F8D184F4004032BDA0
:103F2000A00604D504F096FE84F0200032BDE00621
:103F300002D584F0100032BD002032BD8D6B002010
:103F400005F0C7B8DFF8241400200860704780B57A
:103F500002F06BF978B9DFF81404006800E04068FB
:103F600048B1417B0129FAD1016800291CBFBDE895
:103F7000024001F000BD01BDDFF8F0130968002028
:103F80000A4604E0537B042B08BF401C5268002AF9
:103F9000F8D1DFF8DC231278C0B282420BD30020C4
:103FA00001E04968401C0029FBD1DFF8C8130978FB
:103FB000C0B2814201D201207047002070472DE934
:103FC000F0410746DFF8A42316680C46397B00252C
:103FD00000E07668002E1CBF327B8A42F9D14FF098
:103FE0000108FEB97A89386800F0C8F8060031D0B7
:103FF0003581387C307407F1100005F017FD7061D1
:104000004FF67F41388B30830125708908407081DD
:1040100041074FBF40F08000DFF85C13097840EAA9
:10402000C11070817089C10901F00701A4B1022299
:1040300072733268927B520703D5DFF84023128AED
:10404000328161B34FF67F421040491E40EAC110F1
:10405000708124E0A84632E011B94FF000081EE05C
:10406000810605D5FEF7C2F800F07F005F3008E05A
:10407000C00605D5FEF7BAF800F00F000A3000E0E0
:1040800001203081042070732021DFF8F442207871
:10409000FFF778FE18B920782021FEF7E8F975B10E
:1040A0003289717B304600F07CF840B1706908B10C
:1040B000FEF77EFE3046FEF77BFE4FF000084046DE
:1040C000BDE8F08170B5DFF8A4422268014684B0F3
:1040D000002000E05268002A3DD0137B8B42F9D1CA
:1040E000517B062937D110685589007A8DF8080070
:1040F00010680088ADF80000104600F0DCF82805D4
:1041000028D5BDF80010002000F027F810BBDFF81C
:104110006C52A98C00A806F0D2F8246800E064680C
:1041200014B160890005FAD54FF6FF767CB120689E
:104130000188B1420ED0A98C06F0BFF81A2809D028
:104140006468002CF2D060890005F9D5EEE7002004
:1041500006F0B7F8012004B070BD18B9DFF80C0202
:10416000006800E0406840B142891205FAD5002994
:104170001EBF026812888A42F4D1704770B50446A7
:104180000D4616461C20FEF7AFFD48B100214173D5
:104190000573468101818173C1730460416141608F
:1041A00070BD38B5002843D0012910D16F4C246868
:1041B000002304E0657B012D08BF5B1C6468002CB4
:1041C000F8D1704C2478DBB29C4216D211E004295D
:1041D00011D1664C2468002304E0657B042D08BFE0
:1041E0005B1C6468002CF8D1614C2478DBB29C42E3
:1041F00003D2112032BD02291AD14173028100215C
:1042000041605A490A6832B100E00A465168002903
:10421000FBD1506000E00860594C20782021FFF766
:10422000B1FD18B920782021FEF721F9002032BD18
:10423000C12032BD10B94D48006800E0406838B177
:10424000437B8B42FAD11AB103689B7B5B07F5D4A1
:1042500070474649096800E0496821B10A7B8242FB
:10426000FAD10846704700207047F8B5044600268A
:104270000D4620000AD03D48076800E07F682FB156
:1042800029463846A0470128F8D13E463046F2BDBF
:1042900036490A6813464FF0000C01E09C465B6803
:1042A00043B18342FAD15868934201D10860704704
:1042B000CCF80400704710B5040011D0FFF7E8FFF8
:1042C0002068006AFEF774FD2068FEF771FD6069E2
:1042D00008B1FEF76DFD2046BDE81040FEF768BD51
:1042E00010BD10B550B150F8081C002902BFA0F154
:1042F00008018A79FF2A03D0FDF78CFF052010BD45
:104300001F4C22788A7120490A7801461F48FEF71F
:104310008DF8012806D120784FF40051FEF7A7F858
:10432000002010BD042010BD70B5FEF7A3FB174D93
:104330002E6800F0010080F001048EB1104856F89C
:10434000081C007800294FF4005102D0FEF78FF8C6
:1043500001E0FEF79DF8002231462846FEF749F8B5
:104360000CB1FEF783FB304670BD0000746B00207B
:10437000721E2100731E21006E4200204C66002038
:10438000A26B0020711E2100781E2100786B002096
:1043900010B5002006F021F8012006F01EF80220DA
:1043A00006F01BF8032006F018F84FF4807006F0B2
:1043B00014F840F2011006F010F84FF4007006F007
:1043C00009F840F2012006F005F840F201442046C9
:1043D00005F0E2FF4FF4806005F0DEFF4FF440701F
:1043E00005F0FBFF4FF4806005F0F4FF204605F078
:1043F000F1FFBDE810404FF4A06005F0EBBF80B5C1
:10440000002005F0FAFF012005F0F7FF022005F07B
:10441000F4FF032005F0F1FF4FF4807005F0EDFF8D
:1044200040F2011005F0E9FF4FF4007005F0E5FFE0
:1044300040F2012005F0E1FF4FF4407005F0DDFF90
:104440004FF4806005F0D9FF40F2014005F0D5FF40
:10445000BDE802404FF4A06005F0CFBF80B500205A
:1044600005F0DBFF012005F0D8FF022005F0D5FFA5
:10447000032005F0D2FF4FF4807005F0CEFF40F22C
:10448000011005F0CAFF4FF4007005F0C6FF40F2BE
:10449000012005F0C2FF4FF4407005F0BEFF4FF45D
:1044A000806005F0BAFF40F2014005F0B6FFBDE8BC
:1044B00002404FF4A06005F0B0BF80B5012000F0CD
:1044C000BCF8022000F0BEF8042000F0B6F8082086
:1044D00000F0B8F8102000F0B5F8202000F0ADF89A
:1044E0000122E121104800F077F8BDE808400122E0
:1044F00008210E4800F070B880B5E1210A4800F0AC
:1045000086F8BDE804400821084800F080B880B56E
:104510000122C021064806F089F8BDE808400022C3
:104520000021002005F0E4BE00B00D4000900D40D9
:1045300000C00D4030B5CB4300F58064D507256839
:104540004CBF0D431D40256000F58460920747BFB6
:104550000268114301681940016030BD012202FA6E
:1045600001F100F5806200F5846012680068C9B24C
:104570000A4018BF0122084214BF02200020104345
:10458000704750F82100704740F82120704738B537
:1045900004460D46002207E038B504460D460122C8
:1045A00002E004460D460222FFF7C4FF29462046DA
:1045B000BDE83840002206F039B838B5F1E738B523
:1045C00004460D460222FFF7B5FF29462046BDE806
:1045D0003840082206F02AB810B500231D4CA0422E
:1045E00008BF082308D01C4CA04208BF102303D0EA
:1045F0001A4CA04208BF1823994000F20470012A07
:1046000002680CBF114322EA0101016010BD0022C3
:10461000104B984208BF082208D00F4B984208BFA1
:10462000102203D00D4B984208BF182200F5E3601A
:104630009140036819430160704709490A681043B3
:104640000860704706490A6822EA0000086070475F
:104650000000000000A00D4000B00D4000C00D4063
:1046600094200D40EFF3108072B67047EFF3108086
:1046700062B67047F0B5DFF8EC0389B01421016031
:104680003F2181605521C160FC21DFF8DC43DFF868
:10469000DC53DFF8DC63DFF8C87361638521E16711
:1046A00001214161152141620021A96710210163A7
:1046B0000E214163032181630920706504210B20D1
:1046C00008608021FF2030602A20FEF7DAF980217F
:1046D0002B20FEF7D6F92A20FEF7E5F92B20FEF76E
:1046E000E2F980213120FEF7CCF9DFF88803006879
:1046F000000C3860FEF7BEF90221F1670022DFF8F6
:1047000078130A6028224A6008B9FEF7AFF9DFF88B
:104710006C0300680003FAD5306F40F00300306787
:10472000306F4007FCD5306F40F00A003067312011
:10473000FEF7B9F948202060FFF78AF9206CC0071E
:10474000FCD500201021A26F52084041491E80B2C2
:10475000F9D1002814BFB0F5607F4BF6BE20DFF81A
:10476000201300F0FF020A60001208607968080058
:104770000ED06846202200230826A76F7F085B41E1
:10478000761EFAD1521E00F8013BF4D168468847E4
:10479000FFF773F940202060206840F0200020607F
:1047A000002028606860A860E8602861686109B03E
:1047B000F0BDDFF8D002016821F00C0141F00401E6
:1047C00001608069C0B27047DFF8B802016821F06B
:1047D0000C0141F0040101608169406900EB012096
:1047E00080B2704710B5FEF745F9DFF89C12012240
:1047F0000A608A68496841EA022408B9FEF736F976
:10480000A0B210BD80B5FEF735F99F4900220A60BD
:104810004A6805E080B5FEF72DF99B4910220A6031
:104820004A698DF800200A698DF80120C9688DF861
:10483000021000218DF8031008B9FEF717F900984F
:1048400002BD01B5000E18BFFDF7E6FFFFF7DAFF66
:104850008E49CA688018009A801AC860FEF70AF963
:10486000894900220A609DF800204A619DF80120D4
:104870000A619DF80220CA6018B9BDE80140FEF740
:10488000F5B801BD11B5002481B0000E18BFFDF7C9
:10489000C3FFFEF7EFF87E490A6800F00100D20678
:1048A00080F0010004D50A6822F0100201240A6099
:1048B00030228A609DF80420CA619DF805208A6133
:1048C0009DF806204A616FF010024A601CB10A6828
:1048D00042F010020A6000B12DE013BD11B50024B2
:1048E00081B0000E18BFFDF797FFFEF7C3F86849C7
:1048F0000A6800F00100120780F0010004D50A6880
:1049000022F0080201240A6020228A609DF8042017
:10491000CA619DF805208A619DF806204A614A68AF
:1049200022F008024A601CB10A6842F008020A60DC
:1049300000B100E013BDBDE81340FEF797B838B5ED
:10494000534C2068616800EA0105E80604D5FEF7CB
:1049500058FE6FF010006060280704D5FEF753FE84
:104960006FF008000DE0E8070CD54A484A49006896
:1049700091F9002043B29A42B8BF1A460A706FF00C
:104980000100606031BD70B5444C454D666C2A2015
:10499000FEF7E1F828683040000705D56FF0080001
:1049A000286000F014FE13E028683040C00605D5EA
:1049B0006FF01000286000F011FE09E02868304018
:1049C000C00705D5606C40084000606400F081FBC2
:1049D000206C69680840400707D500F0D6F86FF0F2
:1049E0000400686020684006F7D470BD2D482E4949
:1049F00000680A681040400704D56FF004000860A2
:104A000000F0D5BB704724496FF07F000870204844
:104A1000016841F00101016070471D4801684908C3
:104A2000490001601C4890F90000704738B5FEF756
:104A300021F800F00100154D80F00104287828B914
:104A4000FEF7E8FDE9684018E86001E00020287002
:104A50001CB1BDE83140FEF709B831BD00000000CF
:104A6000D46A0020A4860840248608409085084027
:104A700094870840F80F28001488084004200D404F
:104A800014700D4000700D4010880840546A0020DA
:104A90000888084060860840926B00204C860840D9
:104AA00030880840948608402C880840DFF81C07AE
:104AB0000021C172416181800FF2F5010161002185
:104AC000817181818173704738B5DFF80447052013
:104AD0002060FDF7CFFF05462A20FEF73CF8DFF8FF
:104AE000F4166FF0040008600DB9FDF7BFFFE06B2E
:104AF00040F00400E06331BD80B5FEF757FFDFF8FA
:104B0000CC0600214171C172DFF8CC06016001685A
:104B100041F00901016001BD10B5DFF8B0464BE37B
:104B200038B5DFF8AC06DFF8AC46016C490849003F
:104B3000016405210160ED2060606060FDF79AFF6F
:104B400005462A20FEF707F86FF0040020600DB933
:104B5000FDF78CFFDFF87446606918B104F11400AA
:104B6000FBF76CFB0FF24900A17920612079084323
:104B70000AD000202071A071FEF74CFFFEF797FBD2
:104B8000BDE83140FEF70CBA31BD10B5DFF83C4648
:104B9000607B58B901202073206980470020207372
:104BA000607B18B1FFF7BCFF0020607310BD0000F0
:104BB0002DE9F84FDFF814462079002708B1FDF7FA
:104BC0002BFE81202071DFF81406007838B1DFF861
:104BD0001056686A000604D4686A400601D427713A
:104BE000AAE000F063FCA86E40084000A866A77128
:104BF00004216079A072204600F045FD207800F085
:104C00007F00C01EE071C0B27D28BEBF607800F09A
:104C1000070104297DDA00F00700022804BFE07ACA
:104C200000284CD1684600F02EFDFDF723FF00F070
:104C3000010080F00106DFF8AC05007886282FD14E
:104C4000DFF8A495D9F8000008B9FDF7E5FD9DF956
:104C50000000A0F149089DF8010000F07F0A5146CC
:104C60004FFA88F0FEF7D8FBD9F800104877D9F84A
:104C7000000080F81EA0D9F8000080F81F800EB157
:104C8000FDF7F4FE9DF80100000606D5607800F0FF
:104C90001001E078FEF724FA05E0FEF763FA02E07F
:104CA0000EB1FDF7E3FE686A400640D5686A00066B
:104CB0003DD4DFF83805ED218160816037E0DFF811
:104CC00024050078862808BFFEF74CFAA07A010078
:104CD00010D0E17A71B901285DD0022803D1617842
:104CE0000722114257D1032804D1607800F0070051
:104CF000032850D1A078C0F381094FEA9018DFF85B
:104D0000F004006800BBB8F1010F18BFB9F1010F42
:104D10001AD1DFF8D804ED2181608160696A490603
:104D200005D5696A090602D4ED2181608160277189
:104D3000A079002840F0D680FEF76CFEFEF7B7FAA7
:104D4000FEF72EF9BDE8F18F0FF2B84010F8091008
:104D500010F808004618B8F1000FF6B204D06078D9
:104D6000400644BFB61EF6B2E079B11C884212DBA1
:104D7000801B801E61786072090748BF2527C0B27A
:104D8000C0194C3080B2FBF74DFA606138B9DFF8DA
:104D90005C14E820886000F0ABF9BDE8F18FE07AA0
:104DA000002718B9607800F02000A071A079A0B3A6
:104DB000FDF760FE00F0010080F0010A607800F06D
:104DC000070003280CD1FBF716FA002873D1DFF88F
:104DD0002404007800286AD005F0BAFEFE286AD0C4
:104DE000286820F004002860FDF744FE83462A204E
:104DF000FDF7B1FEDFF8F4136FF001000860BBF1BE
:104E0000000F08BFFDF732FEA86E40F00100A86653
:104E1000BAF1000F18BFFDF729FE606900F14C01DF
:104E200041600164617A01726069017A80F844101E
:104E30006078000710D56169032081F84400611C87
:104E40006069403002790068FDF7ECF8606950F85D
:104E5000401F027911440160606980F82480606914
:104E600080F82E90FFF7D6FC61690863FFF7BAFC63
:104E700061698886607800F0070008736169E078EE
:104E800081F83D006178A078C0F3011001F078014D
:104E90000843616938438873D6B9617A0FF201100B
:104EA0000A000DD10120A8620FF2391019E0FBF7BA
:104EB00093F9002894D02868042740F0040092E772
:104EC0001029A8BF10212172217A491EA96208E089
:104ED00026726178207A090758BF401EA8620FF237
:104EE00009002061BDE8F18F30B5B84C207A85B05B
:104EF00008B9FDF791FC217A684600F0C4FBA07860
:104F00006946C0F38100C8B162699DF800304D78F0
:104F100003EB052313870328138FD38608D10DF1E4
:104F2000020102F12600FEF7CEFA0DF10A0105E0BA
:104F30008878C97800EB0120D08401A9A078800985
:104F400015D06269937B5B0605D40B784D7803EB33
:104F50000523D386891C032804D102F11C00FEF727
:104F6000B2FA04E00878497800EB01209083002031
:104F70006169C875617A0FF229000A0005D1944968
:104F8000012008600FF25D0007E01029A8BF102182
:104F900021728F4A217A491E1160206105B030BD0F
:104FA00010B58A4C6069217A006C00F06CFB616975
:104FB000207A0A6C02440A64617A081A6072C1B2EB
:104FC00031B98349012008600FF21900206110BD3A
:104FD000C0B21028A8BF102020727D49207A401E40
:104FE000086010BD2DE9F041784D0221284600F0FF
:104FF0004AFB6878002410F0800602D1E87A022883
:105000003ED102202871FEF705FD2857A0F149077F
:10501000687800F07F08414678B2FEF7FDF96969CB
:1050200081F83A00686980F83C70686980F83B80D4
:105030006869011D00F14C02CA6390F844000B79C5
:105040000A68C01A10440860897A490707D50078B1
:10505000042804D06248016821F004010160654819
:10506000007818B105F07BFD00B104246869817BEC
:1050700044EA0602114381736869FBF7FFF809E00F
:105080005748816E490849008166AC7105F11400EA
:10509000FBF7D4F800206861052151488162564928
:1050A0002961416A490606D5406A000603D453487F
:1050B000ED210160016000202871A87938B9FEF760
:1050C000A9FCFEF7F4F8BDE8F041FDF769BFBDE8C3
:1050D000F08180B53D4800218171007938B9FEF733
:1050E00099FCFEF7E4F8BDE80140FDF759BF01BDAA
:1050F00010B5364C40492069884218BFFDF78CFB3B
:10510000E079010016D13E480168490606D50068DD
:10511000000603D43948ED210160016000202071B0
:10512000A07990B9FEF776FCFEF7C1F8BDE8104013
:10513000FDF736BF1028A8BF102020723049207A12
:10514000401E48600FF20500206110BD10B51F4CD5
:10515000217A84B0684600F096FAE079217A401A04
:10516000E071C1B241B1C0B210281EDA2072401EF7
:105170002349486004B010BD2148052141601E4903
:1051800021610168490606D50068000603D41B4862
:10519000ED210160016000202071A07928B9FEF79F
:1051A00039FCFEF784F8FDF7FBFE04B010BD10B526
:1051B000064CA07B401CA07301206073207B18B9B3
:1051C000FFF7AEFC0020607310BD0000FC690020FA
:1051D000508608403488084000860840876B0020CD
:1051E00028860840DC6A0020A04100203088084062
:1051F000D46A0020906B0020B14B20003888084012
:105200004C86084000BE040A38B5134C20780100D3
:1052100021D0124D29680903FBD511490A6842F0D3
:1052200003020A600A685207FCD5022804D105F07F
:1052300049FDFFF749FC08E0012818BFFDF7ECFA2B
:105240002868000358BFFDF7E7FA00202070BDE88A
:105250003140FEF7BFBB31BD6A42002004200D4043
:105260000488084010B5FDF705FCDFF8A8130022FC
:105270000A604A688C6808B9FDF7F8FB2406600EDE
:1052800010BD38B5DFF888030068C00648BFFDF7D9
:10529000C3FADFF88403DFF884430121016701606A
:1052A000E220A060FF20A060FDF7E4FB05462A2075
:1052B000FDF751FC6FF0100020600DB9FDF7D6FB33
:1052C000FDF7D8FB05462A20FDF745FC6FF00800E6
:1052D00020600DB9FDF7CAFBBC20A060B820A0601B
:1052E0000F20A060D020A060A060A06035E038B59D
:1052F000DFF81C030068C00648BFFDF78DFADFF831
:105300001803DFF81843012101670160E220A06063
:10531000FF20A060FDF7AEFB05462A20FDF71BFC31
:105320006FF0100020600DB9FDF7A0FBFDF7A2FBA8
:1053300005462A20FDF70FFC6FF0080020600DB92C
:10534000FDF794FBBC20A0601720A0608120A06026
:105350001020A060D220A0608120A0601020A0605A
:10536000D220A060D920A0600120A0600920A06008
:10537000BA20A0600120A060C520A060D220A0605B
:1053800031BD10B5A648A7490078A74C08606FF05A
:1053900002002060FDF76EFB0021616000F001005B
:1053A000A24BA168E2681B68122B80F00100D2B208
:1053B00004D2C9B252EA010308BF491C0323636047
:1053C000C9B2A160E26008B1FDF750FB90480168E6
:1053D00041F010010160016841F008010160FEF731
:1053E00037FBE120E06210BD38B589480068C0068F
:1053F00048BFFDF711FA8848884C01210167016018
:10540000E220A060FF20A060FDF734FB05462A20C3
:10541000FDF7A1FB6FF0100020600DB9FDF726FB32
:10542000FDF728FB05462A20FDF795FB6FF00800E5
:1054300020600DB9FDF71AFBBC2092E72DE9F04181
:105440007348744D0168774C41F0100101600168A8
:1054500041F008010160FDF70DFB00F0010080F054
:1054600001080020286068686E69F6B206F00F0037
:10547000C0F10F07FFB22760FEF798FA6C490120D0
:105480000870E120A8620020286068686869864288
:1054900003D0022FA4BF781E2060B8F1000F03D004
:1054A000BDE8F041FDF7E2BABDE8F0815A48006876
:1054B00000B1704780B556480168C9060DD501682E
:1054C00021F0100101600168090705D5016821F08C
:1054D00008010160FDF77AFEB0E001BD2DE9F84357
:1054E0004B4C2068C00648BFFDF796F9FFF7BAFE9F
:1054F000814651480678152EB8BFFDF78DF909EBA6
:1055000006001438C0B2142190FBF1F101EB8102C6
:10551000444EA0EB8205491C0220EDB2B0605FFA58
:1055200081F8C6F80080152DA8BFFDF775F93E4F2C
:105530006FF002003860FDF79DFA03213B4A796065
:105540006902126800F00100122A80F0010002D204
:105550008AB202B9012189B201F0FF02BA60090AD8
:10556000F96008B1FDF782FAE220F862FF20F862E4
:10557000FDF780FA05462A20FDF7EDFA6FF01000DE
:1055800078620DB9FDF772FABC20F862B820F862B3
:10559000D220F862206840F010002060E120F8621C
:1055A000FFF760FE484505DA3068404502D13068B3
:1055B000401E3060BDE8F1831548016821F01001FC
:1055C0000160E2211B480160FF2101607047104823
:1055D000016821F008010160FDF7F8BD80B50C48B5
:1055E000016821F0100101600B48016801B925E054
:1055F0000168012903D1BDE80140FDF70DBD006838
:10560000022818BFFDF708F9BDE80140FDF7AABD63
:1056100090860840108808409087084030880840ED
:10562000DF6A0020888708400C880840D46A002080
:10563000876B002038880840C0650020BDE8014025
:10564000FDF727BD130005D011F8013B40F8043BDE
:10565000521EF9D17047130005D050F8043B01F8F1
:10566000013B521EF9D1704738B504460D0008BF02
:10567000FDF7D2F814F8010B0B4908606D1EE8B273
:105680000028F7D131BD38B504460D0008BFFDF73D
:10569000C3F80548006804F8010B6D1EE8B2002845
:1056A000F7D131BD000000002888084062B38B07A5
:1056B00008D0521E11F8013B00F8013B00F0248095
:1056C0008B07F6D1830740F0208000BF103A07D344
:1056D00030B4B1E83810103AA0E83810F9D230BC34
:1056E000530724BFB1E80810A0E8081044BF51F8E0
:1056F000043B40F8043BD20724BF31F8022B20F8CA
:10570000022B44BF0B7803707047083A07D3B1E807
:105710000810083A40F8043B40F804CBF7D253078E
:10572000E4E77047FEF7E8BE10B5DFF8D819DFF8F8
:10573000D8490870002084F8260005F0F1FAFEF739
:1057400001FC0020606704F0B1FA05F0ECFA0020DB
:10575000DFF8281A0860BDE8104004F0A9BD2DE963
:10576000F0430C4687B020041FD5DFF89809007875
:10577000FCF7ACFD050015D00FF28C11002000E005
:10578000401CC0B2024611F83230FF2B07D02E78F1
:10579000B342F5D101EBC201284649688847284643
:1057A000FCF738FD84F40040ABE0A0040BD5FEF715
:1057B000BBFD050004D000F007FA2846FCF72AFDDF
:1057C00084F400509DE0E00723D5DFF83C5905F252
:1057D0001A06B07C0F2819D11822002100A8FCF766
:1057E00035FC02208DF80800688BADF80000708948
:1057F000ADF80A0000208DF8140000A804F020FD88
:1058000020B1DFF87C09008800F027F984F001005E
:1058100077E0A00664D5DFF8EC6830780025202119
:10582000FEF7B0FA20B9307802222021FEF772FA92
:10583000002204211046FEF7FDFC074601E07D73BF
:105840004746002F3AD0002204213846FEF7F2FCEA
:1058500080463889401E3881012580B20028EFD16A
:10586000B87B0128EBD1B87A4007E8D406207873DA
:10587000F87B08B9B720F873386897F80F90477B22
:105880001420FCF7B5FC01000AD00C2008708F70C2
:1058900081F80190002088733078FCF7CAFCCFE7CC
:1058A0003846FEF7D6FC0028CAD006214173007B9B
:1058B00005F044FD3846FEF705FCC1E7FEF747FB5F
:1058C000002201210020FEF7B5FC002808BF002DB2
:1058D00003D130782021FEF737FA84F0200010E061
:1058E00060050DD5DFF84809008803F01CFFDFF8DC
:1058F00044094089012105F0A1FF84F4806000E0A3
:10590000002007B0BDE8F0830A000000E761200036
:10591000020000004D5E2000050000003D602000F8
:1059200007000000135F20000C000000855A2000D3
:105930000D000000C95B2000FF0000000000000017
:1059400010B58CB00C0013D0014600AA204603F01D
:105950005CFD9DF8060058B19DF81C309DF80120B3
:105960002146002006F01EFA10B1A4200CB010BD94
:1059700000200CB010BD70B50446A07A40060AD5D0
:105980002068008804F02EF810B14FF6FF7008E090
:105990002068008801E003F04CFE4FF6FE7188425B
:1059A00016D02168088004F01DF8014620684A1EC0
:1059B0009241D20FC281DFF8801804F048FC050044
:1059C00007D11CB101212046FEF7F9FA284670BD27
:1059D000CD252068467B1420FCF70AFC01000BD083
:1059E0000C2008708E704D7000208873DFF814074B
:1059F0000078FCF71EFCE4E73046FEF72AFC00289E
:105A0000E4D006214173007B05F098FC3046FEF798
:105A100059FBDBE738B504460D461420FCF7E8FBDC
:105A200068B10C21017084704570002181730146BA
:105A3000DFF8D0060078FCF7FCFB002032BD2046E2
:105A4000FEF707FC38B106214173007B05F076FCB8
:105A50002046FEF737FB102032BDDFF8AC1691F878
:105A60002C200F2A0DD160B191F82610082918BFFB
:105A7000042906D10246DFF88C0600780121FEF7E2
:105A800034B9704730B5044683B0A078FEF7E1FB27
:105A900005003BD06078E8736078F12818BFCD2806
:105AA00004D01A281CBFE928E1280BD10021284680
:105AB000FEF785FA30B16A896178288905F0A7F97F
:105AC00028811BE060788DF808000195A07B8DF897
:105AD0000900287C002801A802D105F083FD01E01F
