:100000000000032031D901007F230100E723010014
:1000100033270100AB270100D336010000000000A8
:100020000000000000000000000000005954010022
:10003000DB3701000000000001540100134C0100F7
:10004000E1E40100E9E40100F1E40100F9E4010068
:1000500001E5010009E5010011E5010019E50100D4
:1000600021E5010029E5010031E5010039E5010044
:1000700041E5010049E5010051E5010059E50100B4
:1000800061E501007DE601007DE601007DE60100FD
:100090007DE601007DE601007DE601007DE60100D0
:1000A00069E5010071E5010079E5010081E50100E4
:1000B00089E5010091E5010099E50100A1E5010054
:1000C000A9E50100D79D0100B1E50100B9E50100F6
:1000D000C1E50100C9E50100D1E501007DE60100AF
:1000E0007DE601007DE601007DE601007DE6010080
:1000F0007DE601007DE601007DE601007DE6010070
:100100007DE601007DE601007DE601007DE601005F
:100110007DE601007DE601007DE601007DE601004F
:100120007DE601007DE601002DB801007DE60100BD
:100130007DE601007DE601007DE6010093350100CA
:100140007DE60100D9E50100739D0100E1E50100B4
:10015000E9E50100F1E501007DE601007DE6010031
:100160007DE601007DE60100F9E5010001E6010000
:1001700009E6010011E6010019E6010021E601008F
:1001800029E6010031E6010011C50100D5C40100D6
:10019000E9C40100FDC401007DE601007DE6010027
:1001A0007DE601007DE601007DE601007DE60100BF
:1001B0007DE601007DE601007DE601007DE60100AF
:1001C0007DE601007DE601007DE601007DE601009F
:1001D0007DE601007DE601007DE601007DE601008F
:1003F0007DE601007DE601007DE60100FFFFFFFFD5
:10040000FFFFFFFFFFFFFFFFFFFFFFFFFEFFFFFFFD
:10041000A7009881A8004E81B0008B81B1007D813A
:10042000B4004C81B600F781D7007E81F70080814F
:1004300091039F839203A0839303A1839403A283D8
:100440009503A3839603A4839703A5839803A683A8
:100450009903A7839A03A8839B03A9839C03AA8378
:100460009D03AB839E03AC839F03AD83A003AE8348
:10047000A103AF83A303B083A403B183A503B28315
:10048000A603B383A703B483A803B583A903B683E4
:10049000B103BF83B203C083B303C183B403C28378
:1004A000B503C383B603C483B703C583B803C68348
:1004B000B903C783BA03C883BB03C983BC03CA8318
:1004C000BD03CB83BE03CC83BF03CD83C003CE83E8
:1004D000C103CF83C303D083C403D183C503D283B5
:1004E000C603D383C703D483C803D583C903D68384
:1004F000010446841004408411044184120442849F
:100500001304438414044484150445841604478466
:10051000170448841804498419044A841A044B8433
:100520001B044C841C044D841D044E841E044F8403
:100530001F045084200451842104528422045384D3
:1005400023045484240455842504568426045784A3
:10055000270458842804598429045A842A045B8473
:100560002B045C842C045D842D045E842E045F8443
:100570002F046084300470843104718432047284E6
:1005800033047384340474843504758436047784A6
:10059000370478843804798439047A843A047B8473
:1005A0003B047C843C047D843D047E843E04808442
:1005B0003F0481844004828441048384420484840F
:1005C00043048584440486844504878446048884DF
:1005D0004704898448048A8449048B844A048C84AF
:1005E0004B048D844C048E844D048F844E0490847F
:1005F0004F0491845104768410205D8115205C8124
:1006000018206581192066811C2067811D20688162
:100610002020F5812120F681252064812620638118
:100620003020F18132208C8133208D813B20A681C6
:1006300003218E8116218287212184872B21F0813D
:10064000602154876121558762215687632157872E
:10065000642158876521598766215A8767215B87FE
:1006600068215C8769215D87702140FA712141FA18
:10067000722142FA732143FA742144FA752145FA32
:10068000762146FA772147FA782148FA792149FA02
:100690009021A9819121AA819221A8819321AB81E6
:1006A000D221CB81D421CC810022CD810222DD81D7
:1006B0000322CE810722DE810822B8810B22B98174
:1006C000112294871A22E3811D22E5811E2287814F
:1006D0001F2298872022DA81252261812722C88162
:1006E0002822C9812922BF812A22BE812B22E781AB
:1006F0002C22E8812E229387342288813522E681BC
:100700003D22E4815222E081602282816122DF81E8
:1007100066228581672286816A22E1816B22E281DD
:100720008222BC818322BD818622BA818722BB813D
:10073000A522DB81BF2299871223DC8160244087B8
:100740006124418762244287632443876424448769
:100750006524458766244687672447876824488739
:10076000692449876A244A876B244B876C244C8709
:100770006D244D876E244E876F244F8770245087D9
:1007800071245187722452877324538700259F84D4
:100790000125AA840225A0840325AB840C25A1840D
:1007A0000F25AC841025A2841325AD841425A484C0
:1007B0001725AF841825A3841B25AE841C25A5848A
:1007C0001D25BA842025B5842325B0842425A7843B
:1007D0002525BC842825B7842B25B2842C25A68406
:1007E0002F25B6843025BB843325B1843425A884D5
:1007F0003725B8843825BD843B25B3843C25A9849E
:100800003F25B9844225BE844B25B484A025A1810F
:10081000A125A081B225A381B325A281BC25A581F4
:10082000BD25A481C6259F81C7259E81CB259B819F
:10083000CE259D81CF259C81EF25FC8105269A81BF
:100840000626998140268A81422689816A26F4817A
:100850006D26F3816F26F2810030408101304181A5
:10086000023042810330568105305881063059816B
:1008700007305A8108307181093072810A307381E2
:100880000B3074810C3075810D3076810E3077819C
:100890000F3078811030798111307A811230A78140
:1008A0001330AC8114306B8115306C811D30808722
:1008B0001F30818741309F824230A0824330A18225
:1008C0004430A2824530A3824630A4824730A582BC
:1008D0004830A6824930A7824A30A8824B30A9828C
:1008E0004C30AA824D30AB824E30AC824F30AD825C
:1008F0005030AE825130AF825230B0825330B1822C
:100900005430B2825530B3825630B4825730B582FB
:100910005830B6825930B7825A30B8825B30B982CB
:100920005C30BA825D30BB825E30BC825F30BD829B
:100930006030BE826130BF826230C0826330C1826B
:100940006430C2826530C3826630C4826730C5823B
:100950006830C6826930C7826A30C8826B30C9820B
:100960006C30CA826D30CB826E30CC826F30CD82DB
:100970007030CE827130CF827230D0827330D182AB
:100980007430D2827530D3827630D4827730D5827B
:100990007830D6827930D7827A30D8827B30D9824B
:1009A0007C30DA827D30DB827E30DC827F30DD821B
:1009B0008030DE828130DF828230E0828330E182EB
:1009C0008430E2828530E3828630E4828730E582BB
:1009D0008830E6828930E7828A30E8828B30E9828B
:1009E0008C30EA828D30EB828E30EC828F30ED825B
:1009F0009030EE829130EF829230F0829330F1822B
:100A00009B304A819C304B819D3054819E30558172
:100A1000A1304083A2304183A3304283A43043837A
:100A2000A5304483A6304583A7304683A83047834A
:100A3000A9304883AA304983AB304A83AC304B831A
:100A4000AD304C83AE304D83AF304E83B0304F83EA
:100A5000B1305083B2305183B3305283B4305383BA
:100A6000B5305483B6305583B7305683B83057838A
:100A7000B9305883BA305983BB305A83BC305B835A
:100A8000BD305C83BE305D83BF305E83C0305F832A
:100A9000C1306083C2306183C3306283C4306383FA
:100AA000C5306483C6306583C7306683C8306783CA
:100AB000C9306883CA306983CB306A83CC306B839A
:100AC000CD306C83CE306D83CF306E83D0306F836A
:100AD000D1307083D2307183D3307283D43073833A
:100AE000D5307483D6307583D7307683D83077830A
:100AF000D9307883DA307983DB307A83DC307B83DA
:100B0000DD307C83DE307D83DF307E83E0308083A8
:100B1000E1308183E2308283E3308383E430848375
:100B2000E5308583E6308683E7308783E830888345
:100B3000E9308983EA308A83EB308B83EC308C8315
:100B4000ED308D83EE308E83EF308F83F0309083E5
:100B5000F1309183F2309283F3309383F4309483B5
:100B6000F5309583F6309683FB304581FC305B8110
:100B7000FD305281FE30538131328A8732328B8789
:100B800039328C87A4328587A5328687A63287873B
:100B9000A7328887A8328987033365870D33698731
:100BA00014336087183363872233618723336B875D
:100BB00026336A87273364872B336C8736336687FF
:100BC0003B336E8749335F874A336D874D33628786
:100BD00051336787573368877B337E877C338F87B2
:100BE0007D338E877E338D878E3372878F33738705
:100BF0009C336F879D3370879E337187A1337587D0
:100C0000C4337487CD338387004EEA88014E9A92AD
:100C1000034EB58E074E9C96084EE48F094E4F8EBC
:100C20000A4EE38F0B4EBA890D4E73950E4E5E97AA
:100C3000104EA098114E4E89144E8E8A154EA198D2
:100C4000164EA290174EC099184E758B194EB89536
:100C50001E4EE58F214EBC97264EC095284E68FA51
:100C60002A4EA2982D4E8692314EA398324EF88B82
:100C7000364EA498384EDB8A394E4F923B4EE58E65
:100C80003C4EA5983F4EA698424EA798434E54948A
:100C9000454E768B4B4E56944D4EE1934E4EC18C45
:100CA0004F4E5296554E68E5564EA898574EE68FD1
:100CB000584EA998594EB3895D4EE38B5E4EEE8C2B
:100CC0005F4EE796624EA49B714E9097734EFB93D6
:100CD0007E4EA38A804E548B824EAA98854EAB9846
:100CE000864EB997884E5C97894E88918A4EAD980A
:100CF0008B4E968E8C4EF1938E4EB098914E5D89B0
:100D0000924EDD8C944EDC8C954EE488984E6A9819
:100D1000994E69989B4EB18D9C4E9F889E4EB1987E
:100D20009F4EB298A04EB398A14E5396A24EB4983F
:100D3000A44EF08CA54EE588A64E9296A84E9C8BAC
:100D4000AB4E9D8BAC4E9E8BAD4EE092AE4EBA97A5
:100D5000B04EB598B34EB698B64EB798BA4E6C90A2
:100D6000C04E598FC14E6D90C24EBC98C44EBA98B9
:100D7000C64EBB98C74E778BCA4EA18DCB4EEE891F
:100D8000CD4EB998CE4EB898CF4EA795D44E658E1D
:100D9000D54E648ED64EBC91D74EBD98D84E749524
:100DA000D94EE590DD4E5781DE4EBE98DF4EC0989D
:100DB000E14E69FAE34EE391E44EDF97E54EC888D1
:100DC000ED4EBF98EE4EBC89F04EC28BF24E87922C
:100DD000F64E8F8CF74EC198FB4E4394FC4E6AFA48
:100DE000004F6BFA014FE98A034F6CFA094FC29822
:100DF0000A4FC9880D4FDE8C0E4FEA8A0F4F9A9525
:100E0000104FB094114F788B1A4FEF891C4FE59813
:100E10001D4F60932F4F8C94304FC498344FBA9429
:100E2000364FE097384F4C90394F6DFA3A4F668EF7
:100E30003C4F978E3D4FBE89434FCF92464F4192D4
:100E4000474FC8984D4FCA884E4FE1924F4F5A8F27
:100E5000504FB28D514F4397534FCC91554FBD8951
:100E6000564F6EFA574FC798594F5D975A4FC398D0
:100E70005B4FC5985C4FEC8D5D4FC6985E4F439BB2
:100E8000694FCE986F4FD198704FCF98734FC089EC
:100E9000754FB995764FC9987B4FCD987C4FF18CA3
:100EA0007F4F678E834FA48A864FD298884FCA9807
:100EB0008A4F70FA8B4FE1978D4F988E8F4FCB985A
:100EC000914FD098924F6FFA944F72FA964FD398F1
:100ED000984FCC989A4F71FA9B4F9F8B9D4FCB8820
:100EE000A04FA08BA14FBF89AB4F449BAD4F9996AC
:100EF000AE4F8E95AF4FF28CB54F4E90B64FB59723
:100F0000BF4FD695C24F578CC34FA391C44FE289B0
:100F1000C94F61FACA4F728FCD4F73FACE4FD7982F
:100F2000D04FDC98D14FDA98D44FD598D74FAD91A8
:100F3000D84FD898DA4FDB98DB4FD998DD4FDB9547
:100F4000DF4FD698E14F4D90E34F9396E44FDD98F5
:100F5000E54FDE98EE4F438FEF4FEB98F34F6F94D2
:100F6000F54F5595F64FE698F84FEE95FA4FB48940
:100F7000FE4FEA98FF4F76FA0550E4980650ED9838
:100F8000095071910B50C28C0D507B940F50C5E0ED
:100F90001150EC9812507C931450E1981650F48C38
:100FA0001950F38C1A50DF981E5077FA1F50D88EC4
:100FB0002150E798225075FA2350ED9524506C92F9
:100FC0002550E3982650918C2850E0982950E898B5
:100FD0002A50E2982B50CF972C50E9982D506098CA
:100FE0003650E48B3950908C405074FA42507AFA63
:100FF0004350EE98465078FA4750EF984850F3988F
:101000004950CC884F50CE955050F2985550F19899
:101010005650F5985A50F4985C50E2926550928C74
:101020006C50F698705079FA7250C38E7450A49137
:101030007550E3927650F48B7850F7987D50558B2D
:101040008050F8988550FA988D5054969150868C1F
:1010500094507BFA9850508E9950F5949A50F99884
:10106000AC50C38DAD506297B250FC98B3504299CA
:10107000B450FB98B550C28DB7509D8FBE50588C60
:10108000C2504399C550CD8BC9504099CA5041991F
:10109000CD50AD93CF509C91D150A18BD5506C9633
:1010A000D6504499D8507DFADA50BB97DE50459916
:1010B000E3504899E5504699E7506D91ED504799B6
:1010C000EE504999F4507CFAF5504B99F9504A99F1
:1010D000FB50C6950051568B01514D9902514E99C6
:1010E0000451AD8909514C991251F28E1451519904
:1010F0001551509916514F991851D4981A51529927
:101100001F519E8F215153992A5144973251D7969E
:10111000375155993A5154993B5157993C515699E9
:101120003F515899405159994151F2884351B38CDC
:1011300044515A8C45515B8F46519B924751A28B2B
:101140004851E6904951F58C4A517EFA4B518E8DAB
:101150004C515B994D51C6964E5165935051998EA5
:1011600052515A9954515C995A517D935C51958AC8
:1011700062515D99645180FA6551FC9368515391B5
:1011800069515F996A5160996B51AA946C51F68CC0
:101190006D515A986E5161997151A48B7551BA95E0
:1011A0007651B4917751EF8B785154937C51938C55
:1011B00080516299825163998551E09386517E896D
:1011C000895166998A51FB8D8C5165998D51C48DD9
:1011D0008F5167999051ECE39151689992516096C3
:1011E0009351699995516A9996516B999751E78FE7
:1011F0009951CA8E9D5181FAA051A58AA2516E992A
:10120000A4516C99A551BB96A6516D99A851799599
:10121000A9516F99AA517099AB517199AC517E93B4
:10122000B0517599B1517399B2517499B351729982
:10123000B451E18DB5517699B651E896B751E29720
:10124000BD517799BE5182FAC451A690C551789983
:10125000C651798FC9517999CB519C92CC51BD9788
:10126000CD518093D651C399DB517A99DC51A3EAD1
:10127000DD51C38BE0517B99E1517D96E651888F1A
:10128000E751FA91E9517D99EA51E293EC5183FAE1
:10129000ED517E99F0518099F1514D8AF551819926
:1012A000F651A58BF851CA93F9519A89FA516F8F6B
:1012B000FD519F94FE5182990052819303526E908A
:1012C000045283990652AA950752D8900852A08AD0
:1012D0000A52A78A0B5284990E5286991152598C40
:1012E00014528599155284FA1752F1971D52898F1D
:1012F0002452BB942552CA95275287992952989710
:101300002A5288992E52899930529E9333528A9943
:101310003652A7903752FC8D3852948C39528B99A3
:101320003A52688E3B528F8D4352E49244528D99CB
:101330004752A5914A52ED8D4B528E994C528F993E
:101340004D524F914F528C995452919956525596F5
:101350005B52848D5E5290996352958C6452DC8D01
:1013600065528D94695294996A5292996F529B95E5
:101370007052E88F71529B997252848A7352959978
:101380007452939975526E917D5297997F529699A6
:101390008352638A8752808C88529C998952AB977A
:1013A0008D52989991529D9992529A9994529999E5
:1013B0009B52CD979C5285FA9F52F78CA052C189BF
:1013C000A352F297A65286FAA952958FAA52779302
:1013D000AB52858DAC52A099AD52A199AF5277FB1B
:1013E000B152E397B4524A98B552A399B952F88CC6
:1013F000BC52A299BE524E8AC05287FAC152A499D9
:10140000C3527596C552BA92C7524597C952D795DD
:10141000CD52A599D252D3E8D552AE93D752A699C0
:10142000D852A88AD952B196DB5288FADD529F8FE2
:10143000DE52A799DF52E595E052AB99E252A890AF
:10144000E352A899E452CE8BE652A999E752A98AB1
:10145000F2524D8CF352AC99F552AD99F852AE99C7
:10146000F952AF99FA52D98EFE52F98CFF52DC969E
:10147000005389FA0153E6960253F5930553EF950D
:101480000653B09907538AFA0853B1990D53B3998B
:101490000F53B5991053B4991553B6991653BB8988
:1014A00017536B961953FA8D1A53B7991D537891A8
:1014B0002053A08F2153A78B2353B89924538BFA21
:1014C0002A53D9942F53B9993153BA993353BB99AD
:1014D0003853BC99395343953A53E68B3B53E388D1
:1014E0003F53BD934053BD9941535C8F4353E790A5
:1014F0004553BF994653BE994753A18F4853DF8C3C
:101500004953C1994A53BC944D53C2995153DA94EB
:101510005253B2915353EC915453A68B5753EC93BF
:10152000585350925A538E945C536D965E53C4999F
:101530006053E8906653548C6953C5996E53C699AD
:101540006F534B897053F3887153EB8A72538CFA43
:101550007353A6917453708B755391977753C999B0
:101560007853B5897B53C8997F53A88B8253CA9906
:101570008453EF9693538DFA9653CB999853D09703
:101580009A53FA8C9F53B48CA053CC99A553CE99FF
:10159000A653CD99A8537E90A9535889AD537D8900
:1015A000AE53CF99B053D099B2538EFAB353B58C92
:1015B000B653D199BB538E8BC253518EC353D2991C
:1015C000C8539496C953B38DCA53798BCB5346975E
:1015D000CC536F91CD53BD94CE53FB8ED453668FB5
:1015E000D653E68ED753F38ED953968FDB53BE94E2
:1015F000DD538FFADF53D599E1536289E25370913D
:10160000E353FB8CE453C38CE553E58BE853D99942
:10161000E9534092EA53FC91EB53A98BEC53A28F10
:10162000ED53DA99EE53D899EF53C289F053E49110
:10163000F153B68EF2536A8EF3534589F653908A6E
:10164000F753868DF853698EFA53DB990154DC9970
:101650000354688B0454658A0854878D0954678B3A
:101660000A54DD920B5444890C54AF930D54BC962C
:101670000E54408D0F549997105466931154FC8C5E
:101680001B544E8C1D54E5991F54E18B20546996D0
:101690002654DB942954E4992B54DC8A2C54DF998A
:1016A0002D54E0992E54E2993654E39938547A8BAC
:1016B000395481903B54AB953C54E1993D54DD99AC
:1016C0003E54E18C4054DE99425443984654F09580
:1016D0004854E6924954E08C4A54908D4E54E69911
:1016E0005154DB935F54EA996854FC8E6A54F48E2B
:1016F0007054ED997154EB997354A1967554E8990F
:101700007654F1997754EC997B54EF997C54C48CBE
:101710007D54BD968054F0998454F2998654F4997E
:101720008A5492FA8B54EE8D8C5461988E54E999B8
:101730008F54E7999054F3999254EE999C5491FAEE
:10174000A254F699A454429AA554F899A854FC9925
:10175000A95493FAAB54409AAC54F999AF545D9A9A
:10176000B254E78DB354508AB854F799BC54449A94
:10177000BD54F488BE54439AC054A388C15469959B
:10178000C254419AC454FA99C754F599C854FB9964
:10179000C954C68DD854459AE154F588E2544E9AFE
:1017A000E554469AE654479AE854A38FE95489963B
:1017B000ED544C9AEE544B9AF2544E93FA544D9A7F
:1017C000FD544A9AFF5494FA045553890655B48D32
:1017D00007554F900F55489A105582931455499AC2
:1017E0001655A0882E55539A2F5542973155A58FDF
:1017F0003355599A3855589A39554F9A3E55C19193
:101800004055509A4455ED914555559A4655A48FEB
:101810004C55529A4F55E29653555B8C5655569AF5
:101820005755579A5C55549A5D555A9A6355519A33
:101830007B55609A7C55659A7E55619A80555C9A75
:101840008355669A84555091865595FA8755689ABE
:101850008955418D8A555E9A8B559D929855629A0D
:1018600099555B9A9A55AB8A9C55EC8A9D55858A09
:101870009E55639A9F555F9AA755968CA855699A6D
:10188000A955679AAA557291AB55698BAC55AA8B2D
:10189000AE55649AB055F28BB6556389C4556D9AAE
:1018A000C5556B9AC755A59AD455709ADA556A9A58
:1018B000DC556E9ADF556C9AE3556B8EE4556F9A42
:1018C000F755729AF955779AFD55759AFE55749A9F
:1018D000065651920956C3891456719A1656739A30
:1018E0001756A68F185652891B56769A2956DC89A8
:1018F0002F56829A3156FA8F32567D9A34567B9AF9
:1019000036567C9A38567E9A42565C894C56589187
:101910004E56789A5056799A5B569A8A6456819AAE
:101920006856ED8A6A56849A6B56809A6C56839AEA
:101930007456AC957856D3937A56B6948056869A58
:101940008656859A8756648A8A56879A8F568A9AC7
:101950009456899AA056889AA2565894A5568B9A5E
:10196000AE568C9AB4568E9AB6568D9ABC56909AAC
:10197000C056939AC156919AC2568F9AC356929A5C
:10198000C856949ACE56959AD156969AD356979A07
:10199000D756989AD8566499DA56FA8EDB566C8EDA
:1019A000DE56F189E056F688E3566392EE56999A30
:1019B000F056A28DF256CD88F3567D90F9569A9A3C
:1019C000FA56C58CFD56918DFF569C9A00579B9AEE
:1019D0000357DE9504579D9A08579F9A09579E9A78
:1019E0000B57A09A0D57A19A0F57978C12578089C1
:1019F0001357A29A1657A49A1857A39A1C57A69A37
:101A00001F5779932657A79A2757B3882857DD8DF4
:101A10002D575C8C30576E923757A89A3857A99A31
:101A20003B57AB9A4057AC9A4257E28D4757CF8B02
:101A30004A5756964E57AA9A4F57AD9A5057BF8D50
:101A40005157428D595796FA6157B19A6457A38DF1
:101A5000655797FA665752926957AE9A6A57D89265
:101A60007F57B29A825782908857B09A8957B39A13
:101A70008B575E8C9357B49AA057B59AA257438D53
:101A8000A3575F8AA457B79AAA57B89AAC5798FA3F
:101A9000B057B99AB357B69AC057AF9AC357BA9AC4
:101AA000C657BB9AC7579AFAC85799FACB57849624
:101AB000CE57E98FD257BD9AD357BE9AD457BC9A06
:101AC000D657C09ADC575794DF57E688E05775958C
:101AD000E357C19AF457FB8FF757B78EF9577C94A9
:101AE000FA57EE8AFC57E98D005878960258B09361
:101AF0000558988C0658CD910A58BF9A0B58C29A2F
:101B00001558C2911958C39A1D58C49A2158C69A9B
:101B10002458E7922A58AC8A2F589FEA3058818976
:101B20003158F1953458EA8F355867933A58E48D17
:101B30003D58CC9A4058BB954158DB974A58F2899A
:101B40004B58C89A515859915258CB9A545883932C
:101B500057586893585884935958B7945A58CB9209
:101B60005E58C78D6258C79A695896896B585593C5
:101B70007058C99A7258C59A75586F907958CD9A0D
:101B80007E586D8F8358AB8B8558CE9A9358E695C7
:101B900097589D919C58C4929E589DFA9F58D09AF0
:101BA000A8586E96AB58D19AAE58D69AB2589EFAAB
:101BB000B358AD95B858D59AB958CF9ABA58D29A61
:101BC000BB58D49ABE58A48DC158C795C558D79A4A
:101BD000C7586492CA58F389CC58EB8FD158D99A18
:101BE000D358D89AD558888DD758DA9AD858DC9ACD
:101BF000D958DB9ADC58DE9ADE58D39ADF58E09A3F
:101C0000E458DF9AE558DD9AEB586D8EEC587090E9
:101C1000EE587391EF58E19AF058BA90F158EB886A
:101C2000F2588494F758D992F958E39AFA58E29AFC
:101C3000FB58E49AFC58E59AFD58E69A0259E79A4F
:101C40000959CF950A59E89A0B599FFA0F59C48937
:101C50001059E99A15595B9716594F8A1859C7991F
:101C60001959678F1A59BD911B59EA9A1C59E9965F
:101C70002259B2962559EC9A2759E591295956933C
:101C80002A59BE912B5976952C59ED9A2D59EE9AD9
:101C90002E599B893159B88E3259EF9A3759CE88CF
:101CA0003859F09A3E59F19A445982894759EF8A36
:101CB0004859DE934959F2954E59F59A4F59749106
:101CC0005059F49A51595F8C5359A0FA54597A9645
:101CD0005559F39A575985935859F79A5A59F69A7C
:101CE0005B59A1FA5D59A2FA6059F99A6259F89ABA
:101CF0006359A3FA65599C896759FA9A6859A78F5D
:101D00006959FC9A6A5944926C59FB9A6E59B1957B
:101D10007359978F74597A937859409B7D59448DA4
:101D20008159419B825940948359DC948459CF96C0
:101D30008A5944948D594A9B9359578B9659649765
:101D40009959AD969B59AA9B9D59429BA359459B76
:101D5000A459A4FAA559C391A8595796AC596993A7
:101D6000B259469BB9598596BA59A5FABB59C88D3F
:101D7000BE59A88FC659479BC9596F8ECB596E8ED5
:101D8000D059B788D159C68CD359A990D459CF8886
:101D9000D9594B9BDA594C9BDC59499BE5595789DA
:101DA000E659AD8AE859489BEA59C396EB595095D4
:101DB000F659A688FB59F788FF59708E015AD088CA
:101DC000035AA188095A519B115A4F9B185ABA9627
:101DD0001A5A529B1C5A509B1F5A4E9B205A509085
:101DE000255A4D9B295AD8952F5AE28C355A569B25
:101DF000365A579B3C5AA98F405A539B415A4B988D
:101E0000465A6B94495A559B5A5AA58D625A589B0B
:101E1000665A77956A5A599B6C5A549B7F5AB99661
:101E2000925A7D949A5A5A9B9B5A5195BC5A5B9BE5
:101E3000BD5A5F9BBE5A5C9BC15AC589C25A5E9B04
:101E4000C95AB98ECB5A5D9BCC5A998CD05A6B9B90
:101E5000D65A649BD75A619BE15A8492E35A609B9D
:101E6000E65A629BE95A639BFA5A659BFB5A669B4A
:101E7000095BF08A0B5B689B0C5B679B165B699B3D
:101E8000225BEC8F2A5B6C9B2C5BDA92305B648963
:101E9000325B6A9B365B6D9B3E5B6E9B405B719BCE
:101EA000435B6F9B455B709B505B718E515B729B7C
:101EB000545B458D555B739B565BA6FA575B9A8EB8
:101EC000585BB6915A5B749B5B5B759B5C5B798ED0
:101ED0005D5B468D5F5BD096635B478B645BC78CB5
:101EE000655B769B665B778A695B779B6B5BB7917B
:101EF000705B789B715BA19B735B799B755B7A9B35
:101F0000785B7B9B7A5B7D9B805B7E9B835B809B0E
:101F1000855BEE91875B4689885BE78E895BC0882D
:101F20008B5B76918C5BAE8A8D5BB38E8F5B478DBE
:101F3000955B8693975B408F985BAF8A995B88929D
:101F40009A5BE8929B5BB6889C5B588B9D5BF39594
:101F50009F5BC08EA25B718BA35BE990A45BBA8E82
:101F6000A55B4797A65B819BAE5B7B8BB05BC98D06
:101F7000B35B518AB45B8389B55BAA8FB65BC689B4
:101F8000B85B829BB95B6597BF5B688FC05BA7FA44
:101F9000C25BE28EC35B839BC45BF18AC55BD0935B
:101FA000C65BA796C75B849BC95B859BCC5B78951A
:101FB000D05B879BD25BA68AD35BF58BD45B869B79
:101FC000D85BA9FADB5BB08ADD5B5190DE5B8B9B53
:101FD000DF5B408EE15BC789E25B8A9BE45B889BA9
:101FE000E55B8C9BE65B899BE75B4A94E85BCB9E59
:101FF000E95B5290EB5B8D9BEC5BAAFAEE5BBE97C4
:10200000F05B8E9BF35B909BF55B9E92F65B8F9BE8
:10201000F85BA190FA5B9B8EFE5BCE91FF5BF58E29
:10202000015C9595025CEA90045CCB8E055C919B0B
:10203000065CAB8F075C929B085C939B095CD18824
:102040000A5CB8910B5C71900D5C949B0E5CB19333
:102050000F5CAC8F115CAD8F135C959B165CEB90A5
:102060001A5CAE8F1E5CABFA205C969B225C979B41
:10207000245CDE96285C989B2D5CC48B315C418F80
:10208000385C999B395C9A9B3A5CDA8E3B5C4B904E
:102090003C5CF2933D5C73903E5CF6943F5C4194F3
:1020A000405CC78B415C9B9B455C8F8B465C9C9BDB
:1020B000485CFC8B4A5CCD934B5CAE894D5C728E68
:1020C0004E5C9D9B4F5CA09B505C9F9B515CFB8B2F
:1020D000535C9E9B555C57935E5CAE91605C6A93CB
:1020E000615CC68E645C7791655C9A976C5CA29B20
:1020F0006E5CA39B6F5CD493715C528E765CA59BE7
:10210000795CA69B8C5CA79B905CF28A915CA89BF7
:10211000945CA99BA15CAA89A65CACFAA85C5A91C4
:10212000A95CE28AAB5CAB9BAC5CA696B15CD0913F
:10213000B35C788AB65CAD9BB75CAF9BB85CDD8A5C
:10214000BA5CADFABB5CAC9BBC5CAE9BBE5CB19BAD
:10215000C55CB09BC75CB29BD95CB39BE05CBB9396
:10216000E15CAC8BE85CE389E95CB49BEA5CB99B1D
:10217000ED5CB79BEF5CF595F05CF495F55CAEFA21
:10218000F65C8793FA5CB69BFB5C738FFD5CB59B3A
:10219000075D92900B5DBA9B0E5DE88D115DC09B53
:1021A000145DC19B155DBB9B165D528A175DBC9B80
:1021B000185DC59B195DC49B1A5DC39B1B5DBF9BCE
:1021C0001F5DBE9B225DC29B275DAFFA295DF69520
:1021D000425DB2FA4B5DC99B4C5DC69B4E5DC89B90
:1021E000505D9297525DC79B535DB0FA5C5DBD9B9D
:1021F000695D93906C5DCA9B6D5DB3FA6F5DB58D43
:10220000735DCB9B765DCC9B825DCF9B845DCE9BCB
:10221000875DCD9B8B5D88938C5DB89B905DD59BD6
:102220009D5DD19BA25DD09BAC5DD29BAE5DD39BEF
:10223000B75DD69BB85DB4FAB95DB5FABA5DE497FF
:10224000BC5DD79BBD5DD49BC95DD89BCC5DDE8A50
:10225000CD5DD99BD05DB6FAD25DDB9BD35DDA9BB9
:10226000D65DDC9BDB5DDD9BDD5DEC90DE5D428F52
:10227000E15D848FE35D8391E55D488DE65DB68D1C
:10228000E75D498DE85D908BEB5DDE9BEE5DB78D84
:10229000F15DC88CF25DDF9BF35DA496F45D629402
:1022A000F55DE09BF75D4A8DFB5DAA8AFD5D469278
:1022B000FE5DD08B025E738E035E7A95065EBF94E0
:1022C0000B5EE19B0C5EF38A115EE49B165E9F92AF
:1022D000195EE39B1A5EE29B1B5EE59B1D5EE99225
:1022E000255E83902B5E748E2D5EC8902F5ED191FB
:1022F000305E418B335EA092365EE69B375EE79B95
:10230000385EED8F3D5E5896405EEA9B435EE99BEA
:10231000445EE89B455E9D95475EF19B4C5E7996D9
:102320004E5EEB9B545EED9B555E8B96575EEC9B31
:102330005F5EEE9B615EA694625EEF9B635EBC9502
:10234000645EF09B725EB18A735EBD95745E4E945E
:10235000755EF29B765EF39B785E4B8D795EB28AFA
:102360007A5EF49B7B5EB68C7C5E63977D5E48975D
:102370007E5EF48A7F5EF69B815EA192835E4C8DC9
:10238000845EAF8F875EDD948A5EB08F8F5E988F9C
:10239000955EEA92965EF795975E58939A5E4D8D9C
:1023A0009C5E7B95A05EF79BA65E7893A75EC08D32
:1023B000AB5EC98CAD5EEB92B55EC188B65E8E8FAA
:1023C000B75E4E8DB85E6697C15EF89BC25EF99BA4
:1023D000C35E7094C85EFA9BC95EF597CA5E4C985E
:1023E000CF5EFC9BD05EFB9BD35E668AD65E409C34
:1023F000DA5E439CDB5E449CDD5E429CDF5E5F9563
:10240000E05EB18FE15E469CE25E459CE35E419CEE
:10241000E85E479CE95E489CEC5E499CF05E4C9C03
:10242000F15E4A9CF35E4B9CF45E4D9CF65E8489A3
:10243000F75EEC92F85E4E9CFA5E9A8CFB5EF48935
:10244000FC5E5594FE5E4F9CFF5EF993015FD9954B
:10245000035F509C045F4D98095F519C0A5FBE95D5
:102460000B5F549C0C5F9F980D5FAF980F5FAE8E13
:10247000105FF393115F559C135F7C8B145FA292E6
:10248000155FF888165F569C175FA495185F4F8DEF
:102490001B5F6F921F5FED92215FB7FA255FED968C
:1024A000265FB78C275FCA8C295F579C2D5F589C8D
:1024B0002F5F5E9C315FE38E345FB8FA355FA39285
:1024C000375FAD8B385F599C3C5F4A953E5F6592A4
:1024D000415F5A9C455F67FA485F5B9C4A5FAE8BE1
:1024E0004C5F5C9C4E5F5D9C515F5F9C535F96931D
:1024F000565F609C575F619C595F629C5C5F539C18
:102500005D5F529C615F639C625F608C665F469515
:10251000675FB9FA695FCA8D6A5F56956B5FA4926F
:102520006C5F6A956D5F649C705FB28F715F658947
:10253000735F659C775F669C795FF0967C5FDE9445
:102540007F5F699C805F9D89815FAA90825F689CA4
:10255000835F679C845F618C855FD291875F6D9C90
:10256000885F6B9C8A5F6A9C8B5FA5978C5FE38C0E
:10257000905F998F915F6C9C925F6B93935F5D8F7F
:10258000975FBE93985F709C995F6F9C9E5F6E9CF7
:10259000A05F719CA15FE48CA85F729CA95F9C9571
:1025A000AA5F7A8FAD5F739CAE5FF794B35FBF9302
:1025B000B45FA592B75FBAFAB95F4F93BC5F749CE2
:1025C000BD5F4A8BC35F5390C55F4B95CC5FF58A67
:1025D000CD5F4594D65F759CD75F758ED85F599651
:1025E000D95F5A96DC5F9E89DD5F7A9CDE5FBBFA1D
:1025F000E05F8992E45F779CEB5FF589F05FAB9CCD
:10260000F15F799CF55F4F94F85F789CFB5F769C57
:10261000FD5F9A8DFF5F7C9C0E60839C0F60899CA0
:102620001060819C12607B931560869C16607C957F
:102630001960809C1B60859C1C60E5971D60768EF0
:102640002060D39121607D9C25607D8B2660889CD5
:102650002760AB90286085892960829C2A60F68972
:102660002B60879C2F60AF8B3160849C3A608A9C82
:1026700041608C9C4260969C4360949C4660919C17
:102680004A60909C4B60F6974D60929C5060B08B76
:102690005260508D55609A8F5960999C5A608B9CFE
:1026A0005D60BCFA5F608F9C60607E9C6260F889B0
:1026B0006360939C6460959C656070926860A68D71
:1026C0006960B6896A608D9C6B60989C6C60979C11
:1026D0006D60B18B6F60A7917060868A7560628C47
:1026E00077608E9C81609A9C83609D9C84609F9C97
:1026F0008560BDFA8960BB8E8A60BEFA8B60A59C3E
:102700008C60EE928D609B9C9260A39C9460F78994
:102710009660A19C9760A29C9A609E9C9B60A09CE6
:102720009F60E58CA0604997A360B38AA660788912
:10273000A760A49CA9605994AA60AB88B260DF949A
:10274000B3607B9CB460AA9CB560AE9CB660E39617
:10275000B860A79CBC608993BD60AC9CC560EE8FDF
:10276000C660AD9CC760D593D1606698D360A99CC4
:10277000D560C0FAD860AF9CDA609B8DDC60C990F0
:10278000DE60BFFADF60D288E060A89CE160A69CB2
:10279000E3607991E7609C9CE860538EF060C4919F
:1027A000F160BB9CF260C2FAF3607A91F460B69C6F
:1027B000F660B39CF760B49CF960E48EFA60B79C55
:1027C000FB60BA9C0061B59C0161448F0361B89CB9
:1027D0000661B29C0861FA960961F9960D61BC9C8C
:1027E0000E61BD9C0F61D3881161C3FA1561B19C64
:1027F0001A61F08B1B61A4881F61B48A2061C1FA41
:102800002161B99C2761C19C2861C09C2C61C59C39
:102810003061C5FA3461C69C3761C4FA3C61C49C1E
:102820003D61C79C3E61BF9C3F61C39C4261C89CA7
:102830004461C99C4761BE9C48619C8E4A61C29CB0
:102840004B61D4914C61518D4D61B09C4E6154905F
:102850005361D69C5561E7955861CC9C5961CD9CDC
:102860005A61CE9C5D61D59C5F61D49C62619D96EE
:102870006361B58A6561D29C6761648C6861538AC3
:102880006B61CF9C6E61B6976F61D19C7061D4888B
:102890007161D39C7361CA9C7461D09C7561D79C33
:1028A0007661638C7761CB9C7E617C9782614A976D
:1028B0008761DA9C8A61DE9C8E619E919061F797B8
:1028C0009161DF9C9461DC9C9661D99C9861C6FA09
:1028D0009961D89C9A61DD9CA461AE95A761B29381
:1028E000A961658CAB61E09CAC61DB9CAE61E19C55
:1028F000B2619B8CB661AF89BA61E99CBE61B68A50
:10290000C361E79CC661E89CC761A78DC861E69C6E
:10291000C961E49CCA61E39CCB61EA9CCC61E29C06
:10292000CD61EC9CD061F989E361EE9CE661ED9CA0
:10293000F261A692F461F19CF661EF9CF761E59C6F
:10294000F8619C8CFA61F09CFC61F49CFD61F39C45
:10295000FE61F59CFF61F29C0062F69C0862F79CA8
:102960000962F89C0A62E8950C62FA9C0D62F99C77
:102970000E625E8F1062AC901162E4891262FA8975
:102980001362C7FA1462FB9C1662BD881A62CA9071
:102990001B62FC9C1D62C1E61E62409D1F62818C11
:1029A0002162419D2662ED902A62429D2E62439DE6
:1029B0002F62598B3062449D3262459D3362469D41
:1029C0003462D5913862CB8C3B62DF963F625B9676
:1029D00040628A8F4162479D4762EE904862BBE742
:1029E0004962E0944B62E88E4D62CB8D4E62489D09
:1029F0005362C5915562A5955862EF915B624B9DFC
:102A00005E62499D60624C9D63624A9D68624D9D15
:102A10006E62AF957162B58876627D957962E19458
:102A20007C624E9D7E62519D7F62B38F80625A8B25
:102A300082624F9D8362569D8462B48F8962509DED
:102A40008A62639491627D979262529D9362539DD4
:102A50009462579D95628A939662549D9762528DB7
:102A60009862DC909B62659D9C62B2949E62F0913C
:102A7000A662C8FAAB62E294AC62AB9DB162F89513
:102A8000B562EF92B9629596BB625A9DBC629F890E
:102A9000BD628A92C262639DC5625392C6625D9DA9
:102AA000C762649DC8625F9DC962669DCA62629D7D
:102AB000CC62619DCD628F94CF625B9DD062FB89B9
:102AC000D162599DD262918BD362F191D462559DAE
:102AD000D762589DD862538DD962D990DB62B58F89
:102AE000DC62609DDD627194E062928BE162678AD4
:102AF000EC62878AED624090EE62689DEF626D9DA8
:102B0000F162699DF3629D8CF5626E9DF662418E65
:102B1000F762898DFE62458FFF625C9D01639D8E29
:102B200002636B9D0763778E08636C9D0963C2889F
:102B30000C63679D1163A7921963938B1F63B28B1C
:102B400027636A9D2863A5882B63C18D2F635590E9
:102B50003A63F0923D63D2943E63709D3F637D91F2
:102B60004963A8914C634A8E4D63719D4F63739D79
:102B700050636F9D5563DF955763BB925C637B9198
:102B80006763F9956863CC8E6963809D6B637E9DF6
:102B90006E63989072639E8C7663789D7763B78F2F
:102BA0007A63E6937B6350948063769D83637C9124
:102BB0008863F68E89637B9D8C63B68F8E63759D6B
:102BC0008F637A9D926372949663749D9863408C30
:102BD0009B637C8A9F637C9DA063A997A163CC8D36
:102BE000A2635492A363799DA563DA90A763548D81
:102BF000A8638490A9638689AA635B91AB63779D80
:102C0000AC63648BB263668CB463CD92B5637D9D17
:102C1000BB637E91BE63819DC063839DC363B59199
:102C2000C463899DC663849DC963869DCF63609597
:102C3000D063F192D263879DD6634B97DA6367972F
:102C4000DB63B78AE163AC88E363859DE963829DBA
:102C5000EE63F68AF4638789F563C9FAF663889DA3
:102C6000FA63689706648C9D0D64B9910F64939D17
:102C700013648D9D16648A9D1764919D1C64729DDA
:102C800026648E9D2864929D2C64C0942D648B9341
:102C900034648B9D36648F9D3A64678C3E64EF8DFF
:102CA0004264DB904E64979D586445936064CAFA11
:102CB0006764949D696480966F64959D7664969D23
:102CC0007864CC967A64A0908364828C88649D9D9D
:102CD0009264548E93649A9D9564999D9A645194DC
:102CE0009D64CBFA9E64B393A4645093A5649B9DAA
:102CF000A9649C9DAB648F95AD646494AE64428E70
:102D0000B064EF90B2646F96B964688ABB64A39DA7
:102D1000BC649E9DC1646997C264A59DC564A19D64
:102D2000C764A29DCD648091CE64CCFAD264A09D8C
:102D3000D4645E9DD864A49DDA649F9DE064A99DDF
:102D4000E164AA9DE2644693E364AC9DE664438E2D
:102D5000E764A79DEC645B8BEF64AD9DF164A69D79
:102D6000F264B19DF464B09DF664AF9DFA64B29DC7
:102D7000FD64B49DFE64EF8F0065B39D0565B79D4E
:102D80001865B59D1C65B69D1D65909D2365B99D13
:102D90002465B89D2A65989D2B65BA9D2C65AE9DCE
:102DA0002F65788E3465BB9D3565BC9D3665BE9DAF
:102DB0003765BD9D3865BF9D3965FC893B65558D7F
:102DC0003E65FA953F65AD904565CC8C4865C19DE3
:102DD0004D65C49D4E65CDFA4F65719551657E8BED
:102DE0005565C39D5665C29D576573945865C59DCD
:102DF0005965B38B5D65C79D5E65C69D6265B88A82
:102E00006365558E6665D6936C65688C7065949025
:102E10007265C89D7465AE907565479377657E95BC
:102E20007865C99D8265CA9D8365CB9D8765B6958A
:102E300088657C9B8965C4908C656B958E65D68D05
:102E40009065E3949165C19497656C939965BF977C
:102E50009B65CD9D9C65CE8E9F65CE9DA165B488FA
:102E6000A465D28BA565CB90A7658095AB65CF9DFA
:102E7000AC65618EAD656692AF657A8EB065569031
:102E8000B765D09DB965FB95BC659789BD657B8E9F
:102E9000C165D39DC365D19DC465D49DC565B797F4
:102EA000C665D29DCB65F990CC65D59DCF65B091B7
:102EB000D265D69DD765F88AD965D89DDB65D79D43
:102EC000E065D99DE165DA9DE265F98AE565FA93E9
:102ED000E6655592E7658C8BE8657C8EE9658191A6
:102EE000EC657B8FED65AE88F165DB9DFA65A089A9
:102EF000FB65DF9D0066CEFA0266568D0366DE9D99
:102F00000666A98D0766B88F0966D1FA0A66DD9D47
:102F10000C66B98F0E66BE960F66A88D1366D588AF
:102F20001466CC901566CFFA1C66E49D1E66D3FA33
:102F30001F66AF90206666892466D4FA2566748F72
:102F4000276686962866F08D2D66BA8F2E66D2FA91
:102F50002F66A590316663FA3466E39D3566E19D80
:102F60003666E29D3B66D0FA3C668B923F66459E94
:102F70004166E89D42669E8E4366578D4466E69D97
:102F80004966E79D4B6657904F66E59D52664E8EAB
:102F90005766D6FA5966D7FA5D66EA9D5E66E99D80
:102FA0005F66EE9D6266EF9D6466EB9D6566D5FA91
:102FB0006666418A6766EC9D6866ED9D6966D39496
:102FC0006E6681956F66698C7066F09D7366D9FA3E
:102FD0007466B0907666BB8F7A6671928166C58B97
:102FE0008366F19D8466F59D8766C9898866F29D32
:102FF0008966F49D8E66F39D91668B8F96666792C7
:103000009766C3889866F69D9966DAFA9D66F79D7D
:10301000A066DBFAA266A892A666EF97AB66628E00
:10302000AE66E995B266DCFAB4665C96B866419E17
:10303000B966F99DBC66FC9DBE66FB9DBF66DDFA68
:10304000C166F89DC466409EC766DC93C966FA9D5A
:10305000D666429ED9668C8FDA66439EDC666A9796
:10306000DD669894E066449EE666469EE966479E65
:10307000F066489EF266C88BF3666789F466588DE1
:10308000F566499EF7664A9EF866918FF9668291C9
:10309000FA66DEFAFB6666FAFC66D699FD665D9115
:1030A000FE665C91FF66D6910067C58D0367F09858
:1030B00008678E8C09674C970B67FC950D679E958A
:1030C0000E67DFFA0F674B9E1467F18D1567BD928F
:1030D00016674C9E17674E981B675D961D67A992F1
:1030E0001E674D9E1F67FA8A26674E9E27674F9E72
:1030F0002867D8962A67A2962B6796962C677B96A8
:103100002D67448E2E67519E3167E98E3467709625
:103110003667539E3767569E3867559E3A67F78ADB
:103120003D67808B3F67529E4167549E4667579E1E
:10313000496799904E679B974F67C7885067DE8DA8
:103140005167BA915367DB8E5667F18F59675A9E64
:103150005C676D935E67589E5F67A9916067599E33
:103160006167F08F6267DB9663675B9E64675C9E56
:10317000656788976667E1FA6A67619E6D67598D32
:103180006F67749470675E9E71678C937267DC9D45
:103190007367E09D75676E8B776766947C67609E4A
:1031A0007E67BC8F7F67C2948567669E8767F89449
:1031B00089675D9E8B67639E8C67629E9067CD90EA
:1031C00095678D969767D1979A6787969C67CA8906
:1031D0009D677D8EA0676798A167659EA2679590A1
:1031E000A667649EA9675F9EAF67CD8CB3676B9E31
:1031F000B467699EB667CB89B767679EB8676D9EEF
:10320000B967739EBB67E2FAC067E4FAC167C6910B
:10321000C467BF95C667759ECA674195CE67749EA1
:10322000CF679094D0675E96D167B98AD367F590DF
:10323000D4675F8FD867D192DA674D97DD67709E4C
:10324000DE676F9EE267719EE4676E9EE767769E1B
:10325000E9676C9EEC676A9EEE67729EEF67689EF8
:10326000F1678C92F367F696F467C48EF567F28D7A
:10327000FB67B88DFE678F96FF67608A0168E5FA85
:103280000268CC920368C893046868891368F09058
:103290001668B2901768498C1E68789E21685A8D0E
:1032A00022689C8A29687A9E2A68948A2B68819E63
:1032B00032687D9E3468F19038686A8A3968AA8DD0
:1032C0003C68698A3D68CD8D40687B9E4168858CED
:1032D00042686A8C43688D934468E6FA4668799E32
:1032E0004868C4884D687C9E4E687E9E5068CB8B33
:1032F00051684B8C5268E3FA5368BA8A54686A8BF7
:103300005968829E5C68F78D5D6891965F68568EFD
:103310006368839E67684F9574688F9E7668B189ED
:103320007768849E7E68959E7F68859E8168C09739
:1033300083688C9E85687E948D68949E8F68879E36
:103340009368B2889468899E97685B8D9B688B9E12
:103350009D688A9E9F68869EA068919EA268BD8F88
:10336000A668EB9AA768E68CA8689C97AD68889ECB
:10337000AF68F292B068428AB168AB8DB368809E44
:10338000B568909EB668818AB9688E9EBA68929E2A
:10339000BC688E93C468FC8AC668B09EC86864FA2C
:1033A000C968C796CA68979ECB68FB8ACD689E9EFF
:1033B000CF68E7FAD2685F96D4689F9ED568A19ED1
:1033C000D768A59ED868999EDA684992DF688F937E
:1033D000E068A99EE1689C9EE368A69EE768A09EBF
:1033E000EE685890EF68AA9EF268B190F968A89EBE
:1033F000FA68BB8A00696F980169969E0469A49E69
:103400000569D6880869989E0B69B8960C699D9ED7
:103410000D6941900E69C5920F69939E1269A39E32
:1034200019699A901A69AD9E1B69918A1C699F8CD3
:103430002169AF9E22699A9E2369AE9E2569A79E47
:1034400026699B9E2869AB9E2A69AC9E3069BD9E09
:103450003469CC933669A29E3969B99E3D69BB9E99
:103460003F69D6924A696B97536996955469B69E9F
:103470005569C8915969BC9E5A695E915C69B39E51
:103480005D69C09E5E69BF9E6069ED936169BE9E85
:103490006269E8936869E9FA6A69C29E6B69B59ED8
:1034A0006D69C68B6E69B89E6F697C8F73698094F5
:1034B0007469BA9E7569C98B7769B29E7869B49E42
:1034C0007969B19E7C694F987D69798A7E69B79EDA
:1034D0008169C19E8269548A8A69E58D8E697C8979
:1034E0009169D29E946950989569D59E9869EBFA36
:1034F0009B6959909C69D49EA069D39EA769D09E70
:10350000AE69C49EB169E19EB269C39EB469D69E9C
:10351000BB69CE9EBE69C99EBF69C69EC169C79E72
:10352000C369CF9EC769A0EACA69CC9ECB695C8D8E
:10353000CC69C692CD698491CE69CA9ED069C59E78
:10354000D369C89ED8696C97D9698A96DD69CD9E82
:10355000DE69D79EE269ECFAE769DF9EE869D89EEA
:10356000EB69E59EED69E39EF269DE9EF969DD9EF9
:10357000FB69CE92FD698591FF69DB9E026AD99E47
:10358000056AE09E0A6AE69E0B6AF3940C6AEC9E5A
:10359000126AE79E136AEA9E146AE49E176A94927E
:1035A000196A57951B6ADA9E1E6AE29E1F6ABE8FD1
:1035B000216ACD96226AF69E236AE99E296AA08C2A
:1035C0002A6AA1892B6A7E8A2E6AD19E306AEDFA18
:1035D000356ABF8F366AEE9E386AF59E396AF78E75
:1035E0003A6A928A3D6A4D92446AEB9E466AEFFAC5
:1035F000476AF09E486AF49E4B6AB48B586A6B8B9C
:10360000596AF29E5F6A408B616AC993626AF19E51
:10361000666AF39E6B6AEEFA726AED9E736AF0FA5E
:10362000786AEF9E7E6AF1FA7F6A808A806A689281
:10363000846AFA9E8D6AF89E8E6AE78C906AF79E7D
:10364000976A409F9C6A779EA06AF99EA26AFB9E39
:10365000A36AFC9EAA6A4B9FAC6A479FAE6A8D9E86
:10366000B36A469FB86A459FBB6A429FC16AE89E9B
:10367000C26A449FC36A439FD16A499FD36A4598EF
:10368000DA6A4C9FDB6AF98BDE6A489FDF6A4A9FE1
:10369000E26AF2FAE46AF3FAE86AA594EA6A4D9FEC
:1036A000FA6A519FFB6A4E9F046B9397056B4F9F7D
:1036B0000A6BDC9E126B529F166B539F1D6B5489D5
:1036C0001F6B559F206B878C216B9F8E236BD38B39
:1036D000276BA289326B7E97376B579F386B569F4B
:1036E000396B599F3A6B5C8B3D6BD48B3E6BBC8ABC
:1036F000436B5C9F476B5B9F496B5D9F4C6BCC89B9
:103700004E6B5692506B5E9F536BBD8A546B609F9D
:10371000596B5F9F5B6B619F5F6B629F616B639F88
:10372000626B7E8E636BB390646B9F8D666B9095BE
:10373000696BE0956A6B63986F6B958E736BCE8D3A
:10374000746BF097786B649F796B659F7B6B808E51
:103750007F6B669F806B679F836B699F846B689F9D
:10376000866B7796896B7D8F8A6BEA8E8B6B638E07
:103770008D6B6A9F956B6C9F966B4290986B6B9F5D
:103780009E6B6D9FA46B6E9FAA6B6F9FAB6B709FC0
:10379000AF6B719FB16B739FB26B729FB36B749F72
:1037A000B46BA389B56B6992B76B759FBA6B458E85
:1037B000BB6B6B8ABC6B769FBF6B6193C06BCA9A05
:1037C000C56B428BC66B779FCB6B789FCD6BEA95B1
:1037D000CE6B8896D26BC593D36B799FD46BE494F0
:1037E000D66BF4FAD86BF994DB6BD196DF6B7A9FCA
:1037F000EB6B7C9FEC6B7B9FEF6B7E9FF36B7D9FF6
:10380000086C819F0F6C818E116CAF96136C829F38
:10381000146C839F176C438B1B6C849F236C869F57
:10382000246C859F346C8590376C5895386C698909
:103830003E6CC3943F6CF5FA406CF392416C608F20
:10384000426C818B4E6CC494506CAC8E556C889FCE
:10385000576CBE8A5A6C98895C6CF6FA5D6CF09372
:103860005E6C879F5F6C5D8D606C7292626C899FED
:10387000686C919F6A6C8A9F6F6CF8FA706CBF914C
:10388000726C828B736C929F7A6C888C7D6C448B8B
:103890007E6C909F816C8E9F826C8B9F836C8097D7
:1038A000866CF7FA886CBE928C6CD7938D6C8C9F6B
:1038B000906C949F926C939F936C428C966CAB89A6
:1038C000996CB98D9A6C8D9F9B6C8F9FA16C76962D
:1038D000A26CF291AB6C9796AE6C9C9FB16C9D9F65
:1038E000B36CCD89B86CA695B96CFB96BA6C9F9FEA
:1038F000BB6CA18EBC6CC08FBD6C989FBE6C9E9F34
:10390000BF6C8889C16CB58BC46C959FC56C9A9F40
:10391000C96CF290CA6C9194CC6CE594D36C979F6F
:10392000D56C4096D76C999FD96CA29FDA6CF9FA46
:10393000DB6CA09FDD6C9B9FE16C4196E26C679411
:10394000E36C838BE56C4493E86C8D92EA6CA39FE7
:10395000EF6CA19FF06CD791F16C969FF36C6A8924
:10396000046DFAFA0B6D6D970C6DAE9F126DAD9FE5
:10397000176DF490196DAA9F1B6D8C971E6DB493F3
:103980001F6DA49F256DC392296D6B892A6D5E8D75
:103990002B6DA79F326D468F336DAC9F356DAB9FFE
:1039A000366DA69F386DA99F3B6D888A3D6DA89F97
:1039B0003E6D6894416DAC97446DF28F456DF39008
:1039C000596DB49F5A6DB29F5C6D6C95636DAF9FDE
:1039D000646DB19F666D5989696D5F8D6A6D51988F
:1039E0006C6D5C8A6E6D82956F6DFCFA746D81975B
:1039F000776D438A786D5A90796DB39F856DB89FC6
:103A0000876DFBFA886DC18F8C6D4F978E6DB59F5A
:103A1000936DB09F956DB69F966D40FB996DDC9749
:103A20009B6D93939C6DC093AC6D41FBAF6D558ABC
:103A3000B26D7489B56DBC9FB86DBF9FBC6DC197E9
:103A4000C06D8497C56DC69FC66DC09FC76DBD9F75
:103A5000CB6DD297CC6DC39FCF6D42FBD16D698F7B
:103A6000D26DC59FD56DCA9FD86D9193D96DC89FF2
:103A7000DE6DC29FE16D5792E46DC99FE66DBE9FFA
:103A8000E86DC49FEA6DCB9FEB6DFA88EC6DC19F2A
:103A9000EE6DCC9FF16D5B90F26D44FBF36D7E8F0C
:103AA000F56DA395F76DAC8DF86D43FBF96DB99F7E
:103AB000FA6DC79FFB6D5993FC6D45FB056EB49085
:103AC000076E898A086ECF8D096EC28F0A6EBB9F02
:103AD0000B6E618F136E6B8C156EBA9F196ED09F33
:103AE0001A6E8D8F1B6EB88C1D6EDF9F1F6ED99F57
:103AF000206E948B216E6E93236ED49F246EDD9F77
:103B0000256EAD88266E5189276E48FB296EB789D0
:103B10002B6ED69F2C6EAA912D6ECD9F2E6ECF9FB1
:103B20002F6E608D386EE09F396E46FB3A6EDB9FDC
:103B30003C6E49FB3E6ED39F436EDA9F4A6EA99658
:103B40004D6ED89F4E6EDC9F566ECE8C586EC38FD6
:103B50005B6E58925C6E47FB5F6ED29F676E4E97AE
:103B60006B6ED59F6E6ECE9F6F6E9293726ED19F6D
:103B7000766ED79F7E6E70987F6EBC8E806E9E969E
:103B8000826EE19F8C6EAC948F6EED9F906EB98CBF
:103B9000966E808F986EE39F9C6EAD979D6E618D43
:103BA0009F6EF09FA26EEC88A56EEE9FAA6EE29FBC
:103BB000AF6EE89FB26EEA9FB66E6E97B76EE59FE6
:103BC000BA6E4D93BD6EE79FBF6E4AFBC26EEF9F0C
:103BD000C46EE99FC56EC596C96EE49FCB6EA08E7C
:103BE000CC6EFC9FD16E8A8AD36EE69FD46EEB9F1B
:103BF000D56EEC9FDD6EEA91DE6ED891EC6EF49F8F
:103C0000EF6EFA9FF26EF89FF46E4893F76E42E003
:103C1000F86EF59FFE6EF69FFF6EDE9F016F998B2B
:103C2000026F5995066FBD8E096F978D0F6F529871
:103C3000116FF29F136F41E0146F8989156F8691A0
:103C4000206F9994226FBF8A236FF8972B6F9F96EE
:103C50002C6FD092316FF99F326FFB9F386F51916B
:103C60003E6F40E03F6FF79F416FF19F456FC18A04
:103C7000546F898C586F4EE05B6F49E05C6FF69033
:103C80005F6F838A646F818F666F52E06D6F4BE068
:103C90006E6FAA926F6F48E0706FD792746F6BE08F
:103CA000786F45E07A6F44E07C6F4DE0806F47E0CD
:103CB000816F46E0826F4CE0846F9F90866F43E097
:103CC000886F4BFB8E6F4FE0916F50E0976FC08A0B
:103CD000A16F55E0A36F54E0A46F56E0AA6F59E0BE
:103CE000B16F6293B36F53E0B56F4CFBB96F57E0A0
:103CF000C06F838CC16FF791C26F51E0C36F5A944C
:103D0000C66F58E0D46F5DE0D56F5BE0D86F5EE0C2
:103D1000DB6F61E0DF6F5AE0E06F8A8DE16F4794FF
:103D2000E46FB79FEB6F9497EC6F5CE0EE6F60E031
:103D3000EF6FF391F16F5FE0F36F4AE0F56F4DFBCA
:103D4000F66F89E8FA6F64E0FE6F68E0017066E084
:103D500005704EFB07704FFB097062E00B7063E06B
:103D60000F7067E0117065E015706D9518706DE06B
:103D70001A706AE01B7069E01D706CE01E70D293CF
:103D80001F706EE0267095922770EB91287050FBA3
:103D90002C70A39030706FE0327071E03E7070E074
:103DA0004C70F39F517072E05870E593637073E04C
:103DB0006B70CE896F7094937070448A7870848B26
:103DC0007C70DC8E7D70D08D857051FB897046983B
:103DD0008A7086908E708A89927075E0997074E00E
:103DE000AB7052FBAC7078E0AD705992AE707BE076
:103DF000AF7076E0B3707AE0B87079E0B9705F9335
:103E0000BA70D788BB7062FAC870F397CB707DE048
:103E1000CF704789D97080E0DD707EE0DF707CE094
:103E2000F17077E0F9704296FD7082E0047154FB06
:103E3000097181E00F7153FB14718B89197184E052
:103E40001A71B0951C7183E02171B3962671C58FEC
:103E5000367152913C71C48F467156FB477157FBC6
:103E60004971F9974C718AE04E71F790557186E06F
:103E700056718BE059718C895C7155FB627189E0D8
:103E800064718194657185E0667188E06771C68FA1
:103E90006971CF946C718CE06E71CF8E7D71F890EA
:103EA00084718FE0887187E08A71468C8F718DE014
:103EB00094716F97957190E09971A4EA9F716E8FDC
:103EC000A87191E0AC7192E0B1714D94B97194E038
:103ED000BE7195E0C17159FBC3715294C87195933D
:103EE000C97197E0CE7199E0D071D397D27196E005
:103EF000D47198E0D5718D89D77193E0DF717A9A8A
:103F0000E0719AE0E5718791E671578EE7719CE068
:103F1000EC719BE0ED714390EE71D799F5719DE0E6
:103F2000F9719FE0FB718EE0FC719EE0FE715AFB1F
:103F3000FF71A0E006729A940D72A1E01072A2E0E7
:103F40001B72A3E02872A4E02A72DC922C72A6E015
:103F50002D72A5E03072A7E03272A8E03572DD8ED6
:103F6000367283953A72EA963B72A9E03C72AAE0F7
:103F70003D7275913E72A28E3F72ABE04072ACE032
:103F80004672ADE04772D0954872C5944B72AEE070
:103F90004C7276945272AB925872AFE05972E589C6
:103FA0005B728D8B5D72C4965F72B4966172B289DA
:103FB00062725398677271966972A8957272B59021
:103FC0007472B0E07972C1937D72A18C7E72B1E09F
:103FD0008072D28D8172B3E08272B2E08772B4E0F7
:103FE0009272B5E09672B6E0A0725D8BA272B7E0F5
:103FF000A772B8E0AC72A28CAF72C694B1725BFBD0
:10400000B272BAE0B672F38FB972B9E0BE725CFBFD
:10401000C272B68BC372BBE0C472BDE0C672BCE0B4
:10402000CE72BEE0D072CF8CD272BFE0D772E78B77
:10403000D9725F91DB729D8DE072C1E0E172C2E0E6
:10404000E272C0E0E972EB8EEC72C693ED72B78B50
:10405000F772C4E0F8724B92F972C3E0FC725498A4
:10406000FD7282940A73C7E01673C9E01773C6E045
:104070001B73D2961C73C8E01D73CAE01F73C297EE
:1040800024735DFB2573CEE02973CDE02A739692ED
:104090002B734C942E73A38C2F73CCE03473CBE032
:1040A00036735097377351973E73CFE03F738E89C5
:1040B0004473968D4573828E4E73D0E04F73D1E07A
:1040C0005773D3E06373628F6873D5E06A73D4E08B
:1040D0007073D6E072736C8A7573D8E077735FFB88
:1040E0007873D7E07A73DAE07B73D9E08473BA8CA3
:1040F0008773A6978973CA8B8B73A4899673E88B91
:10410000A973DF8AB273E697B373DCE0BB73DEE0BA
:10411000BD7360FBC073DFE0C273CF89C873DBE09F
:10412000C97361FBCA73588ECD73BF92CE73DDE045
:10413000D27364FBD67362FBDE73E2E0E073EC8E55
:10414000E37363FBE573E0E0EA735D8CED73C794A2
:10415000EE73E1E0F173FCE0F57366FBF873E7E002
:10416000FE73BB8C0374858B0574E4E006749D9725
:10417000077465FB0974AE972274F4912574E6E028
:10418000267467FB297469FB2A7468FB2E746AFB2A
:104190003274E8E03374D4973474D58B3574FA9460
:1041A000367469943A74E9E03F74EBE04174EEE0F0
:1041B0005574EAE05974EDE05A74E88C5B746C89CC
:1041C0005C74EFE05E7490905F74ECE06074DA977A
:1041D00062746BFB6374F2E06474A2EA6974F0E0E9
:1041E0006A74F3E06F74E5E07074F1E07374BA8D93
:1041F0007674F4E07E74F5E083749E9789746CFBAA
:104200008B74F6E09E74F7E09F746DFBA274E3E09C
:10421000A774F8E0B074C28ABD74A38ECA74F9E0C2
:10422000CF74FAE0D474FBE0DC745A89E07440E1A6
:10423000E2745A95E37441E1E674A28AE77442E1BC
:10424000E97443E1EE7444E1F07446E1F17447E14E
:10425000F27445E1F6747295F77449E1F87448E137
:1042600001756EFB03754BE104754AE105754CE180
:104270000C754DE10D754FE10E754EE11175998D7F
:10428000137551E1157550E11875C38A1A7572904E
:104290001C755B931E7552E11F75B6902375598E80
:1042A00025759989267553E1287570972B75E195C9
:1042B0002C7554E12F75A8FA3075639331755297B8
:1042C0003275628D33755C9037756A923875B29924
:1042D0003A75AC923B75E6893C7555E1447556E1FB
:1042E00046755BE1497559E14A7558E14B75C09DCA
:1042F0004C75458A4D7557E14F75D8885175A8940E
:104300005475C8945975AF975A755CE15B755AE15D
:104310005C757B925D75A4906075A99462754C95EF
:1043200064755EE16575AA9766756C8C67755FE16B
:1043300069755DE16A75D4946B7560E16D7561E1D5
:104340006F756FFB7075D9887375F48F747566E13E
:10435000767563E17775EB93787562E17F75458BD0
:10436000827569E1867564E1877565E1897568E143
:104370008A7567E18B7544958E7561918F75609133
:1043800091755E8B94756AE19A756BE19D756CE130
:10439000A3756EE1A5756DE1AB757589B17576E1B3
:1043A000B275E694B37570E1B57572E1B87574E1F4
:1043B000B9755D90BC7575E1BD7573E1BE75BE8E56
:1043C000C2756FE1C37571E1C5756195C775C78F1A
:1043D000CA7578E1CD7577E1D27579E1D475A48E8F
:1043E000D575AD8DD8759793D9757AE1DB75C9927E
:1043F000DE757CE1E2759F97E3757BE1E975899154
:10440000F07582E1F27584E1F37585E1F4757392DC
:10441000FA7583E1FC7580E1FE757DE1FF757EE153
:10442000017681E1097688E10B7686E10D7687E1F8
:104430001F7689E120768BE121768CE122768DE171
:1044400024768EE127768AE1307690E134768FE12A
:104450003B7691E14276C397467694E1477692E1C6
:10446000487693E14C76E08A5276FC965676C8956B
:10447000587696E15C7695E1617697E1627698E10F
:1044800067769CE1687699E169769AE16A769BE1C4
:104490006C769DE170769EE172769FE17676A0E182
:1044A0007876A1E17A76AD947B766F937C76A2E103
:1044B0007D7692947E7653958076A3E1827670FB2A
:1044C0008376A4E1847649938676468A8776638DDF
:1044D0008876A5E18B76A6E18E76A7E19076488E68
:1044E0009376A9E19676A8E19976AAE19A76ABE16E
:1044F0009B7673FB9C7671FB9E7672FBA67674FBB3
:10450000AE76E794B076ACE1B476ADE1B77689EA01
:10451000B876AEE1B976AFE1BA76B0E1BF764D8E4E
:10452000C276B1E1C3767594C6767E96C8766D89FB
:10453000CA767689CD76B2E1D276B4E1D676B3E1A9
:10454000D7769093DB76B790DC76589FDE76B5E130
:10455000DF76BF96E176B6E1E376C48AE476D59459
:10456000E576B7E1E776B8E1EA76B9E1EE76DA9694
:10457000F276D396F476BC92F8768A91FB76BBE11C
:10458000FE76828F0177C88F0477BEE10777BDE1A1
:104590000877BCE10977FB940B77C58A0C77A78C69
:1045A0001B77C4E11E77C1E11F775E902077B0963C
:1045B0002477C0E12577C2E12677C3E12977BFE1FF
:1045C0003777C5E13877C6E13A77AD923C77E18A33
:1045D00040778592467776FB4777C7E15A77C8E1FF
:1045E0005B77CBE1617787906377C2936577CCE1A6
:1045F000667772966877C9E16B77CAE17977CFE120
:104600007E77CEE17F77CDE18B77D1E18E77D0E1F8
:104610009177D2E19E77D4E1A077D3E1A577CB95CE
:10462000AC77758FAD77C497B077D5E1B377B59395
:10463000B677D6E1B977D7E1BB77DBE1BC77D9E1D3
:10464000BD77DAE1BF77D8E1C777DCE1CD77DDE18F
:10465000D777DEE1DA77DFE1DB77B596DC77E0E18B
:10466000E277EE96E377E1E1E5776D92E7778A947A
:10467000E977E98BED775A92EE77E2E1EF77B88B45
:10468000F377CE90FC77E3E10278BB8D0C78E4E120
:104690001278E5E11478A48C1578D38D2078E7E1C1
:1046A000217878FB257875932678D48D27786D8BC3
:1046B0003278439634786A943A7876933F787B8D53
:1046C0004578E9E14E7879FB5D78C98F64787AFBAB
:1046D0006B78B0976C78648D6F78A58C7278A194A4
:1046E0007478EBE17A787BFB7C78EDE18178E98C7A
:1046F0008678ECE18778F4928C78EFE18D78568AB1
:104700008E78EAE19178E89493784F899578EA8DEC
:10471000977871989A78EEE1A378F0E1A778C99537
:10472000A978D790AA78F2E1AF78F3E1B578F1E112
:10473000BA786D8ABC78F9E1BE78F8E1C178A58EC7
:10474000C578FAE1C678F5E1CA78FBE1CB78F6E105
:10475000D078D694D178F4E1D478F7E1DA7841E2F0
:10476000E77840E2E8788196EC78FCE1EF78E98838
:10477000F47843E2FD7842E20179CA8F077944E296
:104780000E796291117946E2127945E2197947E290
:104790002679E6E12A79E8E12B7949E22C7948E2A9
:1047A00030797CFB3A79A68E3C79E7973E79D08EBA
:1047B00040794AE24179568C47795F8B4879468B3C
:1047C0004979838E50795397537950E255794FE266
:1047D0005679639157794CE25A794EE25D796A8F46
:1047E0005E795F905F794DE260794BE2627949943E
:1047F0006579CB8F68795B956D79D58D777998934D
:104800007A7951E27F7952E2807968E28179D68BB8
:1048100084795C98857954918A7953E28D79D0892D
:104820008E79F5928F799F95947981FB9B7983FBA3
:104830009D7954E2A6799A8BA77955E2AA7957E235
:10484000AE7958E2B0794894B37959E2B9795AE22D
:10485000BA795BE2BD79D78BBE79D189BF79C39331
:10486000C079478FC179848EC9795CE2CB79488F52
:10487000D179C889D2796295D5795DE2D879E99400
:10488000DF796491E17960E2E37961E2E479899426
:10489000E6796090E7795EE2E9798192EC795FE20E
:1048A000F079CC8FFB79DA88007A488B087A62E25B
:1048B0000B7AF6920D7A63E20E7AC590147AAB9673
:1048C000177A4295187A64E2197A65E21A7A749234
:1048D0001C7AC5971F7A67E2207A66E22E7AED8EFF
:1048E000317A69E2327AEE88377A6CE23B7A6AE2B0
:1048F0003C7AD2893D7A6D8C3E7A6BE23F7A658D47
:10490000407A928D427AE495437A6DE2467A7396C4
:10491000497A6FE24D7ACF904E7A6E894F7AB88994
:10492000507AAA88577A6EE2617A70E2627A71E20E
:10493000637AF58F697A72E26B7A6E8A707A74E2C2
:10494000747A8A8C767A868B797A75E27A7AF38BA6
:104950007D7A76E27F7AFA90817ACB93837ADE90C1
:10496000847AF38D887A77E2927A8292937A8B9125
:10497000957A79E2967A7BE2977A78E2987A7AE287
:104980009F7A418CA97A7CE2AA7A458CAE7A878B91
:10499000AF7A7197B07A7EE2B67A80E2BA7A4D89C0
:1049A000BF7A83E2C37A968AC47A82E2C57A81E2C8
:1049B000C77A85E2C87A7DE2CA7A86E2CB7AA7977F
:1049C000CD7A87E2CF7A88E2D17A84FBD27AF29AE2
:1049D000D37A8AE2D57A89E2D97A8BE2DA7A8CE2E2
:1049E000DC7AB397DD7A8DE2DF7AEDE8E07ACD8F7D
:1049F000E17A8EE2E27A8FE2E37A768FE57AB69315
:104A0000E67A90E2E77A85FBEA7A4792EB7A87FBCF
:104A1000ED7A91E2EF7A5B92F07A92E2F67AA38BEA
:104A2000F87A5E99F97A7C92FA7AB18EFF7AC68A20
:104A3000027B93E2047BA0E2067B96E2087B888BF4
:104A40000A7B95E20B7BA2E20F7B94E2117BCE8F77
:104A5000187B98E2197B99E21B7B4A931E7B9AE2B2
:104A6000207B7D8A257B7990267B8495287B9CE220
:104A70002C7BE691337B97E2357B9BE2367B9DE294
:104A8000397BF98D457BA4E2467B4D95487BA49408
:104A9000497B99934B7BD88B4C7BA3E24D7BA1E266
:104AA0004F7BB394507B9EE2517B7D92527B9B93D4
:104AB000547B9A93567BF48D5D7BB6E2657BA6E2D0
:104AC000677BA8E26C7BABE26E7BACE2707BA9E219
:104AD000717BAAE2747BA7E2757BA5E27A7B9FE2F9
:104AE000867BCD95877BD3898B7BB3E28D7BB0E2D0
:104AF0008F7BB5E2927BB4E2947B9394957BA596F1
:104B0000977B5A8E987BAEE2997BB7E29A7BB2E2B2
:104B10009C7BB1E29D7BADE29E7B88FB9F7BAFE2FD
:104B2000A17BC78AAA7B5C92AD7BFB90B17BA094F2
:104B3000B47BBCE2B87BA294C07BDF90C17BB9E2BE
:104B4000C47BCD94C67BBDE2C77BD195C97B7A92ED
:104B5000CB7BB8E2CC7BBAE2CF7BBBE2DD7BBEE2B3
:104B6000E07BC28EE47BC493E57BC3E2E67BC2E2DA
:104B7000E97BBFE2ED7B5598F37BC8E2F67BCCE2A4
:104B8000F77BC9E2007CC5E2077CC6E20D7CCBE284
:104B9000117CC0E2127CD399137CC7E2147CC1E281
:104BA000177CCAE21F7CD0E2217CC88A237CCDE23C
:104BB000277CCEE22A7CCFE22B7CD2E2377CD1E28A
:104BC000387CF4943D7CD3E23E7CFA973F7CEB95B5
:104BD000407CD8E2437CD5E24C7CD4E24D7CD09042
:104BE0004F7CD7E2507CD9E2547CD6E2567CDDE2A1
:104BF000587CDAE25F7CDBE2607CC4E2647CDCE26D
:104C0000657CDEE26C7CDFE2737CC495757CE0E25F
:104C10007E7CE096817CCC8B827C488C837CE1E23C
:104C2000897CB2958B7C88908D7CAE96907CE2E2FC
:104C3000927CB197957C9494977C6591987C5394E1
:104C40009B7C6C8F9F7CBE88A17CE7E2A27CE5E226
:104C5000A47CE3E2A57C9F8AA77CCF8FA87CE8E2B6
:104C6000AB7CE6E2AD7CE4E2AE7CECE2B17CEBE274
:104C7000B27CEAE2B37CE9E2B97CEDE2BD7CEEE233
:104C8000BE7CB890C07CEFE2C27CF1E2C57CF0E271
:104C9000CA7CD08CCE7C5791D27CF3E2D67C9C939C
:104CA000D87CF2E2DC7CF4E2DE7CB395DF7C8C9194
:104CB000E07C668DE27CF5E2E77CC697EF7CF7E26C
:104CC000F27CF8E2F47CF9E2F67CFAE2F87C858E7C
:104CD000FA7CFBE2FB7C6E8CFE7C8A8B007D498B30
:104CE000027D40E3047DF196057D678D067DFCE243
:104CF0000A7D43E30B7DE4960D7D5B94107D529518
:104D0000147D838F157D42E3177DD18E187D688DCC
:104D1000197D868E1A7D898B1B7DB4951C7D41E3A0
:104D2000207D6691217D6196227DF58D2B7D878E7C
:104D30002C7DDB922E7D46E32F7DDD97307DD78D58
:104D4000327D47E3337D6190357D49E3397DD08FF6
:104D50003A7DAE8D3F7D48E3427D498F437DBC8CDB
:104D6000447D6791457D44E3467D4AE3487D8AFB67
:104D70004B7D45E34C7D6F8C4E7D4DE34F7D51E384
:104D8000507D8B8C567D4CE35B7D55E35C7D8BFBCE
:104D90005E7D698D617D8D97627DBA88637D52E30A
:104DA000667D8B8B687D4FE36E7D50E3717D9D93B7
:104DB000727D4EE3737D4BE3757D478A767DE2908D
:104DC000797DA68C7D7D57E3897D54E38F7D56E305
:104DD000937D53E3997D708C9A7DB1919B7D58E3CF
:104DE0009C7D8E919F7D65E3A07D8DFBA27D61E31F
:104DF000A37D5BE3AB7D5FE3AC7DF88EAD7DDB88AF
:104E0000AE7D5AE3AF7D62E3B07D66E3B17D6A8D2E
:104E1000B27DD496B47DD492B57D5CE3B77D8CFB36
:104E2000B87D64E3BA7D59E3BB7D5D92BD7D5EE3F1
:104E3000BE7DBB88BF7DC896C77D5DE3CA7DD98B2B
:104E4000CB7DEA94CF7D8D91D17DCE97D27D8F8F12
:104E5000D57D8EE3D67D8EFBD87D67E3DA7DFC9031
:104E6000DC7D63E3DD7D68E3DE7D6AE3E07DF79270
:104E7000E17D6DE3E47D69E3E87DD295E97DC98A52
:104E8000EC7DC996EF7DDC88F27D6CE3F47DFB97C9
:104E9000FB7D6BE3017E8F89047EEA93057E6EE3E2
:104EA000097E75E30A7E6FE30B7E76E3127E72E382
:104EB0001B7E9B941E7EC88E1F7E74E3217E71E351
:104EC000227E77E3237E70E3267E638F2B7E4496DB
:104ED0002E7E6B8F317E73E3327E80E3357E7BE303
:104EE000377E7EE3397E7CE33A7E81E33B7E7AE364
:104EF0003D7E60E33E7ED190417EC994437E7DE35A
:104F0000467E78E34A7E40914B7E718C4D7E4A8F7F
:104F1000527E8FFB547E4490557E5591567E84E39D
:104F2000597E86E35A7E87E35D7E83E35E7E85E37A
:104F3000667E79E3677E82E3697E8AE36A7E89E33F
:104F40006D7E9A96707E4A8C797E88E37B7E8CE3B8
:104F50007C7E8BE37D7E8FE37F7E91E3827E5B8E22
:104F6000837E8DE3887E92E3897E93E38A7E5CFA7A
:104F70008C7E94E38E7E9AE38F7E5A93907E96E3A6
:104F8000927E95E3937E97E3947E98E3967E99E3F1
:104F90009B7E9BE39C7E9CE3367FCA8A387F9DE3A1
:104FA0003A7F9EE3457F9FE3477F90FB4C7FA0E3E2
:104FB0004D7FA1E34E7FA2E3507FA3E3517FA4E3A3
:104FC000547FA6E3557FA5E3587FA7E35F7FA8E35F
:104FD000607FA9E3677FACE3687FAAE3697FABE307
:104FE0006A7FDF8D6B7F728C6E7F7592707FB1945C
:104FF000727F908F757F6C94777FEB94787FADE3B1
:10500000797FEB9C827FAEE3837FB0E3857F8597DA
:10501000867FAFE3877FB2E3887FB1E38A7F7297B1
:105020008C7FB3E38E7FFC94947FB4E39A7FB7E3E5
:105030009D7FB6E39E7FB5E3A17F91FBA37FB8E39D
:10504000A47F518CA87F4191A97F608BAE7FBCE388
:10505000AF7FB9E3B27FBAE3B67FBDE3B87FBEE30B
:10506000B97FBBE3BD7F4889C17FA589C57FC0E308
:10507000C67FC1E3CA7FC2E3CC7F8297D27F4B8FCA
:10508000D47FC4E3D57FC3E3E07F8990E17FC5E3AC
:10509000E67FC6E3E97FC7E3EB7FE38AF07FCB8A55
:1050A000F37FC8E3F97FC9E3FB7F7C96FC7F83979E
:1050B000008073970180569803806C8D0480CCE348
:1050C0000580D28E0680CBE30B80CDE30C80A78ECB
:1050D0001080CF911280CEE315806B8D1780D5960E
:1050E0001880CFE31980D0E31C80D1E32180D2E384
:1050F0002880D3E33380A88E3680EB963B80D5E3BF
:105100003D805E923F80D4E34680D7E34A80D6E379
:105110005280D8E35680B9905880D9E35A80DAE3B8
:105120005E80B7955F80DBE361808F916280DCE316
:105130006880DDE36F80FC977080E0E37280DFE3DE
:105140007380DEE37480AE927680E1E377804590F1
:105150007980E2E37D80E3E37E8057987F80E4E31B
:105160008480E5E38580E7E38680E6E38780A39497
:105170008980F7938B805D988C80A7949380E9E376
:105180009680D18F988049959A80EAE39B80E8E3E6
:105190009D80CC8AA180D28CA280888EA580EC9440
:1051A000A980A88CAA806296AC80EDE3AD80EBE389
:1051B000AF806D8DB1806E8DB280E788B480E68D52
:1051C000BA807894C380DD88C480F2E3C6805F92A1
:1051D000CC807794CE80D991D680F4E3D980F0E367
:1051E000DA80F3E3DB80EEE3DD80F1E3DE804596F9
:1051F000E180D38CE480FB88E580EFE3EF80F6E389
:10520000F180F7E3F480B793F880B98BFC8045E434
:10521000FD805C940281898E0581BA8B0681C690DF
:10522000078165980881AC960981F5E30A81D290DF
:105230001A81728B1B81F8E32381FAE32981F9E358
:105240002F81FBE33181459233815D943981AF92A7
:105250003E8142E4468141E44B81FCE34E817490FF
:1052600050818595518144E4538143E454816F8D8D
:10527000558172985F8154E4658148E4668149E410
:105280006B81EE8E6E8147E47081988D718146E46A
:1052900074814AE47881B0927981A0957A814291B3
:1052A0007F81DA9180814EE482814FE483814BE4F7
:1052B00088814CE48A814DE48F81708D938155E41F
:1052C000958151E49A8186959C818C969D81479524
:1052D000A08150E4A38153E4A48152E4A8816396A1
:1052E000A98156E4B08157E4B3815691B58158E461
:1052F000B8815AE4BA815EE4BD815BE4BE8159E4C1
:10530000BF815E94C0815CE4C2815DE4C681B089E6
:10531000C88164E4C9815FE4CD8160E4D18161E446
:10532000D3819F91D88163E4D98162E4DA8165E415
:10533000DF8166E4E08167E4E3816290E581E789EB
:10534000E78168E4E881D597EA81A98EED814C8FE9
:10535000F3818A8EF4817692FA8169E4FB816AE4B2
:10536000FC815089FE816BE401826CE402826DE471
:1053700005826EE407826FE40882BB8B0982A89DD8
:105380000A8270E40C82E3900D8271E40E82C98E71
:10539000108272E41282AE98168273E41782DC9552
:1053A0001882DA8A1B8243911C82778F1E82919524
:1053B0001F824D8F298274E42A82718D2B8275E4BD
:1053C0002C82CA942E8284E4338277E43582C7919A
:1053D000368295943782BD8C388276E43982449146
:1053E000408278E44782F89258827AE4598279E4DC
:1053F0005A827CE45D827BE45F827DE4628280E4A9
:1054000064827EE46682CD8A688281E46A8282E474
:105410006B8283E46E82AF8D6F82C797718285E461
:105420007282469076829089778286E4788287E4D9
:105430007E8288E48B82F0888D8289E492828AE47D
:10544000998287959D82C58E9F828CE4A582488A29
:10545000A682B088AB828BE4AC828EE4AD826D9480
:10546000AF826390B182D489B3824696B8827C8C35
:10547000B982DA8BBB828DE4BD82E889C582A18ABC
:10548000D1829189D28292E4D382E897D482DB914F
:10549000D7826395D9829EE4DB82D589DC829CE445
:1054A000DE829AE4DF8291E4E1828FE4E38290E499
:1054B000E582E18EE682EA8BE7829792EB82CF93D8
:1054C000F1827089F38294E4F48293E4F98299E49E
:1054D000FA8295E4FB8298E4018393FB0283CE96E3
:1054E000038397E40483D68905839D8A06839BE41E
:1054F00009839DE40E83738C1683A1E41783AAE4C9
:105500001883ABE41C83A9882383B2E42883EF8843
:105510002B83A9E42F83A8E43183A3E43283A2E49C
:105520003483A0E435839FE4368383923883F991F2
:105530003983A5E44083A4E44583A7E4498390919B
:105540004A83748C4F8360895083A6E45283728DA2
:1055500058839191628394FB7383B8E47583B9E4B3
:105560007783D7897B83AC897C83B6E47F8395FB83
:105570008583ACE48783B4E48983BBE48A83B5E4A0
:105580008E83B3E4938396E49683B1E49A83ADE487
:105590009E83CE8A9F83AFE4A083BAE4A283B0E463
:1055A000A883BCE4AA83AEE4AB839C94B1838997BF
:1055B000B583B7E4BD83CDE4C183C5E4C5839B90C7
:1055C000C78396FBCA83658BCC83DB8BCE83C0E419
:1055D000D383D989D683D28FD883C3E4DC83D88D93
:1055E000DF837093E083C8E4E983EC95EB83BFE449
:1055F000EF83D889F083D48CF1834895F283C9E492
:10560000F483BDE4F68397FBF783C6E4FB83D0E421
:10561000FD83C1E40384C2E40484B8930784C7E42F
:105620000B84C4E40C8447960D84CAE40E84DE889F
:105630001384BEE42084CCE42284CBE429848B94BC
:105640002A84D2E42C84DDE431849E8A3584E0E42B
:105650003884CEE43C84D3E43D848E974684DCE4F5
:10566000488498FB498474974E84A89757849892ED
:105670005B848B8A618492956284E2E463849F9365
:105680006684AF886984DBE46B84D7E46C84929190
:105690006D84D1E46E84D9E46F84DEE471844B942C
:1056A0007584A8887784D6E47984DFE47A84989531
:1056B0008284DAE48484D5E48B84D38F90844E8F03
:1056C0009484AA8E9984D6969C8466959F84E5E4FA
:1056D000A184EEE4AD84D8E4B284978AB48499FBC3
:1056E000B884F68FB984E3E4BB84E8E4BC84939186
:1056F000BF84E4E4C184EBE4C4847E92C684ECE419
:10570000C9847597CA84E1E4CB84578ACD84E7E4E1
:10571000D084EAE4D184AA96D684EDE4D984E6E480
:10572000DA84E9E4DC8460FAEC844896EE844098FC
:10573000F484F1E4FC84F8E4FF84F0E40085C18E95
:105740000685CFE41185CC951385A0961485F7E4E2
:105750001585F6E41785F2E41885F3E41A85558972
:105760001F85F5E42185EFE42685D3922C85F4E4AA
:105770002D85FC883585A0913D85C1954085F9E44E
:10578000418540E54385D7944885FCE44985D48F1D
:105790004A85C78E4B8542E54E85BC8B53859AFB67
:1057A000558543E5578599955885FBE459859BFBBD
:1057B0005A85D4E46385FAE468856E986985A09378
:1057C0006A8593956B859CFB6D854AE5778550E5E9
:1057D0007E8551E5808544E58485969487854EE5F0
:1057E000888546E58A8548E5908552E5918547E5B7
:1057F00094854BE5978592899985E3939B854CE544
:105800009C854FE5A48545E5A6854591A88549E594
:10581000A985468EAA856490AB854F8CAC85F2969F
:10582000AE85F796AF85928FB0859EFBB98556E51C
:10583000BA8554E5C1856D98C98553E5CD859597A1
:10584000CF8555E5D08557E5D58558E5DC855BE501
:10585000DD8559E5E485A193E5855AE5E985CB9495
:10586000EA854DE5F785938FF9855CE5FA8561E575
:10587000FB859491FE8560E5028641E5068662E53A
:10588000078668910A865DE50B865FE513865EE50F
:105890001686509F1786419F1A8664E5228663E527
:1058A0002D8696972F86BAE1308665E53F8666E5B8
:1058B0004D8667E54E86D58C5086738B548669E598
:1058C00055867C995A86958B5C86B8975E86F18B57
:1058D0005F866AE567866BE56B868E9271866CE5FE
:1058E0007986F8937B86B8888A86E1898B8671E50C
:1058F0008C8672E593866DE595865C8EA3866EE553
:10590000A4866194A9866FE5AA8670E5AB867AE5E0
:10591000AF8674E5B08677E5B68673E5C48675E52F
:10592000C68676E5C786D68EC98678E5CB86609230
:10593000CD86758CCE86618AD4867BE5D9865E8AD3
:10594000DB8681E5DE867CE5DF8680E5E486B8944B
:10595000E9867DE5EC867EE5ED866795EE86D89452
:10596000EF8682E5F886FB91F9868CE5FB8688E573
:10597000FE86E989008786E502874996038787E5E1
:10598000068784E5088785E509878AE50A878DE526
:105990000D878BE5118789E5128783E51887779254
:1059A0001A8794E51C87A896258792E5298793E5B1
:1059B00034878EE5378790E53B8791E53F878FE514
:1059C0004987E4904B8758984C8798E54E8799E52E
:1059D00053879FE55587499057879BE559879EE5F3
:1059E0005F8796E5608795E56387A0E56687DA8936
:1059F00068879CE56A87A1E56E879DE574879AE5CF
:105A00007687B192788797E57F8788948287A5E526
:105A10008D875A979F87A4E5A287A3E5AB87ACE55E
:105A2000AF87A6E5B387AEE5BA878697BB87B1E5B2
:105A3000BD87A8E5C087A9E5C487ADE5C687B0E501
:105A4000C787AFE5CB87A7E5D087AAE5D287BBE5B7
:105A5000E087B4E5EF87B2E5F287B3E5F687B8E50E
:105A6000F787B9E5F987498AFB87618BFE87B7E538
:105A70000588A2E50788A1FB0D88B6E50E88BAE582
:105A80000F88B5E51188BCE51588BEE51688BDE52B
:105A90002188C0E52288BFE5238879E52788C4E509
:105AA0003188C1E53688C2E53988C3E53B88C5E55C
:105AB00040888C8C4288C7E54488C6E546884F8F6D
:105AC0004C88738D4D88A59F5288C8E55388708F88
:105AD0005788588A5988C9E55B8871895D88D58F50
:105AE0005E88CAE56188748D6288CBE56388DF884B
:105AF00068885C956B88CCE570888A907288D3E55D
:105B00007588D0E577888F927D88D1E57E88CEE54F
:105B10007F88DC8B8188CDE58288D4E58888558CA8
:105B20008B88DC918D88DAE59288D6E59688B391EA
:105B30009788D5E59988D8E59E88CFE5A288D9E5EC
:105B4000A488DBE5AB88ED94AE88D7E5B088DCE5CA
:105B5000B188DEE5B488D18CB588D2E5B788BF8836
:105B6000BF88DDE5C188D98DC288F497C388DFE599
:105B7000C488E0E5C5889591CF88A097D488E1E5F1
:105B8000D5885497D888E2E5D988E3E5DC88E295A2
:105B9000DD88E4E5DF88BE8DE188A197E888E9E546
:105BA000F288EAE5F388D68FF488E8E5F588A2FB69
:105BB000F8888797F988E5E5FC88E7E5FD88BB90DC
:105BC000FE889E900289E6E50489EBE50789A195A8
:105BD0000A89EDE50C89ECE510898C8A12894A96D0
:105BE0001389EEE51C895DFA1D89FAE51E89F0E549
:105BF0002589F1E52A89F2E52B89F3E53689F7E570
:105C00003889F8E53B89F6E54189F4E54389EFE514
:105C10004489F5E54C89F9E54D89B5E85689A689A9
:105C20005E89FCE55F89DD8B6089FBE5648941E67F
:105C3000668940E66A8943E66D8942E66F8944E6F3
:105C40007289508F748945E6778946E67E8947E6F2
:105C50007F89BC9081897697838948E68689A29559
:105C600087896594888949E68A894AE68B89A98C5F
:105C70008F894B8B93894BE696898B8E978960949D
:105C800098894CE69A896F8AA1894DE6A6894FE6E4
:105C9000A7899797A9894EE6AA896590AC8950E6AD
:105CA000AF8951E6B28952E6B389CF8ABA8953E601
:105CB000BD8954E6BF8955E6C08956E6D289708A07
:105CC000DA8957E6DC8958E6DD8959E6E389F08907
:105CD000E6894790E7895AE6F4895BE6F8895CE64D
:105CE000008ABE8C028AF992038A5DE6088A768C65
