:020000040020DA
:10000000A863002099772100CD772100CF772100C8
:10001000D1772100D1772100D177210000000000A5
:10002000000000000000000000000000D177210067
:10003000D177210000000000D17721007D752100DB
:10004000D1772100D1772100C9772100D177210014
:1000500000000000D177210071A32000D17721009A
:10006000D177210000000000000000000000000027
:100070000000000000000000D17721000000000017
:100080000000000000000000D1772100D17721009E
:10009000D1772100D1772100D1772100D1772100BC
:1000A000D1772100D1772100AB4B2000114C2000EB
:1000B000D1772100D1772100D1772100D17721009C
:1000C000D9782100634B2000D1772100D17721001E
:1000D000D1772100000000000000000000000000B7
:1000E0000000000000000000000000000000000010
:1000F000D177210000000000D1772100D1772100C5
:10010000082102F0D8BE38B5DFF8084A0FF2217096
:10011000594D60650FF6B900A0650FF27550E862A1
:100120000FF225502863DFF8000C6863DFF8FC0B42
:10013000A8630FF6BD00E8630FF2A93028640FF240
:10014000B15060640FF20560A0640FF27550E06476
:10015000DFF8DC0B2065286908B102F0EBFFDFF85F
:10016000140CA8600B2208202873002100202861AD
:1001700084F82000287505F1150002F029FD05F12D
:100180002000BDE838400B22002102F021BD30B52F
:100190000446201D83B0052141820321017461685A
:1001A000491E4A1E626094F836200A7094F8361090
:1001B00011B14FF6FF7101860268018E521E026076
:1001C000090A02F8011F6268018E11700179C91CC9
:1001D000017100A804F12B0103F026F803208DF82B
:1001E000080000AADFF86008C38C0321204601F054
:1001F00063FE050004BF204600F071FF01F0ABB8BC
:1002000038B504460D466068411E100A087001F8B2
:10021000012D049801F8010DDFF82C08428D120A17
:1002200001F8012D408D01F8010D180A01F8010DAA
:1002300001F8013D207A62681018401A207261604E
:10024000287A03280CBF01200020E0820B2209201D
:10025000207504F12000394902F0A6FC4FF6FF7327
:100260002A460321204601F027FE050004BF204650
:1002700000F035FF284632BD007300202DE9F0471D
:1002800005460F469246002602F0DAFFDFF8808826
:10029000D8F8004000F0010080F0010913E0607E12
:1002A000400613D560684178C1F3810103290DD15F
:1002B000ED1F411D284602F0B7FF103654F8084CD8
:1002C0006D1EF6B27F1EFFB227B101E054F8084C54
:1002D000002CE4D1B9F1000F18BF02F0ADFF02F01D
:1002E000AFFF00F00100D8F8001080F001000BE033
:1002F000927905F80129761C4A68527905F8012996
:10030000F6B27F1E51F8081C89B14A685378C3F3CE
:100310008103022BF6D14B7E5B06E9D40A7E92065E
:10032000F0D50122FFB28AF80020002FEAD108B1EF
:1003300002F082FF2E70681EBDE8F0871573002062
:100340002DE9F04784B0804600208DF800008946F2
:10035000DFF8BC07857A9246082DA8BF0725DFF88D
:10036000E876387B00EBC5003D30C6B2304602F07F
:1003700059FC04004DD030196060002020723A7B97
:100380006068B968861A304602F00EFC00AA294659
:10039000701EFFF773FF0021DFF8742B0170527895
:1003A0007978920142EAC11141EA0A1141F00F0144
:1003B00000F8011D48EA091100F8011D6268217A60
:1003C0005118091A217260600B220020E08220750A
:1003D0008DF80C0004F12000DFF8501C02F0E4FB63
:1003E0009DF8000018B1E08A40F00800E0824FF666
:1003F000FE71788D8842ACBF03210221002301AA3F
:10040000204601F059FD0028204602D002F01CFCD5
:10041000002004B0BDE8F087F8B5044602F010FFF4
:1004200000F0010080F00105DFF8E406076800260F
:100430000EE0787E000609D56168786801F0E2FC7C
:1004400020B1787E00F0BF0078763E4657F8087CF1
:10045000002FEED11EB1707E40F040007076002D6E
:100460001CBFBDE8F14002F0E7BEF1BD2DE9F84345
:1004700080468946002402F0E3FE00F0010080F08F
:100480000107DFF88C06066800250CE0354605F10B
:100490001800417841F010014170287E40F0800042
:1004A000287656F8086C9EB1707E0006F9D5726801
:1004B0004946404601F0C2FC0028F2D0002DE5D0AC
:1004C000287D012804D16868017841F0100101708D
:1004D0000FB102F0B1FE15B100F0AAFD01242046D3
:1004E000BDE8F2832DE9F04182B00024009402F0CF
:1004F000A7FE00F00100DFF81866376880F00105FC
:100500000EE057F8088C22463946304602F095FC3A
:10051000394600A802F04EFCB07A401E4746B07241
:1005200067B1787E000605D5788A401E788280B251
:100530000028E6D03C4657F8087CF1E70DB102F000
:100540007BFEB07AE8B1DFF80005DFF8C845407BF4
:100550000F281CBF94F82000002812D1DFF8605C3F
:10056000284602F0EFFA02F0DEFF3030686004F156
:100570006C01284602F0B8FA03E06070204600F0F3
:10058000A0FC00A802F030FC040007D0FFF744FFF5
:10059000607E40074CBFE920F020EEE7BDE8F38124
:1005A00070B50546FFF738FFDFF86445DFF898645B
:1005B000A06F80470128F08D08BF401C6882A07A98
:1005C000002804BF707B0F280DD1DFF8F45B2846AC
:1005D00002F0B8FA02F0A7FF303068602846DFF872
:1005E0007C1C02F081FA02F02BFEA17A491CA17258
:1005F000002804BFBDE8704002F01EBE70BD38B5D3
:100600000446607E00F0EF0060762046FFF704FFAE
:10061000DFF8FC542146284602F0FFFB02F010FEF2
:10062000A97A491CA97208B902F006FEDFF818047D
:10063000407B0F2806D1BDE83440DFF8D4080078AD
:10064000FFF75EBD31BD000010B50446DFF8F803CA
:10065000407886B0C8B101208DF8000004F11C017B
:1006600000208DF801000DF1020002F0DDFD606850
:1006700000788DF80A000B2204F10F010DF10B0038
:1006800002F092FA00A802F0ADFF06B010BD000023
:1006900010B50446FFF77BFDDC2818BFDD2808D025
:1006A000E42818BFF32804D0DE281CBFDF28DB288D
:1006B00005D101462046BDE8104001F009BA10BD41
:1006C00010B586B0044606208DF8000004F11C0128
:1006D0000DF1020002F0A8FD0B2204F10F010DF153
:1006E0000A0002F061FA00A802F07CFF06B010BD1B
:1006F00010B5044684B094F8360028B304F12B01F9
:1007000001A802F091FD03208DF80C00CE4890F86E
:100710003A10C38C009101A9A28E2046FFF770FD0C
:10072000DC2818BFDD280BD0E42818BFF32807D039
:10073000DE2818BFDF2803D0E82818BFDB2803D144
:100740000146204601F0C4F904B010BD2DE9F04384
:1007500085B004464FF00009E72602F071FDDFF88E
:10076000B0733D6800F0010080F0010802E0A94686
:1007700055F8085C95B1687E0006F8D5287D0128FB
:1007800002BF95F8390021798842F0D14A462946BE
:10079000384602F052FBB87A401EB872B8F1000F2A
:1007A00018BF02F049FD002D3BD02846FFF734FE6C
:1007B0002978DFF8D80B085C8DF800000B2805D1EC
:1007C000F0206870284601F01DFD29E040B30C2898
:1007D00020D1019595F839008DF80200E868029063
:1007E00005F10C008188ADF80C10817AC90648BF6C
:1007F000002104D49449827B91F83410891A8DF831
:100800000E10417C8DF80F10817C8DF81010C07C8B
:100810008DF81100F0208DF8010000A802F0E2FE32
:1008200000263146204601F053F905B0BDE8F083BB
:1008300070B5044684B06078F32818BFDF285AD01A
:10084000E82818BFDB2856D0204600F059F80600EB
:1008500050D1207C00284DD004F11101092000F076
:10086000E9F9050046D002208DF808004FF6FF7622
:10087000ADF80060FF236868A17A228900F8013D85
:1008800000F8013D00F8011D6F494B8D1B0A00F86F
:10089000013D498D00F8011D110A00F8011D00F805
:1008A000012D297A6A685118091A297268609DF821
:1008B000080003280CBF01200020E8820B22092039
:1008C000287505F12000DFF8501C02F06DF9334661
:1008D00000AA0321284601F0EFFA060004BF2846CB
:1008E00000F0FDFBF32E18BFDF2E03D0E82E18BF5B
:1008F000DB2E03D16670204600F06AF804B070BDAC
:1009000038B504460025A07A0B38122828BFE82500
:10091000207B1028A8BFE82501DA0F2804D07C49E5
:10092000097E090758BFE825617B884202D20F295A
:1009300018BFE8254448408D4FF6FF71884208BF34
:10094000EC25242002F092FBDFF87418086120B136
:100950002422211D02F028F900E01A25284632BD84
:1009600070B504463848217ADFF8A465C51CA97221
:10097000617A80F82C10E17AC170A07A707002F070
:100980006CFF707838B1211D502003F0A4F8A11D30
:10099000E12003F0A0F85F49012081F82000A87A47
:1009A0000F2814BF01200020DFF8145828750B22EF
:1009B00004F10D0105F1150002F0F6F804F118013B
:1009C00005F12000BDE870400B2202F0EDB80000F8
:1009D00010B50446607820B9DFF8E4070069FFF736
:1009E000BFFF2C2020702046BDE8104001F0ABB8BE
:1009F00010B5DFF8CC170446086918B100220A6167
:100A000002F098FB082020702046BDE8104002F05C
:100A1000E9BDDFF8AC173F48097D90F8200081F070
:100A20000101084200D1704780B50748C27890F8AC
:100A30002C10407BFFF784FC00281CBFBDE802405F
:100A400000F04DBB01BD0000EC6F00202DE9F0432C
:100A5000814687B099F80E00012409F20E0640077E
:100A600039D5318D09F11C00FFF700FD98BBDFF887
:100A70009C0C407920B1B07D022808BF00242AD008
:100A80000B2209F10F0104A802F08EF8DFF8800CA8
:100A9000408D4FF6FE718842ACBF03270227B6F89F
:100AA000288004A9012000F0C5F8050013D03020EB
:100AB000E8822C750B2204A905F1200002F074F8DD
:100AC000434609F11C023946284601F0F5F910B9F0
:100AD000284600F004FB10208DF8000009F11C01ED
:100AE0000DF1020002F080FB308DADF80C008DF8A6
:100AF0000E4000A802F076FD07B0BDE8F083DFF8F5
:100B00001004407800B9704700B500F017BF00002E
:100B1000D842002058420020DFF8F80BDFF8F81B1D
:100B200001F154020263DFF8F42B426301F1440245
:100B300082630FF22002C266DFF8E42B4264DFF822
:100B4000742C0267DFF89C2C0A66018B41F00201CD
:100B500001837047030471040204600411047004EB
:100B600002040204010402041004610400041404D9
:100B7000630473047204620443040004130406044F
:100B8000000400040404120400040004000400042F
:100B90005104640000040004000444040004000440
:100BA00000040004650400043504810464000504A5
:100BB000000483040004000002460146032000F004
:100BC000EABF02460146052000F0E5BF30B5044605
:100BD00085B0282002F026F8050004D008202870EF
:100BE000242200F0DABE082000F0CDBE10B5DFF8F8
:100BF000244B0FF2C520606782B00FF2A920A067D6
:100C000006E0204602F0F0F8009000A801F09BF802
:100C100020680028F5D1606838B1201D02F0E4F8A2
:100C2000009000A801F08FF8F5E72060A072E07254
:100C3000207313BD38B504460FF23800255C2846F2
:100C400001F0F0FF20B1291841600021017232BD8E
:100C5000022001F0E7FF50B10FF2C421615C017086
:100C60001A2141700146AA48007801F0FCFF0020DB
:100C700032BD0000004246484045453F354D3600F4
:100C8000821DD2B2C90711D50A2192FBF1F101EB05
:100C90008103A2EB4301C9B241B10A32521AD2B266
:100CA0000529A4BF0A32D2B20B32D2B21328ACBF8C
:100CB000142006208018C0B209300A2190FBF1F000
:100CC000C0B2704780B5DFF84C0A007E800706D5B9
:100CD00002F07AFD401E8041C043C00F02BD0020DB
:100CE00002BDDFF8300A017E89070FD5807A58B936
:100CF000DFF8240AC06D48B1407E00F08001481E34
:100D00008041C043C00F70470120704700207047EA
:100D1000DFF8001ADFF8F429097B9278914238BF96
:100D200001F080BF00207047130A20004D0A200008
:100D3000FF0A200038B5040008BF02F0FFFF02F0F0
:100D40007FFA00F00100216880F0010561B1DFF851
:100D5000C4295369A1F108008B4204BF00215161ED
:100D60000021216002F0E6F90DB102F065FA0020E1
:100D700032BD0000F519200011B581B0007B20B113
:100D800001282CD003282CD03EE0DFF88449607B7A
:100D90000F281EBFDFF87C09807E032804D0DFF80F
:100DA00078190198496E8847019994F83A00887338
:100DB000142001990870DFF85C490199201D01F0A9
:100DC000F9FF02F03DFA217B491C217308B902F0BA
:100DD00033FA20214E48007802F06DF813BD15203B
:100DE000E7E70198007A78B101994A68521C4A6095
:100DF00012F8011D019A5173019A0199D27D497B24
:100E000032B109B10A2912DB01A800F09CFF13BD21
:100E10000A0008D00A2A06DA0FF23001511811F838
:100E2000011C884203D0082A08BF0828ECD1019988
:100E3000401E087201980199407B0A3008700198A1
:100E40000199407B401C4873B5E700000204020191
:100E50000101010902000000DFF8B808C06F0100BD
:100E600018BF00470020704738B5044601202075A0
:100E700004F1140104F1380042884A800279CA71F1
:100E800004F12C024079087220464B8C94F83810FB
:100E900001F012F8050004BF204600F020F92846B2
:100EA00032BD0000DFF86C08807E032801D00120ED
:100EB0007047202070470000417E41F001014176DB
:100EC0007047017D027E012904D113075CBF417880
:100ED00000F0FEBD530603D50D494078896D0847E3
:100EE000012903D1120748BF30210BD442781B2AB5
:100EF00008BF222106D0002A0CBF0FF218020FF201
:100F00002002895C017001460148007801F0ABBE07
:100F1000C0710020303016181920231A1C1E300012
:100F2000303017181921301B1D1F300038B5DFF87D
:100F3000E8470546E06D002876D025B11B2D05D188
:100F4000017D052956D00021417055E0E92D2BD1B6
:100F5000807E30B902F03AFC18B1E06D807D400728
:100F60002BD5EE2003F028F8E06D817E002942D0D9
:100F7000827D520705D4491E8176BDE8314003F0D9
:100F8000B0B8017E01F07F010176E06D017D03299B
:100F900003D1417E41F004014176ED2003F00CF8CD
:100FA000E06D216E88472AE0E12D1CD102F00EFC95
:100FB00000B3E06D807D40071CD4DFF85407E26D7C
:100FC00000F12201897C9176E26D90F8221052683E
:100FD000917090F82210491C80F822100120BDE881
:100FE000324002F0F1BF1C2D04D1A16E88470020D1
:100FF000E06531BDE06D4570E06DFFF762FFE06DCB
:10100000807D000609D5DFF8080700F22205287E5A
:1010100002F063FCE87D02F03AFC0020E06510215C
:10102000BDE8344000F0E8BC31BD00002073002072
:101030002DE9F041002402F003F900F00100DFF88F
:10104000D85680F00108E86D90BBDFF8C876B86F1D
:1010500080473E6840F0100002E0344656F8086CC5
:1010600036B3717E01408142F7D12246314638467F
:1010700001F0E3FEEE65707E000620D4F87A401E93
:10108000F872B8F1000F18BF02F0D6F8EC6DE18AE3
:10109000207AFFF7F5FD3881A07D000613D5E07EAC
:1010A00002F01BFCE86D007FBDE8F04102F0EFBBF1
:1010B000B8F1000F11D0BDE8F04102F0BDB8B87A28
:1010C000401EB872DDE7207EBDE8F041400800F028
:1010D000010080F0010002F077BFBDE8F08138B573
:1010E000DFF8305604466869A04204BF00206861FA
:1010F000207E000706D4207D012803D1DFF80C06EE
:10110000027802E0DFF8040642782146284601F022
:10111000B1FEC0B1696F20468847A07D40070DD45D
:1011200002F08EF8E97A491CE97208B902F084F8F5
:10113000E08AC0050DD4BDE8314079E7296F20462B
:10114000BDE834400847F12060702046BDE83240D9
:10115000B7E631BD6CE710B5DFF8B815098B04466A
:1011600000208A0705D404F134029279520748BF5F
:10117000E8206022114205D104F134018979890700
:1011800048BFE820DFF8501C227A8979914238BFA5
:10119000E82004F134010979002902BF94F83410E1
:1011A0000029F52004D010B92046FFF75DFE28B1D4
:1011B00001462046BDE8104000F08ABC10BD00008A
:1011C000007300200D21017002F00CBA00B585B04B
:1011D000002101704170DFF8341590F83A30097839
:1011E000DFF830255B0715D4D27A8A4215D30C215B
:1011F0008DF80010019090F839108DF80210C16838
:1012000002910C308188ADF80C10817AC9060CD59A
:10121000002110E0927A8A42E9D20146DFF8DC0B25
:10122000007801F020FD05B000BDDFF8D817827B03
:1012300091F83410891A8DF80E10417C8DF80F103A
:10124000817C8DF81010C07C8DF81100F1208DF894
:10125000010000A802F0C6F905B000BDC44200209C
:1012600010B5044604F1580080B201F0DBFC18B15F
:10127000047200F15801416010BDDFF8840B0FF2D9
:101280005911016002220FF29D4141600FF2C91114
:1012900081600FF22521C1600FF2F13101610FF27F
:1012A0005D3141610FF21D3181610FF20D51C1615C
:1012B0000FF2355101620FF2A55141620FF209613F
:1012C00081620FF25921C1620FF2C50101630FF271
:1012D000910141630FF2793181630FF2D151C16302
:1012E000DFF8C41B01640FF2F55141640FF249614C
:1012F00081640021DFF8B40B80F85C1080F85F1087
:101300000FF2F161C1633C3001610271012101758D
:10131000704730B50446251D83B00120688204F172
:101320002E010220287400A801F05EFF6068AB8ED9
:10133000401E606000AA616894F83A00087083213A
:101340002879401C2871204600F0B6FD050004BF36
:101350002046FFF7C4FE284603B030BD0000000061
:1013600038B5DFF8AC03DFF8445B90F8350000EBEC
:1013700040010C0102F0D7F80019A86405F14400FF
:10138000BDE83440DFF82C1B01F0AEBB2029200063
:1013900030B5DF4C607B93B00F2807D02E208DF83E
:1013A000000000A800F0CFFB13B030BDDFF8FC5AFE
:1013B00005F1340001F0C6FB608E1421B0FBF1F49E
:1013C00002F0B1F80019A86305F13400DFF8E41A5F
:1013D00001F08AFB13B030BD10B50446607888BBBD
:1013E00094F8361002291CBF0329E82094F82B102A
:1013F0000B39122928BFE82025D218BB04F12B0194
:10140000E12002F068FB04F13801502002F063FB98
:1014100094F83610BE48022902D1E18D018407E01C
:101420004FF6FE710184163004F12E0101F0FCFE2E
:101430000B2204F12001DFF8780A01F0B5FB204609
:10144000FFF767FF30B16070172020702046BDE8BD
:10145000104078E310BD000070B5DFF8504A94F8F2
:101460005F0084B028BB012084F85F0002F09DFF7C
:1014700000A800F0B3FC04F15401A548C58C052078
:10148000FFF7D8FB060014D00120F0820B220520C4
:10149000307504F1540106F1200001F085FB2B4664
:1014A00000AA0321304600F007FD10B93046FFF7CF
:1014B00016FE04B070BD000010B5044682B00120D5
:1014C00002F081FF2078202804BFEB206070DFF855
:1014D000DC0990F85F104A0744BF01F0FB0180F877
:1014E0005F1090F85F108A0710D501F0FD0180F8B9
:1014F0005F100A2160788DF801008DF8001000203F
:101500008DF8020000A802F06DF813BD2A202070AB
:10151000204600F018FB13BD1573002070B505467A
:1015200086B0012002F04FFFDFF8804904F134005B
:1015300001F008FB04F1440001F004FB6868017845
:10154000427801EB0221ADF80410867846B901A972
:10155000532002F0C0FA05F11C014A2002F0BBFA48
:101560000B2205F10F0104F1540001F01DFBBDF841
:1015700004008DF8096002218DF808100EB14FF6B5
:10158000FF70ADF80A000B2204F1540103A801F02A
:101590000BFB02A802F026F894F85F0080070BD539
:1015A00068788DF801000A2100208DF802008DF87E
:1015B000001000A802F016F8002084F85F0006B0C2
:1015C00070BD000010B5044682B0EB206070DFF8FB
:1015D000DC0890F85F0080070BD50A208DF800002A
:1015E000EB208DF8010000208DF8020000A801F02A
:1015F000F9FF204600F002F813BD000030B50546A3
:1016000085B0012002F0DFFEDFF8A04804F13400CD
:1016100001F098FA04F1440001F094FA002084F8F3
:101620005C0084F85F000B2202208DF8000004F1BA
:10163000540168788DF801004FF6FF70ADF8020094
:1016400001A801F0B1FA00A801F0CCFF05B030BD4F
:1016500010B5044682B0EB206070DFF8500890F8B7
:101660005F0080070BD50A208DF80000EB208DF875
:10167000010000208DF8020000A801F0B3FF204611
:10168000FFF7BCFF204600F069FE13BD10B504460D
:1016900082B0012002F097FE207A002814BF0020BB
:1016A000EB206070DFF8040890F85F104A0744BF31
:1016B00001F0FB0180F85F1090F85F108A0716D5E3
:1016C00001F0FD0180F85F10A07B00F01000012800
:1016D000ACBF0120002061788DF802000A228DF84D
:1016E00000208DF8011000A801F07CFF08E0C80779
:1016F00006D52A202070EB206070204600F023FAE7
:101700000D202070204601F06DFF13BDD078210020
:10171000EC6F0020D8420020584200202C7300209B
:10172000070120002DE9F8430446DFF8800790F810
:101730005F1041F0020180F85F10012002F035FED9
:10174000607840BBAF48408D4FF6FE718842ACBF19
:101750000325022504F11008B4F80E901A2641461C
:101760000520FFF767FA070014D00120F8820B224A
:1017700005203875414607F1200001F015FA4B4667
:10178000221D2946384600F097FB060004BF384664
:10179000FFF7A5FC6670607850B18DF801000A2152
:1017A00000208DF802008DF8001000A801F01AFF4B
:1017B000BDE8F183A105200010B5044682B00120E8
:1017C00002F001FE2078202804BFEB206070DFF8D3
:1017D000DC0690F85F104A0744BF01F0FB0180F877
:1017E0005F104DE0FF05200038B50446012002F0EF
:1017F000EAFDDFF8B85605F1340001F0A3F9207ACC
:10180000002814BF0020EB20607095F85F004107AE
:1018100044BF00F0FB0085F85F0095F85F0081078A
:1018200015D500F0FD0085F85F00A07B00F01000EA
:101830000128ACBF0120002061788DF802000A2247
:101840008DF800208DF8011000A801F0CBFE0D20CE
:101850002070204601F0C6FE31BD000010B50446E0
:1018600082B0012002F0AFFDEB206070DFF83C0693
:1018700090F85F104A0744BF01F0FB0180F85F1049
:1018800090F85F108A070FD501F0FD0180F85F1016
:101890000A2160788DF801008DF8001000208DF885
:1018A000020000A801F09EFE13BD000010B5044622
:1018B000DFF8BC0B01F046F92046FFF7CFFF2046CA
:1018C000BDE8104000F04ABD10B50446DFF8A00B9B
:1018D00001F038F92046BDE81040BFE710B50446D6
:1018E00086B004F11C01DFF88C0B01F057FC08B343
:1018F00009208DF80000EF208DF801006068017864
:10190000427801EB0221ADF8021000798DF8040055
:10191000207A082806BF6068C07900208DF805008D
:101920000B2204F10F010DF1060001F03DF900A8B2
:1019300001F058FE06B010BD4DF804ED85B0092049
:101940008DF80000EE208DF8010000A801F04AFE9D
:1019500005B000BDDFF8200BDFF8A4148162383138
:10196000C1620FF2A40101660FF200114166DFF8B7
:101970000C1B0164018B41F0010101837047024699
:101980000146022007E18DF800001A208DF80100C1
:1019900000A801F027FE05B030BD00206870214688
:1019A000281D01F001F9DFF854040078294601F000
:1019B0005AF905B030BD10B5DFF8BC4A206982B0D5
:1019C00018B104F1100000F0BEF90020A076DFF895
:1019D000600B006858B102E000A800F0B4F9DFF82D
:1019E0001C04007801F08CF900900028F4D113BD9C
:1019F000000000004FEA0001DFF80004007801F069
:101A00005ABA0000EC6F00200101710101010101CF
:101A10001101010131010101010180011001610188
:101A20003B00140063017301720162014301000174
:101A3000130106013D0135000401120100010001FE
:101A40000001000104010401330133013C014401A0
:101A500032013600000100016501000135008101FD
:101A600000010501820183010001000003027102EF
:101A700030016002110270020102020202028002C1
:101A8000100261023A0041006302730272026202B4
:101A90004302000213023800000200020402120294
:101AA00000020002000200020402040237003700B4
:101AB0003C024402000239000002000265020002FA
:101AC0003502810200020502820283020002000048
:101AD00000B585B00378DFF8D42A9A5C8DF8002031
:101AE0000B2A01D100F03DBB5AB30C2A24D11A298C
:101AF00002D1002001901FE0019090F839208DF86C
:101B00000220C2680292028AADF80C20827DD206C1
:101B100048BF002205D4DFF89C2A837E92F8342047
:101B2000D21A8DF80E20427F8DF80F20827F8DF81B
:101B30001020C07F8DF811008DF8011000A801F071
:101B400051FD05B000BD18B4DFF82C198A7E03786A
:101B500001EB820203F07F03D26D037002EB4303BB
:101B60005B7801EB8304E46D04B18B76037812F8A3
:101B70001320140901EB8401C96921B90B2B08DA80
:101B800014BC1821A4E702F00F0251F8221014BC73
:101B9000084711BC7047F0B507460FF2800087B0C8
:101BA0003C5C0D46204601F03DF8060016D037702B
:101BB000002070702946A0197060002030720FF26A
:101BC00068003A5C06F1200000F0EEFF8B480078D8
:101BD000314601F048F8002007B0F0BDDFF8CC092D
:101BE0008DF80070385C8DF804000B2806D11A209F
:101BF0008DF8010000A800F005FB0AE048B10C28B0
:101C000004BF002002901A208DF8050001A801F001
:101C1000E9FC1A2007B0F0BD000000000005555394
:101C20004D581C202807020000011C181A18181C07
:101C30002403000071490870704770B50C4682B0EB
:101C4000A006DFF8345817D41BE001F0F9FA297B1D
:101C5000491E297308B901F0EFFA30788DF80000B9
:101C60006E613046FFF76FFF9DF8000015281CBF1E
:101C700005F1140000F067F8281D01F0B5F8060022
:101C8000E3D1200407D40CE06861FFF75CFF05F1A5
:101C9000140000F058F85948007801F031F8002895
:101CA000F2D1E00605D52D208DF8000000A8FFF741
:101CB0004AFFE00705D524208DF8000000A8FFF7B3
:101CC00042FFA00705D525208DF8000000A8FFF7EA
:101CD0003AFF600705D526208DF8000000A8FFF721
:101CE00032FF200705D528208DF8000000A8FFF757
:101CF0002AFF600608D500208DF801002C208DF801
:101D0000000000A8FFF71FFF200608D500208DF86F
:101D100001002F208DF8000000A8FFF714FF2869AC
:101D200078B101F08DFA2C690021296108B901F020
:101D300083FA6C612046FFF706FF05F1140000F0FE
:101D400002F8002076BD38B5040008BF01F0F6FFA8
:101D500001F076FA00F00100216880F0010561B120
:101D6000DFF814275369A1F108008B4204BF00215A
:101D700051610021216001F0DDF9002D1CBFBDE89B
:101D8000314001F059BA31BD1C480FF2D5318160A4
:101D90000FF2D931C1600FF245410161DFF8241B18
:101DA00041610FF261418161DFF8541BC161DFF8CD
:101DB000B41B01620FF2F971C1630FF2F9410164C2
:101DC0000FF24D5141640FF2ED5181640FF28D51CC
:101DD000C164002141707047D0782100DFF8D4172A
:101DE0000A8C4FF6FE739A4204BF163101F0FCB91B
:101DF00002220272098C018070470000C07100202D
:101E00006C72002042784B78C2F38102C3F38103E5
:101E10009A4211D1022A09D142794B799A4202BFE2
:101E200080798979884207D101207047032A03D13C
:101E3000491D401D01F0E2B90020704770B554788B
:101E4000067A0B460021C4F38104B44218D1022C57
:101E500010D154799579008804EB0524A4B2A042EE
:101E60000ED1D078127900EB022080B2834207D1E4
:101E7000012105E0032C03D1511D01F0BFF90146FA
:101E8000084670BD017ADFF82C27022907D1118C92
:101E90000088814201D1012070470020704701462F
:101EA00002F1160001F07AB943282000F0700020FA
:101EB00044710020C44200202DE9F84F1546044625
:101EC00000222F7ADFF8EC86994608064EBF4FF6BF
:101ED000FF7608F11400468A01F07F00A17D890693
:101EE0004CBF082100212176A17D49074CBF8021EC
:101EF00010216176A17DC9064CBF002198F83410ED
:101F0000A176E18ACB0748BF2022090748BF42F0EB
:101F100010026168237D491E022B07DB0B2B1CBFBF
:101F20005B1E01F8013942F0030200E01A4398F801
:101F30004930012B04D1237A672BA8BF42F4805289
:101F400042EA80321FFA82FA022809D108F114000D
:101F5000C28A120A01F80129C08A01F801090CE0BD
:101F6000032809D1A1F1070B08F13C01584601F003
:101F70005BF9ABF1010100E050B127B14E4508BF5C
:101F80004AF0400A04D0301201F8010901F8016951
:101F90004AEA872086B2022F07D12888000A01F872
:101FA0000109288801F8010909E0032F06D1CF1F94
:101FB0002946384601F038F9791E00E02FB14FEA82
:101FC000192001F8010901F801994A1E207D28B95C
:101FD00098F81430581C88F8140004E008F1140034
:101FE000837B5D1C85730B70300A107002F8016DE5
:101FF000207A61680818801A207262600020607080
:10200000BDE8F28F2DE9F047099F8A4605469046C4
:1020100099461A263946FEF70DFE04001AD0089894
:10202000E08225750B22394604F1200000F0BCFD4A
:102030004B46424651462046FFF73EFF060009D177
:10204000ED1F012D03D8607E40F020006076204611
:10205000FFF745F83046BDE8F08730B5044683B059
:1020600094F83910012001B10520251D04F12C013F
:1020700068820420287400A801F0B6F860686B8EAE
:10208000401E606000AA616894F83800087003215F
:102090002879401C28712046FFF70EFF050004BF79
:1020A0002046FFF71CF8FFF756B970B50446052027
:1020B0000D4620702E1D95F83D00A0706068F16AF5
:1020C000416105F11C0101F08FF86068718E41815A
:1020D0000B2295F83A104174002160680176C173B3
:1020E00005F10F016068193000F05EFD6168B07A9B
:1020F00088736868616810F8012B8A8110F8013BC9
:1021000042EA03228A8110F8012BD3095B1E9B410E
:10211000DB43DB0F0B7402F007014A1E9241D243EE
:1021200001EB410101EBD271C9B2081810F8011B93
:102130002172E060217A01F00702490801F03801BC
:1021400001EB42010818606131796A688B1883429B
:1021500027BF081A101800202072207470BD0000DC
:102160007047417000F04EF805B000BD00B585B075
:1021700002780FF2AC71515C8DF800100B2901D17F
:102180001921EEE739B30C291FD1019090F83910CD
:102190008DF80210C1680291018AADF80C10817DA2
:1021A000C90648BF002105D4DFF80814827E91F8E3
:1021B0003410891A8DF80E10417F8DF80F10817F31
:1021C0008DF81010C07F8DF8110019208DF80100D6
:1021D00000A801F007FA05B000BD000038B5DFF82F
:1021E000B0590446286930B11921FFF771FC05F197
:1021F0001000FFF7A8FD6869A04204BF00206861D5
:102200002C6131BD10B504468AB02078032808D06F
:10221000052808D0182804D01E2818BF1F2802D06F
:1022200018E0002000E001208DF8180004F12B01D7
:1022300003A800F0F9FF03208DF81400DFF8740301
:10224000418DC08CADF80210ADF8160002218DF85A
:102250000A101CE002208DF8180004F11C0103A8EC
:1022600000F0E2FF03208DF814000B22DFF8440396
:10227000418DC08CADF80210ADF8160002218DF82A
:102280000A100DF1190004F10F0100F08DFC0B2074
:102290008DF800000B2260788DF8010004F10F0129
:1022A0000DF1190000F080FC00A801F09BF90AB0C4
:1022B00010BD000038B5044665789DB9DFF8F4120A
:1022C000E08EC98C884218BFE82504F12C00FFF786
:1022D000D9FD88B1002084F839001DB92046FFF7E8
:1022E000BCFE05463DB16570192020702046BDE852
:1022F0003240FFF728BC31BDDFF8981894F8390058
:1023000091F8201080F001000843E6D1E825EAE7C3
:1023100010B586B004218DF8041041788DF80510B1
:10232000C18EADF8101000F12C010DF1060000F087
:102330005BFF0DF10600FFF7A5FD50B14FF6FF74EE
:10234000ADF8004000A9532001F0C5FBDFF84808B4
:10235000048401A801F046F906B010BD10B588B09C
:10236000044603208DF8040004F11C010DF1060061
:1023700000F05AFF606800788DF80E000B2204F11F
:102380000F010DF10F0000F00FFC04F11C00FFF72E
:1023900079FD50B14FF6FF74ADF8004000A953200D
:1023A00001F099FBDFF8F007048401A801F01AF9A5
:1023B00008B010BDF0B5054695B068687D4C407812
:1023C000400611D5A61CE98EB08C88420CD1DFF8EE
:1023D000CC07407808B309208DF81800EE208DF85E
:1023E000190006A801F0FEF80BA80190294600A8E4
:1023F000FFF75BFE2B208DF8000000A8FFF7A3FB82
:10240000A07810B19DF8100028B105208DF80000CB
:1024100000A801F0E7F815B0F0BD94F830000028EE
:10242000E2D005F11C00FFF72DFD0028DCD105F2FC
:102430000F05B68C29460620FEF7FCFB0700EAD004
:102440000120F8820B2206203875294607F120006A
:1024500000F0AAFB334604F1160203213846FFF7C9
:102460002BFD0028D7D13846FEF739FE15B0F0BD58
:102470002471002002700020D84200207B1220002E
:10248000F8B5054600F0DCFE00F0010080F0010424
:102490000DB101F0D9FA01F078FD464D05F226079D
:1024A000387D01F01AFAF87C01F0F1F9DFF8EC66FA
:1024B000707801F0D2F9E88C01F0DBF9B88801F00E
:1024C000DAF905F13C0001F0DDF9DFF8C476386C8B
:1024D000010018BF8047786C010018BF8047B86CB6
:1024E000010018BF8047F86C010018BF8047386DA5
:1024F000010018BF8047786D010018BF8047B86D94
:10250000010018BF804700F021FAFFF754FA0020BD
:102510003071FEF76BFBFFF737FC05F12901522004
:1025200001F0D9FA0CB100F087FE0020F2BD0000E6
:102530004076002038B50446072000F073FB050004
:1025400010D0092028700322002068702146281D21
:1025500000F02AFB2946BDE83440DFF84006007849
:1025600000F081BB31BDDFF834060FF26901416232
:1025700000F108020FF2513181620FF28931C1621C
:102580000FF2091101630FF2092141630FF2B1113A
:102590008163DFF8FC15CA6100F13C022430486217
:1025A0000A620020088301F0E1BC0000202920001D
:1025B00070470000EC6F0020072202700A7A8270D8
:1025C0008A7AC2704A68426000220272C969C16098
:1025D0007047000038B50446DFF8C4550020687025
:1025E000207A0628A4BFE8206870607A0F2804DBF0
:1025F000207A032804D0E8206870207A032806D1C6
:10260000DFF88C05007EC0075CBFE82068702146BB
:102610002846FFF7D1FF616805F11800890A81603B
:102620000B22617A0173E17A4173217B8173617BB3
:10263000C173A17B01740A214174CB4991F83A100E
:102640008174DFF86015A9610421017105F12B0087
:1026500004F10F0100F0A8FA6878002804BF607840
:1026600000280CD1681C407808B1EA21697001F09B
:1026700079F926202070042001F075FE01E0292060
:1026800020702046BDE83240FFF75DBAF0B5DFF8B4
:1026900010556E1C0446707885B005F10C0760B9C2
:1026A000787F0A2809D001F083F9E9687A7F511808
:1026B00001F80B0CF079401CF0717869797F4008C3
:1026C0007861491C7977C00702D4C9B21D29F4DBAF
:1026D000C9B21D292DD005F12901E12001F0FBF936
:1026E00002208DF810004FF6FF737078ADF80830B7
:1026F000002818BF022804D1204600F021F805B0B8
:10270000F0BD012807BF082080210720832105F1A3
:102710002B0201920022009202AAFFF773FCDB2831
:1027200018BFE52804D0F3281CBFDF28E82805D10E
:102730006870292020702046FFF705FA05B0F0BD2B
:1027400038B5DFF85C44616894F82920012000FA6C
:1027500002F291436160A178032907D1DFF83804C0
:1027600090F8350000EB40010D0109E094F82420B9
:102770009040401C00EB4002150109B901F016F928
:1027800000F0D1FE4019606104F11000FEF7F8BDC1
:102790002DE9F043DFF80864751C804668788FB037
:1027A00002281CBF0128052840D100207070414636
:1027B00000A80A9009A8FFF778FC06F10C07EC794D
:1027C000787E844220D2D6F80C900DE0B9F80A0049
:1027D000BDF80A10884204D100A9484600F0DEFC8A
:1027E00090B9641E09F12409E4B2002CEED1F0681E
:1027F000EB7903EBC306242200A900EB860000F06E
:10280000D3F9E879401CE871DFF88C03807820B1B7
:102810009DF8340008B9787E10B909A800F0E2FEEE
:10282000787E58B1E979814208D101E0E8207070E2
:10283000292088F800004046FFF785F90FB0BDE871
:10284000F08338B5044694F82400032804BF94F8B4
:102850002E0003282CD104F11C014A2001F03BF981
:1028600060680178427801EB0221ADF80010851C08
:1028700000A9502001F02FF92878697800EB012099
:10288000ADF80000AD1C00A94B2001F024F9294649
:10289000E12001F020F9681C0178407801EB00206C
:1028A000ADF8000000A9532001F015F9002000E068
:1028B000E820DFF8EC124870292020702046FFF74E
:1028C00042F931BD5711200010B5DFF8D44204F1B0
:1028D000100000F037F901F062F8042001F073FDF8
:1028E000A078032804BF6078002804D004F12A01EE
:1028F000E12001F0F0F82046BDE8104000F072BE83
:102900005511200000B585B0014600A8FFF754FE20
:10291000FC208DF8010000A800F064FE05B000BDA9
:102920000C0E020B040B0A0708000F0030B504461A
:1029300085B0202000F076F9050004D0072028702B
:102940001C22FFF72AB80720FFF71DB89148002185
:10295000C16601674FF47F01416781670021C1674C
:1029600070470000C5112000EC6F002010B5894CA5
:102970000020E067E06E68B1616F4068884209DA64
:1029800000F0D1FDE16E4A688242B8BF02464A605B
:10299000E06EE067206F38B1E16F19B142684968B5
:1029A0008A4203DAE06701E0E06F40B1E06F616FF7
:1029B00040688842BCBFBDE8104000F0D8BDBDE80B
:1029C000104000F0FBBDF8B500F03AFC00F001004B
:1029D000704D80F00104E86F002840D0696F4068B6
:1029E000814204DA01F0AAF9E86F002837D000F03C
:1029F0009AFDE96F4968884231D3002948BF01F048
:102A00009DF9EE6F00F01CFC00F0010080F0010762
:102A1000E96E05F16C0001E00846114621B10A6833
:102A2000B142F9D1026004E005F17001304600F0D6
:102A30007CF8E86F864208BFFFF798FF0FB100F0FF
:102A4000FBFB377BB6680CB100F0F6FB3846B047AD
:102A500000F0F6FB00F0010080F00104C4E7002C58
:102A60001CBFBDE8F14000F0E7BBF1BD38B504463E
:102A70000D460EE047496868C96F20188D4202D1A3
:102A8000002848BF00206860002848BF01F056F9C0
:102A90002D68002DEED131BD70B500F0D1FB00F0F6
:102AA00001003C4D2E6FE96E80F00104686F4042DA
:102AB000FFF7DCFF06E0686F71688142A4BF081A67
:102AC00070603668002EF6D1A86F696F81421CBF16
:102AD000686700F011FDFFF749FF002C1CBFBDE83F
:102AE000704000F0A9BB70BD70B504460D4600F003
:102AF000A7FB00F0010080F001062968284601E0EC
:102B00000846096819B162684B689A42F8DA0460AD
:102B100021602868A04208BFFFF728FF002E1CBFD5
:102B2000BDE8704000F088BB70BD0A6801E0114646
:102B30001A462AB113688242F9D10B60012070470E
:102B40000020704770B5044600F07AFB114EF16E1C
:102B500000F0010080F0010506F16C0001E008467C
:102B6000114621B10A68A142F9D1026004E006F1E0
:102B700070012046FFF7D9FFF06F844208BFFFF7CE
:102B8000F5FE002D1CBFBDE8704000F055BB70BDC8
:102B9000D842002058420020EC6F0020C071002075
:102BA0007C730020F51920002AB111F8013B00F8D0
:102BB000013B521EF9D1704742B110F8013B11F8A8
:102BC00001CB521E6345F7D00020704701207047AB
:102BD00010B5044610460A460146204601F09EFC08
:102BE000204610BD0278022903D1407802EB002074
:102BF0007047032906D14178807802EB012101EB6F
:102C000000407047042909D1417802EB0121827804
:102C1000C07801EB024101EB00607047104670473D
:102C200001F0DCBC10B5040001D1002010BD04F19E
:102C3000080080B200F01AFA28B1002101608480F7
:102C4000FF218171083010BD80B508B9052002BD93
:102C500010F8021CFF2901D0042002BD083800F042
:102C600069FA002002BD38B50D00044636D0DFF801
:102C70009023127815F8020C944207D3FF2804BF62
:102C8000A5F1080000F056FA032032BD55F8081CE3
:102C9000002908BFFF281BD105F8024C00F0D0FA2C
:102CA000002145F8081C00F00100DFF858130A68FD
:102CB00080F0010012B90D6006E00A4652F8081CC7
:102CC0000029FAD142F8085C08B100F0B5FA07E033
:102CD000FF2804BFA5F1080000F02CFA052032BD42
:102CE00000F0AEFADFF82013096831F8142042F43E
:102CF000004221F8142008B900F09EFA002032BDED
:102D00002DE9F041804600F09BFA00F00100DFF869
:102D1000F44280F0010720680026002503E005B991
:102D2000064650F8080C68B110F8021C4145F6D16F
:102D3000002D08BF0546F4D04FF40041404600F096
:102D4000BAF811E0AE49097888450CD200F078FA5B
:102D5000AD49096831F81820C2F30E0221F8182095
:102D600008B900F069FA25B132462946204600F03C
:102D700064F80FB100F060FA2846BDE8F08170B544
:102D800004460D4600F05CFA9E490E6800F0010012
:102D900080F0010001E056F8086C36B116F8021C0C
:102DA000A14204BF3178A942F5D108B100F044FA3C
:102DB000304670BD38B504460D4600F041FA00219A
:102DC00045F8081C00F00100216880F0010011B9ED
:102DD000256006E0114651F8082C002AFAD141F886
:102DE000085C00B125E031BD38B5054600F028FA91
:102DF00000F001002968002480F0010041B10C4678
:102E0000A4F108010A682A6000220A60FF228A7180
:102E100008B100F011FA204632BD38B504460D461F
:102E200000F00EFA216845F8081C256000B900E0A2
:102E300031BDBDE8314000F0FFB970B504460D4624
:102E4000164600F0FDF9A5F1080123680A689D42C5
:102E50000CBF226046F8082C00220A6000F0010036
:102E6000FF2280F001008A7118B1BDE8704000F0C7
:102E7000E3B970BDF8B507460D46164600F0E0F917
:102E800000F001003968002480F0010021B93D60A4
:102E90000BE0F1B251B1114651F8082C761E002A10
:102EA000F7D1F6B216B141F8085C012408B100F080
:102EB000C3F92046F2BD38B50D465149097888421C
:102EC000044607D200F0BCF94F49096831F81420D4
:102ED0002A430EE7032032BD38B50D46484909782C
:102EE0008842044607D200F0ABF94749096831F837
:102EF0001420AA43FDE6032032BD80B5FF2803D18C
:102F000000F09AF9002002BD072002BD80B5FF281D
:102F100003D100F095F9002002BD072002BD80B565
:102F200000F078F837490020086001F05BFB01F001
:102F300053FC01F05BFC00F07FF8002002BD80B57F
:102F400000F001F8FCE72DE9F04101F09DFC2C4870
:102F50002D4C007821680026F6B231F816201AB9F7
:102F6000761CF2B28242F7D3F1B2814224D200F051
:102F700067F92168F6B2354631F81580002221F84C
:102F8000152008B900F058F9204F214A3E704146FB
:102F900052F82520304690470646FF20387000F052
:102FA0004FF9216831F81520324321F8152018B95E
:102FB000BDE8F04100F040B9BDE8F08101700A0AB7
:102FC00042700A0C090E8270C170001D70470170BA
:102FD0000A0A090C42708170C01C704710B448B1D5
:102FE000002300E05B1CDCB2944206D210F8014BD7
:102FF0008C42F7D010BC0020704710BC01207047F5
:10300000A47821003C7600204076002087430020F1
:10301000847821005D4841F2FC72002181525C49B4
:1030200008604FF427710180084448F204010180D0
:1030300041F25C518180704738B5012000F016F8EC
:10304000040008BF00F07AFE00F0FAF80546504987
:10305000201F0860204600F06DF84E4901200870DE
:103060001DB9BDE8314000F0E7B831BDF8B5002426
:103070000025061D16F003001CBF311D0E1A00F0BE
:10308000DFF84449097800F001000A0080F00100EF
:1030900002D0B6B2112E02D23D4A176800E03E4F70
:1030A0003B68C3F3C0320AB1002522E0B6B2D5B105
:1030B000226813444FEAD23EC3F30E0343EACE33F1
:1030C0002360C3F30E03B34213DB274647B33B68C9
:1030D000C3F30E04A41BA4B2082C13D3BC5346F4B0
:1030E00000423A8011E0C3F30E03B342EEDA012549
:1030F0003C463A68C2F30E0217443A88002ACFD100
:1031000000270DE043F400423A6041B120490A68CB
:10311000BA4204D13A68C2F30E023A440A603F1D33
:1031200008B100F089F817F0030018BF00F006FEA0
:103130003846F2BD10B515498842044604D34FF411
:10314000C0521144884201D300F0F8FD54F8040C39
:10315000C0F3C03008B900F0F1FD00F071F854F888
:10316000041C0B4A21F4004144F8041C211F13687D
:1031700000F00100994280F0010038BF116018B1E1
:10318000BDE8104000F058B810BD0000A843002072
:10319000A8630020A57600204846002010B4027ADB
:1031A0000C7AA2421CD113001AD0022A04D1008842
:1031B0000988884214D112E0032A11D10822037829
:1031C0000C78A3420CD1431C4C1C581C611C1B786E
:1031D0002478A34204D1921ED3B2002BEFD120E079
:1031E000FFE710BC002070470A7A0272032A04BF6E
:1031F0000822FFF7D9BC09880180704710B4082263
:1032000003780C78A34200D0EBE7431C4C1C581CFD
:10321000611C1B782478A342F6D1921ED3B2002BF6
:10322000EED110BC012070470822FFF7BDBC026838
:10323000531C03601170704780B501F02BFB02E056
:1032400080B501F023FB00B10120C0B202BDF0B592
:103250004F4C504A2568954209D02568002655F8FC
:10326000267042F82670761C402EF8D3226042F871
:103270002010F0BD10B50FF23013820853F8222051
:10328000136800F00300C000FF248440A34301FA48
:1032900000F01843106010BD3F49042803D10868AE
:1032A00040F4803022E0052803D1086840F4003063
:1032B0001CE0062803D1086840F4802016E00F289F
:1032C00005D13648016841F00201016070471028BD
:1032D0000DD3A0F110010FF27412490952F8211018
:1032E0001038012200F01F0002FA00F00860704759
:1032F0002949042803D1086820F4803022E00528F9
:1033000003D1086820F400301CE0062803D10868C7
:1033100020F4802016E00F2805D12048016821F014
:1033200002010160704710280DD3A0F110010FF2C7
:103330003012490952F821101038012200F01F0004
:1033400002FA00F00860704715490E2803D108689A
:1033500040F0006014E00F2803D1086840F00070CE
:103360000EE010280DD3A0F110010FF20812490948
:1033700052F821101038012200F01F0002FA00F06C
:10338000086070470748016841F00101016070471B
:1033900008ED00E00040002024ED00E010E000E037
:1033A00004ED00E098200D400000000018ED00E062
:1033B0001CED00E020ED00E000E400E004E400E0AB
:1033C00008E400E00CE400E010E400E014E400E0B5
:1033D00018E400E01CE400E020E400E024E400E065
:1033E00028E400E02CE400E030E400E034E400E015
:1033F00038E400E03CE400E040E400E044E400E0C5
:1034000048E400E04CE400E050E400E054E400E074
:1034100058E400E05CE400E060E400E064E400E024
:1034200068E400E06CE400E070E400E074E400E0D4
:1034300078E400E07CE400E080E400E084E400E084
:1034400088E400E08CE400E090E400E000E100E0CB
:1034500004E100E008E100E00CE100E010E100E040
:1034600080E100E084E100E088E100E08CE100E040
:1034700090E100E080E200E084E200E088E200E029
:103480008CE200E090E200E080B5002001F0EBFA71
:103490004FF47F0000F030F84F486FF008014160B2
:1034A000016841F0080101606FF01001416001689E
:1034B00041F01001016001BD10B5474C206820F0BB
:1034C00010002060206820F008002060002001F03B
:1034D000CAFA4FF47F0000F00FF86FF00800606048
:1034E000206840F0080020606FF0100060602068E5
:1034F00040F01000206010BD38B5044601F094FA89
:10350000A04228BF00F01AFCFFF79AFE0546334898
:103510000460204601F0F4FA05B900E031BDBDE8D1
:103520003140FFF789BE38B5FFF78AFE044601F047
:103530007BFA05460CB9FFF77FFE284800688542F4
:1035400001D3002032BD284632BD38B5FFF778FEE2
:10355000044601F071FA05460CB9FFF76DFE1F48ED
:103560000068854201D3002032BD284632BD70B5C7
:103570001A4D04462868844228BF00F0DFFBFFF79D
:103580005FFE00F0010080F001066C60204601F053
:103590008BFA01F049FA84420AD111496FF0100008
:1035A00008600EB1FFF748FEBDE87040FFF70BBAA8
:1035B0001EB1BDE87040FFF73FBE70BD7047FFF71A
:1035C00002BA80B501F044FBBDE80140FFF764BAE0
:1035D000024800687047000008880840B475002061
:1035E0000C880840F1B582B004780FF22C20065DFB
:1035F000ADF80060002E00F0E5800D2C14D1694676
:10360000532000F03FFABDF800004FF6FE718842EB
:103610001CBF4FF6FF7188421EBF0298007A002837
:1036200000F0AB80029D73E0052C04D10299097C67
:10363000243188190DE0072C0DD10298807810B93B
:1036400006F11B0005E00299097A01EBC10206EBC5
:103650008200ADF80000BDF80000FFF7E3FA0500B6
:1036600021D10C2C40F0AE8002984068002800F078
:10367000A980FFF7E5FD00F0010080F00107029846
:10368000001DFEF760FBBDF80000FFF7CBFA050058
:1036900006D1002F00F09680FFF7CEFD03B0F0BDFD
:1036A0000FB1FFF7C9FD029932462846FFF77CFAB1
:1036B000052C11D16968242205F11800FFF774FA6E
:1036C00005F1180068602A7C69692430FFF76CFAFC
:1036D0006868243068611BE0072C19D149480668E6
:1036E000B6B100210160A878002805F11000E8605B
:1036F00002D11B22314606E0287A00EBC0018A0085
:10370000314605F11000FFF74FFA3046FFF712FD82
:103710003D480168080003D028468847002848D162
:103720000D2C2FD1029840684178007800F00302F8
:10373000022A22DA354A927CC0F38300904204BF09
:10374000E020014202BF029890F82400022814D120
:1037500095F83B0005F13A0100F03AF80298C08C68
:103760004FF6FF7188421FD1029840688079022885
:103770001ADB284601F0CDFC20B302A8FEF7E3FADD
:1037800003B0F0BD0C2C0FD1029840781A281EBF50
:10379000281D0168002907D0897DC90704D5007B51
:1037A00005F10F0100F014F8194800782946FFF7D9
:1037B0005AFA0C2C06D10298406818B10298001DE4
:1037C000FEF7C1FA03B0F0BD01F03EBC0020704727
:1037D000104A1278130013D00B783228B8BF322069
:1037E00002DB6F28A8BF6E20012A05D1323858436A
:1037F0003C2290FBF2F39BB2FF2BC8BFFF230B7060
:103800007047000018760020547600207870002061
:1038100096760020AE7600200016100000181510D5
:103820000200022414400000100000006F480B2129
:103830008170FF214170C170017070476C49002098
:1038400008706C496C48C08C00F0FF020A60000AE6
:10385000486001F0F4B901F0BEB868490A68431E37
:103860009B41DB43DB0F22F0020040EA430008608B
:103870007047604900E0624900F0FF020A60000AF8
:1038800048607047014608225E4801F09DBC10B5B3
:103890000446FFF7D5FC5549CC7008B9FFF7CCFCBE
:1038A00000F002F8204610BD10B5FFF7C9FC4F49E3
:1038B000CA780C7800F00100A24280F0010009D023
:1038C000514B1B7833B9514B1B781B0602D40A703D
:1038D0004F490A6000B141E010BD38B50446A4F17B
:1038E0000B00122828BF00F029FAFFF7A9FC00F00E
:1038F000010080F001053D4884704448007808B913
:1039000000F006F81DB1BDE83140FFF795BC31BDB0
:1039100010B53E48007808B100F010FA334CFFF7BC
:103920008FFCA178637800F00100994280F00100DB
:1039300011D0617008B1FFF77FFC00F0BEFD607828
:10394000344900EB80002C38086001F0A7FCBDE88A
:10395000104000F05FBD00B100E010BDBDE81040B8
:10396000FFF76ABC38B504462B48007808B100F070
:10397000E5F91F4D287808B100F0E0F920000CBFF0
:103980000120032C09D0012C1CBF022C00F0D6F919
:103990001849FF220A6002204A60287031BD14498C
:1039A0000020087013491448C08C65E701F03DB948
:1039B00080B501F044F9194A1949127802F00F0252
:1039C000895C0818493840B210F1570FB8BF6FF042
:1039D000560002DB0B28A8BF0A205730C0EB00209E
:1039E000612190FBF1F0C0B202BD000038760020EA
:1039F000CD740020C8850840EC6F00200086084088
:103A0000D0850840A8850840CE740020C4750020E9
:103A1000408608403C86084084430020A176002070
:103A2000E078210010F1570FB8BF6FF0560002DBAD
:103A30000B28A8BF0A205730C0EB0020612190FB63
:103A4000F1F0C0B27047000010B588B0694C202278
:103A500004F16C016846FFF7A7F820460FF29811B1
:103A60008C2201F0B9FF2022694604F16C00FFF7B7
:103A70009BF81434FFF7EFFEA073FFF7ECFE207005
:103A800008B010BD70B5A0F140021E2A0C4638BF28
:103A9000A0F1400506D3A0F1E001102934BF00F1E8
:103AA0003E052E25EDB22E2D01D1F42070BDFFF77D
:103AB000C7FB06460FF2CC1000EB85014A7810F8E0
:103AC00025004C4901442046FFF76EF80EB9FFF778
:103AD000B3FB002070BD2DE9F0410C46014645299D
:103AE00002D14448846081E00546A5F140021E2AC7
:103AF00038BF403804D3A5F1E002102A04D23E308A
:103B0000C0B22E28024602D1F420BDE8F0810FF2A7
:103B1000741000EB8206B078020004BFF278002A2D
:103B200016D0F278904208BFFB2060D0582905D10A
:103B300020888F3846F22241884206D22078B27817
:103B4000904224BFF178814202D2E820BDE8F081A2
:103B5000FFF776FB07463078DFF8988072782146C9
:103B60004044FFF721F80FB9FFF766FB502D12D044
:103B7000522D1BD0532D14D0E02D2DD0E12D20D06F
:103B8000E22D24D0E52D2DD0E62D02BF207808F1BE
:103B90002A01C8772AE008F10800C08BFFF769FE08
:103BA00024E0B8F82A00FFF766FE1FE098F8290025
:103BB00018B1022000F0D7FB18E0022000F003FC4F
:103BC00014E008F12A00007CFFF787FE0EE008F100
:103BD0003C00FFF757FE09E008F12A00C07BFFF721
:103BE00056FE03E0207808F12A0188770020BDE81E
:103BF000F0810000EC6F002036000100060000009C
:103C000000000000000F00000000000000000000A5
:103C10000000000000000300FFFF00000403FFFF9E
:103C20000000FFFF0F00F4010005C40403200001A1
:103C300000000B0000000000000000000300010F66
:103C40000000000000000000000000000000000074
:103C50000000000000000000000000000000000064
:103C60000000000000000000000000000000000054
:103C70000000000000000000000000000000000044
:103C800000000000000136360101000102010001C0
:103C90000301000104010606080400000C010034C1
:103CA0000D01000F10040101140100FF16080000AF
:103CB00020020000220100FF23010001240100FE78
:103CC0002501000826020000280100012901000149
:103CD0002A0200002C01000F2E020000300100011A
:103CE00031010008320200FF3401000735010240B3
:103CF000360100003701000138010001390100FFE1
:103D00003A010B1C3C080000460100084701000F67
:103D100048010001490100FF4C040000500400006C
:103D200054040000580400005C040000600400001B
:103D300064040000680400006C20FFFF00BF2DE950
:103D4000F04F83B0FFF77CFA82494FF4001008600F
:103D500001F02DFF804801680903FCD57F49DFF899
:103D60000092DFF800B2804F082008604FF0010A8F
:103D7000FFF708FB01F0C2FE01F091FE01F058FED2
:103D800001F0EBFE0421484601F03EFF08214846C1
:103D900001F03AFF0221484601F036FF1021484663
:103DA00001F032FF00220421484601F02AFF0022E0
:103DB0000821484601F025FF00220421484601F071
:103DC00020FF00220821484601F01BFF01F082FF7E
:103DD00000220421484601F014FF00220821484631
:103DE00001F00FFF00220421484601F00AFF0022E3
:103DF0000821484601F005FF0DF104080FE0484690
:103E000001F0FFFE641CE4B2082C04BF00246D1C0A
:103E1000042D54DB00220421484601F0F2FE002468
:103E2000002001E00098401C00900098B0F5503F41
:103E3000F8D30421484601F0E1FEC243D2B2042186
:103E4000484601F0DEFE0821484601F0D7FEC24395
:103E5000D2B20821484601F0D4FE387820B10020C3
:103E6000387003B0BDE8F08F0821584601F0C6FE57
:103E70000028D4D1641CE4B20A2CD1D10022042140
:103E8000484601F0BEFE00220821484601F0B9FE76
:103E900000220421484601F0B4FE002208214846D1
:103EA00001F0AFFE00240821584601F0A7FE00B93A
:103EB0000024641CB4F5FA7FF5DB002400250821FA
:103EC000584601F09BFE0028F9D1042204214846FF
:103ED00001F097FE08220821484601F092FE0422D4
:103EE0000421484601F08DFE002C07BF082208215E
:103EF00000220821484601F084FE00260821584689
:103F000001F07CFE00B90026761CB6F5FA7FF5DBE1
:103F100000220421484601F074FE00220821484690
:103F200001F06FFE00220421484601F06AFE0022E3
:103F30000821484601F065FE18F80500C4F10701A4
:103F40000AFA01F1084219BF0422042100220421C7
:103F500055E7000008ED00E004200D4008300D405A
:103F600000B00D4000900D409A76002080B500F022
:103F700095FCFFF75BFC00F0F1F901F059F900F056
:103F80001DF8BDE80140FFF77FBA80B5FFF758F98B
:103F900018B9FFF751F9FFF7D1FE0648007818B9B4
:103FA00001F06CF9FFF74AFCFFF786FABDE8014023
:103FB00001F0AEBE8443002070470000DFF87803B4
:103FC00000210170C171704738B5DFF86C430546B8
:103FD000207808B1FFF7B2FE01202070DFF85C0303
:103FE000007808B11D205EE0022D657002D101F05D
:103FF0007FFF1BE0002D1CBF012DFFF79FFEDFF8A8
:1040000040136278002020710968CE48897D4906F6
:104010004CBF90F8461090F8251022B9C07810B126
:104020000329A8BF0221A17000F046F8E079B8B9D1
:10403000C34D286808B9FFF781FE2868C24B416864
:104040000A7802F02002A2718A786271027A481E10
:10405000911C0170EE211960511CC9B201F0C6F823
:10406000BA4DFFF7EDF8BA492A78097800F0010057
:10407000114380F001001AD18321217008B1FFF7AC
:10408000DBF8B44801684908490001600020287045
:104090006078022800D159E040B9FCF7DDFEE178F4
:1040A000814203D31C20BDE8324024E152E00221CA
:1040B000217000B152E031BD80B5FFF7CCFB9E49C5
:1040C00091F9023001229A40521E1040C87048787F
:1040D00018B9BDE8014001F08EBEBDE8014001F015
:1040E00054BE95480121C17140786DE738B5974CB1
:1040F000974821780078084318BFFFF71FFE8E4DC0
:10410000FFF79EF8297800F00100022980F00100F5
:1041100019D18321297008B1FFF78EF88D48016805
:10412000490849000160002020706878022800D109
:104130000CE038B9FCF790FEE978814202D3BDE883
:1041400032404AE006E000B108E031BDBDE8314050
:1041500001F0F8BEBDE8314001F097BEBDE8314046
:10416000FFF76AB810B5744C607801001CBF0128D5
:10417000FFF7E4FD0420207000F06CF92079764907
:10418000401C2071C0B20A7882420DD20020E0713A
:10419000207000F05FF9FFF787FBFFF7B9FBBDE880
:1041A0001040E120FCF7C2BE487BA1784A1C824245
:1041B000B8BF481CA070FFF77FFF83202070607895
:1041C00038B9FCF749FEE178814202D3BDE81040DE
:1041D00003E0BDE8104001F058BE1C208BE038B56C
:1041E000FFF72EF800F00100534D80F0010428780D
:1041F000832818D1A87990B9852028700CB1FFF7D1
:104200001BF80020E871287000F024F9FFF74CFB40
:10421000FFF77EFBBDE832400020FCF787BE86201A
:10422000287001F0DFFE04B198E731BDF8B505460E
:104230000E46FFF705F800F001003F4C80F0010743
:10424000207886282ED18720207001F039FF0FB109
:10425000FEF7F2FF6079854216D156B10020E07179
:10426000207000F0F7F8FFF71FFBFFF751FB1B2052
:1042700014E00020E071207000F0ECF8FFF714FB70
:10428000FFF746FB002009E00020E071207000F0FD
:10429000E1F8FFF709FBFFF73BFBE920BDE8F2403F
:1042A000FCF744BE1FB1BDE8F140FEF7C5BFF1BD4C
:1042B00038B5FEF7C5FF00F001001F4D80F0010486
:1042C0002878862814D18720287001F0F9FE0CB1D7
:1042D000FEF7B2FF0020E871287000F0BBF8FFF78E
:1042E000E3FAFFF715FBBDE83240E920FCF71EBEFC
:1042F00004B133E731BD10B504460F480021C17148
:10430000017000F0A7F8FFF7CFFAFFF701FB204696
:10431000BDE81040FCF70ABE10B5094C206808B98A
:10432000FFF70CFDFFF711F92168C86000F06CFB86
:104330002168088210BD0000C4750020844300205D
:10434000B4420020EC6F002038880840CE74002072
:10435000CC7400209086084010700020674800212F
:1043600041700170704770B5060008BFFFF7E6FCAA
:10437000FEF766FF00F00100604D80F001046878F0
:1043800030436870FEF75CFF00F00100297880F090
:10439000010021B901212970E321594A116008B1B6
:1043A000FEF74AFF04B1B5E070BD10B5040008BFC8
:1043B000FFF7C4FCFEF744FF50494A7822434A7095
:1043C00000B961E010BD10B5040008BFFFF7B6FCEE
:1043D000FEF736FF49494A7884F0FF031A404A70D5
:1043E00008B9FEF729FFBDE8104033E080B5FEF7BD
:1043F00027FF424900224A700A70EF2240490A60B2
:10440000ED220A600A6008B9FEF716FFBDE8014018
:1044100000F044BF38B5FEF713FF00F00100374D40
:1044200080F00104687878B1FEF70AFF00F001001F
:10443000297880F0010021B901212970E321304A57
:10444000116008B1FEF7F8FE1CB1BDE83140FEF77F
:10445000F3BE31BD10B5FEF7F3FE00F0010080F0B1
:1044600001042648407860B926480078000608D440
:104470002548007828B925480078000658BF00F084
:104480001CF804B100E010BDBDE81040FEF7D4BE3A
:1044900080B5FEF7D5FE19490A7800F0010080F0DA
:1044A000010022B901220A70E321154A116018B1F6
:1044B000BDE80140FEF7C0BE01BD70B5FEF7C0FE0D
:1044C00000F0010080F001040C48017899B100214E
:1044D0000170EF200E4D6860ED2068606860FEF7A7
:1044E000AFFE06462A20FEF72FFF6FF0040028607B
:1044F0000EB9FEF7A1FE04B10CE070BD907600206D
:1045000038880840CC740020CE740020C475002088
:1045100034880840BDE87040FEF78EBE62F30F227B
:1045200062F31F42401810F0030308D0C91A1FD3CA
:10453000DB0748BF00F8012D28BF20F8022D13002B
:1045400030B414461546103928BF20E93C00FAD88B
:10455000490728BF20E90C0048BF40F8042D890016
:1045600028BF20F8022D48BF00F8012D30BC70474D
:10457000C91818BF00F8012DCB0728BF00F8012D7E
:104580007047000080B528B9FF20FEF7BFFC00216E
:10459000002004E00F49002008700FF20D01BDE873
:1045A000044001F0D3BD000038B50B4D0446287817
:1045B000FF280ED00420FEF735FB50B1C02101705A
:1045C000C4700021817001462878BDE83440FEF7B0
:1045D0004ABB31BDA47600208643002000F006BA15
:1045E000704700007B49002048607047F8B5794C5F
:1045F000074620680D46164600E0006838B101897C
:10460000A94204BF817AB942F7D14660F2BD1020B9
:10461000FEF72CFD70B187720581466000210160B4
:10462000C160216811B92060F2BD11460A68002AF4
:10463000FBD10860F2BDF8B504460D461646FEF7FC
:10464000FFFD0746324629462046FFF7CFFF0446C6
:104650000FB9FEF7F1FD0CB10020F2BD0820F2BD4C
:10466000F8B504460D461646FEF7EAFD00F00100D7
:1046700080F00107324629462046FFF7B7FF0400C5
:1046800018BFE6600FB1FEF7D7FD0CB10020F2BDF8
:104690000820F2BD70B504460D46FEF7D1FD4D4928
:1046A0000E6800F0010080F0010000E036683EB1C5
:1046B0003189A94204BFB17AA142F7D100213181E9
:1046C00008B1FEF7B9FD0EB1002070BD062070BD27
:1046D00070B504460E46FEF7B3FD00F0010000255C
:1046E00080F001003B49096831B10A89B24204BF38
:1046F0008A7AA242F7D14D6808B1FEF79DFD28469F
:1047000070BD2DE9F14781B0FEF79AFD314C019A59
:1047100061685118616008B9FEF78EFD2768002FA7
:1047200052D09DF80580BDF806A00025FEF788FD53
:1047300000F00100002680F001095FEA0A0008BFCE
:104740005FEA080007D138799DF80420904202D32F
:10475000801A387106E07868019981423ABF401AA0
:1047600078607E60B88858B9F88858B9F86868B138
:10477000398908000AD0B87AFEF79DFBF86878609E
:10478000B88808B9F88808B1388930B93868002D78
:104790000CBF206028603E4600E03D463F68B9F10E
:1047A000000F18BFFEF748FD66B1B088002804BFAF
:1047B000F088002803D13189B07AFEF77CFB3046BF
:1047C000FEF7B8FC002FB1D1BDE8F387014840687F
:1047D00070470000EC7500200348002181710180C2
:1047E0007047014988717047E475002080B510203A
:1047F000FEF73CFC0F49086010220021FEF7E8F9A3
:104800000020FDF717FA012001F0A4FC022000F0BF
:1048100013F8032003F068F8042003F021FC0520BE
:1048200003F02EFF062005F049F8BDE802400720FE
:1048300005F088BA4076002012490870704780B5AC
:1048400005F0BEFCBDE8014005F0A1BD38B50C4641
:1048500020040BD50B4D01E0FEF7F6F92878FEF7A2
:104860004FFA0028F8D184F4004032BDA00602D5EA
:1048700084F0200032BDE00602D584F0100032BD85
:10488000002032BD9B76002005F082BDEFF3108042
:1048900072B67047EFF3108062B67047F0B5DFF87C
:1048A000E80389B0142101603F2181605521C16076
:1048B0008521DFF8D843DFF8D853DFF8D863DFF875
:1048C000C473E16701214161152141620021A9679B
:1048D000102101630E21416303218163092070656A
:1048E00004210B2008608021FF2030602A20FEF781
:1048F000C1FC80212B20FEF7BDFC2A20FEF7CCFC5A
:104900002B20FEF7C9FC80213120FEF7B3FCDFF835
:1049100088030068000C3860FEF792FC0221F16702
:104920000022DFF878130A6028224A6008B9FEF7EF
:1049300083FCDFF86C0300680003FAD5306F40F0A9
:1049400003003067306F4007FCD5306F40F00A003D
:1049500030673120FEF7A0FC48202060FFF798FD6B
:10496000206CC007FCD500201021A26F52084041E6
:10497000491E80B2F9D1002814BFB0F5607F4BF614
:10498000BE20DFF8201300F0FF020A60001208606A
:10499000796808000ED06846202200230826A76FF9
:1049A0007F085B41761EFAD1521E00F8013BF4D11C
:1049B00068468847FFF781FD40202060206840F06E
:1049C00020002060002028606860A860E8602861FE
:1049D000686109B0F0BDDFF8D002016821F00C0178
:1049E00041F0040101608069C0B27047DFF8B8028D
:1049F000016821F00C0141F0040101608169406906
:104A000000EB012080B2704710B5FEF719FCDFF80B
:104A10009C1201220A608A68496841EA022408B9A6
:104A2000FEF70AFCA0B210BD80B5FEF709FC9F4955
:104A300000220A604A6805E080B5FEF701FC9B4948
:104A400010220A604A698DF800200A698DF8012059
:104A5000C9688DF8021000218DF8031008B9FEF71F
:104A6000EBFB009802BD01B5000E18BFFFF766F919
:104A7000FFF7DAFF8E49CA688018009A801AC8606A
:104A8000FEF7DEFB894900220A609DF800204A619A
:104A90009DF801200A619DF80220CA6018B9BDE89E
:104AA0000140FEF7C9BB01BD11B5002481B0000E65
:104AB00018BFFFF743F9FEF7C3FB7E490A6800F011
:104AC0000100D20680F0010004D50A6822F010022D
:104AD00001240A6030228A609DF80420CA619DF892
:104AE00005208A619DF806204A616FF010024A6035
:104AF0001CB10A6842F010020A6000B12DE013BD3B
:104B000011B5002481B0000E18BFFFF717F9FEF7AA
:104B100097FB68490A6800F00100120780F0010065
:104B200004D50A6822F0080201240A6020228A6063
:104B30009DF80420CA619DF805208A619DF8062031
:104B40004A614A6822F008024A601CB10A6842F0D1
:104B500008020A6000B100E013BDBDE81340FEF793
:104B60006BBB38B5534C2068616800EA0105E80664
:104B700004D5FEF724FD6FF010006060280704D50F
:104B8000FEF71FFD6FF008000DE0E8070CD54A485E
:104B90004A49006891F9002043B29A42B8BF1A46C8
:104BA0000A706FF00100606031BD70B5444C454D36
:104BB000666C2A20FEF7C8FB28683040000705D540
:104BC0006FF00800286001F086FA13E02868304092
:104BD000C00605D56FF01000286001F083FA09E0E7
:104BE00028683040C00705D5606C4008400060640C
:104BF00000F042FE206C69680840400707D500F0CD
:104C000086FB6FF00400686020684006F7D470BD32
:104C10002D482E4900680A681040400704D56FF0FF
:104C20000400086000F097BE704724496FF07F00D1
:104C300008702048016841F00101016070471D487B
:104C400001684908490001601C4890F9000070475C
:104C500038B5FEF7F5FA00F00100154D80F00104BB
:104C6000287828B9FEF7B4FCE9684018E86001E04C
:104C7000002028701CB1BDE83140FEF7DDBA31BD1F
:104C800000000000BC750020A4860840248608406F
:104C90009085084094870840F80F28001488084041
:104CA00004200D4014700D4000700D401088084025
:104CB000487500200888084060860840A0760020DB
:104CC0004C86084030880840948608402C8808406C
:104CD000DFF8C81400200860704780B502F0A8FD16
:104CE00078B9DFF8B804006800E0406848B1417B5B
:104CF0000129FAD1016800291CBFBDE8024001F07A
:104D0000BCBB01BDDFF89414096800200A4604E02A
:104D1000537B042B08BF401C5268002AF8D1DFF8EF
:104D200080241278C0B282420BD3002001E049688F
:104D3000401C0029FBD1DFF86C140978C0B2814215
:104D400001D201207047002070472DE9F04107464D
:104D5000DFF8482416680C46397B002500E07668A9
:104D6000002E1CBF327B8A42F9D14FF00108FEB9F8
:104D70007A89386800F0CAF8060031D03581387C6D
:104D8000307407F1100006F0D9F970614FF67F41D9
:104D9000388B3083012570890840708141074FBFEF
:104DA00040F08000DFF80014097840EAC1107081FB
:104DB0007089C10901F00701A4B10222727332683F
:104DC000927B520703D5DFF8E423128A328161B364
:104DD0004FF67F421040491E40EAC110708124E026
:104DE000A84632E011B94FF000081EE0810605D553
:104DF000FDF716FF00F07F005F3008E0C00605D524
:104E0000FDF70EFF00F00F000A3000E001203081B6
:104E1000042070732021DFF898432078FFF758FCB6
:104E200018B920782021FEF746F875B13289717BD8
:104E3000304600F07EF840B1706908B1FEF77AF9AB
:104E40003046FEF777F94FF000084046BDE8F081A4
:104E500070B5DFF848432268014684B0002000E0C6
:104E60005268002A3DD0137B8B42F9D1517B062931
:104E700037D110685589007A8DF8080010680088CD
:104E8000ADF80000104600F0F4F8280528D5BDF86C
:104E90000010002000F027F810BBDFF81053A98C99
:104EA00000A807F0C1FE246800E0646814B16089BE
:104EB0000005FAD54FF6FF767CB120680188B14233
:104EC0000ED0A98C07F0AEFE1A2809D06468002C19
:104ED000F2D060890005F9D5EEE7002007F0A6FEC4
:104EE000012004B070BD18B9DFF8B002006800E01E
:104EF000406840B142891205FAD500291EBF0268F8
:104F000012888A42F4D170470120704770B5044678
:104F10000D4616461C20FEF7A9F848B10021417342
:104F20000573468101818173C173046041614160F1
:104F300070BD38B5002843D0012910D1974C2468A2
:104F4000002304E0657B012D08BF5B1C6468002C16
:104F5000F8D1984C2478DBB29C4216D211E0042997
:104F600011D18E4C2468002304E0657B042D08BF1A
:104F70005B1C6468002CF8D1894C2478DBB29C421D
:104F800003D2112032BD02291AD1417302810021BE
:104F9000416082490A6832B100E00A46516800293E
:104FA000FBD1506000E00860814C20782021FFF7A1
:104FB0008FFB18B920782021FDF77DFF002032BD3E
:104FC000C12032BD10B97548006800E0406838B1B2
:104FD000437B8B42FAD11AB103689B7B5B07F5D404
:104FE00070476E49096800E0496821B10A7B824236
:104FF000FAD108467047002070476849096800E008
:10500000496861B10A6813888342F9D1126A13783A
:10501000527803EB0222D205F2D4084670470020F2
:105020007047F8B5044600260D4620000AD05B48BC
:10503000076800E07F682FB129463846A04701285D
:10504000F8D13E463046F2BD0020704753490A6809
:1050500013464FF0000C01E09C465B6843B183426D
:10506000FAD15868934201D108607047CCF8040027
:10507000704710B5040011D0FFF7E8FF2068006A00
:10508000FEF758F82068FEF755F8606908B1FEF79A
:1050900051F82046BDE81040FEF74CB810BD38B5B9
:1050A00001683E4A098812680023002409E0557B04
:1050B000052D01BF641C15682D888D4208BF5B1C3F
:1050C0005268002AF3D13C490978DBB28B423FBFDA
:1050D0003A490978E4B28C422EBF01213349098A4A
:1050E00001814FF6FF7205214173418941F400614E
:1050F000418100680188914205D02C49898C07F0D4
:1051000091FD1A2804D1BDE83240012007F08EBD80
:1051100031BD10B550B150F8081C002902BFA0F1F4
:1051200008018A79FF2A03D0FDF78EFD052010BD06
:105130001F4C22788A7122490A7801462148FDF7DE
:1051400099FE012806D120784FF40051FDF7B3FEF7
:10515000002010BD042010BD70B5FEF771F8194D88
:105160002E6800F0010080F001048EB1104856F85E
:10517000081C007800294FF4005102D0FDF79BFE77
:1051800001E0FDF7A9FE002231462846FDF755FE55
:105190000CB1FEF751F8304670BD00008876002053
:1051A00006772100077721008843002078700020CF
:1051B0009676002005772100097721000A772100E3
:1051C000157721008C760020130005D011F8013BE3
:1051D00040F8043B521EF9D17047130005D050F837
:1051E000043B01F8013B521EF9D1704738B5044623
:1051F0000D0008BFFEF7A2FD14F8010B0B49086073
:105200006D1EE8B20028F7D131BD38B504460D0057
:1052100008BFFEF793FD0548006804F8010B6D1EFA
:10522000E8B20028F7D131BD00000000288808400E
:10523000DFF840070021C172416181800FF2F50162
:1052400001610021817181818173704738B5DFF878
:10525000284705202060FDF7F3FF05462A20FEF7CA
:1052600073F8DFF818176FF0040008600DB9FDF748
:10527000E3FFE06B40F00400E06331BD80B5FFF771
:10528000B5F8DFF8F00600214171C172DFF8F006D1
:105290000160016841F00901016001BD10B5DFF84E
:1052A000D4465DE338B5DFF8D006DFF8D046016CB0
:1052B00049084900016405210160ED2060606060DB
:1052C000FDF7BEFF05462A20FEF73EF86FF004000A
:1052D00020600DB9FDF7B0FFDFF89846606918B19E
:1052E00004F11400FBF726FD0FF24900A1792061BB
:1052F000207908430AD000202071A071FFF7AAF896
:10530000FEF7D2FABDE83140FEF7F0BE31BD10B570
:10531000DFF86046607B58B9012020732069804720
:1053200000202073607B18B1FFF7BCFF0020607382
:1053300010BD00002DE9F84FDFF83846207900272E
:1053400008B1FEF7FBFC81202071DFF838060078F9
:1053500038B1DFF83456686A000604D4686A40063B
:1053600001D42771B4E000F025FEA86E400840008B
:10537000A866A77104216079A0722046FFF745FF57
:10538000207800F07F00C01EE071C0B27D28BEBF53
:10539000607800F00701042980F2878000F00700A0
:1053A000022804BFE07A002855D16846FFF72DFF98
:1053B000FDF746FF00F0010080F00106DFF8CC05A4
:1053C0000078862838D1DFF8C895D9F8000008B9E8
:1053D000FEF7B4FCDFF8BC25DFF8BC1512789DF9A8
:1053E000000002F00F02895C0818A0F149089DF83E
:1053F000010000F07F0A51464FFA88F0FEF712FBD9
:10540000D9F800104877D9F8000080F81EA0D9F824
:10541000000080F81F800EB1FDF70EFF9DF801001F
:10542000000606D5607800F01001E078FEF7FEFE79
:1054300005E0FEF73DFF02E00EB1FDF7FDFE686AF4
:10544000400640D5686A00063DD4DFF85005ED21DE
:105450008160816037E0DFF834050078862808BF76
:10546000FEF726FFA07A010010D0E17A71B9012879
:105470005DD0022803D161780722114257D1032859
:1054800004D1607800F00700032850D1A078C0F361
:1054900081094FEA9018DFF80805006800BBB8F1F1
:1054A000010F18BFB9F1010F1AD1DFF8F004ED2197
:1054B00081608160696A490605D5696A090602D476
:1054C000ED21816081602771A079002840F0D680AD
:1054D000FEF7C0FFFEF7E8F9FEF708FEBDE8F18F22
:1054E0000FF2D04010F8091010F808004618B8F173
:1054F000000FF6B204D06078400644BFB61EF6B284
:10550000E079B11C884212DB801B801E61786072DA
:10551000090748BF2527C0B2C0194C3080B2FBF73D
:10552000F7FB606138B9DFF87414E820886000F098
:10553000B2F9BDE8F18FE07A002718B9607800F081
:105540002000A071A079A0B3FDF77AFE00F0010061
:1055500080F0010A607800F0070003280CD1FBF707
:10556000C0FB002873D1DFF83C04007800286AD023
:1055700007F090FCFE286AD0286820F0040028601C
:10558000FDF75EFE83462A20FDF7DEFEDFF80C14F1
:105590006FF001000860BBF1000F08BFFDF74CFE83
:1055A000A86E40F00100A866BAF1000F18BFFDF721
:1055B00043FE606900F14C0141600164617A01724F
:1055C0006069017A80F844106078000710D561693D
:1055D000032081F84400611C606940300279006852
:1055E000FDF7E2FA606950F8401F0279114401604A
:1055F000606980F82480606980F82E90FFF71CFABB
:1056000061690863FFF700FA61698886607800F0D5
:10561000070008736169E07881F83D006178A0783F
:10562000C0F3011001F078010843616938438873C1
:10563000D6B9617A0FF201100A000DD10120A862DB
:105640000FF2391019E0FBF73DFB002894D02868D1
:10565000042740F0040092E71029A8BF102121720E
:10566000217A491EA96208E026726178207A09072A
:1056700058BF401EA8620FF209002061BDE8F18FFB
:1056800030B5BC4C207A85B008B9FEF757FB217ABB
:105690006846FFF7BAFDA0786946C0F38100C8B13B
:1056A00062699DF800304D7803EB052313870328CA
:1056B000138FD38608D10DF1020102F12600FDF708
:1056C000B3FD0DF10A0105E08878C97800EB0120EF
:1056D000D08401A9A078800915D06269937B5B060C
:1056E00005D40B784D7803EB0523D386891C03285A
:1056F00004D102F11C00FDF797FD04E00878497819
:1057000000EB0120908300206169C875617A0FF277
:1057100029000A0005D19849012008600FF25D00B8
:1057200007E01029A8BF10212172934A217A491E4F
:105730001160206105B030BD10B58E4C6069217AD2
:10574000006CFFF762FD6169207A0A6C02440A640A
:10575000617A081A6072C1B231B9874901200860C4
:105760000FF21900206110BDC0B21028A8BF102090
:1057700020728149207A401E086010BD2DE9F04159
:105780007C4D02212846FFF740FD6878002410F088
:10579000800602D1E87A022845D102202871FEF75E
:1057A00059FE7C4A7C491278285702F00F02895C26
:1057B0000818A0F14907687800F07F08414678B2E0
:1057C000FEF730F9696981F83A00686980F83C7041
:1057D000686980F83B806869011D00F14C02CA636A
:1057E00090F844000B790A68C01A10440860897A5E
:1057F000490707D50078042804D06348016821F0E0
:10580000040101606748007818B107F04AFB00B155
:1058100004246869817B44EA060211438173686944
:10582000FBF7AAFA09E05848816E490849008166E9
:10583000AC7105F11400FBF77DFA002068610521C9
:105840005148816258492961416A490606D5406A32
:10585000000603D45548ED21016001600020287145
:10586000A87938B9FEF7F6FDFEF71EF8BDE8F0415D
:10587000FEF73CBCBDE8F08180B53E480021817157
:10588000007938B9FEF7E6FDFEF70EF8BDE80140F5
:10589000FEF72CBC01BD10B5364C43492069884247
:1058A00018BFFEF74BFAE079010016D140480168B5
:1058B000490606D50068000603D43C48ED21016086
:1058C000016000202071A07990B9FEF7C3FDFDF7BB
:1058D000EBFFBDE81040FEF709BC1028A8BF102060
:1058E00020723349207A401E48600FF2090020617F
:1058F00010BD000010B51F4C217A84B06846FFF738
:1059000084FCE079217A401AE071C1B241B1C0B2A1
:1059100010281EDA2072401E2549486004B010BDD0
:10592000234805214160204921610168490606D5C7
:105930000068000603D41D48ED21016001600020CD
:105940002071A07928B9FEF785FDFDF7ADFFFEF7C0
:10595000CDFB04B010BD10B5064CA07B401CA0735D
:1059600001206073207B18B9FFF79CFC0020607356
:1059700010BD0000C87400205086084034880840DC
:10598000008608409076002028860840C4750020D4
:10599000B4420020A1760020E07821003088084041
:1059A000BC7500209E7600203553200038880840C2
:1059B0004C86084000BE040A62B38B0708D0521E12
:1059C00011F8013B00F8013B00F024808B07F6D171
:1059D000830740F0208000BF103A07D330B4B1E80D
:1059E0003810103AA0E83810F9D230BC530724BF61
:1059F000B1E80810A0E8081044BF51F8043B40F893
:105A0000043BD20724BF31F8022B20F8022B44BFFD
:105A10000B7803707047083A07D3B1E80810083ACA
:105A200040F8043B40F804CBF7D25307E4E700000A
:105A300010B5002007F05DFB012007F05AFB0220A3
:105A400007F057FB032007F054FB4FF4807007F07A
:105A500050FB40F2011007F04CFB4FF4007007F0D0
:105A600045FB40F2012007F041FB40F20144204693
:105A700007F01EFB4FF4806007F01AFB4FF44070F4
:105A800007F037FB4FF4806007F030FB204607F04B
:105A90002DFBBDE810404FF4A06007F027BB80B598
:105AA000002007F036FB012007F033FB022007F04F
:105AB00030FB032007F02DFB4FF4807007F029FB2B
:105AC00040F2011007F025FB4FF4007007F021FBB6
:105AD00040F2012007F01DFB4FF4407007F019FB66
