:020000040020DA
:1000000080630020CD122100011321000313210081
:100010000513210005132100051321000000000035
:100020000000000000000000000000000513210097
:1000300005132100000000000513210025102100F8
:100040000513210005132100FD12210005132100D5
:1000500000000000051321002112210005132100DA
:100060000513210000000000000000000000000057
:100070000000000000000000051321000000000047
:1000800000000000000000000513210005132100FE
:10009000051321000513210005132100051321007C
:1000A00005132100051321001F472000854720006C
:1000B000051321000513210005132100051321005C
:1000C00009142100D7462000051321000513210043
:1000D00005132100000000000000000000000000E7
:1000E0000000000000000000000000000000000010
:1000F0000513210000000000051321000513210055
:1001000010B5DFF8004B0FF2B520606782B00FF238
:100110009920A06706E0204602F0A2F8009000A80F
:1001200001F08DF820680028F5D1606838B1201DF5
:1001300002F096F8009000A801F081F8F5E7206041
:10014000A072E072207313BD38B504460FF2380078
:10015000255C284601F0A2FF20B12918416000214A
:10016000017232BD022001F099FF50B10FF2B421AB
:10017000615C01701A2141700146A648007801F0C7
:10018000AEFF002032BD0000004246484045453FDA
:10019000354D3600821DD2B2C90711D50A2192FB16
:1001A000F1F101EB8103A2EB4301C9B241B10A3283
:1001B000521AD2B20529A4BF0A32D2B20B32D2B23D
:1001C0001328ACBF142006208018C0B209300A21C1
:1001D00090FBF1F0C0B2704780B5DFF8280A007ECE
:1001E000800706D502F038FA401E8041C043C00F98
:1001F00002BD002002BDDFF80C0A017E89070FD581
:10020000807A58B9DFF8000AC06D48B1407E00F02E
:100210008001481E8041C043C00F704701207047D5
:1002200000207047DFF8DC19DFF8D029097B9278CD
:10023000914238BF01F032BF0020704738B504004A
:1002400008BF02F03BFA02F055FB00F00100216804
:1002500080F0010561B1DFF8AC295369A1F1080014
:100260008B4204BF002151610021216002F0F6FCA5
:100270000DB102F03BFB002032BD000011B581B092
:10028000007B20B101282CD003282CD03EE0DFF8E1
:100290007049607B0F281EBFDFF86809807E032845
:1002A00004D0DFF864190198496E8847019994F8E1
:1002B0003A008873142001990870DFF848490199C1
:1002C000201D01F0B3FF02F015FB217B491C2173B7
:1002D00008B902F00BFB20214E48007802F01BF811
:1002E00013BD1520E7E70198007A78B101994A68B3
:1002F000521C4A6012F8011D019A5173019A01992A
:10030000D27D497B32B109B10A2912DB01A800F084
:1003100096FF13BD0A0008D00A2A06DA0FF2300150
:10032000511811F8011C884203D0082A08BF082878
:10033000ECD10199401E087201980199407B0A3066
:10034000087001980199407B401C4873B5E7000094
:10035000020402010101010902000000DFF8A40803
:10036000C06F010018BF00470020704738B5044631
:100370000120207504F1140104F1380042884A80FC
:100380000279CA7104F12C024079087220464B8C24
:1003900094F8381000F0CCFF050004BF204600F0B0
:1003A0001EF9284632BD0000DFF85808807E032879
:1003B00001D001207047202070470000417E41F0AD
:1003C000010141767047017D027E012904D11307A6
:1003D0005CBF417800F0F8BD530603D50D49407865
:1003E000896D0847012903D1120748BF30210BD47A
:1003F00042781B2A08BF222106D0002A0CBF0FF228
:1004000018020FF22002895C017001460148007851
:1004100001F065BEC0710020303016181920231A73
:100420001C1E3000303017181921301B1D1F3000E2
:1004300038B5DFF8D4470546E06D002876D025B101
:100440001B2D05D1017D052956D00021417055E0B5
:10045000E92D2BD1807E30B902F000F918B1E06DA2
:10046000807D40072BD5EE2002F052FCE06D817EAE
:10047000002942D0827D520705D4491E8176BDE80D
:10048000314002F0DEBC017E01F07F010176E06DBB
:10049000017D032903D1417E41F004014176ED2025
:1004A00002F036FCE06D216E88472AE0E12D1CD178
:1004B00002F0D4F800B3E06D807D40071CD4DFF873
:1004C0004007E26D00F12201897C9176E26D90F89F
:1004D00022105268917090F82210491C80F8221066
:1004E0000120BDE8324002F01FBC1C2D04D1A16EDA
:1004F00088470020E06531BDE06D4570E06DFFF795
:1005000062FFE06D807D000609D5DFF8F40600F299
:100510002205287E02F029FEE87D02F000FE002080
:10052000E0651021BDE8344000F0E2BC31BD0000C0
:100530002DE9F041002402F0DDF900F00100DFF8C0
:10054000C85680F00108E86D90BBDFF8B876B86F48
:1005500080473E6840F0100002E0344656F8086CD0
:1005600036B3717E01408142F7D12246314638468A
:1005700001F093FEEE65707E000620D4F87A401EEE
:10058000F872B8F1000F18BF02F0B0F9EC6DE18A13
:10059000207AFFF7FFFD3881A07D000613D5E07EAD
:1005A00002F0E3FDE86D007FBDE8F04102F0B7BD69
:1005B000B8F1000F11D0BDE8F04102F097B9B87A58
:1005C000401EB872DDE7207EBDE8F041400800F033
:1005D000010080F0010002F0A7BBBDE8F08138B552
:1005E000DFF8205604466869A04204BF0020686115
:1005F000207E000706D4207D012803D1DFF8FC050A
:10060000027802E0DFF8F40542782146284601F03E
:1006100061FEC0B1696F20468847A07D40070DD4B8
:1006200002F068F9E97A491CE97208B902F05EF94A
:10063000E08AC0050DD4BDE8314079E7296F204636
:10064000BDE834400847F12060702046BDE83240E4
:10065000B9E631BD6CE710B5DFF8A815098B044683
:1006600000208A0705D404F134029279520748BF6A
:10067000E8206022114205D104F13401897989070B
:1006800048BFE820DFF8481C227A8979914238BFB8
:10069000E82004F134010979002902BF94F83410EC
:1006A0000029F52004D010B92046FFF75FFE28B1DD
:1006B00001462046BDE8104000F086BC10BD000099
:1006C0000D21017001F0D6BE00B585B0002101708A
:1006D0004170DFF8281590F83A300978DFF82425C2
:1006E0005B0715D4D27A8A4215D30C218DF80010FD
:1006F000019090F839108DF80210C16802910C3009
:100700008188ADF80C10817AC9060CD5002110E063
:10071000927A8A42E9D20146DFF8D80B007801F0DC
:10072000DEFC05B000BDDFF8D417827B91F83410F1
:10073000891A8DF80E10417C8DF80F10817C8DF890
:100740001010C07C8DF81100F1208DF8010000A878
:1007500001F090FE05B000BD10B5044604F158004C
:1007600080B201F09BFC18B1047200F158014160A5
:1007700010BDDFF8840B0FF25511016002220FF259
:100780008D4141600FF2C51181600FF22121C160DE
:100790000FF2E93101610FF2553141610FF215316C
:1007A00081610FF2F941C1610FF21D5101620FF237
:1007B0008D5141620FF2F15181620FF25121C162FC
:1007C0000FF2C10101630FF2910141630FF2713128
:1007D00081630FF2B951C163DFF8441B01640FF26A
:1007E000DD5141640FF2316181640021DFF8340B87
:1007F00080F85C1080F85F100FF2F161C1633C304B
:100800000161027101210175704730B50446251D53
:1008100083B00120688204F12E010220287400A810
:1008200002F07FFD6068AB8E401E606000AA6168C8
:1008300094F83A00087083212879401C28712046DA
:1008400000F076FD050004BF2046FFF7C8FE2846ED
:1008500003B030BD0000000038B5DFF8A403DFF8B6
:10086000C45A90F8350000EB40010C0102F0CBFDBA
:100870000019A86405F14400BDE83440DFF8AC1A63
:1008800001F06EBB30B5DE4C607B93B00F2807D013
:100890002E208DF8000000A800F0D1FB13B030BD71
:1008A000DFF8805A05F1340001F088FB608E1421D6
:1008B000B0FBF1F402F0A7FD0019A86305F13400C4
:1008C000DFF8681A01F04CFB13B030BD10B50446D8
:1008D000607888BB94F8361002291CBF0329E820F1
:1008E00094F82B100B39122928BFE82025D218BB09
:1008F00004F12B01E12002F02CFE04F1380150201C
:1009000002F027FE94F83610BD48022902D1E18D8D
:10091000018407E04FF6FE710184163004F12E01C8
:1009200002F01FFD0B2204F12001DFF8FC0901F0A9
:1009300077FB2046FFF769FF30B160701720207009
:100940002046BDE810407AE310BD000070B5DFF826
:10095000D44994F85F0084B028BB012084F85F007C
:1009600002F051FF00A800F0B5FC04F15401A448C6
:10097000C58C0520FFF7E8FB060014D00120F082AB
:100980000B220520307504F1540106F1200001F01E
:1009900047FB2B4600AA0321304600F0C9FC10B9E2
:1009A0003046FFF71CFE04B070BD000010B50446D1
:1009B00082B0012002F035FF2078202804BFEB2010
:1009C0006070DFF8600990F85F104A0744BF01F0DB
:1009D000FB0180F85F1090F85F108A0710D501F0D6
:1009E000FD0180F85F100A2160788DF801008DF814
:1009F000001000208DF8020000A801F03BFD13BD9F
:100A00002A202070204600F01AFB13BD70B5054661
:100A100086B0012002F005FFDFF8084904F1340038
:100A200001F0CCFA04F1440001F0C8FA68680178DA
:100A3000427801EB0221ADF80410867846B901A98D
:100A4000532002F086FD05F11C014A2002F081FDD1
:100A50000B2205F10F0104F1540001F0E1FABDF899
:100A600004008DF8096002218DF808100EB14FF6D0
:100A7000FF70ADF80A000B2204F1540103A801F045
:100A8000CFFA02A801F0F6FC94F85F0080070BD5BE
:100A900068788DF801000A2100208DF802008DF899
:100AA000001000A801F0E6FC002084F85F0006B00A
:100AB00070BD000010B5044682B0EB206070DFF816
:100AC000640890F85F0080070BD50A208DF80000BD
:100AD000EB208DF8010000208DF8020000A801F045
:100AE000C9FC204600F002F813BD000030B50546F1
:100AF00085B0012002F095FEDFF8284804F13400AB
:100B000001F05CFA04F1440001F058FA002084F886
:100B10005C0084F85F000B2202208DF8000004F1D5
:100B2000540168788DF801004FF6FF70ADF80200AF
:100B300001A801F075FA00A801F09CFC05B030BDD9
:100B400010B5044682B0EB206070DFF8D80790F84B
:100B50005F0080070BD50A208DF80000EB208DF890
:100B6000010000208DF8020000A801F083FC20465F
:100B7000FFF7BCFF204600F02DFE13BD10B5044664
:100B800082B0012002F04DFE207A002814BF002020
:100B9000EB206070DFF88C0790F85F104A0744BFC5
:100BA00001F0FB0180F85F1090F85F108A0716D5FE
:100BB00001F0FD0180F85F10A07B00F0100001281B
:100BC000ACBF0120002061788DF802000A228DF868
:100BD00000208DF8011000A801F04CFC08E0C807C7
:100BE00006D52A202070EB206070204600F027FAFE
:100BF0000D202070204601F03DFC13BD00142100A3
:100C0000DC6F0020BC4200203C4200202DE9F8436C
:100C10000446DFF8100790F85F1041F0020180F8F9
:100C20005F10012002F0EFFD607840BBB348408DBB
:100C30004FF6FE718842ACBF0325022504F110086F
:100C4000B4F80E901A2641460520FFF77DFA0700FA
:100C500014D00120F8820B2205203875414607F197
:100C6000200001F0DDF94B46221D2946384600F0F0
:100C70005FFB060004BF3846FFF7B1FC6670607882
:100C800050B18DF801000A2100208DF802008DF886
:100C9000001000A801F0EEFBBDE8F18310B504469A
:100CA00082B0012002F0BDFD2078202804BFEB2097
:100CB0006070DFF8700690F85F104A0744BF01F0DB
:100CC000FB0180F85F104BE038B50446012002F0CC
:100CD000A8FDDFF8505605F1340001F06FF9207AD5
:100CE000002814BF0020EB20607095F85F004107DA
:100CF00044BF00F0FB0085F85F0095F85F008107B6
:100D000015D500F0FD0085F85F00A07B00F0100015
:100D10000128ACBF0120002061788DF802000A2272
:100D20008DF800208DF8011000A801F0A3FB0D2024
:100D30002070204601F09EFB31BD000010B5044636
:100D400082B0012002F06DFDEB206070DFF8D40569
:100D500090F85F104A0744BF01F0FB0180F85F1074
:100D600090F85F108A070FD501F0FD0180F85F1041
:100D70000A2160788DF801008DF8001000208DF8B0
:100D8000020000A801F076FB13BD000010B5044678
:100D9000DFF8540B01F012F92046FFF7CFFF204691
:100DA000BDE8104000F016BD10B50446DFF8380B62
:100DB00001F004F92046BDE81040BFE710B5044635
:100DC00086B004F11C01DFF8240B02F084FA08B3AA
:100DD00009208DF80000EF208DF80100606801788F
:100DE000427801EB0221ADF8021000798DF8040081
:100DF000207A082806BF6068C07900208DF80500B9
:100E00000B2204F10F010DF1060001F009F900A811
:100E100001F030FB06B010BD4DF804ED85B009209F
:100E20008DF80000EE208DF8010000A801F022FBF3
:100E300005B000BDDFF8B80ADFF8BC1481623831B4
:100E4000C1620FF2BC0101660FF218114166DFF8B2
:100E5000A41A0164018B41F001010183704702462D
:100E60000146022013E130B5044685B01C2001F094
:100E700015F9050003D00620287018220AE00A2080
:100E80008DF800001A208DF8010000A801F0F2FA98
:100E900005B030BD002068702146281D01F0C0F863
:100EA000DFF850040078294601F019F905B030BD8B
:100EB00010B5DFF83C4A206982B018B104F1100087
:100EC00000F0BDF90020A076DFF8DC0A006858B118
:100ED00002E000A800F0B3F9DFF81804007801F090
:100EE0004BF900900028F4D113BD00004FEA000137
:100EF000DFF80004007801F00EBA0000DC6F00207B
:100F00000101710101010101110101013101010121
:100F100001018001100161013B00140063017301B4
:100F20007201620143010001130106013D01350018
:100F3000040112010001000100010001040104018B
:100F4000330133013C01440132013600000100014C
:100F50006501000135008101000105018201830165
:100F600000010000030271023001600211027002F0
:100F70000102020202028002100261023A004100F4
:100F8000630273027202620243020002130238001B
:100F9000000200020402120200020002000200022B
:100FA00004020402370037003C0244020002390008
:100FB0000002000265020002350281020002050201
:100FC000820283020002000000B585B00378DFF8DA
:100FD000542A9A5C8DF800200B2A01D100F0FDBA4A
:100FE0005AB30C2A24D11A2902D1002001901FE003
:100FF000019090F839208DF80220C2680292028A8E
:10100000ADF80C20827DD20648BF002205D4DFF85F
:101010001C2A837E92F83420D21A8DF80E20427F4B
:101020008DF80F20827F8DF81020C07F8DF8110081
:101030008DF8011000A801F01DFA05B000BD18B42C
:10104000DFF8AC188A7E037801EB820203F07F039D
:10105000D26D037002EB43035B7801EB8304E46D14
:1010600004B18B76037812F81320140901EB840184
:10107000C96921B90B2B08DA14BC1821A4E702F0C6
:101080000F0251F8221014BC084711BC7047F0B58C
:1010900007460FF2800087B03C5C0D46204600F00A
:1010A000FDFF060016D03770002070702946A01989
:1010B0007060002030720FF268003A5C06F1200088
:1010C00000F0AEFF8B480078314601F008F80020B0
:1010D00007B0F0BDDFF84C098DF80070385C8DF872
:1010E00004000B2806D11A208DF8010000A800F09A
:1010F000C5FA0AE048B10C2804BF002002901A206B
:101100008DF8050001A801F0B5F91A2007B0F0BD6F
:1011100000000000000555534D581C202807020010
:1011200000011C181A18181C2403000071490870CB
:10113000704770B50C4682B0A006DFF8B45717D4DC
:101140001BE001F0D7FB297B491E297308B901F088
:10115000CDFB30788DF800006E613046FFF76FFFF1
:101160009DF8000015281CBF05F1140000F067F879
:10117000281D01F075F80600E3D1200407D40CE027
:101180006861FFF75CFF05F1140000F058F859485A
:10119000007800F0F1FF0028F2D1E00605D52D20FF
:1011A0008DF8000000A8FFF74AFFE00705D52420CE
:1011B0008DF8000000A8FFF742FFA00705D5252005
:1011C0008DF8000000A8FFF73AFF600705D526203C
:1011D0008DF8000000A8FFF732FF200705D5282072
:1011E0008DF8000000A8FFF72AFF600608D5002050
:1011F0008DF801002C208DF8000000A8FFF71FFFDC
:10120000200608D500208DF801002F208DF8000061
:1012100000A8FFF714FF286978B101F06BFB2C6977
:101220000021296108B901F061FB6C612046FFF7DC
:1012300006FF05F1140000F002F8002076BD38B575
:10124000040008BF01F03AFA01F054FB00F001007D
:10125000216880F0010561B1DFF894265369A1F19E
:1012600008008B4204BF002151610021216001F080
:10127000F5FC002D1CBFBDE8314001F037BB31BD8E
:101280001C480FF2553181600FF25931C1600FF2E5
:10129000C5310161DFF8A41A41610FF2E1318161CA
:1012A000DFF8D41AC161DFF8341B01620FF27971E3
:1012B000C1630FF2794101640FF2CD4141640FF235
:1012C0006D5181640FF20D51C1640021417070476E
:1012D00000142100DFF854170A8C4FF6FE739A426F
:1012E00004BF163102F01DB802220272098C01807F
:1012F00070470000C07100206C720020017ADFF896
:101300002C27022907D1118C0088814201D10120AC
:10131000704700207047014602F1160001F0DBBF64
:10132000BB1C200050710020A4710020A8420020A6
:101330002DE9F84F1546044600222F7ADFF8EC8697
:10134000994608064EBF4FF6FF7608F11400468A0C
:1013500001F07F00A17D89064CBF08210021217684
:10136000A17D49074CBF802110216176A17DC9066E
:101370004CBF002198F83410A176E18ACB0748BF12
:101380002022090748BF42F010026168237D491EF0
:10139000022B07DB0B2B1CBF5B1E01F8013942F04F
:1013A000030200E01A4398F84930012B04D1237A54
:1013B000672BA8BF42F4805242EA80321FFA82FAB9
:1013C000022809D108F11400C28A120A01F8012981
:1013D000C08A01F801090CE0032809D1A1F1070B2B
:1013E00008F13C01584601F0BCFFABF1010100E0FF
:1013F00050B127B14E4508BF4AF0400A04D0301220
:1014000001F8010901F801694AEA872086B2022F32
:1014100007D12888000A01F80109288801F8010984
:1014200009E0032F06D1CF1F2946384601F099FF66
:10143000791E00E02FB14FEA192001F8010901F8E7
:1014400001994A1E207D28B998F81430581C88F854
:10145000140004E008F11400837B5D1C85730B709D
:10146000300A107002F8016D207A61680818801A3D
:101470002072626000206070BDE8F28F2DE9F047B5
:10148000099F8A460546904699461A263946FEF730
:101490005BFE04001AD00898E08225750B223946BD
:1014A00004F1200000F0BCFD4B4642465146204668
:1014B000FFF73EFF060009D1ED1F012D03D8607E26
:1014C00040F0200060762046FFF789F83046BDE8FE
:1014D000F08730B5044683B094F83910012001B18B
:1014E0000520251D04F12C0168820420287400A821
:1014F00001F017FF60686B8E401E606000AA616893
:1015000094F83800087003212879401C287120467F
:10151000FFF70EFF050004BF2046FFF760F8FFF756
:1015200096B970B5044605200D4620702E1D95F81D
:101530003D00A0706068F16A416105F11C0101F095
:10154000F0FE6068718E41810B2295F83A1041746B
:10155000002160680176C17305F10F0160681930E0
:1015600000F05EFD6168B07A88736868616810F8A1
:10157000012B8A8110F8013B42EA03228A8110F88C
:10158000012BD3095B1E9B41DB43DB0F0B7402F085
:1015900007014A1E9241D24301EB410101EBD27196
:1015A000C9B2081810F8011B2172E060217A01F01D
:1015B0000702490801F0380101EB42010818606197
:1015C00031796A688B18834227BF081A10180020E7
:1015D0002072207470BD00007047417000F04EF81A
:1015E00005B000BD00B585B002780FF2AC71515C5A
:1015F0008DF800100B2901D11921EEE739B30C2920
:101600001FD1019090F839108DF80210C168029135
:10161000018AADF80C10817DC90648BF002105D4B0
:10162000DFF80814827E91F83410891A8DF80E10B4
:10163000417F8DF80F10817F8DF81010C07F8DF8DD
:10164000110019208DF8010000A800F013FF05B06B
:1016500000BD000038B5DFF8B0590446286930B144
:101660001921FFF7B1FC05F11000FFF7E8FD6869EB
:10167000A04204BF002068612C6131BD10B5044652
:101680008AB02078032808D0052808D0182804D06C
:101690001E2818BF1F2802D018E0002000E00120FB
:1016A0008DF8180004F12B0103A801F05AFE032065
:1016B0008DF81400DFF87403418DC08CADF8021072
:1016C000ADF8160002218DF80A101CE002208DF8FA
:1016D000180004F11C0103A801F043FE03208DF85B
:1016E00014000B22DFF84403418DC08CADF80210CA
:1016F000ADF8160002218DF80A100DF1190004F161
:101700000F0100F08DFC0B208DF800000B2260789B
:101710008DF8010004F10F010DF1190000F080FCBB
:1017200000A800F0A7FE0AB010BD000038B50446BE
:1017300065789DB9DFF8F412E08EC98C884218BF35
:10174000E82504F12C00FFF7D9FD88B1002084F8CA
:1017500039001DB92046FFF7BCFE05463DB1657056
:10176000192020702046BDE83240FFF768BC31BD2B
:10177000DFF8981894F8390091F8201080F00100F3
:101780000843E6D1E825EAE710B586B004218DF8D4
:10179000041041788DF80510C18EADF8101000F1DD
:1017A0002C010DF1060001F0BCFD0DF10600FFF764
:1017B000A5FD50B14FF6FF74ADF8004000A95320CD
:1017C00001F0C7FEDFF84808048401A800F052FECB
:1017D00006B010BD10B588B0044603208DF8040093
:1017E00004F11C010DF1060001F0BBFD60680078FA
:1017F0008DF80E000B2204F10F010DF10F0000F027
:101800000FFC04F11C00FFF779FD50B14FF6FF7497
:10181000ADF8004000A9532001F09BFEDFF8F0076F
:10182000048401A800F026FE08B010BDF0B50546FE
:1018300095B068687D4C4078400611D5A61CE98EAD
:10184000B08C88420CD1DFF8CC07407808B309206F
:101850008DF81800EE208DF8190006A800F00AFE99
:101860000BA80190294600A8FFF75BFE2B208DF8FE
:10187000000000A8FFF7E3FBA07810B19DF810006E
:1018800028B105208DF8000000A800F0F3FD15B088
:10189000F0BD94F830000028E2D005F11C00FFF7FD
:1018A0002DFD0028DCD105F20F05B68C2946062057
:1018B000FEF74AFC0700EAD00120F8820B2206203E
:1018C0003875294607F1200000F0AAFB334604F1E1
:1018D000160203213846FFF72BFD0028D7D13846E2
:1018E000FEF77DFE15B0F0BD84710020F26F002080
:1018F000BC42002073072000F8B5054600F0FAFF4F
:1019000000F0010080F001040DB101F0DBFD01F0F9
:10191000E8F9464D05F22607387D01F026FCF87CF3
:1019200001F0FDFBDFF8EC66707801F0DEFBE88C7F
:1019300001F0E7FBB88801F0E6FB05F13C0001F09F
:10194000E9FBDFF8C476386C010018BF8047786C7B
:10195000010018BF8047B86C010018BF8047F86CC1
:10196000010018BF8047386D010018BF8047786DAF
:10197000010018BF8047B86D010018BF804700F014
:1019800021FAFFF795FA00203071FEF7B9FBFFF757
:1019900077FC05F12901522001F0DBFD0CB100F0CC
:1019A000A5FF0020F2BD00004075002038B50446B8
:1019B000072000F073FB050010D0092028700322D7
:1019C000002068702146281D00F02AFB2946BDE84A
:1019D0003440DFF84006007800F081BB31BDDFF80D
:1019E00034060FF26901416200F108020FF2513131
:1019F00081620FF28931C1620FF2091101630FF2A6
:101A0000092141630FF2B1118163DFF8FC15CA614E
:101A100000F13C02243048620A620020088301F091
:101A200051B90000981D200070470000DC6F0020B5
:101A3000072202700A7A82708A7AC2704A6842600B
:101A400000220272C969C1607047000038B50446BF
:101A5000DFF8C45500206870207A0628A4BFE8206B
:101A60006870607A0F2804DB207A032804D0E8200D
:101A70006870207A032806D1DFF88C05007EC00745
:101A80005CBFE820687021462846FFF7D1FF6168F7
:101A900005F11800890A81600B22617A0173E17AED
:101AA0004173217B8173617BC173A17B01740A2126
:101AB0004174CB4991F83A108174DFF86015A9613F
:101AC0000421017105F12B0004F10F0100F0A8FAC7
:101AD0006878002804BF607800280CD1681C407822
:101AE00008B1EA21697001F085FB262020700420EE
:101AF00001F067FE01E0292020702046BDE8324059
:101B0000FFF79DBAF0B5DFF810556E1C04467078EB
:101B100085B005F10C0760B9787F0A2809D001F07B
:101B20008FFBE9687A7F511801F80B0CF079401CA3
:101B3000F0717869797F40087861491C7977C0072E
:101B400002D4C9B21D29F4DBC9B21D292DD005F17B
:101B50002901E12001F0FDFC02208DF810004FF674
:101B6000FF737078ADF80830002818BF022804D140
:101B7000204600F021F805B0F0BD012807BF08207D
:101B800080210720832105F12B020192002200927F
:101B900002AAFFF773FCDB2818BFE52804D0F3285E
:101BA0001CBFDF28E82805D1687029202070204656
:101BB000FFF745FA05B0F0BD38B5DFF85C44616861
:101BC00094F82920012000FA02F291436160A17883
:101BD000032907D1DFF8380490F8350000EB400105
:101BE0000D0109E094F824209040401C00EB4002D5
:101BF000150109B901F022FB01F005FC40196061F3
:101C000004F11000FEF738BE2DE9F043DFF8086458
:101C1000751C804668788FB002281CBF01280528F3
:101C200040D100207070414600A80A9009A8FFF733
:101C300078FC06F10C07EC79787E844220D2D6F845
:101C40000C900DE0B9F80A00BDF80A10884204D1E2
:101C500000A9484601F03FFB90B9641E09F1240930
:101C6000E4B2002CEED1F068EB7903EBC30624223A
:101C700000A900EB860000F0D3F9E879401CE87178
:101C8000DFF88C03807820B19DF8340008B9787EA5
:101C900010B909A800F0EEFB787E58B1E9798142CD
:101CA00008D101E0E8207070292088F80000404643
:101CB000FFF7C5F90FB0BDE8F08338B5044694F8D6
:101CC0002400032804BF94F82E0003282CD104F12B
:101CD0001C014A2001F03DFC60680178427801EB6C
:101CE0000221ADF80010851C00A9502001F031FC44
:101CF0002878697800EB0120ADF80000AD1C00A940
:101D00004B2001F026FC2946E12001F022FC681C52
:101D10000178407801EB0020ADF8000000A95320C5
:101D200001F017FC002000E0E820DFF8EC1248701A
:101D3000292020702046FFF782F931BD5706200088
:101D400010B5DFF8D44204F1100000F037F901F0CB
:101D50006EFA042001F065FDA078032804BF6078C6
:101D6000002804D004F12A01E12001F0F2FB204612
:101D7000BDE8104000F07EBB5506200000B585B0E0
:101D8000014600A8FFF754FEFC208DF8010000A8D2
:101D900000F070FB05B000BD0C0E020B040B0A072F
:101DA00008000F0030B5044685B0202000F076F919
:101DB000050004D0072028701C22FFF76BB807200D
:101DC000FFF75EB891480021C16601674FF47F01BB
:101DD000416781670021C16770470000C10620008C
:101DE000DC6F002010B5894C0020E067E06E68B120
:101DF000616F4068884209DA01F005FBE16E4A68CC
:101E00008242B8BF02464A60E06EE067206F38B198
:101E1000E16F19B1426849688A4203DAE06701E07C
:101E2000E06F40B1E06F616F40688842BCBFBDE8C1
:101E3000104001F00CBBBDE8104001F02FBBF8B51D
:101E400000F058FD00F00100704D80F00104E86FD3
:101E5000002840D0696F4068814204DA00F02EFC0F
:101E6000E86F002837D001F0CEFAE96F4968884260
:101E700031D3002948BF00F021FCEE6F00F03AFD9D
:101E800000F0010080F00107E96E05F16C0001E04F
:101E90000846114621B10A68B142F9D1026004E056
:101EA00005F17001304600F07CF8E86F864208BF0B
:101EB000FFF798FF0FB100F019FD377BB6680CB142
:101EC00000F014FD3846B04700F014FD00F00100AA
:101ED00080F00104C4E7002C1CBFBDE8F14000F015
:101EE00005BDF1BD38B504460D460EE047496868AA
:101EF000C96F20188D4202D1002848BF00206860B9
:101F0000002848BF00F0DAFB2D68002DEED131BD6E
:101F100070B500F0EFFC00F001003C4D2E6FE96E53
:101F200080F00104686F4042FFF7DCFF06E0686F55
:101F300071688142A4BF081A70603668002EF6D11D
:101F4000A86F696F81421CBF686701F045FAFFF70F
:101F500049FF002C1CBFBDE8704000F0C7BC70BD3D
:101F600070B504460D4600F0C5FC00F0010080F09D
:101F700001062968284601E00846096819B1626827
:101F80004B689A42F8DA046021602868A04208BFD2
:101F9000FFF728FF002E1CBFBDE8704000F0A6BC74
:101FA00070BD0A6801E011461A462AB113688242E0
:101FB000F9D10B60012070470020704770B50446CE
:101FC00000F098FC114EF16E00F0010080F0010568
:101FD00006F16C0001E00846114621B10A68A142F1
:101FE000F9D1026004E006F170012046FFF7D9FF45
:101FF000F06F844208BFFFF7F5FE002D1CBFBDE85F
:10200000704000F073BC70BDBC4200203C42002018
:10201000DC6F0020C0710020F0720020ED0E200067
:102020002AB111F8013B00F8013B521EF9D170476B
:1020300042B110F8013B11F801CB521E6345F7D0B5
:10204000002070470120704710B5044610460A462C
:102050000146204601F090FC204610BD027802297E
:1020600003D1407802EB00207047032906D1417864
:10207000807802EB012101EB00407047042909D16F
:10208000417802EB01218278C07801EB024101EB3B
:10209000006070471046704701F0CEBC10B50400D8
:1020A00001D1002010BD04F1080080B200F072FDE3
:1020B00028B1002101608480FF218171083010BDAA
:1020C00080B508B9052002BD10F8021CFF2901D017
:1020D000042002BD083800F0C1FD002002BD38B563
:1020E0000D00044636D0DFF87823127815F8020C7C
:1020F000944207D3FF2804BFA5F1080000F0AEFD0D
:10210000032032BD55F8081C002908BFFF281BD149
:1021100005F8024C00F0EEFB002145F8081C00F029
:102120000100DFF840130A6880F0010012B90D6069
:1021300006E00A4652F8081C0029FAD142F8085C69
:1021400008B100F0D3FB07E0FF2804BFA5F10800A9
:1021500000F084FD052032BD00F0CCFBDFF8081351
:10216000096831F8142042F4004221F8142008B91B
:1021700000F0BCFB002032BD2DE9F041804600F0AC
:10218000B9FB00F00100DFF8DC4280F001072068B5
:102190000026002503E005B9064650F8080C68B192
:1021A00010F8021C4145F6D1002D08BF0546F4D0B9
:1021B0004FF40041404600F0AEF811E0A84909781C
:1021C00088450CD200F096FBA749096831F8182021
:1021D000C2F30E0221F8182008B900F087FB25B1E0
:1021E00032462946204600F058F80FB100F07EFB39
:1021F0002846BDE8F08170B504460D4600F07AFB34
:1022000098490E6800F0010080F0010001E056F8E6
:10221000086C36B116F8021CA14204BF3178A942FD
:10222000F5D108B100F062FB304670BD38B5044608
:102230000D4600F05FFB002145F8081C00F001008E
:10224000216880F0010011B9256006E0114651F8BF
:10225000082C002AFAD141F8085C00B119E031BD20
:1022600038B5054600F046FB00F00100296800245F
:1022700080F0010041B10C46A4F108010A682A600F
:1022800000220A60FF228A7108B100F02FFB20466D
:1022900032BDBDE8314000F029BB70B504460D46A3
:1022A000164600F027FBA5F1080123680A689D4245
:1022B0000CBF226046F8082C00220A6000F00100E2
:1022C000FF2280F001008A7118B1BDE8704000F073
:1022D0000DBB70BDF8B507460D46164600F00AFB6B
:1022E00000F001003968002480F0010021B93D6050
:1022F0000BE0F1B251B1114651F8082C761E002ABC
:10230000F7D1F6B216B141F8085C012408B100F02B
:10231000EDFA2046F2BD38B50D465149097888429C
:10232000044607D200F0E6FA4F49096831F8142054
:102330002A431AE7032032BD38B50D4648490978CB
:102340008842044607D200F0D5FA4749096831F8B7
:102350001420AA4309E7032032BD80B5FF2803D12A
:1023600000F0C4FA002002BD072002BD80B5FF289E
:1023700003D100F0BFFA002002BD072002BD80B5E6
:1023800000F0DCFB37490020086001F057FB01F04A
:102390004FFC01F055FC00F0E3FB002002BD80B5CE
:1023A00000F001F8FCE72DE9F04101F091FC2C4828
:1023B0002D4C007821680026F6B231F816201AB9A3
:1023C000761CF2B28242F7D3F1B2814224D200F0FD
:1023D00091FA2168F6B2354631F81580002221F8CD
:1023E000152008B900F082FA204F214A3E7041467C
:1023F00052F82520304690470646FF20387000F0FE
:1024000079FA216831F81520324321F8152018B9DE
:10241000BDE8F04100F06ABABDE8F08101700A0A37
:1024200042700A0C090E8270C170001D7047017065
:102430000A0A090C42708170C01C704710B448B180
:10244000002300E05B1CDCB2944206D210F8014B82
:102450008C42F7D010BC0020704710BC01207047A0
:10246000FC1321003C7500204075002069430020CA
:10247000E0132100F1B582B004780FF22C20065D44
:10248000ADF80060002E00F0E5800D2C14D16946F7
:10249000532001F035F8BDF800004FF6FE71884278
:1024A0001CBF4FF6FF7188421EBF0298007A0028B9
:1024B00000F0AB80029D73E0052C04D10299097CE9
:1024C000243188190DE0072C0DD10298807810B9BD
:1024D00006F11B0005E00299097A01EBC10206EB47
:1024E0008200ADF80000BDF80000FFF7D7FD050041
:1024F00021D10C2C40F0AE8002984068002800F0FA
:10250000A98000F0F7F900F0010080F001070298BF
:10251000001DFEF794FEBDF80000FFF7BFFD0500AB
:1025200006D1002F00F0968000F0E0F903B0F0BD76
:102530000FB100F0DBF9029932462846FFF770FD33
:10254000052C11D16968242205F11800FFF768FDF8
:1025500005F1180068602A7C69692430FFF760FD86
:102560006868243068611BE0072C19D14948066867
:10257000B6B100210160A878002805F11000E860DC
:1025800002D11B22314606E0287A00EBC0018A0006
:10259000314605F11000FFF743FD304600F05EFBC9
:1025A0003D480168080003D028468847002848D1E4
:1025B0000D2C2FD1029840684178007800F003027A
:1025C000022A22DA354A927CC0F38300904204BF8B
:1025D000E020014202BF029890F82400022814D1A2
:1025E00095F83B0005F13A0100F03AF80298C08CEA
:1025F0004FF6FF7188421FD1029840688079022807
:102600001ADB284601F035FD20B302A8FEF717FEBD
:1026100003B0F0BD0C2C0FD1029840781A281EBFD1
:10262000281D0168002907D0897DC90704D5007BD2
:1026300005F10F0100F014F8194800782946FFF75A
:102640004EFD0C2C06D10298406818B10298001D6E
:10265000FEF7F5FD03B0F0BD002070470020704785
:10266000104A1278130013D00B783228B8BF3220EA
:1026700002DB6F28A8BF6E20012A05D132385843EB
:102680003C2290FBF2F39BB2FF2BC8BFFF230B70E1
:1026900070470000187500205475002068700020F5
:1026A0009675002091750020001610000018151076
:1026B00002000224144000001000000000BF2DE9B9
:1026C000F04F83B000F016F982494FF40010086013
:1026D00001F0E5FD804801680903FCD57F49DFF87A
:1026E0000092DFF800B2804F082008604FF0010A26
:1026F00000F0A2F901F07AFD01F049FD01F010FDB2
:1027000001F0A3FD0421484601F0F6FD08214846EA
:1027100001F0F2FD0221484601F0EEFD102148468D
:1027200001F0EAFD00220421484601F0E2FD00220A
:102730000821484601F0DDFD00220421484601F051
:10274000D8FD00220821484601F0D3FD01F03AFEF1
:1027500000220421484601F0CCFD00220821484611
:1027600001F0C7FD00220421484601F0C2FD00220D
:102770000821484601F0BDFD0DF104080FE0484670
:1027800001F0B7FD641CE4B2082C04BF00246D1CEA
:10279000042D54DB00220421484601F0AAFD002448
:1027A000002001E00098401C00900098B0F5503FD8
:1027B000F8D30421484601F099FDC243D2B2042166
:1027C000484601F096FD0821484601F08FFDC243BE
:1027D000D2B20821484601F08CFD387820B10020A3
:1027E000387003B0BDE8F08F0821584601F07EFD37
:1027F0000028D4D1641CE4B20A2CD1D100220421D7
:10280000484601F076FD00220821484601F071FD9E
:1028100000220421484601F06CFD002208214846B0
:1028200001F067FD00240821584601F05FFD00B962
:102830000024641CB4F5FA7FF5DB00240025082190
:10284000584601F053FD0028F9D1042204214846DE
:1028500001F04FFD08220821484601F04AFD0422FC
:102860000421484601F045FD002C07BF082208213D
:1028700000220821484601F03CFD00260821584668
:1028800001F034FD00B90026761CB6F5FA7FF5DBC1
:1028900000220421484601F02CFD00220821484670
:1028A00001F027FD00220421484601F022FD00220C
:1028B0000821484601F01DFD18F80500C4F1070184
:1028C0000AFA01F1084219BF04220421002204215E
:1028D00055E7000008ED00E004200D4008300D40F1
:1028E00000B00D4000900D408075002080B501F0D3
:1028F0008BFD02E080B501F083FD00B10120C0B284
:1029000002BDF0B54F4C504A2568954209D0256864
:10291000002655F8267042F82670761C402EF8D313
:10292000226042F82010F0BD10B50FF2301382087B
:1029300053F82220136800F00300C000FF248440F5
:10294000A34301FA00F01843106010BD3F4904286A
:1029500003D1086840F4803022E0052803D10868DC
:1029600040F400301CE0062803D1086840F48020C1
:1029700016E00F2805D13648016841F002010160D8
:10298000704710280DD3A0F110010FF274124909FD
:1029900052F821101038012200F01F0002FA00F056
:1029A000086070472949042803D1086820F4803062
:1029B00022E0052803D1086820F400301CE0062836
:1029C00003D1086820F4802016E00F2805D12048A4
:1029D000016821F002010160704710280DD3A0F1B9
:1029E00010010FF23012490952F82110103801225B
:1029F00000F01F0002FA00F00860704715490E2829
:102A000003D1086840F0006014E00F2803D1086883
:102A100040F000700EE010280DD3A0F110010FF26D
:102A20000812490952F821101038012200F01F0045
:102A300002FA00F0086070470748016841F00101A0
:102A40000160704708ED00E00040002024ED00E048
:102A500010E000E004ED00E098200D4000000000D0
:102A600018ED00E01CED00E020ED00E000E400E0E7
:102A700004E400E008E400E00CE400E010E400E01E
:102A800014E400E018E400E01CE400E020E400E0CE
:102A900024E400E028E400E02CE400E030E400E07E
:102AA00034E400E038E400E03CE400E040E400E02E
:102AB00044E400E048E400E04CE400E050E400E0DE
:102AC00054E400E058E400E05CE400E060E400E08E
:102AD00064E400E068E400E06CE400E070E400E03E
:102AE00074E400E078E400E07CE400E080E400E0EE
:102AF00084E400E088E400E08CE400E090E400E09E
:102B000000E100E004E100E008E100E00CE100E0A9
:102B100010E100E080E100E084E100E088E100E015
:102B20008CE100E090E100E080E200E084E200E07F
:102B300088E200E08CE200E090E200E05D4841F2D3
:102B4000FC72002181525C4908604FF427710180BA
:102B5000084448F20401018041F25C5181807047D1
:102B600038B5012000F016F8040008BFFFF7A6FDF5
:102B7000FFF7C0FE05465049201F0860204600F0C0
:102B80006DF84E49012008701DB9BDE83140FFF7CE
:102B9000ADBE31BDF8B500240025061D16F00300BA
:102BA0001CBF311D0E1AFFF7A5FE4449097800F03D
:102BB00001000A0080F0010002D0B6B2112E02D24C
:102BC0003D4A176800E03E4F3B68C3F3C0320AB18C
:102BD000002522E0B6B2D5B1226813444FEAD23EB6
:102BE000C3F30E0343EACE332360C3F30E03B342B1
:102BF00013DB274647B33B68C3F30E04A41BA4B200
:102C0000082C13D3BC5346F400423A8011E0C3F3BE
:102C10000E03B342EEDA01253C463A68C2F30E02D7
:102C200017443A88002ACFD100270DE043F4004230
:102C30003A6041B120490A68BA4204D13A68C2F305
:102C40000E023A440A603F1D08B1FFF74FFE17F02D
:102C5000030018BFFFF732FD3846F2BD10B5154925
:102C60008842044604D34FF4C0521144884201D331
:102C7000FFF724FD54F8040CC0F3C03008B9FFF787
:102C80001DFDFFF737FE54F8041C0B4A21F40041E8
:102C900044F8041C211F136800F00100994280F0E1
:102CA000010038BF116018B1BDE81040FFF71EBE2B
:102CB00010BD000080430020806300208875002044
:102CC0002046002080B501F0A3FB00F0F7F900F0EA
:102CD00073FD01F0B7FD00F021F8BDE8014000F000
:102CE00043BB80B5FFF706FE18B9FFF7FFFDFFF7FE
:102CF000E5FC0648007818B901F0CAFD00F0E6F9D5
:102D000000F04AFBBDE8014002F060B966430020D4
:102D100070470268531C036011707047DFF8780336
:102D200000210170C171704738B5DFF86C4305466A
:102D3000207808B1FFF7C2FC01202070DFF85C03A7
:102D4000007808B11D205EE0022D657002D102F00E
:102D50002DFA1BE0002D1CBF012DFFF7AFFCDFF8A3
:102D600040136278002020710968CE48897D4906A9
:102D70004CBF90F8461090F8251022B9C07810B1D9
:102D80000329A8BF0221A17000F046F8E079B8B984
:102D9000C34D286808B9FFF791FC2868C24B416809
:102DA0000A7802F02002A2718A786271027A481EC3
:102DB000911C0170EE211960511CC9B202F036FB62
:102DC000BA4DFFF797FDBA492A78097800F001005B
:102DD000114380F001001AD18321217008B1FFF75F
:102DE00085FDB44801684908490001600020287049
:102DF0006078022800D159E040B9FDF7AFFAE178D8
:102E0000814203D31C20BDE8324024E152E002217C
:102E1000217000B152E031BD80B500F064F99E49E7
:102E200091F9023001229A40521E1040C870487831
:102E300018B9BDE8014002F03CB9BDE8014002F01C
:102E400002B995480121C17140786DE738B5974CBA
:102E5000974821780078084318BFFFF72FFC8E4D64
:102E6000FFF748FD297800F00100022980F00100F9
:102E700019D18321297008B1FFF738FD8D48016809
:102E8000490849000160002020706878022800D1BC
:102E90000CE038B9FDF762FAE978814202D3BDE867
:102EA00032404AE006E000B108E031BDBDE8314003
:102EB00002F0A6B9BDE8314002F045B9BDE83140A5
:102EC000FFF714BD10B5744C607801001CBF0128D9
:102ED000FFF7F4FB0420207000F0EAFC207976492B
:102EE000401C2071C0B20A7882420DD20020E071ED
:102EF000207000F0DDFC00F01FF900F051F9BDE892
:102F00001040E120FDF794BA487BA1784A1C824228
:102F1000B8BF481CA070FFF77FFF83202070607847
:102F200038B9FDF71BFAE178814202D3BDE81040C1
:102F300003E0BDE8104002F006B91C208BE038B574
:102F4000FFF7D8FC00F00100534D80F00104287811
:102F5000832818D1A87990B9852028700CB1FFF783
:102F6000C5FC0020E871287000F0A2FC00F0E4F835
:102F700000F016F9BDE832400020FDF759BA86206E
:102F8000287002F08DF904B198E731BDF8B5054617
:102F90000E46FFF7AFFC00F001003F4C80F0010748
:102FA000207886282ED18720207002F0E7F90FB113
:102FB000FFF79CFC6079854216D156B10020E07184
:102FC000207000F075FC00F0B7F800F0E9F81B2065
:102FD00014E00020E071207000F06AFC00F0ACF812
:102FE00000F0DEF8002009E00020E071207000F021
:102FF0005FFC00F0A1F800F0D3F8E920BDE8F24052
:10300000FDF716BA1FB1BDE8F140FFF76FBCF1BD87
:1030100038B5FFF76FFC00F001001F4D80F0010490
:103020002878862814D18720287002F0A7F90CB1DF
:10303000FFF75CFC0020E871287000F039FC00F01C
:103040007BF800F0ADF8BDE83240E920FDF7F0B9BB
:1030500004B133E731BD10B504460F480021C171FA
:10306000017000F025FC00F067F800F099F82046A8
:10307000BDE81040FDF7DCB910B5094C206808B96F
:10308000FFF71CFB00F0D1F92168C86001F076FA67
:103090002168088210BD0000D4740020664300201F
:1030A00098420020DC6F002038880840FA73002026
:1030B000F873002090860840007000206F480B21B4
:1030C0008170FF214170C170017070476C49002010
:1030D00008706C496C48C08C00F0FF020A60000A5E
:1030E000486001F066BB01F030BA68490A68431EC7
:1030F0009B41DB43DB0F22F0020040EA4300086003
:103100007047604900E0624900F0FF020A60000A6F
:1031100048607047014608225E4802F075B910B554
:103120000446FFF7E7FB5549CC7008B9FFF7DEFB13
:1031300000F002F8204610BD10B5FFF7DBFB4F4949
:10314000CA780C7800F00100A24280F0010009D09A
:10315000514B1B7833B9514B1B781B0602D40A70B4
:103160004F490A6000B141E010BD38B50446A4F1F2
:103170000B00122828BFFFF7A1FAFFF7BBFB00F0F6
:10318000010080F001053D4884704448007808B98A
:1031900000F006F81DB1BDE83140FFF7A7BB31BD17
:1031A00010B53E48007808B1FFF788FA334CFFF7B6
:1031B000A1FBA178637800F00100994280F0010042
:1031C00011D0617008B1FFF791FB00F0A4FB6078AB
:1031D000344900EB80002C38086001F069FBBDE841
:1031E000104000F045BB00B100E010BDBDE810404C
:1031F000FFF77CBB38B504462B48007808B1FFF7D1
:103200005DFA1F4D287808B1FFF758FA20000CBF6F
:103210000120032C09D0012C1CBF022CFFF74EFA11
:103220001849FF220A6002204A60287031BD144903
:103230000020087013491448C08C65E701F0AFBA4C
:1032400080B501F0B6FA194A1949127802F00F0256
:10325000895C0818493840B210F1570FB8BF6FF0B9
:10326000560002DB0B28A8BF0A205730C0EB002015
:10327000612190FBF1F0C0B202BD00003875002062
:10328000F9730020C8850840DC6F002000860840E4
:10329000D0850840A8850840FA730020D474002027
:1032A000408608403C860840664300208675002022
:1032B0001014210010F1570FB8BF6FF0560002DB59
:1032C0000B28A8BF0A205730C0EB0020612190FBDB
:1032D000F1F0C0B2704710B4027A0C7AA2421CD14D
:1032E00013001AD0022A04D100880988884214D118
:1032F00012E0032A11D1082203780C78A3420CD1E2
:10330000431C4C1C581C611C1B782478A34204D11C
:10331000921ED3B2002BEFD120E0FFE710BC0020BB
:1033200070470A7A0272032A04BF0822FEF778BEA9
:1033300009880180704710B4082203780C78A342F2
:1033400000D0EBE7431C4C1C581C611C1B782478F4
:10335000A342F6D1921ED3B2002BEED110BC0120B5
:1033600070470822FEF75CBE80B5002001F035F9F9
:103370004FF47F0000F030F84F486FF008014160D3
:10338000016841F0080101606FF0100141600168BF
:1033900041F01001016001BD10B5474C206820F0DC
:1033A00010002060206820F008002060002001F05C
:1033B00014F94FF47F0000F00FF86FF00800606020
:1033C000206840F0080020606FF010006060206806
:1033D00040F01000206010BD38B5044601F0DEF862
:1033E000A04228BFFFF76AF9FFF784FA0546334881
:1033F0000460204601F03EF905B900E031BDBDE8AA
:103400003140FFF773BA38B5FFF774FA044601F09C
:10341000C5F805460CB9FFF769FA284800688542E7
:1034200001D3002032BD284632BD38B5FFF762FA1D
:10343000044601F0BBF805460CB9FFF757FA1F48E0
:103440000068854201D3002032BD284632BD70B5E8
:103450001A4D04462868844228BFFFF72FF9FFF76A
:1034600049FA00F0010080F001066C60204601F08E
:10347000D5F801F093F884420AD111496FF0100099
:1034800008600EB1FFF732FABDE87040FEF7D7BC16
:103490001EB1BDE87040FFF729BA70BD7047FEF756
:1034A000CEBC80B501F08EF9BDE80140FEF730BD1D
:1034B000024800687047000008880840C474002073
:1034C0000C88084010B588B0694C202204F16C01CA
:1034D0006846FEF7A5FD20460FF298118C2201F0F8
:1034E000D7FF2022694604F16C00FEF799FD1434E1
:1034F000FFF7F9FDA073FFF7F6FD207008B010BDCF
:1035000070B5A0F140021E2A0C4638BFA0F140055C
:1035100006D3A0F1E001102934BF00F13E052E25AD
:10352000EDB22E2D01D1F42070BDFFF7E3F9064670
:103530000FF2CC1000EB85014A7810F825004C49B9
:1035400001442046FEF76CFD0EB9FFF7CFF90020CD
:1035500070BD2DE9F0410C460146452902D1444891
:10356000846081E00546A5F140021E2A38BF40383C
:1035700004D3A5F1E002102A04D23E30C0B22E28B6
:10358000024602D1F420BDE8F0810FF2741000EB86
:103590008206B078020004BFF278002A16D0F278D2
:1035A000904208BFFB2060D0582905D120888F3871
:1035B00046F22241884206D22078B278904224BF57
:1035C000F178814202D2E820BDE8F081FFF792F95C
:1035D00007463078DFF89880727821464044FEF73D
:1035E0001FFD0FB9FFF782F9502D12D0522D1BD0BD
:1035F000532D14D0E02D2DD0E12D20D0E22D24D05C
:10360000E52D2DD0E62D02BF207808F12A01C877DC
:103610002AE008F10800C08BFFF773FD24E0B8F83A
:103620002A00FFF770FD1FE098F8290018B102206A
:1036300000F0C7F818E0022000F0F3F814E008F1F9
:103640002A00007CFFF791FD0EE008F13C00FFF737
:1036500061FD09E008F12A00C07BFFF760FD03E08F
:10366000207808F12A0188770020BDE8F081000069
:10367000DC6F0020360001000600000000000000A2
:10368000000F00000000000000000000000000002B
:1036900000000300FFFF00000403FFFF0000FFFF26
:1036A0000F00F4010005C4040320000100000B001A
:1036B00000000000000000000300010F00000000F7
:1036C00000000000000000000000000000000000FA
:1036D00000000000000000000000000000000000EA
:1036E00000000000000000000000000000000000DA
:1036F00000000000000000000000000000000000CA
:103700000001363601010001020100010301000140
:1037100004010606080400000C0100340D01000F2E
:1037200010040101140100FF16080000200200002F
:10373000220100FF23010001240100FE25010008F1
:103740002602000028010001290100012A020000D0
:103750002C01000F2E020000300100013101000891
:10376000320200FF3401000735010240360100003B
:103770003701000138010001390100FF3A010B1C3B
:103780003C080000460100084701000F4801000105
:10379000490100FF4C0400005004000054040000E4
:1037A000580400005C040000600400006404000091
:1037B000680400006C20FFFF674800214170017021
:1037C000704770B5060008BFFEF778FFFFF792F864
:1037D00000F00100604D80F00104687830436870AB
:1037E000FFF788F800F00100297880F0010021B986
:1037F00001212970E321594A116008B1FFF776F8D9
:1038000004B1B5E070BD10B5040008BFFEF756FF67
:10381000FFF770F850494A7822434A7000B961E0D6
:1038200010BD10B5040008BFFEF748FFFFF762F8AF
:1038300049494A7884F0FF031A404A7008B9FFF7F3
:1038400055F8BDE8104033E080B5FFF753F8424922
:1038500000224A700A70EF2240490A60ED220A6095
:103860000A6008B9FFF742F8BDE8014001F020B84E
:1038700038B5FFF73FF800F00100374D80F0010444
:10388000687878B1FFF736F800F00100297880F009
:10389000010021B901212970E321304A116008B1EA
:1038A000FFF724F81CB1BDE83140FFF71FB831BD68
:1038B00010B5FFF71FF800F0010080F00104264862
:1038C000407860B926480078000608D4254800787A
:1038D00028B925480078000658BF00F01CF804B14C
:1038E00000E010BDBDE81040FFF700B880B5FFF75D
:1038F00001F819490A7800F0010080F0010022B9AE
:1039000001220A70E321154A116018B1BDE8014097
:10391000FEF7ECBF01BD70B5FEF7ECFF00F0010053
:1039200080F001040C48017899B100210170EF206A
:103930000E4D6860ED2068606860FEF7DBFF0646AC
:103940002A20FFF75BF86FF0040028600EB9FEF73D
:10395000CDFF04B10CE070BD7C75002038880840B4
:10396000F8730020FA730020D474002034880840D3
:10397000BDE87040FEF7BABF62F30F2262F31F4248
:10398000401810F0030308D0C91A1FD3DB0748BF43
:1039900000F8012D28BF20F8022D130030B4144682
:1039A0001546103928BF20E93C00FAD8490728BF3E
:1039B00020E90C0048BF40F8042D890028BF20F8FA
:1039C000022D48BF00F8012D30BC7047C91818BF40
:1039D00000F8012DCB0728BF00F8012D704700002B
:1039E00080B528B9FF20FEF7C1FC0021002004E0CB
:1039F0000F49002008700FF20D01BDE8044001F0EE
:103A000072BD000038B50B4D04462878FF280ED053
:103A10000420FEF743FB50B1C0210170C4700021A7
:103A2000817001462878BDE83440FEF758BB31BDAF
:103A3000877500206843002000F092BD7B4900207C
:103A400048607047F8B5794C074620680D46164621
:103A500000E0006838B10189A94204BF817AB94207
:103A6000F7D14660F2BD1020FFF794F870B187726D
:103A70000581466000210160C160216811B92060A4
:103A8000F2BD11460A68002AFBD10860F2BDF8B504
:103A900004460D461646FEF72DFF074632462946D8
:103AA0002046FFF7CFFF04460FB9FEF71FFF0CB10A
:103AB0000020F2BD0820F2BDF8B504460D461646BA
:103AC000FEF718FF00F0010080F00107324629469A
:103AD0002046FFF7B7FF040018BFE6600FB1FEF7FE
:103AE00005FF0CB10020F2BD0820F2BD70B5044600
:103AF0000D46FEF7FFFE4D490E6800F0010080F014
:103B0000010000E036683EB13189A94204BFB17AB4
:103B1000A142F7D10021318108B1FEF7E7FE0EB1D5
:103B2000002070BD062070BD70B504460E46FEF73D
:103B3000E1FE00F00100002580F001003B4909682A
:103B400031B10A89B24204BF8A7AA242F7D14D68E4
:103B500008B1FEF7CBFE284670BD2DE9F14781B0D4
:103B6000FEF7C8FE314C019A61685118616008B9CE
:103B7000FEF7BCFE2768002F52D09DF80580BDF8E7
:103B800006A00025FEF7B6FE00F00100002680F03A
:103B900001095FEA0A0008BF5FEA080007D1387927
:103BA0009DF80420904202D3801A387106E07868AC
:103BB000019981423ABF401A78607E60B88858B94E
:103BC000F88858B9F86868B1398908000AD0B87A15
:103BD000FEF7A1FBF8687860B88808B9F88808B1E2
:103BE000388930B93868002D0CBF206028603E4607
:103BF00000E03D463F68B9F1000F18BFFEF776FEC2
:103C000066B1B088002804BFF088002803D131894C
:103C1000B07AFEF780FB3046FFF720F8002FB1D1D5
:103C2000BDE8F3870148406870470000F474002045
:103C3000024800218171018070470000EC7400206F
:103C400080B50E20FEF7A6FF0E4908600E22002167
:103C5000FEF7FAF90020FDF769FA012001F046FCB1
:103C6000022000F011F8032002F0F8F9042002F01D
:103C70007BFD052003F088F8BDE80240062004F033
:103C800025B800004075002010490870704704F006
:103C900089BA38B50C4620040BD50C4D01E0FEF76F
:103CA0000FFA2878FEF768FA0028F8D184F400406B
:103CB00032BDA00602D584F0200032BDE00602D558
:103CC00084F0100032BD002032BD0000817500205C
:103CD00070470000DFF8241400200860704780B5AA
:103CE00002F085F978B9DFF81404006800E0406854
:103CF00048B1417B0129FAD1016800291CBFBDE808
:103D0000024001F01ABD01BDDFF8F0130968002080
:103D10000A4604E0537B042B08BF401C5268002A6B
:103D2000F8D1DFF8DC231278C0B282420BD3002036
:103D300001E04968401C0029FBD1DFF8C81309786D
:103D4000C0B2814201D201207047002070472DE9A6
:103D5000F0410746DFF8A42316680C46397B00259E
:103D600000E07668002E1CBF327B8A42F9D14FF00A
:103D70000108FEB97A89386800F0C8F8060031D029
:103D80003581387C307407F1100004F0B9FE7061A1
:103D90004FF67F41388B3083012570890840708150
:103DA00041074FBF40F08000DFF85C13097840EA1C
:103DB000C11070817089C10901F00701A4B102220C
:103DC00072733268927B520703D5DFF84023128A60
:103DD000328161B34FF67F421040491E40EAC11064
:103DE000708124E0A84632E011B94FF000081EE0CF
:103DF000810605D5FEF750F900F07F005F3008E03E
:103E0000C00605D5FEF748F900F00F000A3000E0C3
:103E100001203081042070732021DFF8F4422078E3
:103E2000FFF782FE18B920782021FEF774FA75B1E9
:103E30003289717B304600F07CF840B1706908B17E
:103E4000FEF70CFF3046FEF709FF4FF00008404632
:103E5000BDE8F08170B5DFF8A4422268014684B065
:103E6000002000E05268002A3DD0137B8B42F9D13C
:103E7000517B062937D110685589007A8DF80800E2
:103E800010680088ADF80000104600F0DCF8280546
:103E900028D5BDF80010002000F027F810BBDFF88F
:103EA0006C52A98C00A805F074FA246800E06468DC
:103EB00014B160890005FAD54FF6FF767CB1206811
:103EC0000188B1420ED0A98C05F061FA1A2809D0F8
:103ED0006468002CF2D060890005F9D5EEE7002077
:103EE00005F059FA012004B070BD18B9DFF80C02D2
:103EF000006800E0406840B142891205FAD5002907
:103F00001EBF026812888A42F4D1704770B5044619
:103F10000D4616461C20FEF73DFE48B100214173B8
:103F20000573468101818173C17304604161416001
:103F300070BD38B5002843D0012910D16F4C2468DA
:103F4000002304E0657B012D08BF5B1C6468002C26
:103F5000F8D1704C2478DBB29C4216D211E00429CF
:103F600011D1664C2468002304E0657B042D08BF52
:103F70005B1C6468002CF8D1614C2478DBB29C4255
:103F800003D2112032BD02291AD1417302810021CE
:103F900041605A490A6832B100E00A465168002976
:103FA000FBD1506000E00860594C20782021FFF7D9
:103FB000BBFD18B920782021FEF7ADF9002032BDF5
:103FC000C12032BD10B94D48006800E0406838B1EA
:103FD000437B8B42FAD11AB103689B7B5B07F5D414
:103FE00070474649096800E0496821B10A7B82426E
:103FF000FAD10846704700207047F8B504460026FD
:104000000D4620000AD03D48076800E07F682FB1C8
:1040100029463846A0470128F8D13E463046F2BD31
:1040200036490A6813464FF0000C01E09C465B6875
:1040300043B18342FAD15868934201D10860704776
:10404000CCF80400704710B5040011D0FFF7E8FF6A
:104050002068006AFEF702FE2068FEF7FFFD606937
:1040600008B1FEF7FBFD2046BDE81040FEF7F6BDA7
:1040700010BD10B550B150F8081C002902BFA0F1C6
:1040800008018A79FF2A03D0FEF71AF8052010BD2F
:104090001F4C22788A7120490A7801461F48FEF792
:1040A00019F9012806D120784FF40051FEF733F9B1
:1040B000002010BD042010BD70B5FEF71BFC174D8D
:1040C0002E6800F0010080F001048EB1104856F80F
:1040D000081C007800294FF4005102D0FEF71BF9AC
:1040E00001E0FEF729F9002231462846FEF7D5F80F
:1040F0000CB1FEF7FBFB304670BD00006C75002074
:104100004E1221004F1221006A43002068700020E7
:10411000967500204D122100541221007075002068
:1041200010B5002005F0BDF9012005F0BAF9022014
:1041300005F0B7F9032005F0B4F94FF4807005F0ED
:10414000B0F940F2011005F0ACF94FF4007005F041
:10415000A5F940F2012005F0A1F940F20144204602
:1041600005F07EF94FF4806005F07AF94FF4407065
:1041700005F097F94FF4806005F090F9204605F0BE
:104180008DF9BDE810404FF4A06005F087B980B507
:10419000002005F096F9012005F093F9022005F0C2
:1041A00090F9032005F08DF94FF4807005F089F93E
:1041B00040F2011005F085F94FF4007005F081F927
:1041C00040F2012005F07DF94FF4407005F079F9D7
:1041D0004FF4806005F075F940F2014005F071F987
:1041E000BDE802404FF4A06005F06BB980B5002037
:1041F00005F077F9012005F074F9022005F071F956
:10420000032005F06EF94FF4807005F06AF940F272
:10421000011005F066F94FF4007005F062F940F204
:10422000012005F05EF94FF4407005F05AF94FF4A3
:10423000806005F056F940F2014005F052F9BDE802
:1042400002404FF4A06005F04CB980B5012000F0A9
:10425000A4F8022000F0A6F8042000F09EF8082040
:1042600000F0A0F8102000F09DF8202000F095F854
:104270000122E121104800F05FF8BDE8084001226A
:1042800008210E4800F058B880B5E1210A4800F036
:104290006EF8BDE804400821084800F068B880B511
:1042A0000122C021064805F025FABDE80840002299
:1042B0000021002005F080B800B00D4000900D40B6
:1042C00000C00D4030B5CB4300F58064D5072568AC
:1042D0004CBF0D431D40256000F58460920747BF29
:1042E0000268114301681940016030BD50F8210097
:1042F000704740F82120704738B504460D4601222A
:1043000002E004460D460222FFF7DCFF2946204664
:10431000BDE83840002205F0EDB938B5F1E738B511
:1043200004460D460222FFF7CDFF29462046BDE890
:104330003840082205F0DEB910B500231D4CA0421C
:1043400008BF082308D01C4CA04208BF102303D08C
:104350001A4CA04208BF1823994000F20470012AA9
:1043600002680CBF114322EA0101016010BD002266
:10437000104B984208BF082208D00F4B984208BF44
:10438000102203D00D4B984208BF182200F5E360BD
:104390009140036819430160704709490A68104356
:1043A0000860704706490A6822EA00000860704702
:1043B0000000000000A00D4000B00D4000C00D4006
:1043C00094200D4038B50B4C04212046FFF794FF94
:1043D000094D08212846FFF78FFF04212846FFF7E3
:1043E0008BFF042204212046FFF783FF03490320AB
:1043F000086031BD00C00D4000B00D405886084037
:10440000EFF3108072B67047EFF3108062B670471A
:10441000F0B5DFF8E80389B0142101603F21816025
:104420005521C1608521DFF8D843DFF8D853DFF884
:10443000D863DFF8C473E16701214161152141624E
:104440000021A967102101630E21416303218163CB
:104450000920706504210B2008608021FF20306056
:104460002A20FEF761FA80212B20FEF75DFA2A2030
:10447000FEF76CFA2B20FEF769FA80213120FEF757
:1044800053FADFF888030068000C3860FEF732FA50
:104490000221F1670022DFF878130A6028224A60BF
:1044A00008B9FEF723FADFF86C0300680003FAD5B9
:1044B000306F40F003003067306F4007FCD5306F3D
:1044C00040F00A0030673120FEF740FA48202060B3
:1044D000FFF70CFA206CC007FCD500201021A26F5A
:1044E00052084041491E80B2F9D1002814BFB0F5EE
:1044F000607F4BF6BE20DFF8201300F0FF020A6059
:1045000000120860796808000ED068462022002357
:104510000826A76F7F085B41761EFAD1521E00F86D
:10452000013BF4D168468847FFF7F5F94020206049
:10453000206840F020002060002028606860A860AB
:10454000E8602861686109B0F0BDDFF8D002016859
:1045500021F00C0141F0040101608069C0B2704794
:10456000DFF8B802016821F00C0141F0040101609C
:104570008169406900EB012080B2704710B5FEF7F9
:10458000B9F9DFF89C1201220A608A68496841EA99
:10459000022408B9FEF7AAF9A0B210BD80B5FEF753
:1045A000A9F99F4900220A604A6805E080B5FEF734
:1045B000A1F99B4910220A604A698DF800200A6916
:1045C0008DF80120C9688DF8021000218DF80310C4
:1045D00008B9FEF78BF9009802BD01B5000E18BFAF
:1045E000FEF76CF8FFF7DAFF8E49CA688018009A68
:1045F000801AC860FEF77EF9894900220A609DF89A
:1046000000204A619DF801200A619DF80220CA60DD
:1046100018B9BDE80140FEF769B901BD11B5002424
:1046200081B0000E18BFFEF749F8FEF763F97E4926
:104630000A6800F00100D20680F0010004D50A6883
:1046400022F0100201240A6030228A609DF80420C2
:10465000CA619DF805208A619DF806204A616FF0C5
:1046600010024A601CB10A6842F010020A6000B1F0
:104670002DE013BD11B5002481B0000E18BFFEF768
:104680001DF8FEF737F968490A6800F001001207C3
:1046900080F0010004D50A6822F0080201240A60B3
:1046A00020228A609DF80420CA619DF805208A6155
:1046B0009DF806204A614A6822F008024A601CB14F
:1046C0000A6842F008020A6000B100E013BDBDE8CC
:1046D0001340FEF70BB938B5534C2068616800EA07
:1046E0000105E80604D5FEF7DAFE6FF01000606001
:1046F000280704D5FEF7D5FE6FF008000DE0E807A7
:104700000CD54A484A49006891F9002043B29A42C0
:10471000B8BF1A460A706FF00100606031BD70B515
:10472000444C454D666C2A20FEF768F928683040F5
:10473000000705D56FF00800286000F02AFE13E09E
:1047400028683040C00605D56FF01000286000F0E2
:1047500027FE09E028683040C00705D5606C400896
:104760004000606400F092FB206C696808404007DC
:1047700007D500F0D6F86FF00400686020684006A6
:10478000F7D470BD2D482E4900680A6810404007D4
:1047900004D56FF00400086000F0E7BB70472449BF
:1047A0006FF07F0008702048016841F0010101604E
:1047B00070471D4801684908490001601C4890F98C
:1047C0000000704738B5FEF795F800F00100154D70
:1047D00080F00104287828B9FEF76AFEE9684018DD
:1047E000E86001E0002028701CB1BDE83140FEF710
:1047F0007DB831BD00000000CC740020A4860840C4
:10480000248608409085084094870840F80F2800C7
:104810001488084004200D4014700D4000700D40B5
:10482000108808404C7400200888084060860840C2
:10483000857500204C8608403088084094860840E2
:104840002C880840DFF840070021C1724161818057
:104850000FF2F5010161002181718181817370473F
:1048600038B5DFF8284705202060FEF743F80546F5
:104870002A20FEF7C3F8DFF818176FF0040008606D
:104880000DB9FEF733F8E06B40F00400E06331BD92
:1048900080B5FEF7D9FFDFF8F00600214171C17243
:1048A000DFF8F0060160016841F00901016001BD17
:1048B00010B5DFF8D4465DE338B5DFF8D006DFF891
:1048C000D046016C49084900016405210160ED20D2
:1048D00060606060FEF70EF805462A20FEF78EF84D
:1048E0006FF0040020600DB9FEF700F8DFF898467D
:1048F000606918B104F11400FBF7A0FC0FF2490045
:10490000A1792061207908430AD000202071A0718C
:10491000FEF7CEFFFEF710FCBDE83140FEF796BA79
:1049200031BD10B5DFF86046607B58B901202073B7
:104930002069804700202073607B18B1FFF7BCFF1F
:104940000020607310BD00002DE9F84FDFF83846F5
:104950002079002708B1FDF7B1FE81202071DFF832
:104960003806007838B1DFF83456686A000604D497
:10497000686A400601D42771B4E000F079FCA86EA3
:1049800040084000A866A77104216079A072204603
:1049900000F05BFD207800F07F00C01EE071C0B227
:1049A0007D28BEBF607800F00701042980F287806F
:1049B00000F00700022804BFE07A002855D16846BD
:1049C00000F043FDFDF796FF00F0010080F00106C6
:1049D000DFF8CC050078862838D1DFF8C895D9F8FB
:1049E000000008B9FDF76AFEDFF8BC25DFF8BC154A
:1049F00012789DF9000002F00F02895C0818A0F1FE
:104A000049089DF8010000F07F0A51464FFA88F0EE
:104A1000FEF750FCD9F800104877D9F8000080F86C
:104A20001EA0D9F8000080F81F800EB1FDF75EFFD0
:104A30009DF80100000606D5607800F01001E078CE
:104A4000FEF7A4FA05E0FEF7E3FA02E00EB1FDF787
:104A50004DFF686A400640D5686A00063DD4DFF81D
:104A60005005ED218160816037E0DFF83405007882
:104A7000862808BFFEF7CCFAA07A010010D0E17AB0
:104A800071B901285DD0022803D161780722114253
:104A900057D1032804D1607800F00700032850D1D3
:104AA000A078C0F381094FEA9018DFF80805006884
:104AB00000BBB8F1010F18BFB9F1010F1AD1DFF82F
:104AC000F004ED2181608160696A490605D5696A53
:104AD000090602D4ED21816081602771A079002848
:104AE00040F0D680FEF7E4FEFEF726FBFEF7AEF9B7
:104AF000BDE8F18F0FF2D04010F8091010F808004F
:104B00004618B8F1000FF6B204D06078400644BFF2
:104B1000B61EF6B2E079B11C884212DB801B801E03
:104B200061786072090748BF2527C0B2C0194C30B0
:104B300080B2FBF777FB606138B9DFF87414E820C6
:104B4000886000F0B2F9BDE8F18FE07A002718B96B
:104B5000607800F02000A071A079A0B3FDF7CAFE34
:104B600000F0010080F0010A607800F007000328DF
:104B70000CD1FBF740FB002873D1DFF83C04007830
:104B800000286AD004F07EFFFE286AD0286820F052
:104B900004002860FDF7AEFE83462A20FDF72EFFB5
:104BA000DFF80C146FF001000860BBF1000F08BFC4
:104BB000FDF79CFEA86E40F00100A866BAF1000F58
:104BC00018BFFDF793FE606900F14C01416001647C
:104BD000617A01726069017A80F844106078000798
:104BE00010D56169032081F84400611C6069403080
:104BF00002790068FDF714FA606950F8401F0279E5
:104C000011440160606980F82480606980F82E900A
:104C1000FFF7CCFC61690863FFF7B0FC6169888627
:104C2000607800F0070008736169E07881F83D0062
:104C30006178A078C0F3011001F078010843616940
:104C400038438873D6B9617A0FF201100A000DD18A
:104C50000120A8620FF2391019E0FBF7BDFA002815
:104C600094D02868042740F0040092E71029A8BFD8
:104C700010212172217A491EA96208E0267261780A
:104C8000207A090758BF401EA8620FF20900206170
:104C9000BDE8F18F30B5BC4C207A85B008B9FDF77E
:104CA0000DFD217A684600F0D0FBA0786946C0F37C
:104CB0008100C8B162699DF800304D7803EB05238F
:104CC00013870328138FD38608D10DF1020102F157
:104CD0002600FEF746FB0DF10A0105E08878C97849
:104CE00000EB0120D08401A9A078800915D0626969
:104CF000937B5B0605D40B784D7803EB0523D386B5
:104D0000891C032804D102F11C00FEF72AFB04E0F1
:104D10000878497800EB0120908300206169C8750C
:104D2000617A0FF229000A0005D198490120086034
:104D30000FF25D0007E01029A8BF10212172934AED
:104D4000217A491E1160206105B030BD10B58E4C2E
:104D50006069217A006C00F078FB6169207A0A6C46
:104D600002440A64617A081A6072C1B231B9874993
:104D7000012008600FF21900206110BDC0B2102898
:104D8000A8BF102020728149207A401E086010BD03
:104D90002DE9F0417C4D0221284600F056FB687851
:104DA000002410F0800602D1E87A022845D10220C2
:104DB0002871FEF77DFD7C4A7C491278285702F065
:104DC0000F02895C0818A0F14907687800F07F0895
:104DD000414678B2FEF76EFA696981F83A0068696F
:104DE00080F83C70686980F83B806869011D00F1BB
:104DF0004C02CA6390F844000B790A68C01A104448
:104E00000860897A490707D50078042804D06348E8
:104E1000016821F0040101606748007818B104F0CE
:104E200038FE00B104246869817B44EA060211431C
:104E300081736869FBF722FA09E05848816E4908D6
:104E400049008166AC7105F11400FBF7F7F9002009
:104E5000686105215148816258492961416A4906C2
:104E600006D5406A000603D45548ED210160016073
:104E700000202871A87938B9FEF71AFDFEF75CF911
:104E8000BDE8F041FDF7E2BFBDE8F08180B53E48E6
:104E900000218171007938B9FEF70AFDFEF74CF95F
:104EA000BDE80140FDF7D2BF01BD10B5364C434906
:104EB0002069884218BFFDF701FCE079010016D196
:104EC00040480168490606D50068000603D43C48FE
:104ED000ED210160016000202071A07990B9FEF7FA
:104EE000E7FCFEF729F9BDE81040FDF7AFBF102839
:104EF000A8BF102020723349207A401E48600FF26C
:104F00000900206110BD000010B51F4C217A84B04B
:104F1000684600F09AFAE079217A401AE071C1B24D
:104F200041B1C0B210281EDA2072401E25494860E7
:104F300004B010BD2348052141602049216101686A
:104F4000490606D50068000603D41D48ED2101601E
:104F5000016000202071A07928B9FEF7A9FCFEF7B6
:104F6000EBF8FDF773FF04B010BD10B5064CA07B45
:104F7000401CA07301206073207B18B9FFF79CFCD4
:104F80000020607310BD0000F473002050860840BC
:104F900034880840008608407C7500202886084038
:104FA000D47400209842002086750020101421003F
:104FB00030880840CC7400208375002049492000C7
:104FC000388808404C86084000BE040A38B5134CA7
:104FD0002078010021D0124D29680903FBD5114921
:104FE0000A6842F003020A600A685207FCD50228E8
:104FF00004D104F001FEFFF733FC08E0012818BFDC
:10500000FDF75CFB2868000358BFFDF757FB002045
:105010002070BDE83140FEF72BBC31BD6643002057
:1050200004200D400488084010B5FDF763FCDFF84C
:10503000A81300220A604A688C6808B9FDF756FC7C
:105040002406600E10BD38B5DFF888030068C0067E
:1050500048BFFDF733FBDFF88403DFF88443012109
:1050600001670160E220A060FF20A060FDF742FC24
:1050700005462A20FDF7C2FC6FF0100020600DB934
:10508000FDF734FCFDF736FC05462A20FDF7B6FC9B
:105090006FF0080020600DB9FDF728FCBC20A0606F
:1050A000B820A0600F20A060D020A060A060A06009
:1050B00035E038B5DFF81C030068C00648BFFDF7CF
:1050C000FDFADFF81803DFF81843012101670160DA
:1050D000E220A060FF20A060FDF70CFC05462A201E
:1050E000FDF78CFC6FF0100020600DB9FDF7FEFBA2
:1050F000FDF700FC05462A20FDF780FC6FF0080054
:1051000020600DB9FDF7F2FBBC20A0601720A06065
:105110008120A0601020A060D220A0608120A0602B
:105120001020A060D220A060D920A0600120A06043
:105130000920A060BA20A0600120A060C520A06066
:10514000D220A06031BD10B5A648A7490078A74C71
:1051500008606FF002002060FDF7CCFB0021616069
:1051600000F00100A24BA168E2681B68122B80F0DE
:105170000100D2B204D2C9B252EA010308BF491CED
:1051800003236360C9B2A160E26008B1FDF7AEFB22
:105190009048016841F010010160016841F0080188
:1051A0000160FEF7A3FBE120E06210BD38B589483D
:1051B0000068C00648BFFDF781FA8848884C012185
:1051C00001670160E220A060FF20A060FDF792FB74
:1051D00005462A20FDF712FC6FF0100020600DB983
:1051E000FDF784FBFDF786FB05462A20FDF706FC4C
:1051F0006FF0080020600DB9FDF778FBBC2092E746
:105200002DE9F0417348744D0168774C41F010016D
:105210000160016841F008010160FDF76BFB00F0DF
:10522000010080F001080020286068686E69F6B20D
:1052300006F00F00C0F10F07FFB22760FEF704FB76
:105240006C4901200870E120A8620020286068688D
:105250006869864203D0022FA4BF781E2060B8F18F
:10526000000F03D0BDE8F041FDF740BBBDE8F08181
:105270005A48006800B1704780B556480168C906B1
:105280000DD5016821F0100101600168090705D5FD
:10529000016821F008010160FDF7EEFEB0E001BDFC
:1052A0002DE9F8434B4C2068C00648BFFDF706FACD
:1052B000FFF7BAFE814651480678152EB8BFFDF7B4
:1052C000FDF909EB06001438C0B2142190FBF1F18E
:1052D00001EB8102444EA0EB8205491C0220EDB295
:1052E000B0605FFA81F8C6F80080152DA8BFFDF701
:1052F000E5F93E4F6FF002003860FDF7FBFA03213D
:105300003B4A79606902126800F00100122A80F0BD
:10531000010002D28AB202B9012189B201F0FF0272
:10532000BA60090AF96008B1FDF7E0FAE220F86214
:10533000FF20F862FDF7DEFA05462A20FDF75EFB46
:105340006FF0100078620DB9FDF7D0FABC20F8625A
:10535000B820F862D220F862206840F01000206087
:10536000E120F862FFF760FE484505DA3068404505
:1053700002D13068401E3060BDE8F18315480168F5
:1053800021F010010160E2211B480160FF21016052
:1053900070471048016821F008010160FDF76CBEFC
:1053A00080B50C48016821F0100101600B480168CC
:1053B00001B925E00168012903D1BDE80140FDF7ED
:1053C00081BD0068022818BFFDF778F9BDE80140EB
:1053D000FDF71EBE90860840108808409087084060
:1053E00030880840D7740020888708400C8808401F
:1053F000CC7400207C75002038880840DC6F0020C9
:10540000BDE80140FDF79BBD130005D011F8013B3D
:1054100040F8043B521EF9D17047130005D050F8F4
:10542000043B01F8013B521EF9D1704738B50446E0
:105430000D0008BFFDF742F914F8010B0B49086095
:105440006D1EE8B20028F7D131BD38B504460D0015
:1054500008BFFDF733F90548006804F8010B6D1E1D
:10546000E8B20028F7D131BD0000000028880840CC
:1054700062B38B0708D0521E11F8013B00F8013BC4
:1054800000F024808B07F6D1830740F0208000BF16
:10549000103A07D330B4B1E83810103AA0E8381009
:1054A000F9D230BC530724BFB1E80810A0E80810B7
:1054B00044BF51F8043B40F8043BD20724BF31F805
:1054C000022B20F8022B44BF0B7803707047083A78
:1054D00007D3B1E80810083A40F8043B40F804CB81
:1054E000F7D25307E4E77047FEF7CEBE10B5DFF8FA
:1054F000D819DFF8D8490870002084F8260004F095
:10550000B7FBFEF7E7FB0020606703F039FC04F00F
:10551000B2FB0020DFF8281A0860BDE8104003F055
:1055200031BF2DE9F0430C4687B020041FD5DFF8CA
:1055300098090078FCF720FE050015D00FF28C11B9
:10554000002000E0401CC0B2024611F83230FF2BB0
:1055500007D02E78B342F5D101EBC2012846496845
:1055600088472846FCF7ACFD84F40040ABE0A0047B
:105570000BD5FEF7A1FD050004D000F007FA284680
:10558000FCF79EFD84F400509DE0E00723D5DFF892
:105590003C5905F21A06B07C0F2819D118220021B7
:1055A00000A8FCF751FD02208DF80800688BADF8CB
:1055B00000007089ADF80A0000208DF8140000A8E2
:1055C00003F0A8FE20B1DFF87C09008800F027F97D
:1055D00084F0010077E0A00664D5DFF8EC6830784D
:1055E00000252021FEF7A0FA20B9307802222021E0
:1055F000FEF762FA002204211046FEF7E3FC07469C
:1056000001E07D734746002F3AD00022042138463E
:10561000FEF7D8FC80463889401E3881012580B2CB
:105620000028EFD1B87B0128EBD1B87A4007E8D445
:1056300006207873F87B08B9B720F873386897F8B4
:105640000F90477B1420FCF729FD01000AD00C20A5
:1056500008708F7081F80190002088733078FCF713
:105660003EFDCFE73846FEF7BCFC0028CAD0062135
:105670004173007B04F00AFE3846FEF7EBFBC1E7FE
:10568000FEF72DFB002201210020FEF79BFC0028E5
:1056900008BF002D03D130782021FEF727FA84F0CF
:1056A000200010E060050DD5DFF84809008803F000
:1056B000A4F8DFF844094089012105F067F884F473
:1056C000806000E0002007B0BDE8F0830A00000021
:1056D000AB5F200002000000115C2000050000000C
:1056E000015E200007000000D75C20000C000000D5
:1056F000495820000D0000008D592000FF000000D7
:105700000000000010B58CB00C0013D0014600AAB8
:10571000204602F0E4FE9DF8060058B19DF81C30CA
:105720009DF801202146002005F0E4FA10B1A420E4
:105730000CB010BD00200CB010BD70B50446A07AAE
:1057400040060AD52068008803F0B6F910B14FF67C
:10575000FF7008E02068008801E002F0D4FF4FF6F7
:10576000FE71884216D02168088003F0A5F9014631
:1057700020684A1E9241D20FC281DFF8801803F0E0
:10578000D0FD050007D11CB101212046FEF7DFFA4C
:10579000284670BDCD252068467B1420FCF77EFC92
:1057A00001000BD00C2008708E704D7000208873A3
:1057B000DFF814070078FCF792FCE4E73046FEF7C8
:1057C00010FC0028E4D006214173007B04F05EFD4C
:1057D0003046FEF73FFBDBE738B504460D461420A4
:1057E000FCF75CFC68B10C210170847045700021ED
:1057F00081730146DFF8D0060078FCF770FC0020CA
:1058000032BD2046FEF7EDFB38B106214173007B27
:1058100004F03CFD2046FEF71DFB102032BDDFF8F2
:10582000AC1691F82C200F2A0DD160B191F82610FA
:10583000082918BF042906D10246DFF88C06007833
:105840000121FEF724B9704730B5044683B0A07833
:10585000FEF7C7FB05003BD06078E8736078F1285D
:1058600018BFCD2804D01A281CBFE928E1280BD185
:1058700000212846FEF76BFA30B16A8961782889E1
:1058800004F06DFA28811BE060788DF8080001951E
:10589000A07B8DF80900287C002801A802D104F023
:1058A00049FE01E003F093F89DF80830E92B07D199
:1058B0002868012100914189E27B008802F03AFFCB
:1058C000687B022804BF06206873A078FEF7C2FA3E
:1058D000FEF705FADFF828070088FFF7A0FF03B0FE
:1058E00030BD70B50546AE1C0024F07890B131890A
:1058F0000824FF2005F01CFA20B1F07840F00100E8
:105900002C24F070F07800F0030001283CD144F022
:10591000110439E0F07E88B1F17F002918BFFF291A
:1059200007D1DFF8A8153089C98A88422CD12224F2
:105930002AE06A6AB07F04F02BFC25E0308903F08E
:10594000BBF8022808BF0124DFF880153089C98A16
:10595000884208BF44F0020434B1A97800290CBF82
:1059600044F0200444F0400403F0A6F8012808BFE6
:1059700044F00104A87838B1A86A007803F063F80D
:10598000012818BF04F0FE04204670BD2DE9F04147
:1059900005462C1D8EB0207900281FBFDFF8640655
:1059A00000880028FFF73BFF2179686801AA02F010
:1059B00096FD00286BD09DF8060001260228A8BF9E
:1059C00000269DF808000228A8BF0026BDF80E009A
:1059D0004FF6F87188421CBF4FF6F971884207D024
:1059E0004FF6FA7188421CBF4FF6FB71884200D116
:1059F000002603F04EF89DF80710814247D1002E93
:105A000045D0208BADF83000608CADF812009DF8C9
:105A10000A0040B19DF820309DF8052069680120FA
:105A200005F068F9D0B901A8FFF75BFF06469DF8BD
:105A30000A00DFF8988498B998F80B0000281CBF7A
:105A400006F0220022280BD006F04200422805D1A1
:105A50000B980178062918BF072901D0CF2017E03D
:105A6000700618D50B980178032918BF042903D0B4
:105A7000072918BF0A290AD1032904BF40780D2835
:105A800009D001A803F0F3F8012804D193E0D32052
:105A900005F07AF98FE0A08EB8F82410884208D17A
:105AA0000020009095F83A20618E208B002302F0B0
:105AB00041FE9DF80A00E8B1618E208B03F033FAB5
:105AC000070044D068689DF805100818F978407BF5
:105AD000814202D0F8700020786068689DF8052047
