:020000040020DA
:10000000A063002095752100C9752100CB752100E2
:10001000CD752100CD752100CD75210000000000B7
:10002000000000000000000000000000CD7521006D
:10003000CD75210000000000CD7521006173210005
:10004000CD752100CD752100C5752100CD7521002C
:1000500000000000CD752100D5742100CD75210070
:10006000CD7521000000000000000000000000002D
:100070000000000000000000CD752100000000001D
:100080000000000000000000CD752100CD752100AA
:10009000CD752100CD752100CD752100CD752100D4
:1000A000CD752100CD752100F94D2000654E200051
:1000B000CD752100CD752100CD752100CD752100B4
:1000C000956620005D4D2000CD752100CD75210085
:1000D000CD752100000000000000000000000000BD
:1000E0000000000000000000000000000000000010
:1000F000CD75210000000000CD752100CD752100D7
:10010000082102F0F8BE38B5DFF8084A0FF2217076
:10011000594D60650FF6B900A0650FF27550E862A1
:100120000FF225502863DFF8000C6863DFF8FC0B42
:10013000A8630FF6BD00E8630FF2A93028640FF240
:10014000B15060640FF20560A0640FF27550E06476
:10015000DFF8DC0B2065286908B103F00FF8DFF841
:10016000140CA8600B2208202873002100202861AD
:1001700084F82000287505F1150002F049FD05F10D
:100180002000BDE838400B22002102F041BD30B50F
:100190000446201D83B0052141820321017461685A
:1001A000491E4A1E626094F836200A7094F8361090
:1001B00011B14FF6FF7101860268018E521E026076
:1001C000090A02F8011F6268018E11700179C91CC9
:1001D000017100A804F12B0103F04AF803208DF807
:1001E000080000AADFF86008C38C0321204601F054
:1001F0005FFE050004BF204600F071FF01F0ABB8C0
:1002000038B504460D466068411E100A087001F8B2
:10021000012D049801F8010DDFF82C08428D120A17
:1002200001F8012D408D01F8010D180A01F8010DAA
:1002300001F8013D207A62681018401A207261604E
:10024000287A03280CBF01200020E0820B2209201D
:10025000207504F12000394902F0C6FC4FF6FF7307
:100260002A460321204601F023FE050004BF204654
:1002700000F035FF284632BDD07100202DE9F0474F
:1002800005460F469246002602F0FEFFDFF8808802
:10029000D8F8004000F0010080F0010913E0607E12
:1002A000400613D560684178C1F3810103290DD15F
:1002B000ED1F411D284602F0DBFF103654F8084CB4
:1002C0006D1EF6B27F1EFFB227B101E054F8084C54
:1002D000002CE4D1B9F1000F18BF02F0D1FF02F0F9
:1002E000D3FF00F00100D8F8001080F001000BE00F
:1002F000927905F80129761C4A68527905F8012996
:10030000F6B27F1E51F8081C89B14A685378C3F3CE
:100310008103022BF6D14B7E5B06E9D40A7E92065E
:10032000F0D50122FFB28AF80020002FEAD108B1EF
:1003300002F0A6FF2E70681EBDE8F087E571002070
:100340002DE9F04784B0804600208DF800008946F2
:10035000DFF8BC07857A9246082DA8BF0725DFF88D
:10036000E876387B00EBC5003D30C6B2304602F07F
:1003700079FC04004DD030196060002020723A7B77
:100380006068B968861A304602F02EFC00AA294639
:10039000701EFFF773FF0021DFF8742B0170527895
:1003A0007978920142EAC11141EA0A1141F00F0144
:1003B00000F8011D48EA091100F8011D6268217A60
:1003C0005118091A217260600B220020E08220750A
:1003D0008DF80C0004F12000DFF8501C02F004FC42
:1003E0009DF8000018B1E08A40F00800E0824FF666
:1003F000FE71788D8842ACBF03210221002301AA3F
:10040000204601F055FD0028204602D002F03CFCB9
:10041000002004B0BDE8F087F8B5044602F034FFD0
:1004200000F0010080F00105DFF8E406076800260F
:100430000EE0787E000609D56168786801F0DEFC80
:1004400020B1787E00F0BF0078763E4657F8087CF1
:10045000002FEED11EB1707E40F040007076002D6E
:100460001CBFBDE8F14002F00BBFF1BD2DE9F84320
:1004700080468946002402F007FF00F0010080F06A
:100480000107DFF88C06066800250CE0354605F10B
:100490001800417841F010014170287E40F0800042
:1004A000287656F8086C9EB1707E0006F9D5726801
:1004B0004946404601F0BEFC0028F2D0002DE5D0B0
:1004C000287D012804D16868017841F0100101708D
:1004D0000FB102F0D5FE15B100F0AAFD01242046AF
:1004E000BDE8F2832DE9F04182B00024009402F0CF
:1004F000CBFE00F00100DFF81866376880F00105D8
:100500000EE057F8088C22463946304602F0B5FC1A
:10051000394600A802F06EFCB07A401E4746B07221
:1005200067B1787E000605D5788A401E788280B251
:100530000028E6D03C4657F8087CF1E70DB102F000
:100540009FFEB07AE8B1DFF80005DFF8C845407BD0
:100550000F281CBF94F82000002812D1DFF8605C3F
:10056000284602F0F3FA03F002F83030686004F134
:100570006C01284602F0BCFA03E06070204600F0EF
:10058000A0FC00A802F050FC040007D0FFF744FFD5
:10059000607E40074CBFE920F020EEE7BDE8F38124
:1005A00070B50546FFF738FFDFF86445DFF898645B
:1005B000A06F80470128F08D08BF401C6882A07A98
:1005C000002804BF707B0F280DD1DFF8F45B2846AC
:1005D00002F0BCFA02F0CBFF303068602846DFF84A
:1005E0007C1C02F085FA02F04FFEA17A491CA17230
:1005F000002804BFBDE8704002F042BE70BD38B5AF
:100600000446607E00F0EF0060762046FFF704FFAE
:10061000DFF8FC542146284602F01FFC02F034FEAD
:10062000A97A491CA97208B902F02AFEDFF8180459
:10063000407B0F2806D1BDE83440DFF8D4080078AD
:10064000FFF75EBD31BD000010B50446DFF8F803CA
:10065000407886B0C8B101208DF8000004F11C017B
:1006600000208DF801000DF1020002F001FE60682B
:1006700000788DF80A000B2204F10F010DF10B0038
:1006800002F0B2FA00A802F0D3FF06B010BD0000DD
:1006900010B50446FFF77BFDDC2818BFDD2808D025
:1006A000E42818BFF32804D0DE281CBFDF28DB288D
:1006B00005D101462046BDE8104001F005BA10BD45
:1006C00010B586B0044606208DF8000004F11C0128
:1006D0000DF1020002F0CCFD0B2204F10F010DF12F
:1006E0000A0002F081FA00A802F0A2FF06B010BDD5
:1006F00010B5044684B094F8360028B304F12B01F9
:1007000001A802F0B5FD03208DF80C00CE4890F84A
:100710003A10C38C009101A9A28E2046FFF770FD0C
:10072000DC2818BFDD280BD0E42818BFF32807D039
:10073000DE2818BFDF2803D0E82818BFDB2803D144
:100740000146204601F0C0F904B010BD2DE9F04388
:1007500085B004464FF00009E72602F095FDDFF86A
:10076000B0733D6800F0010080F0010802E0A94686
:1007700055F8085C95B1687E0006F8D5287D0128FB
:1007800002BF95F8390021798842F0D14A462946BE
:10079000384602F072FBB87A401EB872B8F1000F0A
:1007A00018BF02F06DFD002D3BD02846FFF734FE48
:1007B0002978DFF8D80B085C8DF800000B2805D1EC
:1007C000F0206870284601F019FD29E040B30C289C
:1007D00020D1019595F839008DF80200E868029063
:1007E00005F10C008188ADF80C10817AC90648BF6C
:1007F000002104D49449827B91F83410891A8DF831
:100800000E10417C8DF80F10817C8DF81010C07C8B
:100810008DF81100F0208DF8010000A802F008FF0B
:1008200000263146204601F04FF905B0BDE8F083BF
:1008300070B5044684B06078F32818BFDF285AD01A
:10084000E82818BFDB2856D0204600F059F80600EB
:1008500050D1207C00284DD004F11101092000F076
:10086000E9F9050046D002208DF808004FF6FF7622
:10087000ADF80060FF236868A17A228900F8013D85
:1008800000F8013D00F8011D6F494B8D1B0A00F86F
:10089000013D498D00F8011D110A00F8011D00F805
:1008A000012D297A6A685118091A297268609DF821
:1008B000080003280CBF01200020E8820B22092039
:1008C000287505F12000DFF8501C02F08DF9334641
:1008D00000AA0321284601F0EBFA060004BF2846CF
:1008E00000F0FDFBF32E18BFDF2E03D0E82E18BF5B
:1008F000DB2E03D16670204600F06AF804B070BDAC
:1009000038B504460025A07A0B38122828BFE82500
:10091000207B1028A8BFE82501DA0F2804D07C49E5
:10092000097E090758BFE825617B884202D20F295A
:1009300018BFE8254448408D4FF6FF71884208BF34
:10094000EC25242002F0B6FBDFF87418086120B112
:100950002422211D02F048F900E01A25284632BD64
:1009600070B504463848217ADFF8A465C51CA97221
:10097000617A80F82C10E17AC170A07A707002F070
:1009800092FF707838B1211D502003F0CAF8A11DE4
:10099000E12003F0C6F85F49012081F82000A87A21
:1009A0000F2814BF01200020DFF8145828750B22EF
:1009B00004F10D0105F1150002F016F904F118011A
:1009C00005F12000BDE870400B2202F00DB90000D7
:1009D00010B50446607820B9DFF8E4070069FFF736
:1009E000BFFF2C2020702046BDE8104001F0A7B8C2
:1009F00010B5DFF8CC170446086918B100220A6167
:100A000002F0BCFB082020702046BDE8104002F038
:100A10000FBEDFF8AC173F48097D90F8200081F049
:100A20000101084200D1704780B50748C27890F8AC
:100A30002C10407BFFF784FC00281CBFBDE802405F
:100A400000F04DBB01BD0000BC6E00202DE9F0435D
:100A5000814687B099F80E00012409F20E0640077E
:100A600039D5318D09F11C00FFF700FD98BBDFF887
:100A70009C0C407920B1B07D022808BF00242AD008
:100A80000B2209F10F0104A802F0AEF8DFF8800C88
:100A9000408D4FF6FE718842ACBF03270227B6F89F
:100AA000288004A9012000F0C5F8050013D03020EB
:100AB000E8822C750B2204A905F1200002F094F8BD
:100AC000434609F11C023946284601F0F1F910B9F4
:100AD000284600F004FB10208DF8000009F11C01ED
:100AE0000DF1020002F0A4FB308DADF80C008DF882
:100AF0000E4000A802F09CFD07B0BDE8F083DFF8CF
:100B00001004407800B9704700B500F017BF00002E
:100B1000D042002050420020DFF8F80BDFF8F81B2D
:100B200001F154020263DFF8F42B426301F1440245
:100B300082630FF22002C266DFF8E42B4264DFF822
:100B4000742C0267DFF89C2C0A66018B41F00201CD
:100B500001837047030471040204600411047004EB
:100B600002040204010402041004610400041404D9
:100B7000630473047204620443040004130406044F
:100B8000000400040404120400040004000400042F
:100B90005104640000040004000444040004000440
:100BA00000040004650400043504810464000504A5
:100BB000000483040004000002460146032000F004
:100BC000E6BF02460146052000F0E1BF30B504460D
:100BD00085B0282002F046F8050004D008202870CF
:100BE000242200F0D6BE082000F0C9BE10B5DFF800
:100BF000244B0FF2C520606782B00FF2A920A067D6
:100C000006E0204602F010F9009000A801F097F8E5
:100C100020680028F5D1606838B1201D02F004F981
:100C2000009000A801F08BF8F5E72060A072E07258
:100C3000207313BD38B504460FF23800255C2846F2
:100C400002F010F820B1291841600021017232BD74
:100C5000022002F007F850B10FF2C421615C01706C
:100C60001A2141700146AA48007802F01CF80020C1
:100C700032BD0000004246484045453F354D3600F4
:100C8000821DD2B2C90711D50A2192FBF1F101EB05
:100C90008103A2EB4301C9B241B10A32521AD2B266
:100CA0000529A4BF0A32D2B20B32D2B21328ACBF8C
:100CB000142006208018C0B209300A2190FBF1F000
:100CC000C0B2704780B5DFF84C0A007E800706D5B9
:100CD00002F0A0FD401E8041C043C00F02BD0020B5
:100CE00002BDDFF8300A017E89070FD5807A58B936
:100CF000DFF8240AC06D48B1407E00F08001481E34
:100D00008041C043C00F70470120704700207047EA
:100D1000DFF8001ADFF8F429097B9278914238BF96
:100D200001F0A0BF00207047130A20004D0A2000E8
:100D3000FF0A200038B5040008BF03F025F802F0D0
:100D4000A3FA00F00100216880F0010561B1DFF82D
:100D5000C4295369A1F108008B4204BF00215161ED
:100D60000021216002F00AFA0DB102F089FA002098
:100D700032BD0000ED19200011B581B0007B20B11B
:100D800001282CD003282CD03EE0DFF88449607B7A
:100D90000F281EBFDFF87C09807E032804D0DFF80F
:100DA00078190198496E8847019994F83A00887338
:100DB000142001990870DFF85C490199201D02F0A8
:100DC00019F802F061FA217B491C217308B902F07D
:100DD00057FA20214E48007802F08DF813BD1520F7
:100DE000E7E70198007A78B101994A68521C4A6095
:100DF00012F8011D019A5173019A0199D27D497B24
:100E000032B109B10A2912DB01A800F098FF13BD25
:100E10000A0008D00A2A06DA0FF23001511811F838
:100E2000011C884203D0082A08BF0828ECD1019988
:100E3000401E087201980199407B0A3008700198A1
:100E40000199407B401C4873B5E700000204020191
:100E50000101010902000000DFF8B808C06F0100BD
:100E600018BF00470020704738B5044601202075A0
:100E700004F1140104F1380042884A800279CA71F1
:100E800004F12C024079087220464B8C94F83810FB
:100E900001F00EF8050004BF204600F020F92846B6
:100EA00032BD0000DFF86C08807E032801D00120ED
:100EB0007047202070470000417E41F001014176DB
:100EC0007047017D027E012904D113075CBF417880
:100ED00000F0FABD530603D50D494078896D0847E7
:100EE000012903D1120748BF30210BD442781B2AB5
:100EF00008BF222106D0002A0CBF0FF218020FF201
:100F00002002895C017001460148007801F0CBBEE7
:100F100090700020303016181920231A1C1E300043
:100F2000303017181921301B1D1F300038B5DFF87D
:100F3000E8470546E06D002876D025B11B2D05D188
:100F4000017D052956D00021417055E0E92D2BD1B6
:100F5000807E30B902F060FC18B1E06D807D400702
:100F60002BD5EE2003F04EF8E06D817E002942D0B3
:100F7000827D520705D4491E8176BDE8314003F0D9
:100F8000D6B8017E01F07F010176E06D017D032975
:100F900003D1417E41F004014176ED2003F032F8A7
:100FA000E06D216E88472AE0E12D1CD102F034FC6F
:100FB00000B3E06D807D40071CD4DFF85407E26D7C
:100FC00000F12201897C9176E26D90F8221052683E
:100FD000917090F82210491C80F822100120BDE881
:100FE000324003F017B81C2D04D1A16E88470020B1
:100FF000E06531BDE06D4570E06DFFF762FFE06DCB
:10100000807D000609D5DFF8080700F22205287E5A
:1010100002F089FCE87D02F060FC0020E065102110
:10102000BDE8344000F0E4BC31BD0000F0710020A8
:101030002DE9F041002402F027F900F00100DFF86B
:10104000D85680F00108E86D90BBDFF8C876B86F1D
:1010500080473E6840F0100002E0344656F8086CC5
:1010600036B3717E01408142F7D12246314638467F
:1010700001F003FFEE65707E000620D4F87A401E72
:10108000F872B8F1000F18BF02F0FAF8EC6DE18ABF
:10109000207AFFF7F5FD3881A07D000613D5E07EAC
:1010A00002F041FCE86D007FBDE8F04102F015BCA4
:1010B000B8F1000F11D0BDE8F04102F0E1B8B87A04
:1010C000401EB872DDE7207EBDE8F041400800F028
:1010D000010080F0010002F09DBFBDE8F08138B54D
:1010E000DFF8305604466869A04204BF00206861FA
:1010F000207E000706D4207D012803D1DFF80C06EE
:10110000027802E0DFF8040642782146284601F022
:10111000D1FEC0B1696F20468847A07D40070DD43D
:1011200002F0B2F8E97A491CE97208B902F0A8F8AD
:10113000E08AC0050DD4BDE8314079E7296F20462B
:10114000BDE834400847F12060702046BDE83240D9
:10115000B7E631BD6CE710B5DFF8B815098B04466A
:1011600000208A0705D404F134029279520748BF5F
:10117000E8206022114205D104F134018979890700
:1011800048BFE820DFF8481C227A8979914238BFAD
:10119000E82004F134010979002902BF94F83410E1
:1011A0000029F52004D010B92046FFF75DFE28B1D4
:1011B00001462046BDE8104000F086BC10BD00008E
:1011C000D07100200D21017002F032BA00B585B057
:1011D000002101704170DFF8341590F83A30097839
:1011E000DFF830255B0715D4D27A8A4215D30C215B
:1011F0008DF80010019090F839108DF80210C16838
:1012000002910C308188ADF80C10817AC9060CD59A
:10121000002110E0927A8A42E9D20146DFF8D40B2D
:10122000007801F040FD05B000BDDFF8D017827BEB
:1012300091F83410891A8DF80E10417C8DF80F103A
:10124000817C8DF81010C07C8DF81100F1208DF894
:10125000010000A802F0ECF905B000BDBC4200207E
:1012600010B5044604F1580080B201F0FBFC18B13F
:10127000047200F15801416010BDDFF87C0B0FF2E1
:101280005911016002220FF29D4141600FF2C91114
:1012900081600FF22521C1600FF2F13101610FF27F
:1012A0005D3141610FF21D3181610FF20D51C1615C
:1012B0000FF2355101620FF2A55141620FF209613F
:1012C00081620FF25921C1620FF2C50101630FF271
:1012D000910141630FF2793181630FF2D151C16302
:1012E000DFF8BC1B01640FF2F55141640FF2496154
:1012F00081640021DFF8AC0B80F85C1080F85F108F
:101300000FF2E961C1633C30016102710121017595
:10131000704730B50446251D83B00120688204F172
:101320002E010220287400A801F082FF6068AB8EB5
:10133000401E606000AA616894F83A00087083213A
:101340002879401C2871204600F0B2FD050004BF3A
:101350002046FFF7C4FE284603B030BD0000000061
:1013600038B5DFF8AC03DFF83C5B90F8350000EBF4
:1013700040010C0102F0FBF80019A86405F14400DB
:10138000BDE83440DFF8241B01F0B2BB282920005F
:1013900030B5DF4C607B93B00F2807D02E208DF83E
:1013A000000000A800F0CBFB13B030BDDFF8F45A0A
:1013B00005F1340001F0CAFB608E1421B0FBF1F49A
:1013C00002F0D5F80019A86305F13400DFF8DC1A43
:1013D00001F08EFB13B030BD10B50446607888BBB9
:1013E00094F8361002291CBF0329E82094F82B102A
:1013F0000B39122928BFE82025D218BB04F12B0194
:10140000E12002F08EFB04F13801502002F089FB4C
:1014100094F83610BE48022902D1E18D018407E01C
:101420004FF6FE710184163004F12E0101F020FF09
:101430000B2204F12001DFF8700A01F0D5FB2046F1
:10144000FFF767FF30B16070172020702046BDE8BD
:10145000104074E310BD000070B5DFF8484A94F8FE
:101460005F0084B028BB012084F85F0002F0C3FF56
:1014700000A800F0AFFC04F15401A548C58C05207C
:10148000FFF7D8FB060014D00120F0820B220520C4
:10149000307504F1540106F1200001F0A5FB2B4644
:1014A00000AA0321304600F003FD10B93046FFF7D3
:1014B00016FE04B070BD000010B5044682B00120D5
:1014C00002F0A7FF2078202804BFEB206070DFF82F
:1014D000D40990F85F104A0744BF01F0FB0180F87F
:1014E0005F1090F85F108A0710D501F0FD0180F8B9
:1014F0005F100A2160788DF801008DF8001000203F
:101500008DF8020000A802F093F813BD2A20207085
:10151000204600F014FB13BDE571002070B50546B0
:1015200086B0012002F075FFDFF8784904F134003D
:1015300001F00CFB04F1440001F008FB686801783D
:10154000427801EB0221ADF80410867846B901A972
:10155000532002F0E6FA05F11C014A2002F0E1FAFC
:101560000B2205F10F0104F1540001F03DFBBDF821
:1015700004008DF8096002218DF808100EB14FF6B5
:10158000FF70ADF80A000B2204F1540103A801F02A
:101590002BFB02A802F04CF894F85F0080070BD5F3
:1015A00068788DF801000A2100208DF802008DF87E
:1015B000001000A802F03CF8002084F85F0006B09C
:1015C00070BD000010B5044682B0EB206070DFF8FB
:1015D000D40890F85F0080070BD50A208DF8000032
:1015E000EB208DF8010000208DF8020000A802F029
:1015F0001FF8204600F002F813BD000030B5054684
:1016000085B0012002F005FFDFF8984804F13400AE
:1016100001F09CFA04F1440001F098FA002084F8EB
:101620005C0084F85F000B2202208DF8000004F1BA
:10163000540168788DF801004FF6FF70ADF8020094
:1016400001A801F0D1FA00A801F0F2FF05B030BD09
:1016500010B5044682B0EB206070DFF8480890F8BF
:101660005F0080070BD50A208DF80000EB208DF875
:10167000010000208DF8020000A801F0D9FF2046EB
:10168000FFF7BCFF204600F065FE13BD10B5044611
:1016900082B0012002F0BDFE207A002814BF002095
:1016A000EB206070DFF8FC0790F85F104A0744BF3A
:1016B00001F0FB0180F85F1090F85F108A0716D5E3
:1016C00001F0FD0180F85F10A07B00F01000012800
:1016D000ACBF0120002061788DF802000A228DF84D
:1016E00000208DF8011000A801F0A2FF08E0C80753
:1016F00006D52A202070EB206070204600F01FFAEB
:101700000D202070204601F093FF13BDCC76210000
:10171000BC6E0020D042002050420020FC7100200E
:10172000070120002DE9F8430446DFF8780790F818
:101730005F1041F0020180F85F10012002F05BFEB3
:10174000607840BBAD48408D4FF6FE718842ACBF1B
:101750000325022504F11008B4F80E901A2641461C
:101760000520FFF767FA070014D00120F8820B224A
:1017700005203875414607F1200001F035FA4B4647
:10178000221D2946384600F093FB060004BF384668
:10179000FFF7A5FC6670607850B18DF801000A2152
:1017A00000208DF802008DF8001000A801F040FF25
:1017B000BDE8F183A105200010B5044682B00120E8
:1017C00002F027FE2078202804BFEB206070DFF8AD
:1017D000D40690F85F104A0744BF01F0FB0180F87F
:1017E0005F104DE0FF05200038B50446012002F0EF
:1017F00010FEDFF8B05605F1340001F0A7F9207AA9
:10180000002814BF0020EB20607095F85F004107AE
:1018100044BF00F0FB0085F85F0095F85F0081078A
:1018200015D500F0FD0085F85F00A07B00F01000EA
:101830000128ACBF0120002061788DF802000A2247
:101840008DF800208DF8011000A801F0F1FE0D20A8
:101850002070204601F0ECFE31BD000010B50446BA
:1018600082B0012002F0D5FDEB206070DFF8340675
:1018700090F85F104A0744BF01F0FB0180F85F1049
:1018800090F85F108A070FD501F0FD0180F85F1016
:101890000A2160788DF801008DF8001000208DF885
:1018A000020000A801F0C4FE13BD000010B50446FC
:1018B000DFF8B40B01F04AF92046FFF7CFFF2046CE
:1018C000BDE8104000F046BD10B50446DFF8980BA7
:1018D00001F03CF92046BDE81040BFE710B50446D2
:1018E00086B004F11C01DFF8840B01F07BFC08B327
:1018F00009208DF80000EF208DF801006068017864
:10190000427801EB0221ADF8021000798DF8040055
:10191000207A082806BF6068C07900208DF805008D
:101920000B2204F10F010DF1060001F05DF900A892
:1019300001F07EFE06B010BD4DF804ED85B0092023
:101940008DF80000EE208DF8010000A801F070FE77
:1019500005B000BDDFF8180BDFF89C148162383148
:10196000C1620FF29C0101660FF2F8014166DFF8D7
:10197000041B0164018B41F00101018370478DF864
:1019800000001A208DF8010000A801F051FE05B0FA
:1019900030BD002068702146281D01F025F9DFF8D0
:1019A00054040078294601F07EF905B030BD10B529
:1019B000DFF8BC4A206982B018B104F1100000F0D1
:1019C000BEF90020A076DFF8600B006858B102E095
:1019D00000A800F0B4F9DFF81C04007801F0B0F9B9
:1019E00000900028F4D113BD000000004FEA000170
:1019F000DFF80004007801F07EBA0000BC6E002021
:101A00000101710101010101110101013101010116
:101A100001018001100161013B00140063017301A9
:101A20007201620143010001130106013D0135000D
:101A30000401120100010001000100010401040180
:101A4000330133013C014401320136000001000141
:101A5000650100013500810100010501820183015A
:101A600000010000030271023001600211027002E5
:101A70000102020202028002100261023A004100E9
:101A80006302730272026202430200021302380010
:101A90000002000204021202000200020002000220
:101AA00004020402370037003C02440200023900FD
:101AB00000020002650200023502810200020502F6
:101AC000820283020002000000B585B00378DFF8CF
:101AD000A02A9A5C8DF800200B2A01D100F03DBBB2
:101AE0005AB30C2A24D11A2902D1002001901FE0F8
:101AF000019090F839208DF80220C2680292028A83
:101B0000ADF80C20827DD20648BF002205D4DFF854
:101B1000AC2A837E92F83420D21A8DF80E20427FB0
:101B20008DF80F20827F8DF81020C07F8DF8110076
:101B30008DF8011000A801F07BFD05B000BD18B4C0
:101B4000DFF82C198A7E037801EB820203F07F0311
:101B5000D26D037002EB43035B7801EB8304E46D09
:101B600004B18B76037812F81320140901EB840179
:101B7000C96921B90B2B08DA14BC1821A4E702F0BB
:101B80000F0251F8221014BC084711BC7047F0B581
:101B900007460FF2800087B03C5C0D46204601F0FE
:101BA00061F8060016D03770002070702946A01921
:101BB0007060002030720FF268003A5C06F120007D
:101BC00001F012F88B480078314601F06CF80020E3
:101BD00007B0F0BDDFF898098DF80070385C8DF81B
:101BE00004000B2806D11A208DF8010000A800F08F
:101BF00005FB0AE048B10C2804BF002002901A201F
:101C00008DF8050001A801F013FD1A2007B0F0BD02
:101C100000000000000555534D581C202807020005
:101C200000011C181A18181C2403000071490870C0
:101C3000704770B50C4682B0A006DFF8345817D450
:101C40001BE001F021FB297B491E297308B901F033
:101C500017FB30788DF800006E613046FFF76FFF9C
:101C60009DF8000015281CBF05F1140000F067F86E
:101C7000281D01F0D9F80600E3D1200407D40CE0B8
:101C80006861FFF75CFF05F1140000F058F859484F
:101C9000007801F055F80028F2D1E00605D52D2096
:101CA0008DF8000000A8FFF74AFFE00705D52420C3
:101CB0008DF8000000A8FFF742FFA00705D52520FA
:101CC0008DF8000000A8FFF73AFF600705D5262031
:101CD0008DF8000000A8FFF732FF200705D5282067
:101CE0008DF8000000A8FFF72AFF600608D5002045
:101CF0008DF801002C208DF8000000A8FFF71FFFD1
:101D0000200608D500208DF801002F208DF8000056
:101D100000A8FFF714FF286978B101F0B5FA2C6923
:101D20000021296108B901F0ABFA6C612046FFF788
:101D300006FF05F1140000F002F8002076BD38B56A
:101D4000040008BF02F020F801F09EFA00F0010044
:101D5000216880F0010561B1DFF814275369A1F112
:101D600008008B4204BF002151610021216001F075
:101D700005FA002D1CBFBDE8314001F081BA31BD2C
:101D80001C480FF2D53181600FF2D931C1600FF2DA
:101D900045410161DFF8341B41610FF2614181610E
:101DA000DFF8641BC161DFF8C41B01620FF2C5716B
:101DB000C1630FF2F94101640FF24D5141640FF21A
:101DC000ED5181640FF28D51C16400214170704763
:101DD000CC762100DFF8E4170A8C4FF6FE739A42A6
:101DE00004BF163101F024BA02220272098C01806C
:101DF00070470000907000203C71002042784B78C2
:101E0000C2F38102C3F381039A4211D1022A09D19C
:101E100042794B799A4202BF80798979884207D109
:101E200001207047032A03D1491D401D01F00ABA61
:101E30000020704770B55478067A0B460021C4F331
:101E40008104B44218D1022C10D1547995790088BC
:101E500004EB0524A4B2A0420ED1D078127900EB95
:101E6000022080B2834207D1012105E0032C03D177
:101E7000511D01F0E7F90146084670BD017ADFF80F
:101E80003C27022907D1118C0088814201D1012011
:101E9000704700207047014602F1160001F0A2B918
:101EA0004B282000C06F002014700020BC4200208E
:101EB0002DE9F84F1546044600222F7ADFF8FC86FC
:101EC000994608064EBF4FF6FF7608F11400468A81
:101ED00001F07F00A17D89064CBF082100212176F9
:101EE000A17D49074CBF802110216176A17DC906E3
:101EF0004CBF002198F83410A176E18ACB0748BF87
:101F00002022090748BF42F010026168237D491E64
:101F1000022B07DB0B2B1CBF5B1E01F8013942F0C3
:101F2000030200E01A4398F84930012B04D1237AC8
:101F3000672BA8BF42F4805242EA80321FFA82FA2D
:101F4000022809D108F11400C28A120A01F80129F5
:101F5000C08A01F801090CE0032809D1A1F1070B9F
:101F600008F13C01584601F083F9ABF1010100E0B2
:101F700050B127B14E4508BF4AF0400A04D0301294
:101F800001F8010901F801694AEA872086B2022FA7
:101F900007D12888000A01F80109288801F80109F9
:101FA00009E0032F06D1CF1F2946384601F060F91A
:101FB000791E00E02FB14FEA192001F8010901F85C
:101FC00001994A1E207D28B998F81430581C88F8C9
:101FD000140004E008F11400837B5D1C85730B7012
:101FE000300A107002F8016D207A61680818801AB2
:101FF0002072626000206070BDE8F28F2DE9F0472A
:10200000099F8A460546904699461A263946FEF7A4
:1020100011FE04001AD00898E08225750B2239467B
:1020200004F1200000F0E0FD4B46424651462046B8
:10203000FFF73EFF060009D1ED1F012D03D8607E9A
:1020400040F0200060762046FFF749F83046BDE8B2
:10205000F08730B5044683B094F83910012001B1FF
:102060000520251D04F12C0168820420287400A895
:1020700001F0DEF860686B8E401E606000AA616847
:1020800094F83800087003212879401C28712046F4
:10209000FFF70EFF050004BF2046FFF720F8FFF70B
:1020A0005AB970B5044605200D4620702E1D95F8CE
:1020B0003D00A0706068F16A416105F11C0101F00A
:1020C000B7F86068718E41810B2295F83A1041741F
:1020D000002160680176C17305F10F016068193055
:1020E00000F082FD6168B07A88736868616810F8F2
:1020F000012B8A8110F8013B42EA03228A8110F801
:10210000012BD3095B1E9B41DB43DB0F0B7402F0F9
:1021100007014A1E9241D24301EB410101EBD2710A
:10212000C9B2081810F8011B2172E060217A01F091
:102130000702490801F0380101EB4201081860610B
:1021400031796A688B18834227BF081A101800205B
:102150002072207470BD00007047417000F04EF88E
:1021600005B000BD00B585B002780FF2BC71515CBE
:102170008DF800100B2901D11921EEE739B30C2994
:102180001FD1019090F839108DF80210C1680291AA
:10219000018AADF80C10817DC90648BF002105D425
:1021A000DFF81814827E91F83410891A8DF80E1019
:1021B000417F8DF80F10817F8DF81010C07F8DF852
:1021C000110019208DF8010000A801F031FA05B0C6
:1021D00000BD000038B5DFF8F8590446286930B171
:1021E0001921FFF771FC05F11000FFF7A8FD6869E0
:1021F000A04204BF002068612C6131BD10B50446C7
:102200008AB02078032808D0052808D0182804D0E0
:102210001E2818BF1F2802D018E0002000E001206F
:102220008DF8180004F12B0103A801F021F8032018
:102230008DF81400DFF88403418DC08CADF80210D6
:10224000ADF8160002218DF80A101CE002208DF86E
:10225000180004F11C0103A801F00AF803208DF80E
:1022600014000B22DFF85403418DC08CADF802102E
:10227000ADF8160002218DF80A100DF1190004F1D5
:102280000F0100F0B1FC0B208DF800000B226078EC
:102290008DF8010004F10F010DF1190000F0A4FC0C
:1022A00000A801F0C5F90AB010BD000038B5044619
:1022B00065789DB9DFF80413E08EC98C884218BF99
:1022C000E82504F12C00FFF7D9FD88B1002084F83F
:1022D00039001DB92046FFF7BCFE05463DB16570CB
:1022E000192020702046BDE83240FFF728BC31BDE0
:1022F000DFF8E01894F8390091F8201080F0010020
:102300000843E6D1E825EAE710B586B004218DF848
:10231000041041788DF80510C18EADF8101000F151
:102320002C010DF1060000F083FF0DF10600FFF710
:10233000A5FD50B14FF6FF74ADF8004000A9532041
:1023400001F0EFFBDFF89008048401A801F070F9B8
:1023500006B010BD10B588B0044603208DF8040007
:1023600004F11C010DF1060000F082FF60680078A6
:102370008DF80E000B2204F10F010DF10F0000F09B
:1023800033FC04F11C00FFF779FD50B14FF6FF74E8
:10239000ADF8004000A9532001F0C3FBDFF8380876
:1023A000048401A801F044F908B010BDF0B5054659
:1023B00095B06868814C4078400611D5A61CE98E1E
:1023C000B08C88420CD1DFF81408407808B309209B
:1023D0008DF81800EE208DF8190006A801F028F9F4
:1023E0000BA80190294600A8FFF75BFE2B208DF873
:1023F000000000A8FFF7A3FBA07810B19DF8100023
:1024000028B105208DF8000000A801F011F915B0E1
:10241000F0BD94F830000028E2D005F11C00FFF771
:102420002DFD0028DCD105F20F05B68C29460620CB
:10243000FEF700FC0700EAD00120F8820B220620FC
:102440003875294607F1200000F0CEFB334604F131
:10245000160203213846FFF72BFD0028D7D1384656
:10246000FEF73DFE15B0F0BDF46F0020D26E0020E7
:10247000D04200207B122000F8B5054600F004FF92
:1024800000F0010080F001040DB101F003FB01F048
:10249000A2FD4A4D05F22607387D01F044FAF87C8A
:1024A00001F01BFADFF83467707801F0FCF9E88C72
:1024B00001F005FAB88801F004FA05F13C0001F0DA
:1024C00007FADFF80C77386C010018BF8047786C8A
:1024D000010018BF8047B86C010018BF8047F86C36
:1024E000010018BF8047386D010018BF8047786D24
:1024F000010018BF8047B86D010018BF804700F089
:1025000029FAFFF754FA00203071FEF76FFBFFF74E
:1025100037FC05F12901522001F003FB0CB100F05A
:10252000AFFE0020F2BD000028750020DFF8AC06E9
:102530000FF2A901416200F108020FF295318162A8
:102540000FF2C931C1620FF24D1101630FF249213F
:1025500041630FF2F5118163DFF87416CA6100F16F
:102560003C02243048620A620020088301F024BD46
:1025700028292000704738B5DFF8605604462879CE
:10258000A0420CD068B9DFF84806807E002818BF4A
:10259000022806D1204602F00FF810B12C7100205D
:1025A00032BDE22032BD10B5DFF83046207918B1D7
:1025B00001F0DAFF0020207110BD0000BC6E002089
:1025C000072202700A7A82708A7AC2704A68426070
:1025D00000220272C969C1607047000038B5044624
:1025E000DFF8FC5500206870207A0628A4BFE82098
:1025F0006870607A0F2804DB207A032804D0E82072
:102600006870207A032806D1DFF8C405007EC00771
:102610005CBFE820687021462846FFF7D1FF61685B
:1026200005F11800890A81600B22617A0173E17A51
:102630004173217B8173617BC173A17B01740A218A
:102640004174CB4991F83A108174DFF89815A9616B
:102650000421017105F12B0004F10F0100F0C4FA0F
:102660006878002804BF607800280CD1681C407886
:1026700008B1EA21697001F09BF92620207004203E
:1026800001F097FE01E0292020702046BDE832408D
:10269000FFF755BAF0B5DFF848556E1C0446707860
:1026A00085B005F10C0760B9787F0A2809D001F0E0
:1026B000A5F9E9687A7F511801F80B0CF079401CF4
:1026C000F0717869797F40087861491C7977C00793
:1026D00002D4C9B21D29F4DBC9B21D292DD005F1E0
:1026E0002901E12001F01DFA02208DF810004FF6BB
:1026F000FF737078ADF80830002818BF022804D1A5
:10270000204600F021F805B0F0BD012807BF0820E1
:1027100080210720832105F12B02019200220092E3
:1027200002AAFFF76BFCDB2818BFE52804D0F328CA
:102730001CBFDF28E82805D16870292020702046BA
:10274000FFF7FDF905B0F0BD38B5DFF894446168D6
:1027500094F82920012000FA02F291436160A178E7
:10276000032907D1DFF8700490F8350000EB400131
:102770000D0109E094F824209040401C00EB400239
:10278000150109B901F038F900F0F1FE4019606156
:1027900004F11000FEF7F4BD2DE9F043DFF84064CA
:1027A000751C804668788FB002281CBF0128052858
:1027B00040D100207070414600A80A9009A8FFF798
:1027C00070FC06F10C07EC79787E844220D2D6F8B2
:1027D0000C900DE0B9F80A00BDF80A10884204D147
:1027E00000A9484600F0FEFC90B9641E09F12409D6
:1027F000E4B2002CEED1F068EB7903EBC30624229F
:1028000000A900EB860000F0EFF9E879401CE871C0
:10281000DFF8C403807820B19DF8340008B9787ED1
:1028200010B909A800F004FF787E58B1E979814217
:1028300008D101E0E8207070292088F800004046A7
:10284000FFF77DF90FB0BDE8F08338B5044694F882
:102850002400032804BF94F82E0003282CD104F18F
:102860001C014A2001F05DF960680178427801EBB3
:102870000221ADF80010851C00A9502001F051F98B
:102880002878697800EB0120ADF80000AD1C00A9A4
:102890004B2001F046F92946E12001F042F9681C7D
:1028A0000178407801EB0020ADF8000000A953202A
:1028B00001F037F9002000E0E820DFF82413487029
:1028C000292020702046FFF73AF931BD571120002A
:1028D00010B5DFF80C4304F1100000F037F901F0F7
:1028E00084F8042001F095FDA078032804BF6078E7
:1028F000002804D004F12A01E12001F012F9204659
:10290000BDE8104000F094BE5511200000B585B020
:10291000014600A8FFF754FEFC208DF8010000A836
:1029200000F086FE05B000BD0C0E020B040B0A077A
:1029300008000F0030B5044685B0202000F092F961
:10294000050004D0072028701C22FFF722B80720BA
:10295000FFF715B89F480021C16601674FF47F015A
:10296000416781670021C16770470000C5112000E1
:10297000BC6E002010B5974C0020E067E06E68B197
:10298000616F4068884209DA00F0F1FDE16E4A6843
:102990008242B8BF02464A60E06EE067206F38B1FD
:1029A000E16F19B1426849688A4203DAE06701E0E1
:1029B000E06F40B1E06F616F40688842BCBFBDE826
:1029C000104000F0FBBDBDE8104000F01EBEF8B5A1
:1029D00000F05AFC00F001007E4D80F00104E86F29
:1029E000002840D0696F4068814204DA01F0CCF9D8
:1029F000E86F002837D000F0BAFDE96F49688842D7
:102A000031D3002948BF01F0BFF9EE6F00F03CFC64
:102A100000F0010080F00107E96E05F16C0001E0B3
:102A20000846114621B10A68B142F9D1026004E0BA
:102A300005F17001304600F07CF8E86F864208BF6F
:102A4000FFF798FF0FB100F01BFC377BB6680CB1A5
:102A500000F016FC3846B04700F016FC00F001000C
:102A600080F00104C4E7002C1CBFBDE8F14000F079
:102A700007BCF1BD38B504460D460EE055496868FF
:102A8000C96F20188D4202D1002848BF002068601D
:102A9000002848BF01F078F92D68002DEED131BD36
:102AA00070B500F0F1FB00F001004A4D2E6FE96EA9
:102AB00080F00104686F4042FFF7DCFF06E0686FBA
:102AC00071688142A4BF081A70603668002EF6D182
:102AD000A86F696F81421CBF686700F031FDFFF786
:102AE00049FF002C1CBFBDE8704000F0C9BB70BDA1
:102AF00070B504460D4600F0C7FB00F0010080F001
:102B000001062968284601E00846096819B162688B
:102B10004B689A42F8DA046021602868A04208BF36
:102B2000FFF728FF002E1CBFBDE8704000F0A8BBD7
:102B300070BD0A6801E011461A462AB11368824244
:102B4000F9D10B60012070470020704770B5044632
:102B500000F09AFB1F4EF16E00F0010080F00105BD
:102B600006F16C0001E00846114621B10A68A14255
:102B7000F9D1026004E006F170012046FFF7D9FFA9
:102B8000F06F844208BFFFF7F5FE002D1CBFBDE8C3
:102B9000704000F075BB70BD70B50E48C16E002965
:102BA00004BF006F002811D000F06EFB044600F057
:102BB00002FD054600F0DBFC06460CB900F060FBA8
:102BC000701CA84201D2281A70BD012070BD0000FF
:102BD000D042002050420020BC6E002090700020A7
:102BE00084720020ED1920002AB111F8013B00F891
:102BF000013B521EF9D1704742B110F8013B11F868
:102C000001CB521E6345F7D000207047012070476A
:102C100010B5044610460A460146204601F018FD4C
:102C2000204610BD0278022903D1407802EB002033
:102C30007047032906D14178807802EB012101EB2E
:102C400000407047042909D1417802EB01218278C4
:102C5000C07801EB024101EB0060704710467047FD
:102C600001F056BD10B5040001D1002010BD04F1E3
:102C7000080080B200F01EFA28B1002101608480B3
:102C8000FF218171083010BD80B508B9052002BD53
:102C900010F8021CFF2901D0042002BD083800F002
:102CA0006DFA002002BD38B50D00044636D0DFF8BD
:102CB0009823127815F8020C944207D3FF2804BF1A
:102CC000A5F1080000F05AFA032032BD55F8081C9F
:102CD000002908BFFF281BD105F8024C00F0D4FAE8
:102CE000002145F8081C00F00100DFF860130A68B5
:102CF00080F0010012B90D6006E00A4652F8081C87
:102D00000029FAD142F8085C08B100F0B9FA07E0EE
:102D1000FF2804BFA5F1080000F030FA052032BDFD
:102D200000F0B2FADFF82813096831F8142042F4F1
:102D3000004221F8142008B900F0A2FA002032BDA8
:102D40002DE9F041804600F09FFA00F00100DFF825
:102D5000FC4280F0010720680026002503E005B949
:102D6000064650F8080C68B110F8021C4145F6D12F
:102D7000002D08BF0546F4D04FF40041404600F056
:102D8000BAF811E0B049097888450CD200F07CFA15
:102D9000AF49096831F81820C2F30E0221F8182053
:102DA00008B900F06DFA25B132462946204600F0F8
:102DB00064F80FB100F064FA2846BDE8F08170B500
:102DC00004460D4600F060FAA0490E6800F00100CC
:102DD00080F0010001E056F8086C36B116F8021CCC
:102DE000A14204BF3178A942F5D108B100F048FAF8
:102DF000304670BD38B504460D4600F045FA002156
:102E000045F8081C00F00100216880F0010011B9AC
:102E1000256006E0114651F8082C002AFAD141F845
:102E2000085C00B125E031BD38B5054600F02CFA4C
:102E300000F001002968002480F0010041B10C4637
:102E4000A4F108010A682A6000220A60FF228A7140
:102E500008B100F015FA204632BD38B504460D46DB
:102E600000F012FA216845F8081C256000B900E05E
:102E700031BDBDE8314000F003BA70B504460D46DF
:102E8000164600F001FAA5F1080123680A689D4280
:102E90000CBF226046F8082C00220A6000F00100F6
:102EA000FF2280F001008A7118B1BDE8704000F087
:102EB000E7B970BDF8B507460D46164600F0E4F9CF
:102EC00000F001003968002480F0010021B93D6064
:102ED0000BE0F1B251B1114651F8082C761E002AD0
:102EE000F7D1F6B216B141F8085C012408B100F040
:102EF000C7F92046F2BD38B50D46534909788842D6
:102F0000044607D200F0C0F95149096831F814208D
:102F10002A430EE7032032BD38B50D464A490978E9
:102F20008842044607D200F0AFF94949096831F8F0
:102F30001420AA43FDE6032032BD80B5FF2803D14B
:102F400000F09EF9002002BD072002BD80B5FF28D9
:102F500003D100F099F9002002BD072002BD80B521
:102F600000F07CF839490020086001F0D5FB01F041
:102F7000DDFC01F011FD00F083F8002002BD80B5FA
:102F800000F001F8FCE72DE9F04101F070FD2E485A
:102F90002F4C007821680026F6B231F816201AB9B5
:102FA000761CF2B28242F7D3F1B2814224D200F011
:102FB0006BF92168F6B2354631F81580002221F808
:102FC000152008B900F05CF9224F234A3E704146B3
:102FD00052F82520304690470646FF20387000F012
:102FE00053F9216831F81520324321F8152038B9FA
:102FF000BDE8F04100F044B9BDE8F04101F0B2BCD9
:10300000BDE8F08101700A0A42700A0C090E827054
:10301000C170001D704701700A0A090C427081706E
:10302000C01C704710B448B1002300E05B1CDCB248
:10303000944206D210F8014B8C42F7D010BC00200D
:10304000704710BC01207047A07621002475002035
:10305000287500207D430020807621005D4841F2E4
:10306000FC72002181525C4908604FF42771018095
:10307000084448F20401018041F25C5181807047AC
:1030800038B5012000F016F8040008BF00F07CFEFF
:1030900000F0FAF805465049201F0860204600F06D
:1030A0006DF84E49012008701DB9BDE8314000F0AF
:1030B000E7B831BDF8B500240025061D16F0030061
:1030C0001CBF311D0E1A00F0DFF84449097800F0EA
:1030D00001000A0080F0010002D0B6B2112E02D227
:1030E0003D4A176800E03E4F3B68C3F3C0320AB167
:1030F000002522E0B6B2D5B1226813444FEAD23E91
:10310000C3F30E0343EACE332360C3F30E03B3428B
:1031100013DB274647B33B68C3F30E04A41BA4B2DA
:10312000082C13D3BC5346F400423A8011E0C3F399
:103130000E03B342EEDA01253C463A68C2F30E02B2
:1031400017443A88002ACFD100270DE043F400420B
:103150003A6041B120490A68BA4204D13A68C2F3E0
:103160000E023A440A603F1D08B100F089F817F0DA
:10317000030018BF00F008FE3846F2BD10B515492F
:103180008842044604D34FF4C0521144884201D30C
:1031900000F0FAFD54F8040CC0F3C03008B900F098
:1031A000F3FD00F071F854F8041C0B4A21F40041BF
:1031B00044F8041C211F136800F00100994280F0BC
:1031C000010038BF116018B1BDE8104000F058B8D8
:1031D00010BD0000A0430020A063002088750020DF
:1031E0004046002010B4027A0C7AA2421CD113008F
:1031F0001AD0022A04D100880988884214D112E02A
:10320000032A11D1082203780C78A3420CD1431C65
:103210004C1C581C611C1B782478A34204D1921EBC
:10322000D3B2002BEFD120E0FFE710BC00207047A5
:103230000A7A0272032A04BF0822FFF7D5BC098864
:103240000180704710B4082203780C78A34200D0A4
:10325000EBE7431C4C1C581C611C1B782478A342D0
:10326000F6D1921ED3B2002BEED110BC01207047D4
:103270000822FFF7B9BC0268531C03601170704745
:1032800080B501F001FC02E080B501F0F9FB00B16E
:103290000120C0B202BDF0B54F4C504A256895429E
:1032A00009D02568002655F8267042F82670761C4D
:1032B000402EF8D3226042F82010F0BD10B50FF276
:1032C0003013820853F82220136800F00300C00076
:1032D000FF248440A34301FA00F01843106010BD9E
:1032E0003F49042803D1086840F4803022E00528D3
:1032F00003D1086840F400301CE0062803D10868B8
:1033000040F4802016E00F2805D13648016841F0CE
:1033100002010160704710280DD3A0F110010FF2D7
:103320007412490952F821101038012200F01F00D0
:1033300002FA00F0086070472949042803D10868A0
:1033400020F4803022E0052803D1086820F4003002
:103350001CE0062803D1086820F4802016E00F281E
:1033600005D12048016821F0020101607047102852
:103370000DD3A0F110010FF23012490952F82110BB
:103380001038012200F01F0002FA00F008607047B8
:1033900015490E2803D1086840F0006014E00F289A
:1033A00003D1086840F000700EE010280DD3A0F1A2
:1033B00010010FF20812490952F8211010380122A9
:1033C00000F01F0002FA00F008607047074801682B
:1033D00041F001010160704708ED00E0004000206D
:1033E00024ED00E010E000E004ED00E098200D4046
:1033F0000000000018ED00E01CED00E020ED00E012
:1034000000E400E004E400E008E400E00CE400E094
:1034100010E400E014E400E018E400E01CE400E044
:1034200020E400E024E400E028E400E02CE400E0F4
:1034300030E400E034E400E038E400E03CE400E0A4
:1034400040E400E044E400E048E400E04CE400E054
:1034500050E400E054E400E058E400E05CE400E004
:1034600060E400E064E400E068E400E06CE400E0B4
:1034700070E400E074E400E078E400E07CE400E064
:1034800080E400E084E400E088E400E08CE400E014
:1034900090E400E000E100E004E100E008E100E089
:1034A0000CE100E010E100E080E100E084E100E0F8
:1034B00088E100E08CE100E090E100E080E200E0E3
:1034C00084E200E088E200E08CE200E090E200E0CC
:1034D00080B5002001F0C4FB4FF47F0000F030F80D
:1034E00050486FF008014160016841F00801016037
:1034F0006FF010014160016841F01001016001BDF1
:1035000010B5484C206820F010002060206820F0A2
:1035100008002060002001F0A3FB4FF47F0000F0C2
:103520000FF86FF008006060206840F0080020602D
:103530006FF010006060206840F01000206010BD47
:1035400038B5044601F06CFBA04228BF00F01CFC1B
:10355000FFF79AFE054634480460204601F0CDFB93
:1035600005B900E031BDBDE83140FFF789BE38B58F
:10357000FFF78AFE044601F053FB05460CB9FFF73E
:103580007FFE29480068854201D3002032BD2846CD
:1035900032BD38B5FFF778FE044601F04AFB054618
:1035A0000CB9FFF76DFE20480068854201D300206A
:1035B00032BD284632BD1C484068704770B51A4D70
:1035C00004462868844228BF00F0DEFBFFF75CFE5B
:1035D00000F0010080F001066C60204601F061FB04
:1035E00001F01EFB84420AD110496FF01000086000
:1035F0000EB1FFF745FEBDE87040FFF7E8B91EB118
:10360000BDE87040FFF73CBE70BD7047FFF7DFB903
:1036100080B501F04BFCBDE80140FFF741BA02481C
:1036200000687047088808409C7400200C88084097
:10363000F1B582B004780FF22C20065DADF8006081
:10364000002E00F0E5800D2C14D16946532000F0C7
:103650003FFABDF800004FF6FE7188421CBF4FF6DE
:10366000FF7188421EBF0298007A002800F0AB80EC
:10367000029D73E0052C04D10299097C243188193C
:103680000DE0072C0DD10298807810B906F11B00CF
:1036900005E00299097A01EBC10206EB8200ADF860
:1036A0000000BDF80000FFF7DDFA050021D10C2C69
:1036B00040F0AE8002984068002800F0A980FFF733
:1036C000E3FD00F0010080F001070298001DFEF705
:1036D00036FBBDF80000FFF7C5FA050006D1002F44
:1036E00000F09680FFF7CCFD03B0F0BD0FB1FFF7FF
:1036F000C7FD029932462846FFF776FA052C11D10C
:103700006968242205F11800FFF76EFA05F1180028
:1037100068602A7C69692430FFF766FA686824309B
:1037200068611BE0072C19D149480668B6B1002131
:103730000160A878002805F11000E86002D11B2282
:10374000314606E0287A00EBC0018A00314605F1D7
:103750001000FFF749FA3046FFF710FD3D480168B9
:10376000080003D028468847002848D10D2C2FD1C7
:10377000029840684178007800F00302022A22DAB9
:10378000354A927CC0F38300904204BFE02001429E
:1037900002BF029890F82400022814D195F83B004B
:1037A00005F13A0100F03AF80298C08C4FF6FF712B
:1037B00088421FD102984068807902281ADB284687
:1037C00001F0D5FD20B302A8FEF7B9FA03B0F0BDB1
:1037D0000C2C0FD1029840781A281EBF281D0168B2
:1037E000002907D0897DC90704D5007B05F10F01A9
:1037F00000F014F8194800782946FFF754FA0C2C09
:1038000006D10298406818B10298001DFEF797FA99
:1038100003B0F0BD01F046BD00207047104A127899
:10382000130013D00B783228B8BF322002DB6F2888
:10383000A8BF6E20012A05D1323858433C2290FBA4
:10384000F2F39BB2FF2BC8BFFF230B707047000041
:10385000007500203C750020486F00207A7500201C
:1038600091750020001610000018151002000224A7
:1038700014400000100000006F480B218170FF21F0
:103880004170C170017070476C49002008706C492C
:103890006C48C08C00F0FF020A60000A486001F02A
:1038A000FCBA01F094B968490A68431E9B41DB43A6
:1038B000DB0F22F0020040EA4300086070476049D5
:1038C00000E0624900F0FF020A60000A48607047A9
:1038D000014608225E4801F0A5BD10B50446FFF779
:1038E000D3FC5549CC7008B9FFF7CAFC00F002F8C8
:1038F000204610BD10B5FFF7C7FC4F49CA780C78B9
:1039000000F00100A24280F0010009D0514B1B7869
:1039100033B9514B1B781B0602D40A704F490A6019
:1039200000B141E010BD38B50446A4F10B001228E7
:1039300028BF00F029FAFFF7A7FC00F0010080F093
:1039400001053D4884704448007808B900F006F845
:103950001DB1BDE83140FFF793BC31BD10B53E4805
:10396000007808B100F010FA334CFFF78DFCA17815
:10397000637800F00100994280F0010011D061707D
:1039800008B1FFF77DFC00F0BEFD6078344900EB24
:1039900080002C38086001F0AFFDBDE8104000F059
:1039A0005FBD00B100E010BDBDE81040FFF768BC8E
:1039B00038B504462B48007808B100F0E5F91F4DF2
:1039C000287808B100F0E0F920000CBF0120032C9A
:1039D00009D0012C1CBF022C00F0D6F91849FF2297
:1039E0000A6002204A60287031BD14490020087026
:1039F00013491448C08C65E701F045BA80B501F061
:103A00004CFA194A1949127802F00F02895C081819
:103A1000493840B210F1570FB8BF6FF0560002DBC3
:103A20000B28A8BF0A205730C0EB0020612190FB73
:103A3000F1F0C0B202BD000020750020A17300208B
:103A4000C8850840BC6E002000860840D08508402C
:103A5000A8850840A2730020AC740020408608406E
:103A60003C8608407A43002084750020D4762100EB
:103A700010F1570FB8BF6FF0560002DB0B28A8BF3C
:103A80000A205730C0EB0020612190FBF1F0C0B25A
:103A90007047000010B588B0694C202204F16C0119
:103AA0006846FFF7A1F820460FF298118C2202F029
:103AB000C1F82022694604F16C00FFF795F8143430
:103AC000FFF7EFFEA073FFF7ECFE207008B010BD0B
:103AD00070B5A0F140021E2A0C4638BFA0F1400587
:103AE00006D3A0F1E001102934BF00F13E052E25D8
:103AF000EDB22E2D01D1F42070BDFFF7C5FB0646B7
:103B00000FF2CC1000EB85014A7810F825004C49E3
:103B100001442046FFF768F80EB9FFF7B1FB00201B
:103B200070BD2DE9F0410C460146452902D14448BB
:103B3000846081E00546A5F140021E2A38BF403866
:103B400004D3A5F1E002102A04D23E30C0B22E28E0
:103B5000024602D1F420BDE8F0810FF2741000EBB0
:103B60008206B078020004BFF278002A16D0F278FC
:103B7000904208BFFB2060D0582905D120888F389B
:103B800046F22241884206D22078B278904224BF81
:103B9000F178814202D2E820BDE8F081FFF774FBA2
:103BA00007463078DFF89880727821464044FFF766
:103BB0001BF80FB9FFF764FB502D12D0522D1BD00C
:103BC000532D14D0E02D2DD0E12D20D0E22D24D086
:103BD000E52D2DD0E62D02BF207808F12A01C87707
:103BE0002AE008F10800C08BFFF769FE24E0B8F86E
:103BF0002A00FFF766FE1FE098F8290018B102209E
:103C000000F0D7FB18E0022000F003FC14E008F1FC
:103C10002A00007CFFF787FE0EE008F13C00FFF76A
:103C200057FE09E008F12A00C07BFFF756FE03E0CB
:103C3000207808F12A0188770020BDE8F081000093
:103C4000BC6E0020360001000600000000000000ED
:103C5000000F000000000000000000000000000055
:103C600000000300FFFF00000403FFFF0000FFFF50
:103C70000F00F4010005C4040320000100000B0044
:103C800000000000000000000300010F0000000021
:103C90000000000000000000000000000000000024
:103CA0000000000000000000000000000000000014
:103CB0000000000000000000000000000000000004
:103CC00000000000000000000000000000000000F4
:103CD000000136360101000102010001030100016B
:103CE00004010606080400000C0100340D01000F59
:103CF00010040101140100FF16080000200200005A
:103D0000220100FF23010001240100FE250100081B
:103D10002602000028010001290100012A020000FA
:103D20002C01000F2E0200003001000131010008BB
:103D3000320200FF34010007350102403601000065
:103D40003701000138010001390100FF3A010B1C65
:103D50003C080000460100084701000F480100012F
:103D6000490100FF4C04000050040000540400000E
:103D7000580400005C0400006004000064040000BB
:103D8000680400006C20FFFF00BF2DE9F04F83B0F6
:103D9000FFF77AFA82494FF40010086002F04BF8FE
:103DA000804801680903FCD57F49DFF80092DFF8FD
:103DB00000B2804F082008604FF0010AFFF706FBB1
:103DC00001F0CAFF01F099FF01F060FF01F0F3FF7D
:103DD0000421484602F05CF80821484602F058F8F1
:103DE0000221484602F054F81021484602F050F8EB
:103DF00000220421484602F048F8002208214846E3
:103E000002F043F800220421484602F03EF8002266
:103E10000821484602F039F802F0C8F800220421CF
:103E2000484602F032F800220821484602F02DF8F8
:103E300000220421484602F028F8002208214846C2
:103E400002F023F80DF104080FE0484602F01DF8D7
:103E5000641CE4B2082C04BF00246D1C042D54DB48
:103E600000220421484602F010F80024002001E05E
:103E70000098401C00900098B0F5503FF8D3042102
:103E8000484601F0FFFFC243D2B20421484601F088
:103E9000FCFF0821484601F0F5FFC243D2B20821D9
:103EA000484601F0F2FF387820B10020387003B0A6
:103EB000BDE8F08F0821584601F0E4FF0028D4D176
:103EC000641CE4B20A2CD1D100220421484601F03E
:103ED000DCFF00220821484601F0D7FF0022042120
:103EE000484601F0D2FF00220821484601F0CDFFEC
:103EF00000240821584601F0C5FF00B90024641CC5
:103F0000B4F5FA7FF5DB002400250821584601F0BE
:103F1000B9FF0028F9D104220421484601F0B5FF79
:103F200008220821484601F0B0FF04220421484637
:103F300001F0ABFF002C07BF082208210022082156
:103F4000484601F0A2FF00260821584601F09AFFDA
:103F500000B90026761CB6F5FA7FF5DB00220421B5
:103F6000484601F092FF00220821484601F08DFFEB
:103F700000220421484601F088FF0022082148461B
:103F800001F083FF18F80500C4F107010AFA01F1F6
:103F9000084219BF042204210022042155E7000031
:103FA00008ED00E004200D4008300D4000B00D4049
:103FB00000900D407E75002080B500F06BFDFFF78E
:103FC0005BFC00F0F1F901F061FA00F01DF8BDE8CA
:103FD0000140FFF77DBA80B5FFF756F918B9FFF732
:103FE0004FF9FFF7D1FE0648007818B901F074FACE
:103FF000FFF74AFCFFF784FABDE8014000F0B4BACD
:104000007A43002070470000DFF878030021017038
:10401000C171704738B5DFF86C430546207808B1A8
:10402000FFF7B2FE01202070DFF85C03007808B1D2
:104030001D205EE0022D657002D102F097F81BE0B2
:10404000002D1CBF012DFFF79FFEDFF840136278A3
:10405000002020710968CE48897D49064CBF90F840
:10406000461090F8251022B9C07810B10329A8BFD6
:104070000221A17000F046F8E079B8B9C34D286874
:1040800008B9FFF781FE2868C24B41680A7802F040
:104090002002A2718A786271027A481E911C017016
:1040A000EE211960511CC9B201F0CEF9BA4DFFF7EB
:1040B000EBF8BA492A78097800F00100114380F042
:1040C00001001AD18321217008B1FFF7D9F8B44853
:1040D00001684908490001600020287060780228C2
:1040E00000D159E040B9FCF7B7FEE178814203D333
:1040F0001C20BDE8324024E152E00221217000B1D1
:1041000052E031BD80B5FFF7CCFB9E4991F90230FA
:1041100001229A40521E1040C870487818B9BDE874
:10412000014001F0A6BFBDE8014001F06CBF954819
:104130000121C17140786DE738B5974C97482178D7
:104140000078084318BFFFF71FFE8E4DFFF79CF85D
:10415000297800F00100022980F0010019D18321A3
:10416000297008B1FFF78CF88D48016849084900AB
:104170000160002020706878022800D10CE038B976
:10418000FCF76AFEE978814202D3BDE832404AE09A
:1041900006E000B108E031BDBDE8314002F010B8E2
:1041A000BDE8314001F0AFBFBDE83140FFF768B86E
:1041B00010B5744C607801001CBF0128FFF7E4FDC6
:1041C0000420207000F06CF920797649401C2071A1
:1041D000C0B20A7882420DD20020E071207000F057
:1041E0005FF9FFF787FBFFF7B9FBBDE81040E1205F
:1041F000FCF79CBE487BA1784A1C8242B8BF481C91
:10420000A070FFF77FFF83202070607838B9FCF73B
:1042100023FEE178814202D3BDE8104003E0BDE80F
:10422000104001F070BF1C208BE038B5FFF72CF870
:1042300000F00100534D80F001042878832818D144
:10424000A87990B9852028700CB1FFF719F80020E3
:10425000E871287000F024F9FFF74CFBFFF77EFBB4
:10426000BDE832400020FCF761BE8620287001F0D6
:10427000F7FF04B198E731BDF8B505460E46FFF7E4
:1042800003F800F001003F4C80F0010720788628F9
:104290002ED18720207002F051F80FB1FEF7F0FF09
:1042A0006079854216D156B10020E071207000F08F
:1042B000F7F8FFF71FFBFFF751FB1B2014E000206E
:1042C000E071207000F0ECF8FFF714FBFFF746FBFD
:1042D000002009E00020E071207000F0E1F8FFF715
:1042E00009FBFFF73BFBE920BDE8F240FCF71EBEEF
:1042F0001FB1BDE8F140FEF7C3BFF1BD38B5FEF711
:10430000C3FF00F001001F4D80F0010428788628CB
:1043100014D18720287002F011F80CB1FEF7B0FF1D
:104320000020E871287000F0BBF8FFF7E3FAFFF710
:1043300015FBBDE83240E920FCF7F8BD04B133E7D6
:1043400031BD10B504460F480021C171017000F065
:10435000A7F8FFF7CFFAFFF701FB2046BDE81040B2
:10436000FCF7E4BD10B5094C206808B9FFF70CFD57
:10437000FFF70FF92168C86000F042FC216808824D
:1043800010BD0000AC7400207A430020AC42002035
:10439000BC6E002038880840A2730020A073002063
:1043A00090860840E06E002067480021417001704F
:1043B000704770B5060008BFFFF7E6FCFEF764FF24
:1043C00000F00100604D80F00104687830436870AF
:1043D000FEF75AFF00F00100297880F0010021B9B2
:1043E00001212970E321594A116008B1FEF748FF05
:1043F00004B1B5E070BD10B5040008BFFFF7C4FC00
:10440000FEF742FF50494A7822434A7000B961E002
:1044100010BD10B5040008BFFFF7B6FCFEF734FF6F
:1044200049494A7884F0FF031A404A7008B9FEF7F8
:1044300027FFBDE8104033E080B5FEF725FF424975
:1044400000224A700A70EF2240490A60ED220A6099
:104450000A6008B9FEF714FFBDE8014001F04CB84E
:1044600038B5FEF711FF00F00100374D80F0010470
:10447000687878B1FEF708FF00F00100297880F035
:10448000010021B901212970E321304A116008B1EE
:10449000FEF7F6FE1CB1BDE83140FEF7F1BE31BDBE
:1044A00010B5FEF7F1FE00F0010080F0010426488F
:1044B000407860B926480078000608D4254800787E
:1044C00028B925480078000658BF00F01CF804B150
:1044D00000E010BDBDE81040FEF7D2BE80B5FEF78B
:1044E000D3FE19490A7800F0010080F0010022B9DA
:1044F00001220A70E321154A116018B1BDE801409C
:10450000FEF7BEBE01BD70B5FEF7BEFE00F00100B5
:1045100080F001040C48017899B100210170EF206E
:104520000E4D6860ED2068606860FEF7ADFE0646DF
:104530002A20FEF72DFF6FF0040028600EB9FEF769
:104540009FFE04B10CE070BD2E7400203888084036
:10455000A0730020A2730020AC74002034880840AF
:10456000BDE87040FEF78CBE38B5314C20780100B4
:1045700021D0304D29680903FBD52F490A6842F044
:1045800003020A600A685207FCD5022804D101F030
:104590001BFF00F089FF08E0012818BFFFF7F4FBBC
:1045A0002868000358BFFFF7EFFB00202070BDE82C
:1045B0003140FFF755BF31BD70B50446FEF764FECC
:1045C00000F001001A4E80F00105307808B1FFF7C5
:1045D000DBFB1A48007808B1FFF7D6FB18481949E9
:1045E0000078097808431849097808431749097879
:1045F000084304D00DB1FEF743FE002070BDFFF765
:1046000082FF34700DB1FEF73BFE0B48016849088C
:104610004900016001684907FCD4012C05D0022C37
:1046200018BFFFF7B1FB01F0FEFE012070BD0000D6
:104630007A43002004200D4004880840A173002024
:10464000A0730020A2730020AC7400202F740020FF
:1046500062F30F2262F31F42401810F0030308D0E8
:10466000C91A1FD3DB0748BF00F8012D28BF20F867
:10467000022D130030B414461546103928BF20E926
:104680003C00FAD8490728BF20E90C0048BF40F891
:10469000042D890028BF20F8022D48BF00F8012D05
:1046A00030BC7047C91818BF00F8012DCB0728BFD0
:1046B00000F8012D7047000080B528B9FF20FEF7F3
:1046C00045FC0021002004E00F49002008700FF293
:1046D0000D01BDE8044001F0B9BE000038B50B4D36
:1046E00004462878FF280ED00420FEF7BBFA50B10C
:1046F000C0210170C4700021817001462878BDE896
:104700003440FEF7D0BA31BD877500207C430020CD
:1047100000F068BA70470000824900204860704786
:10472000F8B5804C074620680D46164600E0006844
:1047300038B10189A94204BF817AB942F7D14660F4
:10474000F2BD1020FEF7B6FC70B18772058146609D
:1047500000210160C160216811B92060F2BD1146DD
:104760000A68002AFBD10860F2BDF8B504460D4680
:104770001646FEF789FD0746324629462046FFF7D2
:10478000CFFF04460FB9FEF77BFD0CB10020F2BD50
:104790000820F2BDF8B504460D461646FEF774FD36
:1047A00000F0010080F00107324629462046FFF75D
:1047B000B7FF040018BFE6600FB1FEF761FD0CB152
:1047C0000020F2BD0820F2BD70B504460D46FEF78C
:1047D0005BFD54490E6800F0010080F0010000E02C
:1047E00036683EB13189A94204BFB17AA142F7D1FE
:1047F0000021318108B1FEF743FD0EB1002070BDEC
:10480000062070BD70B504460E46FEF73DFD00F073
:104810000100002580F001004249096831B10A8990
:10482000B24204BF8A7AA242F7D14D6808B1FEF7BE
:1048300027FD284670BD2DE9F14781B0FEF724FD24
:10484000384C019A61685118616008B9FEF718FD8B
:104850002768002F52D09DF80580BDF806A00025DE
:10486000FEF712FD00F00100002680F001095FEA6A
:104870000A0008BF5FEA080007D138799DF80420D4
:10488000904202D3801A387106E07868019981421B
:104890003ABF401A78607E60B88858B9F88858B92D
:1048A000F86868B1398908000AD0B87AFEF723FBA6
:1048B000F8687860B88808B9F88808B1388930B9DC
:1048C0003868002D0CBF206028603E4600E03D4661
:1048D0003F68B9F1000F18BFFEF7D2FC66B1B0888F
:1048E000002804BFF088002803D13189B07AFEF790
:1048F00002FB3046FEF742FC002FB1D1BDE8F38742
:104900000848016841B108484A680968824298BF6E
:1049100010460029F8D170470020704701484068D0
:1049200070470000CC7400208EC2F5281848002182
:10493000817101807047164988717047154B1B784B
:10494000984201D303207047114A13884FF0010C9D
:104950000CFA00F000290CBF23EA00001843108075
:10496000002070470A48817901B9704738B500883E
:1049700068B9FEF789FC0446FFF7C2FF05460CB98B
:10498000FEF77EFC2846BDE8324001F06BBD31BD2C
:10499000C4740020A076210080B51020FEF78AFBA9
:1049A0000F49086010220021FEF732F90020FDF7C0
:1049B0003DF9012001F088FE022000F013F80320E9
:1049C00003F05EFA042003F025FE052004F032F91E
:1049D000062004F0A3FFBDE80240072005F0E2B97D
:1049E0002875002024490870704705F031BD38B59E
:1049F0000C4620040BD5204D01E0FEF745F9287840
:104A0000FEF79EF90028F8D184F4004032BDA006DC
:104A100002D584F0200032BDE00602D584F01000FB
:104A200032BD600704D501F034FE84F0040032BDCD
:104A3000A00710D5104D28780121FFF77FFF2878B7
:104A40000121FFF7C1FE28780121FEF765FA4FF634
:104A5000FC70204032BDE00707D5074800780021F0
:104A6000FFF76CFF84F0010032BD002032BD034926
:104A700001200870704700007F75002078430020F7
:104A8000EFF3108072B67047EFF3108062B6704794
:104A900030BF7047F0B5DFF8480489B014210160D9
:104AA0003F2181605521C1608521DFF83844DFF85E
:104AB0003854DFF83864DFF82474E167012141617C
:104AC000152141620021A967102101630E21416374
:104AD000032181630920706504210B200860802177
:104AE000FF2030602A20FEF7E9FB80212B20FEF713
:104AF000E5FB2A20FEF7F4FB2B20FEF7F1FB8021DB
:104B00003120FEF7DBFBDFF8E8030068000C3860BB
:104B1000FEF7BAFB0221F1670022DFF8D8130A6022
:104B200028224A6008B9FEF7ABFBDFF8CC03006827
:104B30000003FAD5306F40F003003067306F400754
:104B4000FCD5306F40F00A0030673120FEF7C8FB1B
:104B500048202060FFF7C2FC206CC007FCD5002075
:104B60001021A26F52084041491E80B2F9D100289D
:104B700014BFB0F5607F4BF6BE20DFF8801300F065
:104B8000FF020A6000120860796808000ED06846CB
:104B9000202200230826A76F7F085B41761EFAD1EA
:104BA000521E00F8013BF4D168468847FFF7ABFC82
:104BB00040202060206840F0200020600020286015
:104BC0006860A860E8602861686109B0F0BDDFF83E
:104BD0003003016821F00C0141F00401016080699B
:104BE000C0B27047DFF81803016821F00C0141F0F2
:104BF000040101608169406900EB012080B27047C7
:104C000010B5FEF741FBDFF8FC1201220A608A684A
:104C1000496841EA022408B9FEF732FBA0B210BD90
:104C200080B5FEF731FBDFF8DC1200220A604A682B
:104C300005E080B5FEF728FBB24910220A604A69F8
:104C40008DF800200A698DF80120C9688DF80210DE
:104C500000218DF8031008B9FEF712FB009802BD81
:104C600001B5000E18BFFFF78FF8FFF7D9FFA6496F
:104C7000CA688018009A801AC860FEF705FBA1492F
:104C800000220A609DF800204A619DF801200A6117
:104C90009DF80220CA6018B9BDE80140FEF7F0BADD
:104CA00001BD11B5002481B0000E18BFFFF76CF8EC
:104CB000FEF7EAFA95490A6800F00100D20680F092
:104CC000010004D50A6822F0100201240A60302293
:104CD0008A609DF80420CA619DF805208A619DF8CC
:104CE00006204A616FF010024A601CB10A6842F067
:104CF00010020A6000B12DE013BD11B5002481B08F
:104D0000000E18BFFFF740F8FEF7BEFA7F490A68A9
:104D100000F00100120780F0010004D50A6822F0BB
:104D2000080201240A6020228A609DF80420CA61DA
:104D30009DF805208A619DF806204A614A6822F0A4
:104D400008024A601CB10A6842F008020A6000B119
:104D500000E013BDBDE81340FEF792BA38B56B4CC6
:104D60002068616800EA0105E80604D5FEF74EFCFC
:104D70006FF010006060280704D5FEF749FC6FF063
:104D800008000DE0E8070CD561486249006891F918
:104D9000002043B29A42B8BF1A460A706FF0010071
:104DA00060605D490020087031BD10B5574C82B07D
:104DB0002068C0061FD56068C0061CD4FEF764FAE0
:104DC0003021A160E1698DF80010A1698DF8011012
:104DD00061698DF8021000218DF8031008B9FEF703
:104DE0004FFAFFF71DFF0099814204D2FEF70EFC37
:104DF0006FF01000606013BD70B5484C484D666C94
:104E00002A20FEF7C5FA28683040000705D56FF064
:104E10000800286001F09DFA13E028683040C006C1
:104E200005D56FF01000286001F09AFA09E02868B3
:104E30003040C00705D5606C40084000606400F059
:104E400049FE206C69680840400707D500F08DFBDB
:104E50006FF00400686020684006F7D42E490020F7
:104E6000087070BD80B52F482F4900680A6810404F
:104E7000400704D56FF00400086000F09AFE264950
:104E80000020087001BD23496FF07F0008701F48A3
:104E9000016841F00101016070471C480168490840
:104EA000490001601B4890F90000704738B5FEF7D3
:104EB000EBF900F00100144D80F00104287828B9C6
:104EC000FEF7ADFBE9684018E86001E000202870BB
:104ED0001CB1BDE83140FEF7D3B931BDA474002048
:104EE000A48608402486084090850840948708409E
:104EF000F80F28001488084004200D4014700D405D
:104F000000700D4010880840307400200888084068
:104F10006086084083750020784300204C86084056
:104F200030880840948608402C880840DFF8C81470
:104F300000200860704780B502F04CFF78B9DFF8B8
:104F4000B804006800E0406848B1417B0129FAD10B
:104F5000016800291CBFBDE8024001F048BD01BD49
:104F6000DFF89414096800200A4604E0537B042B00
:104F700008BF401C5268002AF8D1DFF8802412785C
:104F8000C0B282420BD3002001E04968401C0029D6
:104F9000FBD1DFF86C140978C0B2814201D2012044
:104FA0007047002070472DE9F0410746DFF848249C
:104FB00016680C46397B002500E07668002E1CBF81
:104FC000327B8A42F9D14FF00108FEB97A893868FC
:104FD00000F0CAF8060031D03581387C307407F112
:104FE000100006F01BF970614FF67F41388B30835B
:104FF000012570890840708141074FBF40F0800053
:10500000DFF80014097840EAC11070817089C10985
:1050100001F00701A4B1022272733268927B520739
:1050200003D5DFF8E423128A328161B34FF67F4261
:105030001040491E40EAC110708124E0A84632E0C9
:1050400011B94FF000081EE0810605D5FDF708FEF6
:1050500000F07F005F3008E0C00605D5FDF700FED8
:1050600000F00F000A3000E001203081042070734E
:105070002021DFF898432078FFF7C4FB18B9207887
:105080002021FDF738FF75B13289717B304600F081
:105090007EF840B1706908B1FEF770F83046FEF74F
:1050A0006DF84FF000084046BDE8F08170B5DFF8BC
:1050B00048432268014684B0002000E05268002A7C
:1050C0003DD0137B8B42F9D1517B062937D1106833
:1050D0005589007A8DF8080010680088ADF8000046
:1050E000104600F0F4F8280528D5BDF8001000207F
:1050F00000F027F810BBDFF81053A98C00A807F0C8
:10510000F5FD246800E0646814B160890005FAD5F3
:105110004FF6FF767CB120680188B1420ED0A98C91
:1051200007F0E2FD1A2809D06468002CF2D06089EB
:105130000005F9D5EEE7002007F0DAFD012004B004
:1051400070BD18B9DFF8B002006800E0406840B1F7
:1051500042891205FAD500291EBF026812888A42C8
:10516000F4D170470120704770B504460D461646CD
:105170001C20FDF79FFF48B1002141730573468154
:1051800001818173C17304604161416070BD38B5B4
:10519000002843D0012910D1974C2468002304E053
:1051A000657B012D08BF5B1C6468002CF8D1984C0E
:1051B0002478DBB29C4216D211E0042911D18E4C26
:1051C0002468002304E0657B042D08BF5B1C646831
:1051D000002CF8D1894C2478DBB29C4203D21120F8
:1051E00032BD02291AD141730281002141608249F6
:1051F0000A6832B100E00A4651680029FBD15060CC
:1052000000E00860814C20782021FFF7FBFA18B9F4
:1052100020782021FDF76FFE002032BDC12032BD75
:1052200010B97548006800E0406838B1437B8B4294
:10523000FAD11AB103689B7B5B07F5D470476E49BE
:10524000096800E0496821B10A7B8242FAD1084628
:105250007047002070476849096800E0496861B1FB
:105260000A6813888342F9D1126A1378527803EBE3
:105270000222D205F2D40846704700207047F8B5E4
:10528000044600260D4620000AD05B48076800E06F
:105290007F682FB129463846A0470128F8D13E46FD
:1052A0003046F2BD0020704753490A6813464FF05C
:1052B000000C01E09C465B6843B18342FAD1586818
:1052C000934201D108607047CCF80400704710B5D4
:1052D000040011D0FFF7E8FF2068006AFDF74EFFD9
:1052E0002068FDF74BFF606908B1FDF747FF2046D6
:1052F000BDE81040FDF742BF10BD38B501683E4A19
:10530000098812680023002409E0557B052D01BFA0
:10531000641C15682D888D4208BF5B1C5268002AEA
:10532000F3D13C490978DBB28B423FBF3A49097857
:10533000E4B28C422EBF01213349098A01814FF624
:10534000FF7205214173418941F400614181006888
:105350000188914205D02C49898C07F0C5FC1A2898
:1053600004D1BDE83240012007F0C2BC31BD10B508
:1053700050B150F8081C002902BFA0F108018A7939
:10538000FF2A03D0FDF780FC052010BD1F4C2278BA
:105390008A7122490A7801462148FDF78BFD0128D0
:1053A00006D120784FF40051FDF7A5FD002010BD77
:1053B000042010BD70B5FDF767FF194D2E6800F091
:1053C000010080F001048EB1104856F8081C0078E6
:1053D00000294FF4005102D0FDF78DFD01E0FDF7EB
:1053E0009BFD002231462846FDF747FD0CB1FDF735
:1053F00047FF304670BD0000707500200275210027
:10540000037521007F430020486F00207A7500203B
:105410000175210005752100067521001175210017
:1054200074750020130005D011F8013B40F8043BCF
:10543000521EF9D17047130005D050F8043B01F813
:10544000013B521EF9D1704738B504460D0008BF24
:10545000FEF79AFC14F8010B0B4908606D1EE8B2C8
:105460000028F7D131BD38B504460D0008BFFEF75E
:105470008BFC0548006804F8010B6D1EE8B200289B
:10548000F7D131BD0000000028880840DFF8400750
:105490000021C172416181800FF2F501016100219B
:1054A000817181818173704738B5DFF82847052005
:1054B0002060FDF7E9FE05462A20FDF769FFDFF8C9
:1054C00018176FF0040008600DB9FDF7D9FEE06B06
:1054D00040F00400E06331BD80B5FEF7ADFFDFF8BA
:1054E000F00600214171C172DFF8F0060160016829
:1054F00041F00901016001BD10B5DFF8D4465DE35C
:1055000038B5DFF8D006DFF8D046016C490849000D
:10551000016405210160ED2060606060FDF7B4FE6C
:1055200005462A20FDF734FF6FF0040020600DB916
:10553000FDF7A6FEDFF89846606918B104F1140083
:10554000FBF7F8FB0FF24900A179206120790843AD
:105550000AD000202071A071FEF7A2FFFEF7CAF961
:10556000BDE83140FEF7E8BD31BD10B5DFF860465B
:10557000607B58B901202073206980470020207388
:10558000607B18B1FFF7BCFF0020607310BD000006
:105590002DE9F84FDFF838462079002708B1FEF7EB
:1055A000F3FB81202071DFF83806007838B1DFF88E
:1055B0003456686A000604D4686A400601D427712C
:1055C000B4E000F035FEA86E40084000A866A77160
:1055D00004216079A0722046FFF745FF207800F093
:1055E0007F00C01EE071C0B27D28BEBF607800F0B1
:1055F0000701042980F2878000F00700022804BF19
:10560000E07A002855D16846FFF72DFFFDF73CFEF4
:1056100000F0010080F00106DFF8CC050078862854
:1056200038D1DFF8C895D9F8000008B9FEF7ACFB0F
:10563000DFF8BC25DFF8BC1512789DF9000002F0F8
:105640000F02895C0818A0F149089DF8010000F0DC
:105650007F0A51464FFA88F0FEF70AFAD9F800108F
:105660004877D9F8000080F81EA0D9F8000080F82B
:105670001F800EB1FDF704FE9DF80100000606D55F
:10568000607800F01001E078FEF7F6FD05E0FEF727
:1056900035FE02E00EB1FDF7F3FD686A400640D525
:1056A000686A00063DD4DFF85005ED218160816015
:1056B00037E0DFF834050078862808BFFEF71EFEC5
:1056C000A07A010010D0E17A71B901285DD00228DA
:1056D00003D161780722114257D1032804D16078A1
:1056E00000F00700032850D1A078C0F381094FEAE9
:1056F0009018DFF80805006800BBB8F1010F18BF6B
:10570000B9F1010F1AD1DFF8F004ED218160816059
:10571000696A490605D5696A090602D4ED218160E6
:1057200081602771A079002840F0D680FEF7B8FE8E
:10573000FEF7E0F8FEF700FDBDE8F18F0FF2D04074
:1057400010F8091010F808004618B8F1000FF6B26A
:1057500004D06078400644BFB61EF6B2E079B11CB2
:10576000884212DB801B801E61786072090748BF87
:105770002527C0B2C0194C3080B2FBF7C9FA60616E
:1057800038B9DFF87414E820886000F0B2F9BDE899
:10579000F18FE07A002718B9607800F02000A0713E
:1057A000A079A0B3FDF770FD00F0010080F0010AC0
:1057B000607800F0070003280CD1FBF792FA00286C
:1057C00073D1DFF83C04007800286AD007F0C4FBEE
:1057D000FE286AD0286820F004002860FDF754FDF8
:1057E00083462A20FDF7D4FDDFF80C146FF001008A
:1057F0000860BBF1000F08BFFDF742FDA86E40F046
:105800000100A866BAF1000F18BFFDF739FD606905
:1058100000F14C0141600164617A01726069017AB2
:1058200080F844106078000710D56169032081F882
:105830004400611C6069403002790068FDF7D4F9CA
:10584000606950F8401F027911440160606980F876
:105850002480606980F82E90FFF7EBF96169086396
:10586000FFF7CEF961698886607800F00700087359
:105870006169E07881F83D006178A078C0F301109B
:1058800001F078010843616938438873D6B9617AB9
:105890000FF201100A000DD10120A8620FF2391099
:1058A00019E0FBF70FFA002894D02868042740F08D
:1058B000040092E71029A8BF10212172217A491E05
:1058C000A96208E026726178207A090758BF401E55
:1058D000A8620FF209002061BDE8F18F30B5BC4C21
:1058E000207A85B008B9FEF74FFA217A6846FFF7AB
:1058F000BAFDA0786946C0F38100C8B162699DF81D
:1059000000304D7803EB052313870328138FD386CC
:1059100008D10DF1020102F12600FDF7A9FC0DF1FD
:105920000A0105E08878C97800EB0120D08401A93C
:10593000A078800915D06269937B5B0605D40B784B
:105940004D7803EB0523D386891C032804D102F18B
:105950001C00FDF78DFC04E00878497800EB01207D
:10596000908300206169C875617A0FF229000A00EE
:1059700005D19849012008600FF25D0007E0102969
:10598000A8BF10212172934A217A491E116020611B
:1059900005B030BD10B58E4C6069217A006CFFF700
:1059A00062FD6169207A0A6C02440A64617A081A0D
:1059B0006072C1B231B98749012008600FF2190045
:1059C000206110BDC0B21028A8BF102020728149EC
:1059D000207A401E086010BD2DE9F0417C4D022167
:1059E0002846FFF740FD6878002410F0800602D1B9
:1059F000E87A022845D102202871FEF751FD7C4A41
:105A00007C491278285702F00F02895C0818A0F12F
:105A10004907687800F07F08414678B2FEF728F819
:105A2000696981F83A00686980F83C70686980F8B3
:105A30003B806869011D00F14C02CA6390F8440084
:105A40000B790A68C01A10440860897A490707D59B
:105A50000078042804D06348016821F00401016043
:105A60006748007818B107F07EFA00B1042468692D
:105A7000817B44EA0602114381736869FBF77CF974
:105A800009E05848816E490849008166AC7105F10A
:105A90001400FBF74FF9002068610521514881622D
:105AA00058492961416A490606D5406A000603D46F
:105AB0005548ED210160016000202871A87938B9AE
:105AC000FEF7EEFCFDF716FFBDE8F041FEF734BB34
:105AD000BDE8F08180B53E4800218171007938B978
