:020000040020DA
:1000000084620020C90F2100FD0F2100FF0F210095
:10001000011021000110210001102100000000004A
:10002000000000000000000000000000011021009E
:10003000011021000000000001102100490E2100E4
:10004000F90F210001102100F90F210001102100FA
:100050000000000001102100018720000110210094
:10006000011021000000000000000000000000005E
:10007000000000000000000001102100000000004E
:10008000000000000000000001102100011021000C
:100090000110210001102100011021000110210098
:1000A0000110210001102100054A2000714A2000A2
:1000B0000110210001102100011021000110210078
:1000C000055A20006949200001102100011021007B
:1000D00001102100000000000000000000000000EE
:1000E0000000000000000000000000000000000010
:1000F000011021000000000001102100011021006A
:1001000010B5DFF8004B0FF2B520606782B00FF238
:100110009920A06706E0204602F0E0F8009000A8D1
:1001200001F08DF820680028F5D1606838B1201DF5
:1001300002F0D4F8009000A801F081F8F5E7206003
:10014000A072E072207313BD38B504460FF2380078
:10015000255C284601F0E0FF20B12918416000210C
:10016000017232BD022001F0D7FF50B10FF2B4216D
:10017000615C01701A2141700146A648007801F0C7
:10018000ECFF002032BD0000004246484045453F9C
:10019000354D3600821DD2B2C90711D50A2192FB16
:1001A000F1F101EB8103A2EB4301C9B241B10A3283
:1001B000521AD2B20529A4BF0A32D2B20B32D2B23D
:1001C0001328ACBF142006208018C0B209300A21C1
:1001D00090FBF1F0C0B2704780B5DFF8280A007ECE
:1001E000800706D502F07AFA401E8041C043C00F56
:1001F00002BD002002BDDFF80C0A017E89070FD581
:10020000807A58B9DFF8000AC06D48B1407E00F02E
:100210008001481E8041C043C00F704701207047D5
:1002200000207047DFF8DC19DFF8D029097B9278CD
:10023000914238BF01F070BF0020704738B504000C
:1002400008BF02F07DFA02F0A9FB00F0010021686E
:1002500080F0010561B1DFF8AC295369A1F1080014
:100260008B4204BF002151610021216002F034FD66
:100270000DB102F08FFB002032BD000011B581B03E
:10028000007B20B101282CD003282CD03EE0DFF8E1
:100290007049607B0F281EBFDFF86809807E032845
:1002A00004D0DFF864190198496E8847019994F8E1
:1002B0003A008873142001990870DFF848490199C1
:1002C000201D01F0F1FF02F069FB217B491C217325
:1002D00008B902F05FFB20214E48007802F059F87F
:1002E00013BD1520E7E70198007A78B101994A68B3
:1002F000521C4A6012F8011D019A5173019A01992A
:10030000D27D497B32B109B10A2912DB01A800F084
:1003100096FF13BD0A0008D00A2A06DA0FF2300150
:10032000511811F8011C884203D0082A08BF082878
:10033000ECD10199401E087201980199407B0A3066
:10034000087001980199407B401C4873B5E7000094
:10035000020402010101010902000000DFF8A40803
:10036000C06F010018BF00470020704738B5044631
:100370000120207504F1140104F1380042884A80FC
:100380000279CA7104F12C024079087220464B8C24
:1003900094F8381000F0CCFF050004BF204600F0B0
:1003A0001EF9284632BD0000DFF85808807E032879
:1003B00001D001207047202070470000417E41F0AD
:1003C000010141767047017D027E012904D11307A6
:1003D0005CBF417800F0F8BD530603D50D49407865
:1003E000896D0847012903D1120748BF30210BD47A
:1003F00042781B2A08BF222106D0002A0CBF0FF228
:1004000018020FF22002895C017001460148007851
:1004100001F0A3BEC4680020303016181920231A3A
:100420001C1E3000303017181921301B1D1F3000E2
:1004300038B5DFF8D4470546E06D002876D025B101
:100440001B2D05D1017D052956D00021417055E0B5
:10045000E92D2BD1807E30B902F042F918B1E06D60
:10046000807D40072BD5EE2002F090FCE06D817E70
:10047000002942D0827D520705D4491E8176BDE80D
:10048000314002F018BD017E01F07F010176E06D80
:10049000017D032903D1417E41F004014176ED2025
:1004A00002F074FCE06D216E88472AE0E12D1CD13A
:1004B00002F016F900B3E06D807D40071CD4DFF830
:1004C0004007E26D00F12201897C9176E26D90F89F
:1004D00022105268917090F82210491C80F8221066
:1004E0000120BDE8324002F059BC1C2D04D1A16EA0
:1004F00088470020E06531BDE06D4570E06DFFF795
:1005000062FFE06D807D000609D5DFF8F40600F299
:100510002205287E02F074FEE87D02F03AFE0020FB
:10052000E0651021BDE8344000F0E2BC31BD0000C0
:100530002DE9F041002402F031FA00F00100DFF86B
:10054000C85680F00108E86D90BBDFF8B876B86F48
:1005500080473E6840F0100002E0344656F8086CD0
:1005600036B3717E01408142F7D12246314638468A
:1005700001F0D1FEEE65707E000620D4F87A401EB0
:10058000F872B8F1000F18BF02F004FAEC6DE18ABE
:10059000207AFFF7FFFD3881A07D000613D5E07EAD
:1005A00002F02EFEE86D007FBDE8F04102F0F1BDE3
:1005B000B8F1000F11D0BDE8F04102F0EBB9B87A04
:1005C000401EB872DDE7207EBDE8F041400800F033
:1005D000010080F0010002F0E1BBBDE8F08138B518
:1005E000DFF8205604466869A04204BF0020686115
:1005F000207E000706D4207D012803D1DFF8FC050A
:10060000027802E0DFF8F40542782146284601F03E
:100610009FFEC0B1696F20468847A07D40070DD47A
:1006200002F0BCF9E97A491CE97208B902F0B2F9A2
:10063000E08AC0050DD4BDE8314079E7296F204636
:10064000BDE834400847F12060702046BDE83240E4
:10065000B9E631BD6CE710B5DFF8A815098B044683
:1006600000208A0705D404F134029279520748BF6A
:10067000E8206022114205D104F13401897989070B
:1006800048BFE820DFF8481C227A8979914238BFB8
:10069000E82004F134010979002902BF94F83410EC
:1006A0000029F52004D010B92046FFF75FFE28B1DD
:1006B00001462046BDE8104000F086BC10BD000099
:1006C0000D21017001F018BF00B585B00021017047
:1006D0004170DFF8281590F83A300978DFF82425C2
:1006E0005B0715D4D27A8A4215D30C218DF80010FD
:1006F000019090F839108DF80210C16802910C3009
:100700008188ADF80C10817AC9060CD5002110E063
:10071000927A8A42E9D20146DFF8D80B007801F0DC
:100720001CFD05B000BDDFF8D417827B91F83410B2
:10073000891A8DF80E10417C8DF80F10817C8DF890
:100740001010C07C8DF81100F1208DF8010000A878
:1007500001F0D2FE05B000BD10B5044604F158000A
:1007600080B201F0D9FC18B1047200F15801416067
:1007700010BDDFF8840B0FF25511016002220FF259
:100780008D4141600FF2C51181600FF22121C160DE
:100790000FF2E93101610FF2553141610FF215316C
:1007A00081610FF2F941C1610FF21D5101620FF237
:1007B0008D5141620FF2F15181620FF25121C162FC
:1007C0000FF2C10101630FF2910141630FF2713128
:1007D00081630FF2B951C163DFF8441B01640FF26A
:1007E000DD5141640FF2316181640021DFF8340B87
:1007F00080F85C1080F85F100FF2F161C1633C304B
:100800000161027101210175704730B50446251D53
:1008100083B00120688204F12E010220287400A810
:1008200002F0C1FD6068AB8E401E606000AA616886
:1008300094F83A00087083212879401C28712046DA
:1008400000F076FD050004BF2046FFF7C8FE2846ED
:1008500003B030BD0000000038B5DFF8A403DFF8B6
:10086000C45A90F8350000EB40010C0102F00DFE77
:100870000019A86405F14400BDE83440DFF8AC1A63
:1008800001F090BB30B5DE4C607B93B00F2807D0F1
:100890002E208DF8000000A800F0D1FB13B030BD71
:1008A000DFF8805A05F1340001F0AAFB608E1421B4
:1008B000B0FBF1F402F0E9FD0019A86305F1340082
:1008C000DFF8681A01F06EFB13B030BD10B50446B6
:1008D000607888BB94F8361002291CBF0329E820F1
:1008E00094F82B100B39122928BFE82025D218BB09
:1008F00004F12B01E12002F070FE04F138015020D8
:1009000002F06BFE94F83610BD48022902D1E18D49
:10091000018407E04FF6FE710184163004F12E01C8
:1009200002F061FD0B2204F12001DFF8FC0901F067
:10093000B5FB2046FFF769FF30B1607017202070CB
:100940002046BDE810407AE310BD000070B5DFF826
:10095000D44994F85F0084B028BB012084F85F007C
:1009600002F095FF00A800F0B5FC04F15401A44882
:10097000C58C0520FFF7E8FB060014D00120F082AB
:100980000B220520307504F1540106F1200001F01E
:1009900085FB2B4600AA0321304600F0C9FC10B9A4
:1009A0003046FFF71CFE04B070BD000010B50446D1
:1009B00082B0012002F079FF2078202804BFEB20CC
:1009C0006070DFF8600990F85F104A0744BF01F0DB
:1009D000FB0180F85F1090F85F108A0710D501F0D6
:1009E000FD0180F85F100A2160788DF801008DF814
:1009F000001000208DF8020000A801F07DFD13BD5D
:100A00002A202070204600F01AFB13BD70B5054661
:100A100086B0012002F049FFDFF8084904F13400F4
:100A200001F0EEFA04F1440001F0EAFA6868017896
:100A3000427801EB0221ADF80410867846B901A98D
:100A4000532002F0CAFD05F11C014A2002F0C5FD49
:100A50000B2205F10F0104F1540001F01FFBBDF85A
:100A600004008DF8096002218DF808100EB14FF6D0
:100A7000FF70ADF80A000B2204F1540103A801F045
:100A80000DFB02A801F038FD94F85F0080070BD53C
:100A900068788DF801000A2100208DF802008DF899
:100AA000001000A801F028FD002084F85F0006B0C7
:100AB00070BD000010B5044682B0EB206070DFF816
:100AC000640890F85F0080070BD50A208DF80000BD
:100AD000EB208DF8010000208DF8020000A801F045
:100AE0000BFD204600F002F813BD000030B50546AE
:100AF00085B0012002F0D9FEDFF8284804F1340067
:100B000001F07EFA04F1440001F07AFA002084F842
:100B10005C0084F85F000B2202208DF8000004F1D5
:100B2000540168788DF801004FF6FF70ADF80200AF
:100B300001A801F0B3FA00A801F0DEFC05B030BD59
:100B400010B5044682B0EB206070DFF8D80790F84B
:100B50005F0080070BD50A208DF80000EB208DF890
:100B6000010000208DF8020000A801F0C5FC20461D
:100B7000FFF7BCFF204600F02DFE13BD10B5044664
:100B800082B0012002F091FE207A002814BF0020DC
:100B9000EB206070DFF88C0790F85F104A0744BFC5
:100BA00001F0FB0180F85F1090F85F108A0716D5FE
:100BB00001F0FD0180F85F10A07B00F0100001281B
:100BC000ACBF0120002061788DF802000A228DF868
:100BD00000208DF8011000A801F08EFC08E0C80785
:100BE00006D52A202070EB206070204600F027FAFE
:100BF0000D202070204601F07FFC13BD181121004C
:100C0000E0660020BC4100203C4100202DE9F84373
:100C10000446DFF8100790F85F1041F0020180F8F9
:100C20005F10012002F033FE607840BBB348408D76
:100C30004FF6FE718842ACBF0325022504F110086F
:100C4000B4F80E901A2641460520FFF77DFA0700FA
:100C500014D00120F8820B2205203875414607F197
:100C6000200001F01BFA4B46221D2946384600F0B1
:100C70005FFB060004BF3846FFF7B1FC6670607882
:100C800050B18DF801000A2100208DF802008DF886
:100C9000001000A801F030FCBDE8F18310B5044657
:100CA00082B0012002F001FE2078202804BFEB2052
:100CB0006070DFF8700690F85F104A0744BF01F0DB
:100CC000FB0180F85F104BE038B50446012002F0CC
:100CD000ECFDDFF8505605F1340001F091F9207A6F
:100CE000002814BF0020EB20607095F85F004107DA
:100CF00044BF00F0FB0085F85F0095F85F008107B6
:100D000015D500F0FD0085F85F00A07B00F0100015
:100D10000128ACBF0120002061788DF802000A2272
:100D20008DF800208DF8011000A801F0E5FB0D20E2
:100D30002070204601F0E0FB31BD000010B50446F4
:100D400082B0012002F0B1FDEB206070DFF8D40525
:100D500090F85F104A0744BF01F0FB0180F85F1074
:100D600090F85F108A070FD501F0FD0180F85F1041
:100D70000A2160788DF801008DF8001000208DF8B0
:100D8000020000A801F0B8FB13BD000010B5044636
:100D9000DFF8540B01F034F92046FFF7CFFF20466F
:100DA000BDE8104000F016BD10B50446DFF8380B62
:100DB00001F026F92046BDE81040BFE710B5044613
:100DC00086B004F11C01DFF8240B02F0C6FA08B368
:100DD00009208DF80000EF208DF80100606801788F
:100DE000427801EB0221ADF8021000798DF8040081
:100DF000207A082806BF6068C07900208DF80500B9
:100E00000B2204F10F010DF1060001F047F900A8D3
:100E100001F072FB06B010BD4DF804ED85B009205D
:100E20008DF80000EE208DF8010000A801F064FBB1
:100E300005B000BDDFF8B80ADFF8BC1481623831B4
:100E4000C1620FF2BC0101660FF218114166DFF8B2
:100E5000A41A0164018B41F001010183704702462D
:100E60000146022013E130B5044685B01C2001F094
:100E700053F9050003D00620287018220AE00A2042
:100E80008DF800001A208DF8010000A801F034FB55
:100E900005B030BD002068702146281D01F0FEF825
:100EA000DFF850040078294601F057F905B030BD4D
:100EB00010B5DFF83C4A206982B018B104F1100087
:100EC00000F0BDF90020A076DFF8DC0A006858B118
:100ED00002E000A800F0B3F9DFF81804007801F090
:100EE00089F900900028F4D113BD00004FEA0001F9
:100EF000DFF80004007801F04CBA0000E066002042
:100F00000101710101010101110101013101010121
:100F100001018001100161013B00140063017301B4
:100F20007201620143010001130106013D01350018
:100F3000040112010001000100010001040104018B
:100F4000330133013C01440132013600000100014C
:100F50006501000135008101000105018201830165
:100F600000010000030271023001600211027002F0
:100F70000102020202028002100261023A004100F4
:100F8000630273027202620243020002130238001B
:100F9000000200020402120200020002000200022B
:100FA00004020402370037003C0244020002390008
:100FB0000002000265020002350281020002050201
:100FC000820283020002000000B585B00378DFF8DA
:100FD000542A9A5C8DF800200B2A01D100F0FDBA4A
:100FE0005AB30C2A24D11A2902D1002001901FE003
:100FF000019090F839208DF80220C2680292028A8E
:10100000ADF80C20827DD20648BF002205D4DFF85F
:10101000602A837E92F83420D21A8DF80E20427F07
:101020008DF80F20827F8DF81020C07F8DF8110081
:101030008DF8011000A801F05FFA05B000BD18B4EA
:10104000DFF8AC188A7E037801EB820203F07F039D
:10105000D26D037002EB43035B7801EB8304E46D14
:1010600004B18B76037812F81320140901EB840184
:10107000C96921B90B2B08DA14BC1821A4E702F0C6
:101080000F0251F8221014BC084711BC7047F0B58C
:1010900007460FF2800087B03C5C0D46204601F009
:1010A0003BF8060016D03770002070702946A01952
:1010B0007060002030720FF268003A5C06F1200088
:1010C00000F0ECFF8B480078314601F046F8002034
:1010D00007B0F0BDDFF84C098DF80070385C8DF872
:1010E00004000B2806D11A208DF8010000A800F09A
:1010F000C5FA0AE048B10C2804BF002002901A206B
:101100008DF8050001A801F0F7F91A2007B0F0BD2D
:1011100000000000000555534D581C202807020010
:1011200000011C181A18181C2403000071490870CB
:10113000704770B50C4682B0A006DFF8B45717D4DC
:101140001BE001F02BFC297B491E297308B901F033
:1011500021FC30788DF800006E613046FFF76FFF9C
:101160009DF8000015281CBF05F1140000F067F879
:10117000281D01F0B3F80600E3D1200407D40CE0E9
:101180006861FFF75CFF05F1140000F058F859485A
:10119000007801F02FF80028F2D1E00605D52D20C7
:1011A0008DF8000000A8FFF74AFFE00705D52420CE
:1011B0008DF8000000A8FFF742FFA00705D5252005
:1011C0008DF8000000A8FFF73AFF600705D526203C
:1011D0008DF8000000A8FFF732FF200705D5282072
:1011E0008DF8000000A8FFF72AFF600608D5002050
:1011F0008DF801002C208DF8000000A8FFF71FFFDC
:10120000200608D500208DF801002F208DF8000061
:1012100000A8FFF714FF286978B101F0BFFB2C6923
:101220000021296108B901F0B5FB6C612046FFF788
:1012300006FF05F1140000F002F8002076BD38B575
:10124000040008BF01F07CFA01F0A8FB00F00100E7
:10125000216880F0010561B1DFF894265369A1F19E
:1012600008008B4204BF002151610021216001F080
:1012700033FD002D1CBFBDE8314001F08BBB31BDFB
:101280001C480FF2553181600FF25931C1600FF2E5
:10129000C5310161DFF8E81A41610FF2E131816186
:1012A000DFF8181BC161DFF8781B01620FF279715A
:1012B000C1630FF2794101640FF2CD4141640FF235
:1012C0006D5181640FF20D51C1640021417070476E
:1012D00018112100DFF898170A8C4FF6FE739A4216
:1012E00004BF163102F05FB802220272098C01803D
:1012F00070470000C468002070690020017ADFF8A0
:101300007027022907D1118C0088814201D1012068
:10131000704700207047014602F1160002F01DB828
:10132000FF1C200054680020A8680020A84100206D
:101330002DE9F84F1546044600222F7ADFF8308752
:10134000994608064EBF4FF6FF7608F11400468A0C
:1013500001F07F00A17D89064CBF08210021217684
:10136000A17D49074CBF802110216176A17DC9066E
:101370004CBF002198F83410A176E18ACB0748BF12
:101380002022090748BF42F010026168237D491EF0
:10139000022B07DB0B2B1CBF5B1E01F8013942F04F
:1013A000030200E01A4398F84930012B04D1237A54
:1013B000672BA8BF42F4805242EA80321FFA82FAB9
:1013C000022809D108F11400C28A120A01F8012981
:1013D000C08A01F801090CE0032809D1A1F1070B2B
:1013E00008F13C01584601F0FEFFABF1010100E0BD
:1013F00050B127B14E4508BF4AF0400A04D0301220
:1014000001F8010901F801694AEA872086B2022F32
:1014100007D12888000A01F80109288801F8010984
:1014200009E0032F06D1CF1F2946384601F0DBFF24
:10143000791E00E02FB14FEA192001F8010901F8E7
:1014400001994A1E207D28B998F81430581C88F854
:10145000140004E008F11400837B5D1C85730B709D
:10146000300A107002F8016D207A61680818801A3D
:101470002072626000206070BDE8F28F2DE9F047B5
:10148000099F8A460546904699461A263946FEF730
:101490005BFE04001AD00898E08225750B223946BD
:1014A00004F1200000F0FAFD4B464246514620462A
:1014B000FFF73EFF060009D1ED1F012D03D8607E26
:1014C00040F0200060762046FFF789F83046BDE8FE
:1014D000F08730B5044683B094F83910012001B18B
:1014E0000520251D04F12C0168820420287400A821
:1014F00001F059FF60686B8E401E606000AA616851
:1015000094F83800087003212879401C287120467F
:10151000FFF70EFF050004BF2046FFF760F8FFF756
:1015200096B970B5044605200D4620702E1D95F81D
:101530003D00A0706068F16A416105F11C0101F095
:1015400032FF6068718E41810B2295F83A10417428
:10155000002160680176C17305F10F0160681930E0
:1015600000F09CFD6168B07A88736868616810F863
:10157000012B8A8110F8013B42EA03228A8110F88C
:10158000012BD3095B1E9B41DB43DB0F0B7402F085
:1015900007014A1E9241D24301EB410101EBD27196
:1015A000C9B2081810F8011B2172E060217A01F01D
:1015B0000702490801F0380101EB42010818606197
:1015C00031796A688B18834227BF081A10180020E7
:1015D0002072207470BD00007047417000F04EF81A
:1015E00005B000BD00B585B002780FF2F071515C16
:1015F0008DF800100B2901D11921EEE739B30C2920
:101600001FD1019090F839108DF80210C168029135
:10161000018AADF80C10817DC90648BF002105D4B0
:10162000DFF84C14827E91F83410891A8DF80E1070
:10163000417F8DF80F10817F8DF81010C07F8DF8DD
:10164000110019208DF8010000A800F055FF05B029
:1016500000BD000038B5DFF82C5A0446286930B1C7
:101660001921FFF7B1FC05F11000FFF7E8FD6869EB
:10167000A04204BF002068612C6131BD10B5044652
:101680008AB02078032808D0052808D0182804D06C
:101690001E2818BF1F2802D018E0002000E00120FB
:1016A0008DF8180004F12B0103A801F09CFE032023
:1016B0008DF81400DFF8B803418DC08CADF802102E
:1016C000ADF8160002218DF80A101CE002208DF8FA
:1016D000180004F11C0103A801F085FE03208DF819
:1016E00014000B22DFF88803418DC08CADF8021086
:1016F000ADF8160002218DF80A100DF1190004F161
:101700000F0100F0CBFC0B208DF800000B2260785D
:101710008DF8010004F10F010DF1190000F0BEFC7D
:1017200000A800F0E9FE0AB010BD000038B504467C
:1017300065789DB9DFF83813E08EC98C884218BFF0
:10174000E82504F12C00FFF7D9FD88B1002084F8CA
:1017500039001DB92046FFF7BCFE05463DB1657056
:10176000192020702046BDE83240FFF768BC31BD2B
:10177000DFF8141994F8390091F8201080F0010076
:101780000843E6D1E825EAE710B586B004218DF8D4
:10179000041041788DF80510C18EADF8101000F1DD
:1017A0002C010DF1060001F0FEFD0DF10600FFF722
:1017B000A5FD50B14FF6FF74ADF8004000A95320CD
:1017C00001F00BFFDFF8C408048401A800F094FEC8
:1017D00006B010BD10B588B0044603208DF8040093
:1017E00004F11C010DF1060001F0FDFD60680078B8
:1017F0008DF80E000B2204F10F010DF10F0000F027
:101800004DFC04F11C00FFF779FD50B14FF6FF7459
:10181000ADF8004000A9532001F0DFFEDFF86C08AE
:10182000048401A800F068FE08B010BDF0B50546BC
:1018300095B068688E4C4078400611D5A61CE98E9C
:10184000B08C88420CD1DFF84808407808B30920F2
:101850008DF81800EE208DF8190006A800F04CFE57
:101860000BA80190294600A8FFF75BFE2B208DF8FE
:10187000000000A8FFF7E3FBA07810B19DF810006E
:1018800028B105208DF8000000A800F035FE15B045
:10189000F0BD94F830000028E2D005F11C00FFF7FD
:1018A0002DFD0028DCD105F20F05B68C2946062057
:1018B000FEF74AFC0700EAD00120F8820B2206203E
:1018C0003875294607F1200000F0E8FB334604F1A3
:1018D000160203213846FFF72BFD0028D7D13846E2
:1018E000FEF77DFE15B0F0BD88680020F66600208A
:1018F000BC41002073072000F8B5054601F04EF802
:1019000000F0010080F001040DB101F01FFE01F0B4
:1019100026FA574D05F22607387D01F071FCF87C58
:1019200001F037FCDFF86867707801F018FCE88C8C
:1019300001F021FCB88801F020FC05F13C0001F029
:1019400023FCDFF84077386C010018BF8047786CC3
:10195000010018BF8047B86C010018BF8047F86CC1
:10196000010018BF8047386D010018BF8047786DAF
:10197000010018BF8047B86D010018BF804700F014
:1019800043FAFFF795FA00203071FEF7B9FBFFF735
:1019900077FC05F12901522001F01FFE0CB100F087
:1019A000F9FF0020F2BD00002C6C002038B5044681
:1019B000072000F0B1FB050010D009202870032299
:1019C000002068702146281D00F068FB2946BDE80C
:1019D0003440DFF8BC06007800F0BFBB31BDDFF853
:1019E000B0060FF2AD01416200F108020FF295312D
:1019F00081620FF2CD31C1620FF24D1101630FF21E
:101A00004D2141630FF2F5118163DFF87816CA6149
:101A100000F13C02243048620A620020088301F091
:101A20008FB90000DC1D2000704738B5DFF8605624
:101A300004462879A0420CD068B9DFF84806807EB9
:101A4000002818BF022806D1204602F001F810B184
:101A50002C71002032BDE22032BD10B5DFF83046D7
:101A6000207918B101F0CCFF0020207110BD0000DA
:101A7000E0660020072202700A7A82708A7AC270B9
:101A80004A68426000220272C969C1607047000062
:101A900038B50446DFF8FC5500206870207A062827
:101AA000A4BFE8206870607A0F2804DB207A03283E
:101AB00004D0E8206870207A032806D1DFF8C40536
:101AC000007EC0075CBFE820687021462846FFF70B
:101AD000D1FF616805F11800890A81600B22617AE3
:101AE0000173E17A4173217B8173617BC173A17BB7
:101AF00001740A214174CB4991F83A108174DFF8DE
:101B00009815A9610421017105F12B0004F10F0161
:101B100000F0C4FA6878002804BF607800280CD16F
:101B2000681C407808B1EA21697001F0AEFB2620FC
:101B30002070042001F089FE01E029202070204659
:101B4000BDE83240FFF77BBAF0B5DFF848556E1CB0
:101B50000446707885B005F10C0760B9787F0A28D3
:101B600009D001F0D3FBE9687A7F511801F80B0C1A
:101B7000F079401CF0717869797F40087861491CE0
:101B80007977C00702D4C9B21D29F4DBC9B21D2977
:101B90002DD005F12901E12001F01FFD02208DF873
:101BA00010004FF6FF737078ADF80830002818BFAA
:101BB000022804D1204600F021F805B0F0BD01282C
:101BC00007BF082080210720832105F12B02019205
:101BD0000022009202AAFFF751FCDB2818BFE5287B
:101BE00004D0F3281CBFDF28E82805D1687029201D
:101BF00020702046FFF723FA05B0F0BD38B5DFF8B6
:101C00009444616894F82920012000FA02F291437B
:101C10006160A178032907D1DFF8700490F83500DE
:101C200000EB40010D0109E094F824209040401C95
:101C300000EB4002150109B901F066FB01F025FC3B
:101C40004019606104F11000FEF716BE2DE9F04363
:101C5000DFF84064751C804668788FB002281CBF8E
:101C60000128052840D100207070414600A80A9044
:101C700009A8FFF756FC06F10C07EC79787E844240
:101C800020D2D6F80C900DE0B9F80A00BDF80A1081
:101C9000884204D100A9484601F05FFB90B9641E58
:101CA00009F12409E4B2002CEED1F068EB7903EBE2
:101CB000C306242200A900EB860000F0EFF9E879C2
:101CC000401CE871DFF8C403807820B19DF834002F
:101CD00008B9787E10B909A800F00EFC787E58B1DA
:101CE000E979814208D101E0E8207070292088F864
:101CF00000004046FFF7A3F90FB0BDE8F08338B508
:101D0000044694F82400032804BF94F82E00032806
:101D10002CD104F11C014A2001F05FFC60680178BD
:101D2000427801EB0221ADF80010851C00A950207B
:101D300001F053FC2878697800EB0120ADF8000031
:101D4000AD1C00A94B2001F048FC2946E12001F020
:101D500044FC681C0178407801EB0020ADF80000DD
:101D600000A9532001F039FC002000E0E820DFF852
:101D700024134870292020702046FFF760F931BDF8
:101D80005706200010B5DFF80C4304F1100000F0F6
:101D900037F901F097FA042001F087FDA0780328B5
:101DA00004BF6078002804D004F12A01E12001F08A
:101DB00014FC2046BDE8104000F09EBB55062000F4
:101DC00000B585B0014600A8FFF754FEFC208DF851
:101DD000010000A800F090FB05B000BD0C0E020B46
:101DE000040B0A0708000F0030B5044685B0202018
:101DF00000F092F9050004D0072028701C22FFF79C
:101E000049B80720FFF73CB89F480021C166016729
:101E10004FF47F01416781670021C167704700006F
:101E2000C1062000E066002010B5974C0020E06756
:101E3000E06E68B1616F4068884209DA01F025FB05
:101E4000E16E4A688242B8BF02464A60E06EE067CF
:101E5000206F38B1E16F19B1426849688A4203DAEC
:101E6000E06701E0E06F40B1E06F616F4068884279
:101E7000BCBFBDE8104001F02FBBBDE8104001F031
:101E800052BBF8B500F08AFD00F001007E4D80F0F5
:101E90000104E86F002840D0696F4068814204DA8D
:101EA00000F04EFCE86F002837D001F0EEFAE96F41
:101EB0004968884231D3002948BF00F041FCEE6FE9
:101EC00000F06CFD00F0010080F00107E96E05F103
:101ED0006C0001E00846114621B10A68B142F9D10F
:101EE000026004E005F17001304600F07CF8E86F14
:101EF000864208BFFFF798FF0FB100F04BFD377B1C
:101F0000B6680CB100F046FD3846B04700F046FD1B
:101F100000F0010080F00104C4E7002C1CBFBDE804
:101F2000F14000F037BDF1BD38B504460D460EE076
:101F300055496868C96F20188D4202D1002848BFF2
:101F400000206860002848BF00F0FAFB2D68002DD3
:101F5000EED131BD70B500F021FD00F001004A4D19
:101F60002E6FE96E80F00104686F4042FFF7DCFFDE
:101F700006E0686F71688142A4BF081A7060366815
:101F8000002EF6D1A86F696F81421CBF686701F00F
:101F900065FAFFF749FF002C1CBFBDE8704000F058
:101FA000F9BC70BD70B504460D4600F0F7FC00F0BA
:101FB000010080F001062968284601E0084609680A
:101FC00019B162684B689A42F8DA046021602868A7
:101FD000A04208BFFFF728FF002E1CBFBDE87040DD
:101FE00000F0D8BC70BD0A6801E011461A462AB15B
:101FF00013688242F9D10B600120704700207047BE
:1020000070B5044600F0CAFC1F4EF16E00F00100EE
:1020100080F0010506F16C0001E00846114621B18F
:102020000A68A142F9D1026004E006F1700120467D
:10203000FFF7D9FFF06F844208BFFFF7F5FE002DD0
:102040001CBFBDE8704000F0A5BC70BD70B50E4867
:10205000C16E002904BF006F002811D000F09EFC63
:10206000044601F036FA054601F00FFA06460CB9AF
:1020700000F090FC701CA84201D2281A70BD01200B
:1020800070BD0000BC4100203C410020E066002003
:10209000C4680020F4690020ED0E20002AB111F878
:1020A000013B00F8013B521EF9D1704742B110F8D4
:1020B000013B11F801CB521E6345F7D00020704759
:1020C0000120704710B5044610460A4601462046D6
:1020D00001F00AFD204610BD0278022903D14078A4
:1020E00002EB00207047032906D14178807802EB8B
:1020F000012101EB00407047042909D1417802EB2E
:1021000001218278C07801EB024101EB0060704749
:102110001046704701F048BD10B5040001D1002001
:1021200010BD04F1080080B200F072FD28B100215A
:1021300001608480FF218171083010BD80B508B92D
:10214000052002BD10F8021CFF2901D0042002BDA9
:10215000083800F0C1FD002002BD38B50D0004466E
:1021600036D0DFF88023127815F8020C944207D39A
:10217000FF2804BFA5F1080000F0AEFD032032BD2A
:1021800055F8081C002908BFFF281BD105F8024C90
:1021900000F004FC002145F8081C00F00100DFF805
:1021A00048130A6880F0010012B90D6006E00A4683
:1021B00052F8081C0029FAD142F8085C08B100F076
:1021C000E9FB07E0FF2804BFA5F1080000F084FD4B
:1021D000052032BD00F0E2FBDFF81013096831F88A
:1021E000142042F4004221F8142008B900F0D2FB78
:1021F000002032BD2DE9F041804600F0CFFB00F019
:102200000100DFF8E44280F0010720680026002585
:1022100003E005B9064650F8080C68B110F8021C36
:102220004145F6D1002D08BF0546F4D04FF40041DA
:10223000404600F0AEF811E0AA49097888450CD272
:1022400000F0ACFBA949096831F81820C2F30E026E
:1022500021F8182008B900F09DFB25B13246294627
:10226000204600F058F80FB100F094FB2846BDE876
:10227000F08170B504460D4600F090FB9A490E6857
:1022800000F0010080F0010001E056F8086C36B162
:1022900016F8021CA14204BF3178A942F5D108B159
:1022A00000F078FB304670BD38B504460D4600F0AE
:1022B00075FB002145F8081C00F00100216880F042
:1022C000010011B9256006E0114651F8082C002ADA
:1022D000FAD141F8085C00B119E031BD38B50546C6
:1022E00000F05CFB00F001002968002480F0010090
:1022F00041B10C46A4F108010A682A6000220A6074
:10230000FF228A7108B100F045FB204632BDBDE8CE
:10231000314000F03FBB70B504460D46164600F054
:102320003DFBA5F1080123680A689D420CBF2260AD
:1023300046F8082C00220A6000F00100FF2280F01D
:1023400001008A7118B1BDE8704000F023BB70BD78
:10235000F8B507460D46164600F020FB00F00100D8
:102360003968002480F0010021B93D600BE0F1B232
:1023700051B1114651F8082C761E002AF7D1F6B259
:1023800016B141F8085C012408B100F003FB2046B7
:10239000F2BD38B50D46534909788842044607D244
:1023A00000F0FCFA5149096831F814202A431AE771
:1023B000032032BD38B50D464A49097888420446A3
:1023C00007D200F0EBFA4949096831F81420AA4312
:1023D00009E7032032BD80B5FF2803D100F0DAFA07
:1023E000002002BD072002BD80B5FF2803D100F008
:1023F000D5FA002002BD072002BD80B500F0DCFB4D
:1024000039490020086001F0D1FB01F0D9FC01F04E
:102410000DFD00F0E3FB002002BD80B500F001F8E7
:10242000FCE72DE9F04101F06FFD2E482F4C0078BC
:1024300021680026F6B231F816201AB9761CF2B2DD
:102440008242F7D3F1B2814224D200F0A7FA216888
:10245000F6B2354631F81580002221F8152008B96A
:1024600000F098FA224F234A3E70414652F8252048
:10247000304690470646FF20387000F08FFA2168FA
:1024800031F81520324321F8152038B9BDE8F04164
:1024900000F080BABDE8F04101F0AEBCBDE8F081CB
:1024A00001700A0A42700A0C090E8270C170001D88
:1024B000704701700A0A090C42708170C01C704795
:1024C00010B448B1002300E05B1CDCB2944206D299
:1024D00010F8014B8C42F7D010BC0020704710BCA4
:1024E0000120704714112100286C00202C6C002062
:1024F0006B420020F8102100F1B582B004780FF291
:102500002C20065DADF80060002E00F0E5800D2C5B
:1025100014D16946532001F037F8BDF800004FF69A
:10252000FE7188421CBF4FF6FF7188421EBF0298A1
:10253000007A002800F0AB80029D73E0052C04D1E6
:102540000299097C243188190DE0072C0DD10298DD
:10255000807810B906F11B0005E00299097A01EBB9
:10256000C10206EB8200ADF80000BDF80000FFF7E5
:10257000D3FD050021D10C2C40F0AE8002984068BC
:10258000002800F0A98000F009FA00F0010080F0B6
:1025900001070298001DFEF752FEBDF80000FFF78C
:1025A000BBFD050006D1002F00F0968000F0F2F987
:1025B00003B0F0BD0FB100F0EDF9029932462846A4
:1025C000FFF76CFD052C11D16968242205F1180074
:1025D000FFF764FD05F1180068602A7C6969243002
:1025E000FFF75CFD6868243068611BE0072C19D197
:1025F00049480668B6B100210160A878002805F1B5
:102600001000E86002D11B22314606E0287A00EB78
:10261000C0018A00314605F11000FFF73FFD30464A
:1026200000F05AFB3D480168080003D0284688475F
:10263000002848D10D2C2FD10298406841780078AD
:1026400000F00302022A22DA354A927CC0F38300AA
:10265000904204BFE020014202BF029890F824009B
:10266000022814D195F83B0005F13A0100F03AF840
:102670000298C08C4FF6FF7188421FD102984068C3
:10268000807902281ADB284601F017FE20B302A841
:10269000FEF7D5FD03B0F0BD0C2C0FD102984078A9
:1026A0001A281EBF281D0168002907D0897DC90787
:1026B00004D5007B05F10F0100F014F819480078EB
:1026C0002946FFF74AFD0C2C06D10298406818B144
:1026D0000298001DFEF7B3FD03B0F0BD0020704767
:1026E00000207047104A1278130013D00B7832285C
:1026F000B8BF322002DB6F28A8BF6E20012A05D1A7
:10270000323858433C2290FBF2F39BB2FF2BC8BFF8
:10271000FF230B7070470000046C0020406C002009
:102720006C670020816C00207C6C0020001610007B
:1027300000181510020002241440000010000000D0
:1027400000BF2DE9F04F83B000F028F98B494FF41A
:102750000010086001F0DDFE894801680903FCD51E
:102760008849DFF82492DFF824B2894F08200860F6
:102770004FF0010A00F0A1F901F05CFE01F02BFE20
:1027800001F0F2FD01F085FE0421484601F0EEFE65
:102790000821484601F0EAFE0221484601F0E6FE23
:1027A0001021484601F0E2FE00220421484601F0D3
:1027B000DAFE00220821484601F0D5FE002202215F
:1027C000484601F0D0FE00221021484601F0CBFE21
:1027D00000220421484601F0C6FE00220821484696
:1027E00001F0C1FE00220221484601F0BCFE002299
:1027F0001021484601F0B7FE0DF104080FE04846ED
:1028000001F0B1FE641CE4B2082C04BF00246D1C6E
:10281000042D68DB00220421484601F0A4FE0024B8
:10282000002001E00098401C00900098B0F5503F57
:10283000F8D30421484601F093FEC243D2B20421EA
:10284000484601F090FE0821484601F089FEC24347
:10285000D2B20821484601F086FE0221484601F026
:102860007FFEC243D2B20221484601F07CFE102115
:10287000484601F075FEC243D2B21021484601F02D
:1028800072FE387820B10020387003B0BDE8F08FB8
:102890000821584601F064FE0028C0D1641CE4B24F
:1028A0000A2CBDD100220421484601F05CFE002222
:1028B0000821484601F057FE00220221484601F057
:1028C00052FE00221021484601F04DFE002408214E
:1028D000584601F045FE00B90024641CB4F5FA7FA7
:1028E000F5DB002400250821584601F039FE0028B8
:1028F000F9D104220421484601F035FE08220821BE
:10290000484601F030FE02220221484601F02BFE2B
:10291000002C07BF1022102100221021484601F090
:1029200022FE00260821584601F01AFE00B90026B2
:10293000761CB6F5FA7FF5DB00220421484601F04B
:1029400012FE00220821484601F00DFE002202215D
:10295000484601F008FE00221021484601F003FE1F
:1029600018F80500C4F107010AFA01F1084219BF7D
:10297000042204210022042141E7000008ED00E0C8
:1029800004200D4008300D4000B00D4000900D4077
:10299000676B002080B501F07BFE02E080B501F09E
:1029A00073FE00B10120C0B202BD10B50FF22813B2
:1029B000820853F82220136800F00300C000FF24AF
:1029C0008440A34301FA00F01843106010BD3E4953
:1029D000042803D1086840F4803022E0052803D1A0
:1029E000086840F400301CE0062803D1086840F471
:1029F000802016E00F2805D13448016841F002011B
:102A00000160704710280DD3A0F110010FF26C1275
:102A1000490952F821101038012200F01F0002FA73
:102A200000F0086070472849042803D1086820F4A2
:102A3000803022E0052803D1086820F400301CE033
:102A4000062803D1086820F4802016E00F2805D15D
:102A50001E48016821F002010160704710280DD363
:102A6000A0F110010FF22812490952F82110103874
:102A7000012200F01F0002FA00F0086070471449BC
:102A80000E2803D1086840F0006014E00F2803D13D
:102A9000086840F000700EE010280DD3A0F110017E
:102AA0000FF20012490952F821101038012200F0EB
:102AB0001F0002FA00F0086070470648016841F004
:102AC000010101607047000024ED00E010E000E02B
:102AD00004ED00E098200D400000000018ED00E03B
:102AE0001CED00E020ED00E000E400E004E400E084
:102AF00008E400E00CE400E010E400E014E400E08E
:102B000018E400E01CE400E020E400E024E400E03D
:102B100028E400E02CE400E030E400E034E400E0ED
:102B200038E400E03CE400E040E400E044E400E09D
:102B300048E400E04CE400E050E400E054E400E04D
:102B400058E400E05CE400E060E400E064E400E0FD
:102B500068E400E06CE400E070E400E074E400E0AD
:102B600078E400E07CE400E080E400E084E400E05D
:102B700088E400E08CE400E090E400E000E100E0A4
:102B800004E100E008E100E00CE100E010E100E019
:102B900080E100E084E100E088E100E08CE100E019
:102BA00090E100E080E200E084E200E088E200E002
:102BB0008CE200E090E200E05D4841F2FC7200210E
:102BC00081525C4908604FF427710180084448F243
:102BD0000401018041F25C518180704738B50120C9
:102BE00000F016F8040008BFFFF7AAFDFFF7D6FEB5
:102BF00005465049201F0860204600F06DF84E49F8
:102C0000012008701DB9BDE83140FFF7C3BE31BDDA
:102C1000F8B500240025061D16F003001CBF311D69
:102C20000E1AFFF7BBFE4449097800F001000A00C4
:102C300080F0010002D0B6B2112E02D23D4A1768D0
:102C400000E03E4F3B68C3F3C0320AB1002522E0EA
:102C5000B6B2D5B1226813444FEAD23EC3F30E0395
:102C600043EACE332360C3F30E03B34213DB27469C
:102C700047B33B68C3F30E04A41BA4B2082C13D3C0
:102C8000BC5346F400423A8011E0C3F30E03B34252
:102C9000EEDA01253C463A68C2F30E0217443A8840
:102CA000002ACFD100270DE043F400423A6041B141
:102CB00020490A68BA4204D13A68C2F30E023A4483
:102CC0000A603F1D08B1FFF765FE17F0030018BF4B
:102CD000FFF736FD3846F2BD10B515498842044667
:102CE00004D34FF4C0521144884201D3FFF728FDAA
:102CF00054F8040CC0F3C03008B9FFF721FDFFF70A
:102D00004DFE54F8041C0B4A21F4004144F8041C05
:102D1000211F136800F00100994280F0010038BFC4
:102D2000116018B1BDE81040FFF734BE10BD0000BF
:102D30008442002084620020736C0020244500201F
:102D400080B501F0ABFC00F0F3F900F079FD01F083
:102D5000F3FE00F01DF8BDE8014000F047BB80B570
:102D6000FFF71CFE18B9FFF715FEFFF7E9FC064850
:102D7000007818B901F006FF00F0E2F900F04EFB10
:102D8000BDE8014000F03CBE6842002070470000F2
:102D9000DFF8780300210170C171704738B5DFF8A2
:102DA0006C430546207808B1FFF7CAFC012020706B
:102DB000DFF85C03007808B11D205EE0022D65702D
:102DC00002D102F029FB1BE0002D1CBF012DFFF7F3
:102DD000B7FCDFF840136278002020710968CE4804
:102DE000897D49064CBF90F8461090F8251022B90D
:102DF000C07810B10329A8BF0221A17000F046F8E5
:102E0000E079B8B9C34D286808B9FFF799FC28687C
:102E1000C24B41680A7802F02002A2718A7862717E
:102E2000027A481E911C0170EE211960511CC9B232
:102E300002F032FCBA4DFFF7B1FDBA492A780978A1
:102E400000F00100114380F001001AD183212170AC
:102E500008B1FFF79FFDB4480168490849000160C7
:102E6000002028706078022800D159E040B9FDF7B1
:102E700075FAE178814203D31C20BDE8324024E199
:102E800052E00221217000B152E031BD80B500F066
:102E900064F99E4991F9023001229A40521E104075
:102EA000C870487818B9BDE8014002F038BABDE8EA
:102EB000014002F0FEB995480121C17140786DE7EB
:102EC00038B5974C974821780078084318BFFFF72A
:102ED00037FC8E4DFFF762FD297800F001000229D2
:102EE00080F0010019D18321297008B1FFF752FD4C
:102EF0008D48016849084900016000202070687809
:102F0000022800D10CE038B9FDF728FAE9788142AF
:102F100002D3BDE832404AE006E000B108E031BD2E
:102F2000BDE8314002F0A2BABDE8314002F041BA3A
:102F3000BDE83140FFF72EBD10B5744C607801003C
:102F40001CBF0128FFF7FCFB0420207000F0F4FCFC
:102F500020797649401C2071C0B20A7882420DD295
:102F60000020E071207000F0E7FC00F030F900F084
:102F700062F9BDE81040E120FDF75ABA487BA1781C
:102F80004A1C8242B8BF481CA070FFF77FFF832015
:102F90002070607838B9FDF7E1F9E178814202D319
:102FA000BDE8104003E0BDE8104002F002BA1C206A
:102FB0008BE038B5FFF7F2FC00F00100534D80F0D4
:102FC00001042878832818D1A87990B98520287021
:102FD0000CB1FFF7DFFC0020E871287000F0ACFCBA
:102FE00000F0F5F800F027F9BDE832400020FDF7C9
:102FF0001FBA8620287002F089FA04B198E731BD23
:10300000F8B505460E46FFF7C9FC00F001003F4C3D
:1030100080F00107207886282ED18720207002F0CA
:10302000E3FA0FB1FFF7B6FC6079854216D156B1CD
:103030000020E071207000F07FFC00F0C8F800F084
:10304000FAF81B2014E00020E071207000F074FCFE
:1030500000F0BDF800F0EFF8002009E00020E0717A
:10306000207000F069FC00F0B2F800F0E4F8E9200C
:10307000BDE8F240FDF7DCB91FB1BDE8F140FFF754
:1030800089BCF1BD38B5FFF789FC00F001001F4D88
:1030900080F001042878862814D18720287002F057
:1030A000A3FA0CB1FFF776FC0020E871287000F05D
:1030B00043FC00F08CF800F0BEF8BDE83240E92097
:1030C000FDF7B6B904B133E731BD10B504460F487A
:1030D0000021C171017000F02FFC00F078F800F0C1
:1030E000AAF82046BDE81040FDF7A2B910B5094C7A
:1030F000206808B9FFF724FB00F0D9F92168C860FF
:1031000001F084FB2168088210BD0000C06B002024
:103110006842002098410020E0660020388808407E
:10312000D66A0020D46A00209086084004670020F8
:1031300068480B218170FF214170C1700170704798
:1031400065490020087065496548C08C00F0FF02A1
:103150000A60000A486001F0A6BC01F03EBB61496C
:103160000A68431E9B41DB43DB0F22F0020040EA6A
:10317000430008607047594900E05B4900F0FF02D6
:103180000A60000A4860704701460822574802F06A
:1031900071BA70B5564D2E78044640B271B2814274
:1031A000B8BF344604DB69784AB29042B8BF0C46D7
:1031B000FFF7F4FB311B891CC9B2464A695CD17028
:1031C00008B9FFF7E7FB00F002F8204670BD10B524
:1031D000FFF7E4FB3F49CA780C7800F00100A242F7
:1031E00080F0010009D0434B1B7833B9424B1B7868
:1031F0001B0602D40A7041490A6000B141E010BDCB
:1032000038B50446A4F10B00122828BFFFF798FA3E
:10321000FFF7C4FB00F0010080F001052D48847029
:103220003548007808B900F006F81DB1BDE8314016
:10323000FFF7B0BB31BD10B52F48007808B1FFF7DC
:103240007FFA244CFFF7AAFBA178637800F0010015
:10325000994280F0010011D0617008B1FFF79AFB2C
:1032600000F09DFB6078264900EB80002C38086058
:1032700001F098FCBDE8104000F03EBB00B100E05A
:1032800010BDBDE81040FFF785BB38B504461D48AA
:10329000007808B1FFF754FA0F4D287808B1FFF70E
:1032A0004FFA20000CBF0120032C09D0012C1CBFB9
:1032B000022CFFF745FA0949FF220A6002204A6002
:1032C000287031BD04490020087004490448C08CAE
:1032D00054E70000246C0020D56A0020C88508400F
:1032E000E066002000860840D0850840A885084098
:1032F000B4102100D66A0020C06B00204086084030
:103300003C8608406842002001F0C3BB80B501F054
:10331000CAFB493840B210F1570FB8BF6FF05600E2
:1033200002DB0B28A8BF0A205730C0EB0020612128
:1033300090FBF1F0C0B202BD10F1570FB8BF6FF0B3
:10334000560002DB0B28A8BF0A205730C0EB002034
:10335000612190FBF1F0C0B2704710B4027A0C7A90
:10336000A2421CD113001AD0022A04D10088098875
:10337000884214D112E0032A11D1082203780C7874
:10338000A3420CD1431C4C1C581C611C1B78247894
:10339000A34204D1921ED3B2002BEFD120E0FFE76D
:1033A00010BC002070470A7A0272032A04BF082268
:1033B000FEF774BE09880180704710B408220378B4
:1033C0000C78A34200D0EBE7431C4C1C581C611C3A
:1033D0001B782478A342F6D1921ED3B2002BEED1F3
:1033E00010BC012070470822FEF758BE80B50020AF
:1033F00001F03CFA4FF47F0000F030F850486FF0D5
:1034000008014160016841F0080101606FF010019E
:103410004160016841F01001016001BD10B5484CE8
:10342000206820F010002060206820F00800206054
:10343000002001F01BFA4FF47F0000F00FF86FF04E
:1034400008006060206840F0080020606FF0100005
:103450006060206840F01000206010BD38B5044660
:1034600001F0E4F9A04228BFFFF76AF9FFF796FAE6
:10347000054634480460204601F045FA05B900E0ED
:1034800031BDBDE83140FFF785BA38B5FFF786FAA0
:10349000044601F0CBF905460CB9FFF77BFA294841
:1034A0000068854201D3002032BD284632BD38B5C0
:1034B000FFF774FA044601F0C2F905460CB9FFF7AC
:1034C00069FA20480068854201D3002032BD2846B1
:1034D00032BD1C484068704770B51A4D04462868D4
:1034E000844228BFFFF72CF9FFF758FA00F00100DB
:1034F00080F001066C60204601F0D9F901F096F9E0
:1035000084420AD110496FF0100008600EB1FFF735
:1035100041FABDE87040FEF7B4BC1EB1BDE8704092
:10352000FFF738BA70BD7047FEF7ABBC80B501F04D
:10353000C3FABDE80140FEF70DBD024800687047C0
:1035400008880840B06B00200C88084010B588B08F
:10355000694C202204F16C016846FEF79FFD20466D
:103560000FF298118C2202F0C9F82022694604F16A
:103570006C00FEF793FD1434FFF7EFFDA073FFF727
:10358000ECFD207008B010BD70B5A0F140021E2AFD
:103590000C4638BFA0F1400506D3A0F1E001102988
:1035A00034BF00F13E052E25EDB22E2D01D1F420C1
:1035B00070BDFFF7F3F906460FF2CC1000EB850162
:1035C0004A7810F825004C4901442046FEF766FD74
:1035D0000EB9FFF7DFF9002070BD2DE9F0410C4670
:1035E0000146452902D14448846081E00546A5F1A1
:1035F00040021E2A38BF403804D3A5F1E002102A49
:1036000004D23E30C0B22E28024602D1F420BDE8DA
:10361000F0810FF2741000EB8206B078020004BF54
:10362000F278002A16D0F278904208BFFB2060D0D2
:10363000582905D120888F3846F22241884206D287
:103640002078B278904224BFF178814202D2E820FB
:10365000BDE8F081FFF7A2F907463078DFF89880DF
:10366000727821464044FEF719FD0FB9FFF792F931
:10367000502D12D0522D1BD0532D14D0E02D2DD013
:10368000E12D20D0E22D24D0E52D2DD0E62D02BF56
:10369000207808F12A01C8772AE008F10800C08BD9
:1036A000FFF769FD24E0B8F82A00FFF766FD1FE088
:1036B00098F8290018B1022000F0C7F818E002209D
:1036C00000F0F3F814E008F12A00007CFFF798FD01
:1036D0000EE008F13C00FFF757FD09E008F12A0071
:1036E000C07BFFF756FD03E0207808F12A018877B8
:1036F0000020BDE8F0810000E066002036000100F7
:103700000600000000000000000F000000000000A4
:10371000000000000000000000000300FFFF0000A8
:103720000403FFFF0000FFFF0F00F4010005C404C5
:103730000320000100000B0000000000000000005A
:103740000300010F00000000000000000000000066
:103750000000000000000000000000000000000069
:103760000000000000000000000000000000000059
:103770000000000000000000000000000000000049
:1037800000000000000000000001363601010001C9
:103790000201000103010001040106060804000003
:1037A0000C0100340D01000F10040101140100FF91
:1037B0001608000020020000220100FF2301000182
:1037C000240100FE25010008260200002801000156
:1037D000290100012A0200002C01000F2E02000026
:1037E0003001000131010008320200FF34010007FE
:1037F00035010240360100003701000138010001A7
:10380000390100FF3A010B1C3C080000460100088A
:103810004701000F48010001490100FF4C0400006E
:103820005004000054040000580400005C04000030
:103830006004000064040000680400006C20FFFFC6
:103840006748002141700170704770B5060008BFDD
:10385000FEF776FFFFF7A2F800F00100604D80F060
:103860000104687830436870FFF798F800F00100B1
:10387000297880F0010021B901212970E321594AFA
:10388000116008B1FFF786F804B1B5E070BD10B55E
:10389000040008BFFEF754FFFFF780F850494A784C
:1038A00022434A7000B961E010BD10B5040008BFA2
:1038B000FEF746FFFFF772F849494A7884F0FF03A4
:1038C0001A404A7008B9FFF765F8BDE8104033E0C8
:1038D00080B5FFF763F8424900224A700A70EF2270
:1038E00040490A60ED220A600A6008B9FFF752F801
:1038F000BDE8014001F056B938B5FFF74FF800F0C8
:103900000100374D80F00104687878B1FFF746F880
:1039100000F00100297880F0010021B9012129700F
:10392000E321304A116008B1FFF734F81CB1BDE85B
:103930003140FFF72FB831BD10B5FFF72FF800F079
:10394000010080F001042648407860B926480078DC
:10395000000608D42548007828B9254800780006D4
:1039600058BF00F01CF804B100E010BDBDE81040E5
:10397000FFF710B880B5FFF711F819490A7800F081
:10398000010080F0010022B901220A70E321154AEA
:10399000116018B1BDE80140FEF7FCBF01BD70B574
:1039A000FEF7FCFF00F0010080F001040C480178F4
:1039B00099B100210170EF200E4D6860ED20686024
:1039C0006860FEF7EBFF06462A20FFF758F86FF015
:1039D000040028600EB9FEF7DDFF04B10CE070BDF5
:1039E000686C002038880840D46A0020D66A00201D
:1039F000C06B002034880840BDE87040FEF7CABFA5
:103A000038B5314C2078010021D0304D29680903A8
:103A1000FBD52F490A6842F003020A600A68520780
:103A2000FCD5022804D101F095FE01F093F808E0DE
:103A3000012818BFFEF784FE2868000358BFFEF770
:103A40007FFE00202070BDE83140FFF755BF31BD3B
:103A500070B50446FEF7A2FF00F001001A4E80F098
:103A60000105307808B1FEF76BFE1A48007808B1FE
:103A7000FEF766FE18481949007809780843184986
:103A80000978084317490978084304D00DB1FEF7B7
:103A900081FF002070BDFFF782FF34700DB1FEF78B
:103AA00079FF0B480168490849000160016849072E
:103AB000FCD4012C05D0022C18BFFEF741FE01F00A
:103AC0006EFE012070BD00006842002004200D4001
:103AD00004880840D56A0020D46A0020D66A0020F5
:103AE000C06B0020696C002062F30F2262F31F425A
:103AF000401810F0030308D0C91A1FD3DB0748BFD2
:103B000000F8012D28BF20F8022D130030B4144610
:103B10001546103928BF20E93C00FAD8490728BFCC
:103B200020E90C0048BF40F8042D890028BF20F888
:103B3000022D48BF00F8012D30BC7047C91818BFCE
:103B400000F8012DCB0728BF00F8012D70470000B9
:103B500080B528B9FF20FEF747FC0021002004E0D3
:103B60000F49002008700FF20D01BDE8044001F07C
:103B700025BE000038B50B4D04462878FF280ED02E
:103B80000420FEF7C9FA50B1C0210170C4700021B1
:103B9000817001462878BDE83440FEF7DEBA31BDB9
:103BA000726C00206A42002000F022BE8249002090
:103BB00048607047F8B5804C074620680D461646A9
:103BC00000E0006838B10189A94204BF817AB94296
:103BD000F7D14660F2BD1020FFF71AF870B1877276
:103BE0000581466000210160C160216811B9206033
:103BF000F2BD11460A68002AFBD10860F2BDF8B593
:103C000004460D461646FEF7C9FE074632462946CB
:103C10002046FFF7CFFF04460FB9FEF7BBFE0CB1FD
:103C20000020F2BD0820F2BDF8B504460D46164648
:103C3000FEF7B4FE00F0010080F00107324629468D
:103C40002046FFF7B7FF040018BFE6600FB1FEF78C
:103C5000A1FE0CB10020F2BD0820F2BD70B50446F3
:103C60000D46FEF79BFE54490E6800F0010080F0FF
:103C7000010000E036683EB13189A94204BFB17A43
:103C8000A142F7D10021318108B1FEF783FE0EB1C8
:103C9000002070BD062070BD70B504460E46FEF7CC
:103CA0007DFE00F00100002580F001004249096816
:103CB00031B10A89B24204BF8A7AA242F7D14D6873
:103CC00008B1FEF767FE284670BD2DE9F14781B0C7
:103CD000FEF764FE384C019A61685118616008B9BA
:103CE000FEF758FE2768002F52D09DF80580BDF8DA
:103CF00006A00025FEF752FE00F00100002680F02D
:103D000001095FEA0A0008BF5FEA080007D13879B5
:103D10009DF80420904202D3801A387106E078683A
:103D2000019981423ABF401A78607E60B88858B9DC
:103D3000F88858B9F86868B1398908000AD0B87AA3
:103D4000FEF727FBF8687860B88808B9F88808B1EA
:103D5000388930B93868002D0CBF206028603E4695
:103D600000E03D463F68B9F1000F18BFFEF712FEB4
:103D700066B1B088002804BFF088002803D13189DB
:103D8000B07AFEF706FB3046FEF7A6FF002FB1D152
:103D9000BDE8F3870848016841B108484A680968E6
:103DA000824298BF10460029F8D170470020704722
:103DB0000148406870470000E06B00208EC2F52883
:103DC0001848002181710180704716498871704739
:103DD000154B1B78984201D303207047114A138872
:103DE0004FF0010C0CFA00F000290CBF23EA000090
:103DF00018431080002070470A48817901B9704744
:103E000038B5008868B9FEF7C9FD0446FFF7C2FF60
:103E100005460CB9FEF7BEFD2846BDE8324001F06C
:103E2000D9BC31BDD86B00201411210080B50E2003
:103E3000FEF7EEFE0E4908600E220021FEF742F961
:103E40000020FDF773F9012001F0F6FD022000F0DB
:103E500011F8032002F0A8FB042002F02BFF05203C
:103E600003F038FABDE80240062004F0DDB9000096
:103E70002C6C002027490870704780B504F068FB5F
:103E8000BDE8014004F04BBC38B50C4620040BD50E
:103E9000204D01E0FEF752F92878FEF7ABF9002833
:103EA000F8D184F4004032BDA00602D584F0200091
:103EB00032BDE00602D584F0100032BD600704D5A3
:103EC00001F09FFD84F0040032BDA00710D5114D14
:103ED00028780121FFF77CFF28780121FFF7BEFE3B
:103EE00028780121FEF766FA4FF6FC70204032BDBB
:103EF000E00707D5074800780021FFF769FF84F045
:103F0000010032BD002032BD03490120087004F0D9
:103F100007BC00006C6C002066420020DFF824140F
:103F200000200860704780B502F007FB78B9DFF821
:103F30001404006800E0406848B1417B0129FAD1CF
:103F4000016800291CBFBDE8024001F09CBE01BD14
:103F5000DFF8F013096800200A4604E0537B042BC5
:103F600008BF401C5268002AF8D1DFF8DC23127821
:103F7000C0B282420BD3002001E04968401C0029F6
:103F8000FBD1DFF8C8130978C0B2814201D2012009
:103F90007047002070472DE9F0410746DFF8A42361
:103FA00016680C46397B002500E07668002E1CBFA1
:103FB000327B8A42F9D14FF00108FEB97A8938681C
:103FC00000F0C8F8060031D03581387C307407F134
:103FD000100005F03FF870614FF67F41388B308359
:103FE000012570890840708141074FBF40F0800073
:103FF000DFF85C13097840EAC11070817089C1094B
:1040000001F00701A4B1022272733268927B520759
:1040100003D5DFF84023128A328161B34FF67F4225
:104020001040491E40EAC110708124E0A84632E0E9
:1040300011B94FF000081EE0810605D5FEF76AF8B9
:1040400000F07F005F3008E0C00605D5FEF762F89B
:1040500000F00F000A3000E001203081042070736E
:104060002021DFF8F4422078FFF716FE18B92078F7
:104070002021FEF78EF975B13289717B304600F050
:104080007CF840B1706908B1FEF726FE3046FEF7B5
:1040900023FE4FF000084046BDE8F08170B5DFF820
:1040A000A4422268014684B0002000E05268002A41
:1040B0003DD0137B8B42F9D1517B062937D1106853
:1040C0005589007A8DF8080010680088ADF8000066
:1040D000104600F0DCF8280528D5BDF800100020B7
:1040E00000F027F810BBDFF86C52A98C00A805F08F
:1040F000FAFB246800E0646814B160890005FAD511
:104100004FF6FF767CB120680188B1420ED0A98CB1
:1041100005F0E7FB1A2809D06468002CF2D060890A
:104120000005F9D5EEE7002005F0DFFB012004B023
:1041300070BD18B9DFF80C02006800E0406840B1BB
:1041400042891205FAD500291EBF026812888A42E8
:10415000F4D1704770B504460D4616461C20FEF794
:1041600057FD48B100214173057346810181817378
:10417000C17304604161416070BD38B5002843D00F
:10418000012910D16F4C2468002304E0657B012DC8
:1041900008BF5B1C6468002CF8D1704C2478DBB23B
:1041A0009C4216D211E0042911D1664C24680023E8
:1041B00004E0657B042D08BF5B1C6468002CF8D10B
:1041C000614C2478DBB29C4203D2112032BD02291B
:1041D0001AD141730281002141605A490A6832B103
:1041E00000E00A4651680029FBD1506000E00860F9
:1041F000594C20782021FFF74FFD18B92078202155
:10420000FEF7C7F8002032BDC12032BD10B94D48BD
:10421000006800E0406838B1437B8B42FAD11AB1A4
:1042200003689B7B5B07F5D470474649096800E04B
:10423000496821B10A7B8242FAD1084670470020C2
:104240007047F8B5044600260D4620000AD03D48C8
:10425000076800E07F682FB129463846A04701284B
:10426000F8D13E463046F2BD36490A6813464FF053
:10427000000C01E09C465B6843B18342FAD1586868
:10428000934201D108607047CCF80400704710B524
:10429000040011D0FFF7E8FF2068006AFEF71CFD5C
:1042A0002068FEF719FD606908B1FEF715FD20468C
:1042B000BDE81040FEF710BD10BD10B550B150F86C
:1042C000081C002902BFA0F108018A79FF2A03D047
:1042D000FDF734FF052010BD1F4C22788A7120495C
:1042E0000A7801461F48FEF733F8012806D12078E6
:1042F0004FF40051FEF74DF8002010BD042010BD12
:1043000070B5FEF74BFB174D2E6800F0010080F0F2
:1043100001048EB1104856F8081C007800294FF4AB
:10432000005102D0FEF735F801E0FEF743F8002215
:1043300031462846FDF7EFFF0CB1FEF72BFB304668
:1043400070BD0000586C00204A0F21004B0F210067
:104350006C4200206C670020816C0020490F210016
:10436000500F21005C6C002010B5002005F081FB8F
:10437000012005F07EFB022005F07BFB032005F009
:1043800078FB4FF4807005F074FB40F2011005F0EB
:1043900070FB4FF4007005F069FB40F2012005F05E
:1043A00065FB40F20144204605F042FB4FF480607B
:1043B00005F03EFB4FF4407005F05BFB4FF480606E
:1043C00005F054FB204605F051FBBDE810404FF4CA
:1043D000A06005F04BBB80B5002005F05AFB012022
:1043E00005F057FB022005F054FB032005F051FBBC
:1043F0004FF4807005F04DFB40F2011005F049FBD1
:104400004FF4007005F045FB40F2012005F041FB40
:104410004FF4407005F03DFB4FF4806005F039FB30
:1044200040F2014005F035FBBDE802404FF4A060CA
:1044300005F02FBB80B5002005F03BFB012005F007
:1044400038FB022005F035FB032005F032FB4FF46A
:10445000807005F02EFB40F2011005F02AFB4FF4AE
:10446000007005F026FB40F2012005F022FB4FF41E
:10447000407005F01EFB4FF4806005F01AFB40F21F
:10448000014005F016FBBDE802404FF4A06005F0C6
:1044900010BB80B5012000F0E3F8022000F0E5F841
:1044A000042000F0DDF8082000F0DFF8102000F014
:1044B000DCF8202000F0D4F80122E1211B4800F0B4
:1044C00075F8BDE8084001220821194800F06EB8CF
:1044D00080B5E121154800F084F8BDE804400821CA
:1044E000134800F07EB880B5E121104800F08BF849
:1044F000BDE8044008210E4800F085B880B5E121F0
:104500000A4800F097F8BDE804400821084800F088
:1045100091B880B50122C021064805F0DBFBBDE85B
:10452000084000220021002005F0F6B900B00D403F
:1045300000900D4000C00D4030B5CB4300F58064C5
:10454000D50725684CBF0D431D40256000F58460EC
:10455000920747BF0268114301681940016030BDEE
:1045600050F82100704740F82120704738B50446C4
:104570000D46012202E004460D460222FFF7DCFF51
:1045800029462046BDE83840002205F0A3BB38B5D7
:10459000F1E738B504460D460222FFF7CDFF294664
:1045A0002046BDE83840082205F094BB10B5002332
:1045B000314CA04208BF082308D0304CA04208BFAD
:1045C000102303D02E4CA04208BF1823994000F2BC
:1045D0000470012A02680CBF114322EA0101016044
:1045E00010BD0022244B984208BF082208D0234B5C
:1045F000984208BF102203D0214B984208BF1822CE
:1046000000F5E26027E000221B4B984208BF082219
:1046100008D01A4B984208BF102203D0184B98427A
:1046200008BF182200F5E2609140036823EA010107
:10463000016070470022104B984208BF082208D042
:104640000E4B984208BF102203D00D4B984208BF72
:10465000182200F5E3609140036819430160704738
:1046600008490A6810430860704706490A6822EA48
:10467000000008607047000000A00D4000B00D4031
:1046800000C00D4094200D40EFF3108072B67047CB
:10469000EFF3108062B6704730BF7047F0B5DFF8B7
:1046A0004C0489B0142101603F2181605521C16013
:1046B000FC21DFF83C44DFF83C54DFF83C64DFF8D1
:1046C000287461638521E1670121416115214162FF
:1046D0000021A967102101630E2141630321816339
:1046E0000920706504210B2008608021FF203060C4
:1046F0002A20FEF75AF980212B20FEF756F92A20AE
:10470000FEF765F92B20FEF762F980213120FEF7D4
:104710004CF9DFF8E8030068000C3860FEF73EF95A
:104720000221F1670022DFF8D8130A6028224A60CC
:1047300008B9FEF72FF9DFF8CC0300680003FAD5BB
:10474000306F40F003003067306F4007FCD5306FAA
:1047500040F00A0030673120FEF739F94820206028
:10476000FFF708F9206CC007FCD500201021A26FCC
:1047700052084041491E80B2F9D1002814BFB0F55B
:10478000607F4BF6BE20DFF8801300F0FF020A6066
:1047900000120860796808000ED0684620220023C5
:1047A0000826A76F7F085B41761EFAD1521E00F8DB
:1047B000013BF4D168468847FFF7F1F840202060BC
:1047C000206840F020002060002028606860A86019
:1047D000E8602861686109B0F0BDDFF83003016866
:1047E00021F00C0141F0040101608069C0B2704702
:1047F000DFF81803016821F00C0141F004010160A9
:104800008169406900EB012080B2704710B5FEF766
:10481000C5F8DFF8FC1201220A608A68496841EA9B
:10482000022408B9FEF7B6F8A0B210BD80B5FEF7B5
:10483000B5F8DFF8DC1200220A604A6805E080B5AE
:10484000FEF7ACF8B24910220A604A698DF80020E0
:104850000A698DF80120C9688DF8021000218DF8D1
:10486000031008B9FEF796F8009802BD01B5000ED6
:1048700018BFFDF765FFFFF7D9FFA649CA68801882
:10488000009A801AC860FEF789F8A14900220A60E0
:104890009DF800204A619DF801200A619DF80220E0
:1048A000CA6018B9BDE80140FEF774B801BD11B582
:1048B000002481B0000E18BFFDF742FFFEF76EF82E
:1048C00095490A6800F00100D20680F0010004D585
:1048D0000A6822F0100201240A6030228A609DF8E2
:1048E0000420CA619DF805208A619DF806204A616E
:1048F0006FF010024A601CB10A6842F010020A60B0
:1049000000B12DE013BD11B5002481B0000E18BF19
:10491000FDF716FFFEF742F87F490A6800F0010034
:10492000120780F0010004D50A6822F00802012471
:104930000A6020228A609DF80420CA619DF8052043
:104940008A619DF806204A614A6822F008024A609E
:104950001CB10A6842F008020A6000B100E013BD11
:10496000BDE81340FEF716B838B56B4C2068616897
:1049700000EA0105E80604D5FEF7D6FD6FF0100049
:104980006060280704D5FEF7D1FD6FF008000DE048
:10499000E8070CD561486249006891F9002043B2EC
:1049A0009A42B8BF1A460A706FF0010060605D4914
:1049B0000020087031BD10B5574C82B02068C00689
:1049C0001FD56068C0061CD4FDF7E8FF3021A16048
:1049D000E1698DF80010A1698DF8011061698DF809
:1049E000021000218DF8031008B9FDF7D3FFFFF77F
:1049F0001DFF0099814204D2FEF796FD6FF0100072
:104A0000606013BD70B5484C484D666C2A20FEF7B7
:104A100036F828683040000705D56FF00800286098
:104A200000F0EDFD13E028683040C00605D56FF0BA
:104A30001000286000F0EAFD09E028683040C00757
:104A400005D5606C40084000606400F088FB206C75
:104A500069680840400707D500F0DDF86FF00400F2
:104A6000686020684006F7D42E490020087070BDA9
:104A700080B52F482F4900680A681040400704D5C8
:104A80006FF00400086000F0D8FB26490020087091
:104A900001BD23496FF07F0008701F48016841F095
:104AA0000101016070471C48016849084900016024
:104AB0001B4890F90000704738B5FDF76FFF00F014
:104AC0000100144D80F00104287828B9FEF735FD67
:104AD000E9684018E86001E0002028701CB1BDE8DA
:104AE0003140FDF757BF31BDB86B0020A4860840A8
:104AF000248608409085084094870840F80F2800D5
:104B00001488084004200D4014700D4000700D40C2
:104B100010880840286B00200888084060860840FC
:104B2000716C0020664200204C86084030880840A6
:104B3000948608402C880840DFF81C070021C172C9
:104B4000416181800FF2F501016100218171818154
:104B50008173704738B5DFF8044705202060FDF702
:104B60001DFF05462A20FDF78AFFDFF8F4166FF0D7
:104B7000040008600DB9FDF70DFFE06B40F0040084
:104B8000E06331BD80B5FEF7A3FEDFF8CC0600215F
:104B90004171C172DFF8CC060160016841F0090182
:104BA000016001BD10B5DFF8B0464BE338B5DFF862
:104BB000AC06DFF8AC46016C4908490001640521E8
:104BC0000160ED2060606060FDF7E8FE05462A2088
:104BD000FDF755FF6FF0040020600DB9FDF7DAFE18
:104BE000DFF87446606918B104F11400FBF726FB86
:104BF0000FF24900A1792061207908430AD00020F2
:104C00002071A071FEF798FEFEF7E1FABDE8314091
:104C1000FEF756B931BD10B5DFF83C46607B58B998
:104C2000012020732069804700202073607B18B129
:104C3000FFF7BCFF0020607310BD00002DE9F84FA6
:104C4000DFF814462079002708B1FDF779FD8120AF
:104C50002071DFF81406007838B1DFF81056686A62
:104C6000000604D4686A400601D42771AAE000F067
:104C700035FCA86E40084000A866A7710421607941
:104C8000A072204600F017FD207800F07F00C01EC3
:104C9000E071C0B27D28BEBF607800F00701042932
:104CA0007DDA00F00700022804BFE07A00284CD12A
:104CB000684600F000FDFDF771FE00F0010080F095
:104CC0000106DFF8AC05007886282FD1DFF8A4951F
:104CD000D9F8000008B9FDF733FD9DF90000A0F1F7
:104CE00049089DF8010000F07F0A51464FFA88F00C
:104CF000FEF722FBD9F800104877D9F8000080F8B9
:104D00001EA0D9F8000080F81F800EB1FDF742FE0A
:104D10009DF80100000606D5607800F01001E078EB
:104D2000FEF76EF905E0FEF7ADF902E00EB1FDF712
:104D300031FE686A400640D5686A00063DD4DFF857
:104D40003805ED218160816037E0DFF824050078C7
:104D5000862808BFFEF796F9A07A010010D0E17A04
:104D600071B901285DD0022803D161780722114270
:104D700057D1032804D1607800F00700032850D1F0
:104D8000A078C0F381094FEA9018DFF8F0040068BA
:104D900000BBB8F1010F18BFB9F1010F1AD1DFF84C
:104DA000D804ED2181608160696A490605D5696A88
:104DB000090602D4ED21816081602771A079002865
:104DC00040F0D680FEF7B8FDFEF701FAFEF778F85E
:104DD000BDE8F18F0FF2B84010F8091010F8080084
:104DE0004618B8F1000FF6B204D06078400644BF10
:104DF000B61EF6B2E079B11C884212DB801B801E21
:104E000061786072090748BF2527C0B2C0194C30CD
:104E100080B2FBF707FA606138B9DFF85C14E8206C
:104E2000886000F0ABF9BDE8F18FE07A002718B98F
:104E3000607800F02000A071A079A0B3FDF7AEFD6E
:104E400000F0010080F0010A607800F007000328FC
:104E50000CD1FBF7D0F9002873D1DFF824040078D7
:104E600000286AD005F0FEF8FE286AD0286820F0F5
:104E700004002860FDF792FD83462A20FDF7FFFD20
:104E8000DFF8F4136FF001000860BBF1000F08BFFA
:104E9000FDF780FDA86E40F00100A866BAF1000F92
:104EA00018BFFDF777FD606900F14C0141600164B6
:104EB000617A01726069017A80F8441060780007B5
:104EC00010D56169032081F84400611C606940309D
:104ED00002790068FDF7E2F8606950F8401F027936
:104EE00011440160606980F82480606980F82E9028
:104EF000FFF7A5FC61690863FFF788FC6169888694
:104F0000607800F0070008736169E07881F83D007F
:104F10006178A078C0F3011001F07801084361695D
:104F200038438873D6B9617A0FF201100A000DD1A7
:104F30000120A8620FF2391019E0FBF74DF90028A3
:104F400094D02868042740F0040092E71029A8BFF5
:104F500010212172217A491EA96208E02672617827
:104F6000207A090758BF401EA8620FF2090020618D
:104F7000BDE8F18F30B5B84C207A85B008B9FDF79F
:104F8000DFFB217A684600F096FBA0786946C0F303
:104F90008100C8B162699DF800304D7803EB0523AC
:104FA00013870328138FD38608D10DF1020102F174
:104FB0002600FEF718FA0DF10A0105E08878C97895
:104FC00000EB0120D08401A9A078800915D0626986
:104FD000937B5B0605D40B784D7803EB0523D386D2
:104FE000891C032804D102F11C00FEF7FCF904E03F
:104FF0000878497800EB0120908300206169C8752A
:10500000617A0FF229000A0005D194490120086055
:105010000FF25D0007E01029A8BF102121728F4A0E
:10502000217A491E1160206105B030BD10B58A4C4F
:105030006069217A006C00F03EFB6169207A0A6C9D
:1050400002440A64617A081A6072C1B231B98349B4
:10505000012008600FF21900206110BDC0B21028B5
:10506000A8BF102020727D49207A401E086010BD24
:105070002DE9F041784D0221284600F01CFB6878AC
:10508000002410F0800602D1E87A02283ED10220E6
:105090002871FEF751FC2857A0F14907687800F005
:1050A0007F08414678B2FEF747F9696981F83A000E
:1050B000686980F83C70686980F83B806869011D08
:1050C00000F14C02CA6390F844000B790A68C01AD8
:1050D00010440860897A490707D50078042804D06D
:1050E0006248016821F0040101606548007818B148
:1050F00004F0BFFF00B104246869817B44EA060222
:10510000114381736869FBF7B9F809E05748816E6C
:10511000490849008166AC7105F11400FBF78EF86F
:105120000020686105215148816256492961416A20
:10513000490606D5406A000603D45348ED210160B4
:10514000016000202871A87938B9FEF7F5FBFEF759
:105150003EF8BDE8F041FDF7B3BEBDE8F08180B593
:105160003D4800218171007938B9FEF7E5FBFEF773
:105170002EF8BDE80140FDF7A3BE01BD10B5364CC9
:1051800040492069884218BFFDF7DAFAE07901004A
:1051900016D13E480168490606D50068000603D4CA
:1051A0003948ED210160016000202071A07990B99B
:1051B000FEF7C2FBFEF70BF8BDE81040FDF780BE1E
:1051C0001028A8BF102020723049207A401E486065
:1051D0000FF20500206110BD10B51F4C217A84B07C
:1051E000684600F068FAE079217A401AE071C1B2AD
:1051F00041B1C0B210281EDA2072401E2349486017
:1052000004B010BD2148052141601E49216101689B
:10521000490606D50068000603D41B48ED2101604D
:10522000016000202071A07928B9FEF785FBFDF709
:10523000CEFFFDF745FE04B010BD10B5064CA07BB7
:10524000401CA07301206073207B18B9FFF7AEFCEF
:105250000020607310BD0000D06A00205086084016
:105260003488084000860840686C00202886084082
:10527000C06B00209841002030880840B86B0020A7
:105280006F6C00203D4C2000388808404C86084058
:1052900000BE040A10B5FDF781FBDFF8A813002259
:1052A0000A604A688C6808B9FDF774FB2406600E32
:1052B00010BD38B5DFF888030068C00648BFFDF7A9
:1052C0003FFADFF88403DFF88443012101670160BE
:1052D000E220A060FF20A060FDF760FB05462A20C9
:1052E000FDF7CDFB6FF0100020600DB9FDF752FB0C
:1052F000FDF754FB05462A20FDF7C1FB6FF00800BF
:1053000020600DB9FDF746FBBC20A060B820A0606E
:105310000F20A060D020A060A060A06035E038B56C
:10532000DFF81C030068C00648BFFDF709FADFF884
:105330001803DFF81843012101670160E220A06033
:10534000FF20A060FDF72AFB05462A20FDF797FB0A
:105350006FF0100020600DB9FDF71CFBFDF71EFB80
:1053600005462A20FDF78BFB6FF0080020600DB981
:10537000FDF710FBBC20A0601720A0608120A0607A
:105380001020A060D220A0608120A0601020A0602A
:10539000D220A060D920A0600120A0600920A060D8
:1053A000BA20A0600120A060C520A060D220A0602B
:1053B00031BD10B5A648A7490078A74C08606FF02A
:1053C00002002060FDF7EAFA0021616000F00100B0
:1053D000A24BA168E2681B68122B80F00100D2B2D8
:1053E00004D2C9B252EA010308BF491C0323636017
:1053F000C9B2A160E26008B1FDF7CCFA904801683B
:1054000041F010010160016841F008010160FEF700
:10541000B1FAE120E06210BD38B589480068C006E5
:1054200048BFFDF78DF98848884C0121016701606C
:10543000E220A060FF20A060FDF7B0FA05462A2018
:10544000FDF71DFB6FF0100020600DB9FDF7A2FA0B
:10545000FDF7A4FA05462A20FDF711FB6FF00800BE
:1054600020600DB9FDF796FABC2092E72DE9F041D6
:105470007348744D0168774C41F010010160016878
:1054800041F008010160FDF789FA00F0010080F0A9
:1054900001080020286068686E69F6B206F00F0007
:1054A000C0F10F07FFB22760FEF712FA6C49012026
:1054B0000870E120A8620020286068686869864258
:1054C00003D0022FA4BF781E2060B8F1000F03D0D4
:1054D000BDE8F041FDF75EBABDE8F0815A480068CA
:1054E00000B1704780B556480168C9060DD50168FE
:1054F00021F0100101600168090705D5016821F05C
:1055000008010160FDF7F2FDB0E001BD2DE9F843AF
:105510004B4C2068C00648BFFDF712F9FFF7BAFEF2
:10552000814651480678152EB8BFFDF709F909EBF9
:1055300006001438C0B2142190FBF1F101EB810296
:10554000444EA0EB8205491C0220EDB2B0605FFA28
:1055500081F8C6F80080152DA8BFFDF7F1F83E4F81
:105560006FF002003860FDF719FA03213B4A7960B9
:105570006902126800F00100122A80F0010002D2D4
:105580008AB202B9012189B201F0FF02BA60090AA8
:10559000F96008B1FDF7FEF9E220F862FF20F86239
:1055A000FDF7FCF905462A20FDF769FA6FF01000B7
:1055B00078620DB9FDF7EEF9BC20F862B820F86208
:1055C000D220F862206840F010002060E120F862EC
:1055D000FFF760FE484505DA3068404502D1306883
:1055E000401E3060BDE8F1831548016821F01001CC
:1055F0000160E2211B480160FF21016070471048F3
:10560000016821F008010160FDF770BD80B50C480C
:10561000016821F0100101600B48016801B925E023
:105620000168012903D1BDE80140FDF785BC006890
:10563000022818BFFDF784F8BDE80140FDF722BD40
:1056400090860840108808409087084030880840BD
:10565000C36B0020888708400C880840B86B002086
:10566000686C002038880840E0660020BDE80140F2
:10567000FDF79FBC130005D011F8013B40F8043B37
:10568000521EF9D17047130005D050F8043B01F8C1
:10569000013B521EF9D1704738B504460D0008BFD2
:1056A000FDF74EF814F8010B0B4908606D1EE8B2C7
:1056B0000028F7D131BD38B504460D0008BFFDF70D
:1056C0003FF80548006804F8010B6D1EE8B2002899
:1056D000F7D131BD000000002888084062B38B0775
:1056E00008D0521E11F8013B00F8013B00F0248065
:1056F0008B07F6D1830740F0208000BF103A07D314
:1057000030B4B1E83810103AA0E83810F9D230BC03
:10571000530724BFB1E80810A0E8081044BF51F8AF
:10572000043B40F8043BD20724BF31F8022B20F899
:10573000022B44BF0B7803707047083A07D3B1E8D7
:105740000810083A40F8043B40F804CBF7D253075E
:10575000E4E7000010B51548154C016841F004015C
:10576000016014480068122812D21348C18C01F05D
:10577000FF022262090A6162418D01F0FF02A2620A
:10578000090AE162082200F13C012046FFF772FF9E
:105790000020A065A06D40F00900A06510BD034881
:1057A000016821F004010160704700009486084000
:1057B000A8850840B86B0020E0660020704780B5DF
:1057C000FEF79CFE02490020087001BD00000000A9
:1057D000664200202DE9F04F6421484385B01F3018
:1057E0004FF000094409CDF80490C846894D06D110
:1057F000FCF72CFC040008D1032068700CE0FCF7D7
:1058000025FC10B1A04298BF04460220082C687005
:1058100002D2002C40F0C980FDF7C0F810B9FDF7A6
:10582000B9F801E0FCF78CFFFDF7B8F828780028FC
:1058300000F0B6800220FCF7F8F8002840F0B080B5
:1058400004F0CAFC7448754E844228BF744C03D2DD
:105850009CB37448844225D3734874490419306852
:105860008DF8000070688DF80100B0688DF80200B6
:10587000F0688DF80300DDF8009001EB090000905E
:105880000098172824BF173800909DF80300F06097
:105890009DF80200B0609DF8010070609DF8000066
:1058A000306004E0204600F083F881460024302078
:1058B000FDF7E5F83020FDF78AF85D4801688908B2
:1058C0008900016001686A78114301603069C0078E
:1058D000FCD50120574F2870D7F800A078680090B9
:1058E000B8680390F8680290D7F810B0386800F0F4
:1058F00005003860786800F001007860B868002022
:10590000B860F8680020F86038690020386104F059
:1059100071FCFDF73FF8FEF7F1FDFEF7D9FD2878A1
:1059200008B104F04DF8FEF7DEFDFDF737F8C7F8D3
:1059300000A0009878600398B8600298F860C7F8F3
:1059400010B03020FDF76FF86878022811D1306868
:105950008DF8040070688DF80500B0688DF80600B9
:10596000F0688DF8070001984044A0EB090000F1B1
:10597000170804F032FC002C7FF46AAF7D2000FB96
:1059800008F0000B18BF04F060FC04F02DFCFCF7DD
:1059900064F8FCF7FFFF05B0BDE8F04FFFF70BB868
:1059A00005B0BDE8F04FFCF7F5BF05B0BDE8F08FDE
:1059B0001A4A81B0014610688DF8000040F29F2C11
:1059C00050688DF801000CFB01F190688DF8020021
:1059D000D0688DF80300009800EB91110091172911
:1059E00024BF173900919DF80310D1609DF8021073
:1059F00091609DF8011051609DF80010116001B098
:105A00007047704780B53020FDF739F80149002014
:105A1000087001BD664200200120FD0040500D408D
:105A20000020FD00975118006AAEE7FF60F7FE0006
:105A300058200D4000E100E010B5DFF8D819DFF87C
:105A4000D8490870002084F8260004F013FCFEF703
:105A500065FA0020606703F03DFC04F00EFC0020B6
:105A6000DFF8281A0860BDE8104003F035BF2DE9C3
:105A7000F0430C4687B020041FD5DFF89809007862
:105A8000FCF7B8FB050015D00FF28C11002000E0E8
:105A9000401CC0B2024611F83230FF2B07D02E78DE
:105AA000B342F5D101EBC201284649688847284630
:105AB000FCF744FB84F40040ABE0A0040BD5FEF7F8
:105AC0001FFC050004D000F007FA2846FCF736FB5F
:105AD00084F400509DE0E00723D5DFF83C5905F23F
