:020000040020DA
:10000000A0630020616F2100956F2100976F210090
:10001000996F2100996F2100996F21000000000065
:10002000000000000000000000000000996F2100A7
:10003000996F210000000000996F2100C56C21001C
:10004000916F2100996F2100916F2100996F21001C
:1000500000000000996F210025A92000996F210060
:10006000996F210000000000000000000000000067
:100070000000000000000000996F21000000000057
:100080000000000000000000996F2100996F21001E
:10009000996F2100996F2100996F2100996F2100BC
:1000A000996F2100996F2100FF4D2000654E2000BF
:1000B000996F2100996F2100996F2100996F21009C
:1000C000C5702100B74D2000996F2100996F210064
:1000D000996F2100000000000000000000000000F7
:1000E0000000000000000000000000000000000010
:1000F000996F210000000000996F2100996F210085
:10010000082102F066BF38B5DFF8084A0FF2217007
:10011000594D60650FF6B900A0650FF27550E862A1
:100120000FF225502863DFF8000C6863DFF8FC0B42
:10013000A8630FF6BD00E8630FF2A93028640FF240
:10014000B15060640FF20560A0640FF27550E06476
:10015000DFF8DC0B2065286908B103F069F8DFF8E7
:10016000140CA8600B2208202873002100202861AD
:1001700084F82000287505F1150002F00DFD05F149
:100180002000BDE838400B22002102F005BD30B54B
:100190000446201D83B0052141820321017461685A
:1001A000491E4A1E626094F836200A7094F8361090
:1001B00011B14FF6FF7101860268018E521E026076
:1001C000090A02F8011F6268018E11700179C91CC9
:1001D000017100A804F12B0103F0A4F803208DF8AD
:1001E000080000AADFF86008C38C0321204601F054
:1001F0005FFE050004BF204600F071FF01F0ABB8C0
:1002000038B504460D466068411E100A087001F8B2
:10021000012D049801F8010DDFF82C08428D120A17
:1002200001F8012D408D01F8010D180A01F8010DAA
:1002300001F8013D207A62681018401A207261604E
:10024000287A03280CBF01200020E0820B2209201D
:10025000207504F12000394902F08AFC4FF6FF7343
:100260002A460321204601F023FE050004BF204654
:1002700000F035FF284632BD206C00202DE9F04704
:1002800005460F469246002603F058F8DFF88088AE
:10029000D8F8004000F0010080F0010913E0607E12
:1002A000400613D560684178C1F3810103290DD15F
:1002B000ED1F411D284603F035F8103654F8084C60
:1002C0006D1EF6B27F1EFFB227B101E054F8084C54
:1002D000002CE4D1B9F1000F18BF03F02BF803F0A4
:1002E0002DF800F00100D8F8001080F001000BE0BC
:1002F000927905F80129761C4A68527905F8012996
:10030000F6B27F1E51F8081C89B14A685378C3F3CE
:100310008103022BF6D14B7E5B06E9D40A7E92065E
:10032000F0D50122FFB28AF80020002FEAD108B1EF
:1003300003F000F82E70681EBDE8F087356C0020D1
:100340002DE9F04784B0804600208DF800008946F2
:10035000DFF8BC07857A9246082DA8BF0725DFF88D
:10036000E876387B00EBC5003D30C6B2304602F07F
:10037000E5FC04004DD030196060002020723A7B0B
:100380006068B968861A304602F0F2FB00AA294676
:10039000701EFFF773FF0021DFF8742B0170527895
:1003A0007978920142EAC11141EA0A1141F00F0144
:1003B00000F8011D48EA091100F8011D6268217A60
:1003C0005118091A217260600B220020E08220750A
:1003D0008DF80C0004F12000DFF8501C02F0C8FB7F
:1003E0009DF8000018B1E08A40F00800E0824FF666
:1003F000FE71788D8842ACBF03210221002301AA3F
:10040000204601F055FD0028204602D002F0A8FC4D
:10041000002004B0BDE8F087F8B5044602F08EFF76
:1004200000F0010080F00105DFF8E406076800260F
:100430000EE0787E000609D56168786801F0DEFC80
:1004400020B1787E00F0BF0078763E4657F8087CF1
:10045000002FEED11EB1707E40F040007076002D6E
:100460001CBFBDE8F14002F065BFF1BD2DE9F843C6
:1004700080468946002402F061FF00F0010080F010
:100480000107DFF88C06066800250CE0354605F10B
:100490001800417841F010014170287E40F0800042
:1004A000287656F8086C9EB1707E0006F9D5726801
:1004B0004946404601F0BEFC0028F2D0002DE5D0B0
:1004C000287D012804D16868017841F0100101708D
:1004D0000FB102F02FFF15B100F0AAFD0124204654
:1004E000BDE8F2832DE9F04182B00024009402F0CF
:1004F00025FF00F00100DFF81866376880F001057D
:100500000EE057F8088C22463946304602F023FDAB
:10051000394600A802F0DCFCB07A401E4746B072B3
:1005200067B1787E000605D5788A401E788280B251
:100530000028E6D03C4657F8087CF1E70DB102F000
:10054000F9FEB07AE8B1DFF80005DFF8C845407B76
:100550000F281CBF94F82000002812D1DFF8605C3F
:10056000284602F0D1FA03F05CF83030686004F1FC
:100570006C01284602F09AFA03E06070204600F011
:10058000A0FC00A802F0BEFC040007D0FFF744FF67
:10059000607E40074CBFE920F020EEE7BDE8F38124
:1005A00070B50546FFF738FFDFF86445DFF898645B
:1005B000A06F80470128F08D08BF401C6882A07A98
:1005C000002804BF707B0F280DD1DFF8F45B2846AC
:1005D00002F09AFA03F025F8303068602846DFF818
:1005E0007C1C02F063FA02F0A9FEA17A491CA172F8
:1005F000002804BFBDE8704002F09CBE70BD38B555
:100600000446607E00F0EF0060762046FFF704FFAE
:10061000DFF8FC542146284602F08DFC02F08EFEE5
:10062000A97A491CA97208B902F084FEDFF81804FF
:10063000407B0F2806D1BDE83440DFF8D4080078AD
:10064000FFF75EBD31BD000010B50446DFF8F803CA
:10065000407886B0C8B101208DF8000004F11C017B
:1006600000208DF801000DF1020002F05BFE6068D1
:1006700000788DF80A000B2204F10F010DF10B0038
:1006800002F076FA00A803F02BF806B010BD0000C7
:1006900010B50446FFF77BFDDC2818BFDD2808D025
:1006A000E42818BFF32804D0DE281CBFDF28DB288D
:1006B00005D101462046BDE8104001F005BA10BD45
:1006C00010B586B0044606208DF8000004F11C0128
:1006D0000DF1020002F026FE0B2204F10F010DF1D4
:1006E0000A0002F045FA00A802F0FAFF06B010BDB9
:1006F00010B5044684B094F8360028B304F12B01F9
:1007000001A802F00FFE03208DF80C00CE4890F8EF
:100710003A10C38C009101A9A28E2046FFF770FD0C
:10072000DC2818BFDD280BD0E42818BFF32807D039
:10073000DE2818BFDF2803D0E82818BFDB2803D144
:100740000146204601F0C0F904B010BD2DE9F04388
:1007500085B004464FF00009E72602F0EFFDDFF810
:10076000B0733D6800F0010080F0010802E0A94686
:1007700055F8085C95B1687E0006F8D5287D0128FB
:1007800002BF95F8390021798842F0D14A462946BE
:10079000384602F0E0FBB87A401EB872B8F1000F9C
:1007A00018BF02F0C7FD002D3BD02846FFF734FEEE
:1007B0002978DFF8D80B085C8DF800000B2805D1EC
:1007C000F0206870284601F019FD29E040B30C289C
:1007D00020D1019595F839008DF80200E868029063
:1007E00005F10C008188ADF80C10817AC90648BF6C
:1007F000002104D49449827B91F83410891A8DF831
:100800000E10417C8DF80F10817C8DF81010C07C8B
:100810008DF81100F0208DF8010000A802F060FFB3
:1008200000263146204601F04FF905B0BDE8F083BF
:1008300070B5044684B06078F32818BFDF285AD01A
:10084000E82818BFDB2856D0204600F059F80600EB
:1008500050D1207C00284DD004F11101092000F076
:10086000E9F9050046D002208DF808004FF6FF7622
:10087000ADF80060FF236868A17A228900F8013D85
:1008800000F8013D00F8011D6F494B8D1B0A00F86F
:10089000013D498D00F8011D110A00F8011D00F805
:1008A000012D297A6A685118091A297268609DF821
:1008B000080003280CBF01200020E8820B22092039
:1008C000287505F12000DFF8501C02F051F933467D
:1008D00000AA0321284601F0EBFA060004BF2846CF
:1008E00000F0FDFBF32E18BFDF2E03D0E82E18BF5B
:1008F000DB2E03D16670204600F06AF804B070BDAC
:1009000038B504460025A07A0B38122828BFE82500
:10091000207B1028A8BFE82501DA0F2804D07C49E5
:10092000097E090758BFE825617B884202D20F295A
:1009300018BFE8254448408D4FF6FF71884208BF34
:10094000EC25242002F010FCDFF87418086120B1B7
:100950002422211D02F00CF900E01A25284632BDA0
:1009600070B504463848217ADFF8A465C51CA97221
:10097000617A80F82C10E17AC170A07A707002F070
:10098000EAFF707838B1211D502003F02AF9A11D2B
:10099000E12003F026F95F49012081F82000A87AC0
:1009A0000F2814BF01200020DFF8145828750B22EF
:1009B00004F10D0105F1150002F0DAF804F1180157
:1009C00005F12000BDE870400B2202F0D1B8000014
:1009D00010B50446607820B9DFF8E4070069FFF736
:1009E000BFFF2C2020702046BDE8104001F0A7B8C2
:1009F00010B5DFF8CC170446086918B100220A6167
:100A000002F016FC082020702046BDE8104002F0DD
:100A100067BEDFF8AC173F48097D90F8200081F0F1
:100A20000101084200D1704780B50748C27890F8AC
:100A30002C10407BFFF784FC00281CBFBDE802405F
:100A400000F04DBB01BD00009C6800202DE9F04383
:100A5000814687B099F80E00012409F20E0640077E
:100A600039D5318D09F11C00FFF700FD98BBDFF887
:100A70009C0C407920B1B07D022808BF00242AD008
:100A80000B2209F10F0104A802F072F8DFF8800CC4
:100A9000408D4FF6FE718842ACBF03270227B6F89F
:100AA000288004A9012000F0C5F8050013D03020EB
:100AB000E8822C750B2204A905F1200002F058F8F9
:100AC000434609F11C023946284601F0F1F910B9F4
:100AD000284600F004FB10208DF8000009F11C01ED
:100AE0000DF1020002F0FEFB308DADF80C008DF828
:100AF0000E4000A802F0F4FD07B0BDE8F083DFF877
:100B00001004407800B9704700B500F017BF00002E
:100B1000D842002058420020DFF8F80BDFF8F81B1D
:100B200001F154020263DFF8F42B426301F1440245
:100B300082630FF22002C266DFF8E42B4264DFF822
:100B4000742C0267DFF89C2C0A66018B41F00201CD
:100B500001837047030471040204600411047004EB
:100B600002040204010402041004610400041404D9
:100B7000630473047204620443040004130406044F
:100B8000000400040404120400040004000400042F
:100B90005104640000040004000444040004000440
:100BA00000040004650400043504810464000504A5
:100BB000000483040004000002460146032000F004
:100BC000E6BF02460146052000F0E1BF30B504460D
:100BD00085B0282002F0B2F8050004D00820287063
:100BE000242200F0D6BE082000F0C9BE10B5DFF800
:100BF000244B0FF2C520606782B00FF2A920A067D6
:100C000006E0204602F07EF9009000A801F097F877
:100C100020680028F5D1606838B1201D02F072F913
:100C2000009000A801F08BF8F5E72060A072E07258
:100C3000207313BD38B504460FF23800255C2846F2
:100C400002F07CF820B1291841600021017232BD08
:100C5000022002F073F850B10FF2C421615C017000
:100C60001A2141700146AA48007802F088F8002055
:100C700032BD0000004246484045453F354D3600F4
:100C8000821DD2B2C90711D50A2192FBF1F101EB05
:100C90008103A2EB4301C9B241B10A32521AD2B266
:100CA0000529A4BF0A32D2B20B32D2B21328ACBF8C
:100CB000142006208018C0B209300A2190FBF1F000
:100CC000C0B2704780B5DFF84C0A007E800706D5B9
:100CD00002F0F8FD401E8041C043C00F02BD00205D
:100CE00002BDDFF8300A017E89070FD5807A58B936
:100CF000DFF8240AC06D48B1407E00F08001481E34
:100D00008041C043C00F70470120704700207047EA
:100D1000DFF8001ADFF8F429097B9278914238BF96
:100D200002F00CB800207047130A20004D0A200082
:100D3000FF0A200038B5040008BF03F085F802F070
:100D4000FDFA00F00100216880F0010561B1DFF8D3
:100D5000C4295369A1F108008B4204BF00215161ED
:100D60000021216002F064FA0DB102F0E3FA0020E4
:100D700032BD0000ED19200011B581B0007B20B11B
:100D800001282CD003282CD03EE0DFF88449607B7A
:100D90000F281EBFDFF87C09807E032804D0DFF80F
:100DA00078190198496E8847019994F83A00887338
:100DB000142001990870DFF85C490199201D02F0A8
:100DC00087F802F0BBFA217B491C217308B902F0B5
:100DD000B1FA20214E48007802F0FBF813BD15202F
:100DE000E7E70198007A78B101994A68521C4A6095
:100DF00012F8011D019A5173019A0199D27D497B24
:100E000032B109B10A2912DB01A800F098FF13BD25
:100E10000A0008D00A2A06DA0FF23001511811F838
:100E2000011C884203D0082A08BF0828ECD1019988
:100E3000401E087201980199407B0A3008700198A1
:100E40000199407B401C4873B5E700000204020191
:100E50000101010902000000DFF8B808C06F0100BD
:100E600018BF00470020704738B5044601202075A0
:100E700004F1140104F1380042884A800279CA71F1
:100E800004F12C024079087220464B8C94F83810FB
:100E900001F00EF8050004BF204600F020F92846B6
:100EA00032BD0000DFF86C08807E032801D00120ED
:100EB0007047202070470000417E41F001014176DB
:100EC0007047017D027E012904D113075CBF417880
:100ED00000F0FABD530603D50D494078896D0847E7
:100EE000012903D1120748BF30210BD442781B2AB5
:100EF00008BF222106D0002A0CBF0FF218020FF201
:100F00002002895C017001460148007801F037BF7A
:100F1000E06A0020303016181920231A1C1E3000F9
:100F2000303017181921301B1D1F300038B5DFF87D
:100F3000E8470546E06D002876D025B11B2D05D188
:100F4000017D052956D00021417055E0E92D2BD1B6
:100F5000807E30B902F0B8FC18B1E06D807D4007AA
:100F60002BD5EE2003F0C0F8E06D817E002942D041
:100F7000827D520705D4491E8176BDE8314003F0D9
:100F800048B9017E01F07F010176E06D017D032902
:100F900003D1417E41F004014176ED2003F0A4F835
:100FA000E06D216E88472AE0E12D1CD102F08CFC17
:100FB00000B3E06D807D40071CD4DFF85407E26D7C
:100FC00000F12201897C9176E26D90F8221052683E
:100FD000917090F82210491C80F822100120BDE881
:100FE000324003F089B81C2D04D1A16E884700203F
:100FF000E06531BDE06D4570E06DFFF762FFE06DCB
:10100000807D000609D5DFF8080700F22205287E5A
:1010100002F0F2FCE87D02F0B8FC0020E06510214F
:10102000BDE8344000F0E4BC31BD0000406C00205D
:101030002DE9F041002402F081F900F00100DFF811
:10104000D85680F00108E86D90BBDFF8C876B86F1D
:1010500080473E6840F0100002E0344656F8086CC5
:1010600036B3717E01408142F7D12246314638467F
:1010700001F071FFEE65707E000620D4F87A401E04
:10108000F872B8F1000F18BF02F054F9EC6DE18A64
:10109000207AFFF7F5FD3881A07D000613D5E07EAC
:1010A00002F0AAFCE86D007FBDE8F04102F06DBCE3
:1010B000B8F1000F11D0BDE8F04102F03BB9B87AA9
:1010C000401EB872DDE7207EBDE8F041400800F028
:1010D000010080F0010003F00FB8BDE8F08138B5E1
:1010E000DFF8305604466869A04204BF00206861FA
:1010F000207E000706D4207D012803D1DFF80C06EE
:10110000027802E0DFF8040642782146284601F022
:101110003FFFC0B1696F20468847A07D40070DD4CE
:1011200002F00CF9E97A491CE97208B902F002F9F7
:10113000E08AC0050DD4BDE8314079E7296F20462B
:10114000BDE834400847F12060702046BDE83240D9
:10115000B7E631BD6CE710B5DFF8B815098B04466A
:1011600000208A0705D404F134029279520748BF5F
:10117000E8206022114205D104F134018979890700
:1011800048BFE820DFF8481C227A8979914238BFAD
:10119000E82004F134010979002902BF94F83410E1
:1011A0000029F52004D010B92046FFF75DFE28B1D4
:1011B00001462046BDE8104000F086BC10BD00008E
:1011C000206C00200D21017002F08ABA00B585B0B4
:1011D000002101704170DFF8341590F83A30097839
:1011E000DFF830255B0715D4D27A8A4215D30C215B
:1011F0008DF80010019090F839108DF80210C16838
:1012000002910C308188ADF80C10817AC9060CD59A
:10121000002110E0927A8A42E9D20146DFF8D40B2D
:10122000007801F0ACFD05B000BDDFF8D017827B7F
:1012300091F83410891A8DF80E10417C8DF80F103A
:10124000817C8DF81010C07C8DF81100F1208DF894
:10125000010000A802F044FA05B000BDC44200201D
:1012600010B5044604F1580080B201F067FD18B1D2
:10127000047200F15801416010BDDFF87C0B0FF2E1
:101280005911016002220FF29D4141600FF2C91114
:1012900081600FF22521C1600FF2F13101610FF27F
:1012A0005D3141610FF21D3181610FF20D51C1615C
:1012B0000FF2355101620FF2A55141620FF209613F
:1012C00081620FF25921C1620FF2C50101630FF271
:1012D000910141630FF2793181630FF2D151C16302
:1012E000DFF8BC1B01640FF2F55141640FF2496154
:1012F00081640021DFF8AC0B80F85C1080F85F108F
:101300000FF2E961C1633C30016102710121017595
:10131000704730B50446251D83B00120688204F172
:101320002E010220287400A801F0DCFF6068AB8E5B
:10133000401E606000AA616894F83A00087083213A
:101340002879401C2871204600F0B2FD050004BF3A
:101350002046FFF7C4FE284603B030BD0000000061
:1013600038B5DFF8AC03DFF83C5B90F8350000EBF4
:1013700040010C0102F055F90019A86405F1440080
:10138000BDE83440DFF8241B01F090BBE4282000C6
:1013900030B5DF4C607B93B00F2807D02E208DF83E
:1013A000000000A800F0CBFB13B030BDDFF8F45A0A
:1013B00005F1340001F0A8FB608E1421B0FBF1F4BC
:1013C00002F02FF90019A86305F13400DFF8DC1AE8
:1013D00001F06CFB13B030BD10B50446607888BBDB
:1013E00094F8361002291CBF0329E82094F82B102A
:1013F0000B39122928BFE82025D218BB04F12B0194
:10140000E12002F0EEFB04F13801502002F0E9FB8C
:1014100094F83610BE48022902D1E18D018407E01C
:101420004FF6FE710184163004F12E0101F07AFFAF
:101430000B2204F12001DFF8700A01F099FB20462D
:10144000FFF767FF30B16070172020702046BDE8BD
:10145000104074E310BD000070B5DFF8484A94F8FE
:101460005F0084B028BB012084F85F0003F035F8EA
:1014700000A800F0AFFC04F15401A548C58C05207C
:10148000FFF7D8FB060014D00120F0820B220520C4
:10149000307504F1540106F1200001F069FB2B4680
:1014A00000AA0321304600F003FD10B93046FFF7D3
:1014B00016FE04B070BD000010B5044682B00120D5
:1014C00003F019F82078202804BFEB206070DFF8C3
:1014D000D40990F85F104A0744BF01F0FB0180F87F
:1014E0005F1090F85F108A0710D501F0FD0180F8B9
:1014F0005F100A2160788DF801008DF8001000203F
:101500008DF8020000A802F0EBF813BD2A2020702D
:10151000204600F014FB13BD356C002070B5054665
:1015200086B0012002F0E7FFDFF8784904F13400CB
:1015300001F0EAFA04F1440001F0E6FA6868017883
:10154000427801EB0221ADF80410867846B901A972
:10155000532002F046FB05F11C014A2002F041FB3A
:101560000B2205F10F0104F1540001F001FBBDF85D
:1015700004008DF8096002218DF808100EB14FF6B5
:10158000FF70ADF80A000B2204F1540103A801F02A
:10159000EFFA02A802F0A4F894F85F0080070BD5D8
:1015A00068788DF801000A2100208DF802008DF87E
:1015B000001000A802F094F8002084F85F0006B044
:1015C00070BD000010B5044682B0EB206070DFF8FB
:1015D000D40890F85F0080070BD50A208DF8000032
:1015E000EB208DF8010000208DF8020000A802F029
:1015F00077F8204600F002F813BD000030B505462C
:1016000085B0012002F077FFDFF8984804F134003C
:1016100001F07AFA04F1440001F076FA002084F82F
:101620005C0084F85F000B2202208DF8000004F1BA
:10163000540168788DF801004FF6FF70ADF8020094
:1016400001A801F095FA00A802F04AF805B030BDF3
:1016500010B5044682B0EB206070DFF8480890F8BF
:101660005F0080070BD50A208DF80000EB208DF875
:10167000010000208DF8020000A802F031F8204699
:10168000FFF7BCFF204600F065FE13BD10B5044611
:1016900082B0012002F02FFF207A002814BF002022
:1016A000EB206070DFF8FC0790F85F104A0744BF3A
:1016B00001F0FB0180F85F1090F85F108A0716D5E3
:1016C00001F0FD0180F85F10A07B00F01000012800
:1016D000ACBF0120002061788DF802000A228DF84D
:1016E00000208DF8011000A801F0FAFF08E0C807FB
:1016F00006D52A202070EB206070204600F01FFAEB
:101700000D202070204601F0EBFF13BDBC702100BE
:101710009C680020D8420020584200204C6C0020D9
:10172000070120002DE9F8430446DFF8780790F818
:101730005F1041F0020180F85F10012002F0CDFE41
:10174000607840BBAD48408D4FF6FE718842ACBF1B
:101750000325022504F11008B4F80E901A2641461C
:101760000520FFF767FA070014D00120F8820B224A
:1017700005203875414607F1200001F0F9F94B4684
:10178000221D2946384600F093FB060004BF384668
:10179000FFF7A5FC6670607850B18DF801000A2152
:1017A00000208DF802008DF8001000A801F098FFCD
:1017B000BDE8F183A105200010B5044682B00120E8
:1017C00002F099FE2078202804BFEB206070DFF83B
:1017D000D40690F85F104A0744BF01F0FB0180F87F
:1017E0005F104DE0FF05200038B50446012002F0EF
:1017F00082FEDFF8B05605F1340001F085F9207A59
:10180000002814BF0020EB20607095F85F004107AE
:1018100044BF00F0FB0085F85F0095F85F0081078A
:1018200015D500F0FD0085F85F00A07B00F01000EA
:101830000128ACBF0120002061788DF802000A2247
:101840008DF800208DF8011000A801F049FF0D204F
:101850002070204601F044FF31BD000010B5044661
:1018600082B0012002F047FEEB206070DFF8340602
:1018700090F85F104A0744BF01F0FB0180F85F1049
:1018800090F85F108A070FD501F0FD0180F85F1016
:101890000A2160788DF801008DF8001000208DF885
:1018A000020000A801F01CFF13BD000010B50446A3
:1018B000DFF8B40B01F028F92046FFF7CFFF2046F0
:1018C000BDE8104000F046BD10B50446DFF8980BA7
:1018D00001F01AF92046BDE81040BFE710B50446F4
:1018E00086B004F11C01DFF8840B01F0D5FC08B3CD
:1018F00009208DF80000EF208DF801006068017864
:10190000427801EB0221ADF8021000798DF8040055
:10191000207A082806BF6068C07900208DF805008D
:101920000B2204F10F010DF1060001F021F900A8CE
:1019300001F0D6FE06B010BD4DF804ED85B00920CB
:101940008DF80000EE208DF8010000A801F0C8FE1F
:1019500005B000BDDFF8180BDFF89C148162383148
:10196000C1620FF29C0101660FF2F8014166DFF8D7
:10197000041B0164018B41F00101018370478DF864
:1019800000001A208DF8010000A801F0A9FE05B0A2
:1019900030BD002068702146281D01F0E9F8DFF80D
:1019A00054040078294601F0EAF905B030BD10B5BD
:1019B000DFF8BC4A206982B018B104F1100000F0D1
:1019C000BEF90020A076DFF8600B006858B102E095
:1019D00000A800F0B4F9DFF81C04007801F01CFA4C
:1019E00000900028F4D113BD000000004FEA000170
:1019F000DFF80004007801F0ECBA00009C680020D9
:101A00000101710101010101110101013101010116
:101A100001018001100161013B00140063017301A9
:101A20007201620143010001130106013D0135000D
:101A30000401120100010001000100010401040180
:101A4000330133013C014401320136000001000141
:101A5000650100013500810100010501820183015A
:101A600000010000030271023001600211027002E5
:101A70000102020202028002100261023A004100E9
:101A80006302730272026202430200021302380010
:101A90000002000204021202000200020002000220
:101AA00004020402370037003C02440200023900FD
:101AB00000020002650200023502810200020502F6
:101AC000820283020002000000B585B00378DFF8CF
:101AD000A02A9A5C8DF800200B2A01D100F03DBBB2
:101AE0005AB30C2A24D11A2902D1002001901FE0F8
:101AF000019090F839208DF80220C2680292028A83
:101B0000ADF80C20827DD20648BF002205D4DFF854
:101B1000682A837E92F83420D21A8DF80E20427FF4
:101B20008DF80F20827F8DF81020C07F8DF8110076
:101B30008DF8011000A801F0D3FD05B000BD18B468
:101B4000DFF82C198A7E037801EB820203F07F0311
:101B5000D26D037002EB43035B7801EB8304E46D09
:101B600004B18B76037812F81320140901EB840179
:101B7000C96921B90B2B08DA14BC1821A4E702F0BB
:101B80000F0251F8221014BC084711BC7047F0B581
:101B900007460FF2800087B03C5C0D46204601F0FE
:101BA000CDF8060016D03770002070702946A019B5
:101BB0007060002030720FF268003A5C06F120007D
:101BC00000F0D6FF8B480078314601F0D8F80020AD
:101BD00007B0F0BDDFF898098DF80070385C8DF81B
:101BE00004000B2806D11A208DF8010000A800F08F
:101BF00005FB0AE048B10C2804BF002002901A201F
:101C00008DF8050001A801F06BFD1A2007B0F0BDAA
:101C100000000000000555534D581C202807020005
:101C200000011C181A18181C2403000071490870C0
:101C3000704770B50C4682B0A006DFF8345817D450
:101C40001BE001F07BFB297B491E297308B901F0D9
:101C500071FB30788DF800006E613046FFF76FFF42
:101C60009DF8000015281CBF05F1140000F067F86E
:101C7000281D01F047F90600E3D1200407D40CE049
:101C80006861FFF75CFF05F1140000F058F859484F
:101C9000007801F0C1F80028F2D1E00605D52D202A
:101CA0008DF8000000A8FFF74AFFE00705D52420C3
:101CB0008DF8000000A8FFF742FFA00705D52520FA
:101CC0008DF8000000A8FFF73AFF600705D5262031
:101CD0008DF8000000A8FFF732FF200705D5282067
:101CE0008DF8000000A8FFF72AFF600608D5002045
:101CF0008DF801002C208DF8000000A8FFF71FFFD1
:101D0000200608D500208DF801002F208DF8000056
:101D100000A8FFF714FF286978B101F00FFB2C69C8
:101D20000021296108B901F005FB6C612046FFF72D
:101D300006FF05F1140000F002F8002076BD38B56A
:101D4000040008BF02F080F801F0F8FA00F001008A
:101D5000216880F0010561B1DFF814275369A1F112
:101D600008008B4204BF002151610021216001F075
:101D70005FFA002D1CBFBDE8314001F0DBBA31BD78
:101D80001C480FF2D53181600FF2D931C1600FF2DA
:101D900045410161DFF8F01A41610FF26141816153
:101DA000DFF8201BC161DFF8801B01620FF2C571F3
:101DB000C1630FF2F94101640FF24D5141640FF21A
:101DC000ED5181640FF28D51C16400214170704763
:101DD000BC702100DFF8A0170A8C4FF6FE739A4200
:101DE00004BF163101F07EBA02220272098C018012
:101DF00070470000E06A00208C6B002042784B782E
:101E0000C2F38102C3F381039A4211D1022A09D19C
:101E100042794B799A4202BF80798979884207D109
:101E200001207047032A03D1491D401D01F064BA07
:101E30000020704770B55478067A0B460021C4F331
:101E40008104B44218D1022C10D1547995790088BC
:101E500004EB0524A4B2A0420ED1D078127900EB95
:101E6000022080B2834207D1012105E0032C03D177
:101E7000511D01F041FA0146084670BD017ADFF8B4
:101E8000F826022907D1118C0088814201D1012056
:101E9000704700207047014602F1160001F0FCB9BE
:101EA00007282000A0690020F4690020C442002017
:101EB0002DE9F84F1546044600222F7ADFF8B88640
:101EC000994608064EBF4FF6FF7608F11400468A81
:101ED00001F07F00A17D89064CBF082100212176F9
:101EE000A17D49074CBF802110216176A17DC906E3
:101EF0004CBF002198F83410A176E18ACB0748BF87
:101F00002022090748BF42F010026168237D491E64
:101F1000022B07DB0B2B1CBF5B1E01F8013942F0C3
:101F2000030200E01A4398F84930012B04D1237AC8
:101F3000672BA8BF42F4805242EA80321FFA82FA2D
:101F4000022809D108F11400C28A120A01F80129F5
:101F5000C08A01F801090CE0032809D1A1F1070B9F
:101F600008F13C01584601F0DDF9ABF1010100E058
:101F700050B127B14E4508BF4AF0400A04D0301294
:101F800001F8010901F801694AEA872086B2022FA7
:101F900007D12888000A01F80109288801F80109F9
:101FA00009E0032F06D1CF1F2946384601F0BAF9C0
:101FB000791E00E02FB14FEA192001F8010901F85C
:101FC00001994A1E207D28B998F81430581C88F8C9
:101FD000140004E008F11400837B5D1C85730B7012
:101FE000300A107002F8016D207A61680818801AB2
:101FF0002072626000206070BDE8F28F2DE9F0472A
:10200000099F8A460546904699461A263946FEF7A4
:1020100011FE04001AD00898E08225750B2239467B
:1020200004F1200000F0A4FD4B46424651462046F4
:10203000FFF73EFF060009D1ED1F012D03D8607E9A
:1020400040F0200060762046FFF749F83046BDE8B2
:10205000F08730B5044683B094F83910012001B1FF
:102060000520251D04F12C0168820420287400A895
:1020700001F038F960686B8E401E606000AA6168EC
:1020800094F83800087003212879401C28712046F4
:10209000FFF70EFF050004BF2046FFF720F8FFF70B
:1020A0005AB970B5044605200D4620702E1D95F8CE
:1020B0003D00A0706068F16A416105F11C0101F00A
:1020C00011F96068718E41810B2295F83A104174C4
:1020D000002160680176C17305F10F016068193055
:1020E00000F046FD6168B07A88736868616810F82E
:1020F000012B8A8110F8013B42EA03228A8110F801
:10210000012BD3095B1E9B41DB43DB0F0B7402F0F9
:1021100007014A1E9241D24301EB410101EBD2710A
:10212000C9B2081810F8011B2172E060217A01F091
:102130000702490801F0380101EB4201081860610B
:1021400031796A688B18834227BF081A101800205B
:102150002072207470BD00007047417000F04EF88E
:1021600005B000BD00B585B002780FF27871515C02
:102170008DF800100B2901D11921EEE739B30C2994
:102180001FD1019090F839108DF80210C1680291AA
:10219000018AADF80C10817DC90648BF002105D425
:1021A000DFF8D413827E91F83410891A8DF80E105E
:1021B000417F8DF80F10817F8DF81010C07F8DF852
:1021C000110019208DF8010000A801F089FA05B06E
:1021D00000BD000038B5DFF87C590446286930B1ED
:1021E0001921FFF771FC05F11000FFF7A8FD6869E0
:1021F000A04204BF002068612C6131BD10B50446C7
:102200008AB02078032808D0052808D0182804D0E0
:102210001E2818BF1F2802D018E0002000E001206F
:102220008DF8180004F12B0103A801F07BF80320BE
:102230008DF81400DFF84003418DC08CADF802101A
:10224000ADF8160002218DF80A101CE002208DF86E
:10225000180004F11C0103A801F064F803208DF8B4
:1022600014000B22DFF81003418DC08CADF8021072
:10227000ADF8160002218DF80A100DF1190004F1D5
:102280000F0100F075FC0B208DF800000B22607828
:102290008DF8010004F10F010DF1190000F068FC48
:1022A00000A801F01DFA0AB010BD000038B50446C0
:1022B00065789DB9DFF8C012E08EC98C884218BFDE
:1022C000E82504F12C00FFF7D9FD88B1002084F83F
:1022D00039001DB92046FFF7BCFE05463DB16570CB
:1022E000192020702046BDE83240FFF728BC31BDE0
:1022F000DFF8641894F8390091F8201080F001009C
:102300000843E6D1E825EAE710B586B004218DF848
:10231000041041788DF80510C18EADF8101000F151
:102320002C010DF1060000F0DDFF0DF10600FFF7B6
:10233000A5FD50B14FF6FF74ADF8004000A9532041
:1023400001F04FFCDFF81408048401A801F0C8F97B
:1023500006B010BD10B588B0044603208DF8040007
:1023600004F11C010DF1060000F0DCFF606800784C
:102370008DF80E000B2204F10F010DF10F0000F09B
:10238000F7FB04F11C00FFF779FD50B14FF6FF7425
:10239000ADF8004000A9532001F023FCDFF8BC0792
:1023A000048401A801F09CF908B010BDF0B5054601
:1023B00095B06868704C4078400611D5A61CE98E2F
:1023C000B08C88420CD1DFF89807407808B3092018
:1023D0008DF81800EE208DF8190006A801F080F99C
:1023E0000BA80190294600A8FFF75BFE2B208DF873
:1023F000000000A8FFF7A3FBA07810B19DF8100023
:1024000028B105208DF8000000A801F069F915B089
:10241000F0BD94F830000028E2D005F11C00FFF771
:102420002DFD0028DCD105F20F05B68C29460620CB
:10243000FEF700FC0700EAD00120F8820B220620FC
:102440003875294607F1200000F092FB334604F16D
:10245000160203213846FFF72BFD0028D7D1384656
:10246000FEF73DFE15B0F0BDD4690020B268002033
:10247000D84200207B122000F8B5054600F05EFF30
:1024800000F0010080F001040DB101F063FB01F0E8
:1024900014FE394D05F22607387D01F0ADFAF87CBF
:1024A00001F073FADFF8B866707801F054FAE88C3E
:1024B00001F05DFAB88801F05CFA05F13C0001F02A
:1024C0005FFADFF89076386C010018BF8047786CAF
:1024D000010018BF8047B86C010018BF8047F86C36
:1024E000010018BF8047386D010018BF8047786D24
:1024F000010018BF8047B86D010018BF804700F089
:1025000007FAFFF754FA00203071FEF76FFBFFF770
:1025100037FC05F12901522001F063FB0CB100F0FA
:1025200009FF0020F2BD0000DC6F0020DFF830065C
:102530000FF26501416200F108020FF25131816230
:102540000FF28531C1620FF2091101630FF205210B
:1025500041630FF2B1118163DFF8F815CA6100F130
:102560003C02243048620A620020088301F096BDD4
:10257000E4282000704700009C68002007220270B9
:102580000A7A82708A7AC2704A68426000220272B5
:10259000C969C1607047000038B50446DFF8C4550A
:1025A00000206870207A0628A4BFE8206870607A4E
:1025B0000F2804DB207A032804D0E8206870207AF2
:1025C000032806D1DFF88C05007EC0075CBFE82039
:1025D000687021462846FFF7D1FF616805F11800B1
:1025E000890A81600B22617A0173E17A4173217B50
:1025F0008173617BC173A17B01740A214174CB4952
:1026000091F83A108174DFF86015A9610421017115
:1026100005F12B0004F10F0100F0AAFA68780028F8
:1026200004BF607800280CD1681C407808B1EA210A
:10263000697001F026FA26202070042001F02BFF9B
:1026400001E0292020702046BDE83240FFF777BA2C
:10265000F0B5DFF810556E1C0446707885B005F1B2
:102660000C0760B9787F0A2809D001F04BFAE968B5
:102670007A7F511801F80B0CF079401CF0717869E1
:10268000797F40087861491C7977C00702D4C9B2C4
:102690001D29F4DBC9B21D292DD005F12901E12046
:1026A00001F09FFA02208DF810004FF6FF7370784A
:1026B000ADF80830002818BF022804D1204600F0E9
:1026C00021F805B0F0BD012807BF082080210720B0
:1026D000832105F12B0201920022009202AAFFF74A
:1026E0008DFCDB2818BFE52804D0F3281CBFDF28A9
:1026F000E82805D16870292020702046FFF71FFACE
:1027000005B0F0BD38B5DFF85C44616894F8292065
:10271000012000FA02F291436160A178032907D1F8
:10272000DFF8380490F8350000EB40010D0109E0B6
:1027300094F824209040401C00EB4002150109B998
:1027400001F0DEF900F06DFF4019606104F1100046
:10275000FEF716BE2DE9F043DFF80864751C8046CD
:1027600068788FB002281CBF0128052840D10020BE
:102770007070414600A80A9009A8FFF792FC06F184
:102780000C07EC79787E844220D2D6F80C900DE0CC
:10279000B9F80A00BDF80A10884204D100A94846D9
:1027A00000F07AFD90B9641E09F12409E4B2002C0E
:1027B000EED1F068EB7903EBC306242200A900EB0D
:1027C000860000F0D5F9E879401CE871DFF88C0349
:1027D000807820B19DF8340008B9787E10B909A836
:1027E00000F07EFF787E58B1E979814208D101E09E
:1027F000E8207070292088F800004046FFF79FF914
:102800000FB0BDE8F08338B5044694F824000328DF
:1028100004BF94F82E0003282CD104F11C014A2097
:1028200001F0DFF960680178427801EB0221ADF830
:102830000010851C00A9502001F0D3F92878697890
:1028400000EB0120ADF80000AD1C00A94B2001F009
:10285000C8F92946E12001F0C4F9681C01784078E4
:1028600001EB0020ADF8000000A9532001F0B9F9F8
:10287000002000E0E820DFF8EC12487029202070EA
:102880002046FFF75CF931BD5711200010B5DFF885
:10289000D44204F1100000F037F901F00FF90420E0
:1028A00001F029FEA078032804BF6078002804D036
:1028B00004F12A01E12001F094F92046BDE810401E
:1028C00000F00EBF5511200000B585B0014600A8EC
:1028D000FFF754FEFC208DF8010000A800F000FF77
:1028E00005B000BD0C0E020B040B0A0708000F0018
:1028F00030B5044685B0202000F020FA050004D051
:10290000072028701C22FFF744B80720FFF737B8CC
:1029100091480021C16601674FF47F0141678167DB
:102920000021C16770470000C51120009C6800208D
:1029300010B5894C0020E067E06E68B1616F4068B7
:10294000884209DA00F06DFEE16E4A688242B8BF43
:1029500002464A60E06EE067206F38B1E16F19B15E
:10296000426849688A4203DAE06701E0E06F40B1FB
:10297000E06F616F40688842BCBFBDE8104000F066
:1029800074BEBDE8104000F097BEF8B500F0D6FC6C
:1029900000F00100704D80F00104E86F002840D085
:1029A000696F4068814204DA01F04EFAE86F00284E
:1029B00037D000F036FEE96F4968884231D30029EC
:1029C00048BF01F041FAEE6F00F0B8FC00F00100E2
:1029D00080F00107E96E05F16C0001E00846114640
:1029E00021B10A68B142F9D1026004E005F1700139
:1029F000304600F07CF8E86F864208BFFFF798FF8A
:102A00000FB100F097FC377BB6680CB100F092FC78
:102A10003846B04700F092FC00F0010080F001045D
:102A2000C4E7002C1CBFBDE8F14000F083BCF1BD41
:102A300038B504460D460EE047496868C96F20184E
:102A40008D4202D1002848BF00206860002848BF9E
:102A500001F0FAF92D68002DEED131BD70B500F00E
:102A60006DFC00F001003C4D2E6FE96E80F001041A
:102A7000686F4042FFF7DCFF06E0686F71688142D3
:102A8000A4BF081A70603668002EF6D1A86F696F6F
:102A900081421CBF686700F0ADFDFFF749FF002CC5
:102AA0001CBFBDE8704000F045BC70BD70B5044669
:102AB0000D4600F043FC00F0010080F0010629689B
:102AC000284601E00846096819B162684B689A42D5
:102AD000F8DA046021602868A04208BFFFF728FFE9
:102AE000002E1CBFBDE8704000F024BC70BD0A6819
:102AF00001E011461A462AB113688242F9D10B60EF
:102B0000012070470020704770B5044600F016FCA5
:102B1000114EF16E00F0010080F0010506F16C002D
:102B200001E00846114621B10A68A142F9D10260CC
:102B300004E006F170012046FFF7D9FFF06F8442F0
:102B400008BFFFF7F5FE002D1CBFBDE8704000F088
:102B5000F1BB70BDD8420020584200209C68002084
:102B6000E06A0020D46C0020ED19200001F06EBD59
:102B70002AB111F8013B00F8013B521EF9D1704710
:102B800042B110F8013B11F801CB521E6345F7D05A
:102B9000002070470120704710B5044610460A46D1
:102BA0000146204601F06EFD204610BD0278022944
:102BB00003D1407802EB00207047032906D1417809
:102BC000807802EB012101EB00407047042909D114
:102BD000417802EB01218278C07801EB024101EBE0
:102BE00000607047104670472DE9F04389B00646F3
:102BF0000D46144603A80A2101F078FD68460A2113
:102C000001F074FD06A80A2101F070FD00200A2CD5
:102C1000287069D142F21070B6FBF0F042F21071E8
:102C200001FB10640A46B0FBF2F201FB1207DFF869
:102C3000C804B6FBF0F91FFA89F9B9F1000FBFB269
:102C400004D00A2206A9484601F088FD27B10A22CD
:102C50006946384601F082FDA0B218B10A2203A9E4
:102C600001F07CFDB9F1000F14D006A9284601F04F
:102C70009DFD00260FF2542804E04146284601F04D
:102C8000B7FD761C684601F0E1FCC0F10400F6B225
:102C90008642F2D36946284601F0AAFD57EA0907A1
:102CA00010D000260FF2242804E04146284601F007
:102CB0009FFD761C03A801F0C9FCC0F10400F6B228
:102CC0008642F2D303A9284601F092FD002F04BFEB
:102CD000A4B2002C04D17DA00178297041786970DC
:102CE000284609B0BDE8F083102CFAD1370C3446E1
:102CF00004D010226946384601F030FDA0B218B168
:102D0000102203A901F02AFD002FDBD069462846D6
:102D100001F04CFD00260FF2B41804E041462846AD
:102D200001F066FD761C03A801F090FCC0F10400E0
:102D3000F6B28642F2D3C5E701F034BD10B5040007
:102D400001D1002010BD04F1080080B200F00CFA9F
:102D500028B1002101608480FF218171083010BDFD
:102D600080B508B9052002BD10F8021CFF2901D06A
:102D7000042002BD083800F05BFA002002BD38B51F
:102D80000D00044636D0DFF87423127815F8020CD3
:102D9000944207D3FF2804BFA5F1080000F048FAC9
:102DA000032032BD55F8081C002908BFFF281BD19D
:102DB00005F8024C00F0C2FA002145F8081C00F0AA
:102DC0000100DFF83C130A6880F0010012B90D60C1
:102DD00006E00A4652F8081C0029FAD142F8085CBD
:102DE00008B100F0A7FA07E0FF2804BFA5F108002A
:102DF00000F01EFA052032BD00F0A0FADFF804133F
:102E0000096831F8142042F4004221F8142008B96E
:102E100000F090FA002032BD2DE9F041804600F02C
:102E20008DFA00F00100DFF8D84280F00107206839
:102E30000026002503E005B9064650F8080C68B1E5
:102E400010F8021C4145F6D1002D08BF0546F4D00C
:102E50004FF40041404600F0BCF811E0A749097862
:102E600088450CD200F06AFAA649096831F81820A2
:102E7000C2F30E0221F8182008B900F05BFA25B160
:102E800032462946204600F066F80FB100F052FAAB
:102E90002846BDE8F08170B504460D4600F04EFAB4
:102EA00097490E6800F0010080F0010001E056F83B
:102EB000086C36B116F8021CA14204BF3178A94251
:102EC000F5D108B100F036FA304670BD3000000090
:102ED00038B504460D4600F031FA002145F8081CCB
:102EE00000F00100216880F0010011B9256006E0C2
:102EF000114651F8082C002AFAD141F8085C00B1BB
:102F000025E031BD38B5054600F018FA00F00100A3
:102F10002968002480F0010041B10C46A4F10801A9
:102F20000A682A6000220A60FF228A7108B100F054
:102F300001FA204632BD38B504460D4600F0FEF9D0
:102F4000216845F8081C256000B900E031BDBDE8E6
:102F5000314000F0EFB970B504460D46164600F05A
:102F6000EDF9A5F1080123680A689D420CBF2260B3
:102F700046F8082C00220A6000F00100FF2280F0D1
:102F800001008A7118B1BDE8704000F0D3B970BD7E
:102F9000F8B507460D46164600F0D0F900F00100DE
:102FA0003968002480F0010021B93D600BE0F1B2E6
:102FB00051B1114651F8082C761E002AF7D1F6B20D
:102FC00016B141F8085C012408B100F0B3F92046BD
:102FD000F2BD38B50D46494909788842044607D202
:102FE00000F0ACF94749096831F814202A430CE78E
:102FF000032032BD38B50D46404909788842044661
:1030000007D200F09BF93F49096831F81420AA4320
:10301000FBE6032032BD80B5FF2803D100F08AF91A
:10302000002002BD072002BD80B5FF2803D100F0BB
:1030300085F9002002BD072002BD80B500F068F8C8
:103040002F490020086001F0E1FB01F0D9FC01F0FC
:10305000E1FC00F06FF8002002BD80B500F001F83F
:10306000FCE72DE9F04101F037FD2448254C0078BC
:1030700021680026F6B231F816201AB9761CF2B291
:103080008242F7D3F1B2814224D200F057F921688D
:10309000F6B2354631F81580002221F8152008B91E
:1030A00000F048F9184F194A3E70414652F8252061
:1030B000304690470646FF20387000F03FF92168FF
:1030C00031F81520324321F8152018B9BDE8F04138
:1030D00000F030B9BDE8F08101700A0A42700A0CB4
:1030E000090E8270C170001D704701700A0A090C38
:1030F00042708170C01C704700E1F505907021009E
:10310000D86F0020DC6F00207F430020707021000A
:103110005D4841F2FC72002181525C4908604FF425
:103120001C710180084448F20401018041F2885179
:103130008180704738B5012000F016F8040008BF00
:1031400000F082FE00F0FAF805465049201F0860A2
:10315000204600F06DF84E49012008701DB9BDE809
:10316000314000F0E7B831BDF8B500240025061D58
:1031700016F003001CBF311D0E1A00F0DFF84449A1
:10318000097800F001000A0080F0010002D0B6B218
:10319000112E02D23D4A176800E03E4F3B68C3F350
:1031A000C0320AB1002522E0B6B2D5B1226813447C
:1031B0004FEAD23EC3F30E0343EACE332360C3F398
:1031C0000E03B34213DB274647B33B68C3F30E0439
:1031D000A41BA4B2082C13D3BC5346F400423A807B
:1031E00011E0C3F30E03B342EEDA01253C463A6820
:1031F000C2F30E0217443A88002ACFD100270DE00F
:1032000043F400423A6041B120490A68BA4204D10D
:103210003A68C2F30E023A440A603F1D08B100F05A
:1032200089F817F0030018BF00F00EFE3846F2BD13
:1032300010B515498842044604D34FF4C0521144D6
:10324000884201D300F000FE54F8040CC0F3C030F3
:1032500008B900F0F9FD00F071F854F8041C0B4AAD
:1032600021F4004144F8041C211F136800F0010000
:10327000994280F0010038BF116018B1BDE81040DC
:1032800000F058B810BD0000A0430020A06300204B
:10329000437000201446002010B4027A0C7AA24237
:1032A0001CD113001AD0022A04D100880988884250
:1032B00014D112E0032A11D1082203780C78A3421A
:1032C0000CD1431C4C1C581C611C1B782478A34255
:1032D00004D1921ED3B2002BEFD120E0FFE710BC47
:1032E000002070470A7A0272032A04BF0822FFF7FF
:1032F0003FBC09880180704710B4082203780C781D
:10330000A34200D0EBE7431C4C1C581C611C1B78EB
:103310002478A342F6D1921ED3B2002BEED110BC7A
:10332000012070470822FFF723BC0268531C03608A
:103330001170704780B501F0D5FB02E080B501F057
:10334000CDFB00B10120C0B202BDF0B54F4C504AD8
:103350002568954209D02568002655F8267042F860
:103360002670761C402EF8D3226042F82010F0BD63
:1033700010B50FF23013820853F82220136800F0C2
:103380000300C000FF248440A34301FA00F0184367
:10339000106010BD3F49042803D1086840F4803014
:1033A00022E0052803D1086840F400301CE006281C
:1033B00003D1086840F4802016E00F2805D1364874
:1033C000016841F002010160704710280DD3A0F19F
:1033D00010010FF27412490952F82110103801221D
:1033E00000F01F0002FA00F0086070472949042825
:1033F00003D1086820F4803022E0052803D1086852
:1034000020F400301CE0062803D1086820F4802056
:1034100016E00F2805D12048016821F00201016063
:10342000704710280DD3A0F110010FF23012490996
:1034300052F821101038012200F01F0002FA00F0AB
:103440000860704715490E2803D1086840F00060F5
:1034500014E00F2803D1086840F000700EE0102837
:103460000DD3A0F110010FF20812490952F82110F2
:103470001038012200F01F0002FA00F008607047C7
:103480000748016841F001010160704708ED00E064
:103490000040002024ED00E010E000E004ED00E03A
:1034A00098200D400000000018ED00E01CED00E049
:1034B00020ED00E000E400E004E400E008E400E0C7
:1034C0000CE400E010E400E014E400E018E400E0A4
:1034D0001CE400E020E400E024E400E028E400E054
:1034E0002CE400E030E400E034E400E038E400E004
:1034F0003CE400E040E400E044E400E048E400E0B4
:103500004CE400E050E400E054E400E058E400E063
:103510005CE400E060E400E064E400E068E400E013
:103520006CE400E070E400E074E400E078E400E0C3
:103530007CE400E080E400E084E400E088E400E073
:103540008CE400E090E400E000E100E004E100E051
:1035500008E100E00CE100E010E100E080E100E0C3
:1035600084E100E088E100E08CE100E090E100E02F
:1035700080E200E084E200E088E200E08CE200E02B
:1035800090E200E080B5002001F097FB4FF47F004F
:1035900000F030F84F486FF008014160016841F0D9
:1035A000080101606FF010014160016841F01001F5
:1035B000016001BD10B5474C206820F0100020606C
:1035C000206820F008002060002001F076FB4FF416
:1035D0007F0000F00FF86FF008006060206840F096
:1035E000080020606FF010006060206840F010005C
:1035F000206010BD38B5044601F040FBA04228BF52
:1036000000F022FCFFF79AFE05463348046020468E
:1036100001F0A0FB05B900E031BDBDE83140FFF786
:1036200089BE38B5FFF78AFE044601F027FB054640
:103630000CB9FFF77FFE28480068854201D30020BF
:1036400032BD284632BD38B5FFF778FE044601F09A
:103650001DFB05460CB9FFF76DFE1F48006885424B
:1036600001D3002032BD284632BD70B51A4D044644
:103670002868844228BF00F0E7FBFFF75FFE00F0F8
:10368000010080F001066C60204601F037FB01F07C
:10369000F5FA84420AD111496FF0100008600EB1AA
:1036A000FFF748FEBDE87040FFF76FB91EB1BDE8F7
:1036B0007040FFF73FBE70BD7047FFF766B980B539
:1036C00001F0F0FBBDE80140FFF7C8B9024800680F
:1036D0007047000008880840586F00200C88084098
:1036E000F1B582B004780FF22C20065DADF80060D1
:1036F000002E00F0E5800D2C14D16946532000F017
:1037000047FABDF800004FF6FE7188421CBF4FF625
:10371000FF7188421EBF0298007A002800F0AB803B
:10372000029D73E0052C04D10299097C243188198B
:103730000DE0072C0DD10298807810B906F11B001E
:1037400005E00299097A01EBC10206EB8200ADF8AF
:103750000000BDF80000FFF7F1FA050021D10C2CA4
:1037600040F0AE8002984068002800F0A980FFF782
:10377000E5FD00F0010080F001070298001DFEF752
:10378000DEFABDF80000FFF7D9FA050006D1002FD8
:1037900000F09680FFF7CEFD03B0F0BD0FB1FFF74C
:1037A000C9FD029932462846FFF7E2F9052C11D1EE
:1037B0006968242205F11800FFF7DAF905F118000D
:1037C00068602A7C69692430FFF7D2F96868243080
:1037D00068611BE0072C19D149480668B6B1002181
:1037E0000160A878002805F11000E86002D11B22D2
:1037F000314606E0287A00EBC0018A00314605F127
:103800001000FFF7B5F93046FFF712FD3D4801689B
:10381000080003D028468847002848D10D2C2FD116
:10382000029840684178007800F00302022A22DA08
:10383000354A927CC0F38300904204BFE0200142ED
:1038400002BF029890F82400022814D195F83B009A
:1038500005F13A0100F03AF80298C08C4FF6FF717A
:1038600088421FD102984068807902281ADB2846D6
:1038700001F079FD20B302A8FEF761FA03B0F0BDB4
:103880000C2C0FD1029840781A281EBF281D016801
:10389000002907D0897DC90704D5007B05F10F01F8
:1038A00000F014F8194800782946FFF768FA0C2C44
:1038B00006D10298406818B10298001DFEF73FFA41
:1038C00003B0F0BD01F0EABC00207047104A127846
:1038D000130013D00B783228B8BF322002DB6F28D8
:1038E000A8BF6E20012A05D1323858433C2290FBF4
:1038F000F2F39BB2FF2BC8BFFF230B707047000091
:10390000B46F0020F06F002028690020367000207E
:103910004C70002000161000001815100200022440
:10392000144000001000000068480B218170FF2146
:103930004170C17001707047654900200870654989
:103940006548C08C00F0FF020A60000A486001F080
:10395000A0BA01F06AB961490A68431E9B41DB4382
:10396000DB0F22F0020040EA43000860704759492B
:1039700000E05B4900F0FF020A60000A48607047FF
:1039800001460822574801F049BD70B5564D2E78C2
:10399000044640B271B28142B8BF344604DB697854
:1039A0004AB29042B8BF0C46FFF7C8FC311B891CD5
:1039B000C9B2464A695CD17008B9FFF7BBFC00F098
:1039C00002F8204670BD10B5FFF7B8FC3F49CA7831
:1039D0000C7800F00100A24280F0010009D0434BB6
:1039E0001B7833B9424B1B781B0602D40A7041493D
:1039F0000A6000B141E010BD38B50446A4F10B00E7
:103A0000122828BF00F020FAFFF798FC00F0010010
:103A100080F001052D4884703548007808B900F021
:103A200006F81DB1BDE83140FFF784BC31BD10B5CB
:103A30002F48007808B100F007FA244CFFF77EFC0D
:103A4000A178637800F00100994280F0010011D064
:103A5000617008B1FFF76EFC00F0C7FD6078264981
:103A600000EB80002C38086001F042FDBDE81040FA
:103A700000F068BD00B100E010BDBDE81040FFF7E8
:103A800059BC38B504461D48007808B100F0DCF98F
:103A90000F4D287808B100F0D7F920000CBF0120A5
:103AA000032C09D0012C1CBF022C00F0CDF90949D0
:103AB000FF220A6002204A60287031BD04490020BC
:103AC000087004490448C08C54E70000D46F0020FB
:103AD000696E0020C88508409C6800200086084068
:103AE000D0850840A88508404C7021006A6E0020EF
:103AF000686F0020408608403C8608407C430020D8
:103B000001F0BDB980B501F0C4F9493840B210F1F7
:103B1000570FB8BF6FF0560002DB0B28A8BF0A2072
:103B20005730C0EB0020612190FBF1F0C0B202BD24
:103B300010F1570FB8BF6FF0560002DB0B28A8BF7B
:103B40000A205730C0EB0020612190FBF1F0C0B299
:103B50007047000010B588B0694C202204F16C0158
:103B60006846FFF705F820460FF298118C2202F004
:103B700047F82022694604F16C00FEF7F9FF14347F
:103B8000FFF7E7FEA073FFF7E4FE207008B010BD5A
:103B900070B5A0F140021E2A0C4638BFA0F14005C6
:103BA00006D3A0F1E001102934BF00F13E052E2517
:103BB000EDB22E2D01D1F42070BDFFF7BFFB0646FC
:103BC0000FF2CC1000EB85014A7810F825004C4923
:103BD00001442046FEF7CCFF0EB9FFF7ABFB0020F7
:103BE00070BD2DE9F0410C460146452902D14448FB
:103BF000846081E00546A5F140021E2A38BF4038A6
:103C000004D3A5F1E002102A04D23E30C0B22E281F
:103C1000024602D1F420BDE8F0810FF2741000EBEF
:103C20008206B078020004BFF278002A16D0F2783B
:103C3000904208BFFB2060D0582905D120888F38DA
:103C400046F22241884206D22078B278904224BFC0
:103C5000F178814202D2E820BDE8F081FFF76EFBE7
:103C600007463078DFF89880727821464044FEF7A6
:103C70007FFF0FB9FFF75EFB502D12D0522D1BD0E6
:103C8000532D14D0E02D2DD0E12D20D0E22D24D0C5
:103C9000E52D2DD0E62D02BF207808F12A01C87746
:103CA0002AE008F10800C08BFFF761FE24E0B8F8B5
:103CB0002A00FFF75EFE1FE098F8290018B10220E5
:103CC00000F0E9FB18E0022000F015FC14E008F118
:103CD0002A00007CFFF790FE0EE008F13C00FFF7A1
:103CE0004FFE09E008F12A00C07BFFF74EFE03E01B
:103CF000207808F12A0188770020BDE8F0810000D3
:103D00009C68002036000100060000000000000052
:103D1000000F000000000000000000000000000094
:103D200000000300FFFF00000403FFFF0000FFFF8F
:103D30000F00F4010005C4040320000100000B0083
:103D400000000000000000000300010F0000000060
:103D50000000000000000000000000000000000063
:103D60000000000000000000000000000000000053
:103D70000000000000000000000000000000000043
:103D80000000000000000000000000000000000033
:103D900000013636010100010201000103010001AA
:103DA00004010606080400000C0100340D01000F98
:103DB00010040101140100FF160800002002000099
:103DC000220100FF23010001240100FE250100085B
:103DD0002602000028010001290100012A0200003A
:103DE0002C01000F2E0200003001000131010008FB
:103DF000320200FF340100073501024036010000A5
:103E00003701000138010001390100FF3A010B1CA4
:103E10003C080000460100084701000F480100016E
:103E2000490100FF4C04000050040000540400004D
:103E3000580400005C0400006004000064040000FA
:103E4000680400006C20FFFF00BF2DE9F04F83B035
:103E5000FFF774FA8B494FF40010086001F0BBFFC4
:103E6000894801680903FCD58849DFF82492DFF806
:103E700024B2894F082008604FF0010AFFF700FBC9
:103E800001F050FF01F01FFF01F0E6FE01F079FFA5
:103E90000421484602F029F80821484602F025F896
:103EA0000221484602F021F81021484602F01DF890
:103EB00000220421484602F010F80022082148465A
:103EC00002F00BF800220221484602F006F8002218
:103ED0001021484602F001F800220421484601F072
:103EE000FCFF00220821484601F0F7FF00220221D2
:103EF000484601F0F2FF00221021484601F0EDFF94
:103F00000DF104080FE0484601F0E7FF641CE4B23D
:103F1000082C04BF00246D1C042D68DB0022042142
:103F2000484601F0DAFF0024002001E00098401C20
:103F300000900098B0F5503FF8D30421484601F0B6
:103F4000C9FFC243D2B20421484601F0C6FF08218E
:103F5000484601F0BFFFC243D2B20821484601F0F3
:103F6000BCFF0221484601F0B5FFC243D2B2022194
:103F7000484601F0B2FF1021484601F0ABFFC243B2
:103F8000D2B21021484601F0A8FF387820B10020B5
:103F9000387003B0BDE8F08F0821584601F09AFF51
:103FA0000028C0D1641CE4B20A2CBDD10022042137
:103FB000484601F092FF00220821484601F08DFF9B
:103FC00000220221484601F088FF002210214846C5
:103FD00001F083FF00240821584601F07BFF00B95F
:103FE0000024641CB4F5FA7FF5DB002400250821C9
:103FF000584601F06FFF0028F9D1042204214846F9
:1040000001F06BFF08220821484601F066FF0222FA
:104010000221484601F061FF002C07BF1022102149
:1040200000221021484601F058FF0026082158467A
:1040300001F050FF00B90026761CB6F5FA7FF5DBDB
:1040400000220421484601F048FF0022082148468A
:1040500001F043FF00220221484601F03EFF00220A
:104060001021484601F039FF18F80500C4F1070196
:104070000AFA01F1084219BF042204210022042196
:1040800041E7000008ED00E004200D4008300D403D
:1040900000B00D4000900D403370002080B500F05E
:1040A00025FDFFF741FC00F0F1F901F0EBF900F01C
:1040B0001DF8BDE80140FFF765BA80B5FFF73EF98E
:1040C00018B9FFF737F9FFF7BFFE0648007818B9AF
:1040D00001F0FEF9FFF730FCFFF76CFABDE8014094
:1040E00001F06ABF7C43002070470000DFF87803CE
:1040F00000210170C171704738B5DFF86C43054687
:10410000207808B1FFF7A0FE01202070DFF85C03E3
:10411000007808B11D205EE0022D657002D102F02A
:104120003BF81BE0002D1CBF012DFFF78DFEDFF8D3
:1041300040136278002020710968CE48897D4906C5
:104140004CBF90F8461090F8251022B9C07810B1F5
:104150000329A8BF0221A17000F046F8E079B8B9A0
:10416000C34D286808B9FFF76FFE2868C24B416845
:104170000A7802F02002A2718A786271027A481EDF
:10418000911C0170EE211960511CC9B201F058F95F
:10419000BA4DFFF7D3F8BA492A78097800F0010040
:1041A000114380F001001AD18321217008B1FFF77B
:1041B000C1F8B4480168490849000160002028702E
:1041C0006078022800D159E040B9FCF745FEE1785B
:1041D000814203D31C20BDE8324024E152E0022199
:1041E000217000B152E031BD80B5FFF7B2FB9E49AE
:1041F00091F9023001229A40521E1040C87048784E
:1042000018B9BDE8014001F04ABFBDE8014001F026
:1042100010BF95480121C17140786DE738B5974CC2
:10422000974821780078084318BFFFF70DFE8E4DA0
:10423000FFF784F8297800F00100022980F00100DE
:1042400019D18321297008B1FFF774F88D480168EE
:10425000490849000160002020706878022800D1D8
:104260000CE038B9FCF7F8FDE978814202D3BDE8EB
:1042700032404AE006E000B108E031BDBDE831401F
:1042800001F0B4BFBDE8314001F053BFBDE831409B
:10429000FFF750B810B5744C607801001CBF0128BE
:1042A000FFF7D2FD0420207000F06CF920797649E8
:1042B000401C2071C0B20A7882420DD20020E07109
:1042C000207000F05FF9FFF77EFBFFF7B0FBBDE861
:1042D0001040E120FCF72ABE487BA1784A1C8242AC
:1042E000B8BF481CA070FFF77FFF83202070607864
:1042F00038B9FCF7B1FDE178814202D3BDE8104046
:1043000003E0BDE8104001F014BF1C208BE038B57D
:10431000FFF714F800F00100534D80F001042878F5
:10432000832818D1A87990B9852028700CB1FFF79F
:1043300001F80020E871287000F024F9FFF743FB32
:10434000FFF775FBBDE832400020FCF7EFBD86208B
:10435000287001F09BFF04B198E731BDF8B5054620
:104360000E46FEF7EBFF00F001003F4C80F0010726
:10437000207886282ED18720207001F0F5FF0FB11C
:10438000FEF7D8FF6079854216D156B10020E07162
:10439000207000F0F7F8FFF716FBFFF748FB1B2033
:1043A00014E00020E071207000F0ECF8FFF70BFB48
:1043B000FFF73DFB002009E00020E071207000F0D5
:1043C000E1F8FFF700FBFFF732FBE920BDE8F24020
:1043D000FCF7ACBD1FB1BDE8F140FEF7ABBFF1BDCE
:1043E00038B5FEF7ABFF00F001001F4D80F001046F
:1043F0002878862814D18720287001F0B5FF0CB1E9
:10440000FEF798FF0020E871287000F0BBF8FFF776
:10441000DAFAFFF70CFBBDE83240E920FCF786BD75
:1044200004B133E731BD10B504460F480021C17116
:10443000017000F0A7F8FFF7C6FAFFF7F8FA204678
:10444000BDE81040FCF772BD10B5094C206808B9F2
:10445000FFF7FAFCFFF7F7F82168C86000F0FEFBF1
:104460002168088210BD0000686F00207C43002096
:10447000B44200209C680020388808406A6E002002
:10448000686E002090860840C068002067480021C0
:1044900041700170704770B5060008BFFFF7D4FC8B
:1044A000FEF74CFF00F00100604D80F001046878D9
:1044B00030436870FEF742FF00F00100297880F079
:1044C000010021B901212970E321594A116008B185
:1044D000FEF730FF04B1B5E070BD10B5040008BFB1
:1044E000FFF7B2FCFEF72AFF50494A7822434A7090
:1044F00000B961E010BD10B5040008BFFFF7A4FCCF
:10450000FEF71CFF49494A7884F0FF031A404A70BD
:1045100008B9FEF70FFFBDE8104033E080B5FEF7A5
:104520000DFF424900224A700A70EF2240490A609A
:10453000ED220A600A6008B9FEF7FCFEBDE8014002
:1045400000F0D6BF38B5FEF7F9FE00F00100374D98
:1045500080F00104687878B1FEF7F0FE00F0010009
:10456000297880F0010021B901212970E321304A26
:10457000116008B1FEF7DEFE1CB1BDE83140FEF768
:10458000D9BE31BD10B5FEF7D9FE00F0010080F0B4
:1045900001042648407860B926480078000608D40F
:1045A0002548007828B925480078000658BF00F053
:1045B0001CF804B100E010BDBDE81040FEF7BABE23
:1045C00080B5FEF7BBFE19490A7800F0010080F0C3
:1045D000010022B901220A70E321154A116018B1C5
:1045E000BDE80140FEF7A6BE01BD70B5FEF7A6FE10
:1045F00000F0010080F001040C48017899B100211D
:104600000170EF200E4D6860ED2068606860FEF775
:1046100095FE06462A20FEF715FF6FF0040028607D
:104620000EB9FEF787FE04B10CE070BD2F700020BC
:1046300038880840686E00206A6E0020686F00208D
:1046400034880840BDE87040FEF774BE00F10103F5
:10465000810704D010F8011B89B18107FAD10268E3
:10466000B2F10131914311F0803F04BF50F8042FA3
:10467000F6E710F8011B11B110F8011BFBE7C01A97
:104680007047000062F30F2262F31F42401810F0DF
:10469000030308D0C91A1FD3DB0748BF00F8012D58
:1046A00028BF20F8022D130030B4144615461039E7
:1046B00028BF20E93C00FAD8490728BF20E90C00B0
:1046C00048BF40F8042D890028BF20F8022D48BFBC
:1046D00000F8012D30BC7047C91818BF00F8012D33
:1046E000CB0728BF00F8012D704700000022FFF71C
:1046F000CDBF000080B528B9FF20FEF795FC002152
:10470000002004E01349002008700FF21D01BDE8ED
:10471000044001F0ABBE10490A78FF2A02D10870AC
:10472000012070470020704738B50B4D04462878AB
:10473000FF280ED00420FEF701FB50B1C02101700C
:10474000C4700021817001462878BDE83440FEF72E
:1047500016BB31BD427000207E4300207CB46B4606
:10476000002480B290FBF2F502FB1500C0B20A28CB
:10477000B4BF30263726301818702846ADB225B1A0
:10478000641C5B1CE4B2052CEBDB0020401C13F81E
:10479000012901F8012BC5B2AC42F7D20020087004
:1047A00073BC704700F04CBA704700005FEA000C21
:1047B000830706D011F8013B00F8013BB3B1830732
:1047C000F8D10A68B2F1013323EA020313F0803F03
:1047D00002BF40F8042B51F8042FF3E711F8013B16
:1047E00000F8013B13B111F8013BF9E7604670474F
:1047F000024600E0521C1378002BFBD111F8013B5C
:10480000137012F8013B002BF8D170477B49002050
:1048100048607047F8B5794C074620680D46164643
:1048200000E0006838B10189A94204BF817AB94229
:10483000F7D14660F2BD1020FEF796FC70B187728A
:104840000581466000210160C160216811B92060C6
:10485000F2BD11460A68002AFBD10860F2BDF8B526
:1048600004460D461646FEF769FD074632462946C0
:104870002046FFF7CFFF04460FB9FEF75BFD0CB1F2
:104880000020F2BD0820F2BDF8B504460D461646DC
:10489000FEF754FD00F0010080F001073246294682
:1048A0002046FFF7B7FF040018BFE6600FB1FEF720
:1048B00041FD0CB10020F2BD0820F2BD70B50446E8
:1048C0000D46FEF73BFD4D490E6800F0010080F0FB
:1048D000010000E036683EB13189A94204BFB17AD7
:1048E000A142F7D10021318108B1FEF723FD0EB1BD
:1048F000002070BD062070BD70B504460E46FEF760
:104900001DFD00F00100002580F001003B49096811
:1049100031B10A89B24204BF8A7AA242F7D14D6806
:1049200008B1FEF707FD284670BD2DE9F14781B0BB
:10493000FEF704FD314C019A61685118616008B9B5
:10494000FEF7F8FC2768002F52D09DF80580BDF8CF
:1049500006A00025FEF7F2FC00F00100002680F022
:1049600001095FEA0A0008BF5FEA080007D1387949
:104970009DF80420904202D3801A387106E07868CE
:10498000019981423ABF401A78607E60B88858B970
:10499000F88858B9F86868B1398908000AD0B87A37
:1049A000FEF717FBF8687860B88808B9F88808B18E
:1049B000388930B93868002D0CBF206028603E4629
:1049C00000E03D463F68B9F1000F18BFFEF7B2FCAA
:1049D00066B1B088002804BFF088002803D131896F
:1049E000B07AFEF7F6FA3046FEF722FC002FB1D17E
:1049F000BDE8F3870148406870470000886F0020D9
:104A00000348002181710180704701498871704716
:104A1000806F002080B51020FEF7A6FB0F490860CC
:104A200010220021FEF7B8F80020FDF7FFF8012062
:104A300001F076FD022000F013F8032003F04CF99A
:104A4000042003F013FD052004F020F8062004F0F4
:104A5000AFFEBDE80240072005F0EFB8DC6F002094
:104A60001B490870704780B505F076FC05F096FC90
:104A700005F067FFBDE8014001F0BCBC38B50C464D
:104A800020040BD5124D01E0FEF76AF92878FEF7F5
:104A9000C3F90028F8D184F4004032BDA00604D543
:104AA00005F012FD84F0200032BDE0060DD501F0C6
:104AB0000DFD0848007828B90548007864221021C7
:104AC000FFF7CDFE84F0100032BD002032BD0000A3
:104AD0003A700020516F002005F035BFEFF31080D1
:104AE00072B67047EFF3108062B67047F0B5DFF82A
:104AF000EC0389B0142101603F2181605521C16020
:104B0000FC21DFF8DC43DFF8DC53DFF8DC63DFF89F
:104B1000C87361638521E16701214161152141620B
:104B20000021A967102101630E21416303218163E4
:104B30000920706504210B2008608021FF2030606F
:104B40002A20FEF715FC80212B20FEF711FC2A20DD
:104B5000FEF720FC2B20FEF71DFC80213120FEF704
:104B600007FCDFF888030068000C3860FEF7E6FBFE
:104B70000221F1670022DFF878130A6028224A60D8
:104B800008B9FEF7D7FBDFF86C0300680003FAD51D
:104B9000306F40F003003067306F4007FCD5306F56
:104BA00040F00A0030673120FEF7F4FB4820206017
:104BB000FFF706FD206CC007FCD500201021A26F76
:104BC00052084041491E80B2F9D1002814BFB0F507
:104BD000607F4BF6BE20DFF8201300F0FF020A6072
:104BE00000120860796808000ED068462022002371
:104BF0000826A76F7F085B41761EFAD1521E00F887
:104C0000013BF4D168468847FFF7EFFC4020206065
:104C1000206840F020002060002028606860A860C4
:104C2000E8602861686109B0F0BDDFF8D002016872
:104C300021F00C0141F0040101608069C0B27047AD
:104C4000DFF8B802016821F00C0141F004010160B5
:104C50008169406900EB012080B2704710B5FEF712
:104C60006DFBDFF89C1201220A608A68496841EAFC
:104C7000022408B9FEF75EFBA0B210BD80B5FEF7B6
:104C80005DFB9F4900220A604A6805E080B5FEF797
:104C900055FB9B4910220A604A698DF800200A6979
:104CA0008DF80120C9688DF8021000218DF80310DD
:104CB00008B9FEF73FFB009802BD01B5000E18BF12
:104CC000FFF7C2F8FFF7DAFF8E49CA688018009A2A
:104CD000801AC860FEF732FB894900220A609DF8FD
:104CE00000204A619DF801200A619DF80220CA60F7
:104CF00018B9BDE80140FEF71DBB01BD11B5002488
:104D000081B0000E18BFFFF79FF8FEF717FB7E4932
:104D10000A6800F00100D20680F0010004D50A689C
:104D200022F0100201240A6030228A609DF80420DB
:104D3000CA619DF805208A619DF806204A616FF0DE
:104D400010024A601CB10A6842F010020A6000B109
:104D50002DE013BD11B5002481B0000E18BFFFF780
:104D600073F8FEF7EBFA68490A6800F001001207D1
:104D700080F0010004D50A6822F0080201240A60CC
:104D800020228A609DF80420CA619DF805208A616E
:104D90009DF806204A614A6822F008024A601CB168
:104DA0000A6842F008020A6000B100E013BDBDE8E5
:104DB0001340FEF7BFBA38B5534C2068616800EA6B
:104DC0000105E80604D5FEF778FC6FF0100060607E
:104DD000280704D5FEF773FC6FF008000DE0E80724
:104DE0000CD54A484A49006891F9002043B29A42DA
:104DF000B8BF1A460A706FF00100606031BD70B52F
:104E0000444C454D666C2A20FEF71CFB2868304058
:104E1000000705D56FF00800286001F0B0FA13E034
:104E200028683040C00605D56FF01000286001F0FA
:104E3000ADFA09E028683040C00705D5606C40082D
:104E40004000606400F031FE206C69680840400753
:104E500007D500F086FB6FF004006860206840060C
:104E6000F7D470BD2D482E4900680A6810404007ED
:104E700004D56FF00400086000F085BE7047244937
:104E80006FF07F0008702048016841F00101016067
:104E900070471D4801684908490001601C4890F9A5
:104EA0000000704738B5FEF749FA00F00100154DD3
:104EB00080F00104287828B9FEF708FCE96840185A
:104EC000E86001E0002028701CB1BDE83140FEF729
:104ED00031BA31BD00000000606F0020A486084098
:104EE000248608409085084094870840F80F2800E1
:104EF0001488084004200D4014700D4000700D40CF
:104F000010880840E46E0020088808406086084049
:104F10003F7000204C860840308808409486084046
:104F20002C880840DFF8C81400200860704780B55E
:104F300002F07CFE78B9DFF8B804006800E0406851
:104F400048B1417B0129FAD1016800291CBFBDE8A5
:104F5000024001F078BC01BDDFF89414096800201C
:104F60000A4604E0537B042B08BF401C5268002A09
:104F7000F8D1DFF880241278C0B282420BD300202F
:104F800001E04968401C0029FBD1DFF86C14097866
:104F9000C0B2814201D201207047002070472DE944
:104FA000F0410746DFF8482416680C46397B002597
:104FB00000E07668002E1CBF327B8A42F9D14FF0A8
:104FC0000108FEB97A89386800F0CAF8060031D0C5
:104FD0003581387C307407F1100006F099FB706160
:104FE0004FF67F41388B30830125708908407081EE
:104FF00041074FBF40F08000DFF80014097840EA15
:10500000C11070817089C10901F00701A4B10222A9
:1050100072733268927B520703D5DFF8E423128A59
:10502000328161B34FF67F421040491E40EAC11001
:10503000708124E0A84632E011B94FF000081EE06C
:10504000810605D5FDF778FE00F07F005F3008E0AF
:10505000C00605D5FDF770FE00F00F000A3000E035
:1050600001203081042070732021DFF898432078DC
:10507000FFF742FC18B920782021FDF7AAFF75B18F
:105080003289717B304600F07EF840B1706908B11A
:10509000FEF7CEF83046FEF7CBF84FF0000840465A
:1050A000BDE8F08170B5DFF848432268014684B05E
:1050B000002000E05268002A3DD0137B8B42F9D1DA
:1050C000517B062937D110685589007A8DF8080080
:1050D00010680088ADF80000104600F0F4F82805CC
:1050E00028D5BDF80010002000F027F810BBDFF82D
:1050F0001053A98C00A808F073F8246800E06468D5
:1051000014B160890005FAD54FF6FF767CB12068AE
:105110000188B1420ED0A98C08F060F81A2809D095
:105120006468002CF2D060890005F9D5EEE7002014
:1051300008F058F8012004B070BD18B9DFF8B002CB
:10514000006800E0406840B142891205FAD50029A4
:105150001EBF026812888A42F4D17047012070474E
:1051600070B504460D4616461C20FDF7FDFF48B1FC
:10517000002141730573468101818173C17304600D
:105180004161416070BD38B5002843D0012910D17C
:10519000974C2468002304E0657B012D08BF5B1C4D
:1051A0006468002CF8D1984C2478DBB29C4216D26B
:1051B00011E0042911D18E4C2468002304E0657BA2
:1051C000042D08BF5B1C6468002CF8D1894C24783E
:1051D000DBB29C4203D2112032BD02291AD14173A5
:1051E00002810021416082490A6832B100E00A462A
:1051F00051680029FBD1506000E00860814C2078A4
:105200002021FFF779FB18B920782021FDF7E1FE76
:10521000002032BDC12032BD10B97548006800E0E1
:10522000406838B1437B8B42FAD11AB103689B7B4B
:105230005B07F5D470476E49096800E0496821B101
:105240000A7B8242FAD108467047002070476849BD
:10525000096800E0496861B10A6813888342F9D19E
:10526000126A1378527803EB0222D205F2D4084670
:10527000704700207047F8B5044600260D46200010
:105280000AD05B48076800E07F682FB1294638469E
:10529000A0470128F8D13E463046F2BD00207047B5
:1052A00053490A6813464FF0000C01E09C465B68C6
:1052B00043B18342FAD15868934201D108607047E4
:1052C000CCF80400704710B5040011D0FFF7E8FFD8
:1052D0002068006AFDF7ACFF2068FDF7A9FF606950
:1052E00008B1FDF7A5FF2046BDE81040FDF7A0BFBF
:1052F00010BD38B501683E4A0988126800230024B1
:1053000009E0557B052D01BF641C15682D888D4271
:1053100008BF5B1C5268002AF3D13C490978DBB214
:105320008B423FBF3A490978E4B28C422EBF01213B
:105330003349098A01814FF6FF7205214173418982
:1053400041F40061418100680188914205D02C49F7
:10535000898C07F043FF1A2804D1BDE832400120B0
:1053600007F040BF31BD10B550B150F8081C0029FE
:1053700002BFA0F108018A79FF2A03D0FDF7F0FCF3
:10538000052010BD1F4C22788A7122490A780146F7
:105390002148FDF7FDFD012806D120784FF400518A
:1053A000FDF717FE002010BD042010BD70B5FDF7FD
:1053B000C5FF194D2E6800F0010080F001048EB188
:1053C000104856F8081C007800294FF4005102D00C
:1053D000FDF7FFFD01E0FDF70DFE002231462846F6
:1053E000FDF7B9FD0CB1FDF7A5FF304670BD00001B
:1053F00024700020CE6E2100CF6E2100804300205B
:105400002869002036700020CD6E2100D16E210069
:10541000D26E2100DD6E210028700020130005D01F
:1054200011F8013B40F8043B521EF9D170471300BC
:1054300005D050F8043B01F8013B521EF9D17047EA
:1054400038B504460D0008BFFEF7FEFC14F8010B4A
:105450000B4908606D1EE8B20028F7D131BD38B5A0
:1054600004460D0008BFFEF7EFFC0548006804F88D
:10547000010B6D1EE8B20028F7D131BD000000001D
:1054800028880840DFF81C070021C1724161818033
:105490000FF2F501016100218171818181737047F3
:1054A00038B5DFF8044705202060FDF747FF0546C3
:1054B0002A20FDF7C7FFDFF8F4166FF0040008603C
:1054C0000DB9FDF737FFE06B40F00400E06331BD3C
:1054D00080B5FFF723F8DFF8CC0600214171C172D7
:1054E000DFF8CC060160016841F00901016001BDEF
:1054F00010B5DFF8B0464BE338B5DFF8AC06DFF89F
:10550000AC46016C49084900016405210160ED20A9
:1055100060606060FDF712FF05462A20FDF792FFEC
:105520006FF0040020600DB9FDF704FFDFF874464A
:10553000606918B104F11400FBF7FCFB0FF249009D
:10554000A1792061207908430AD000202071A07140
:10555000FFF718F8FEF737FABDE83140FEF75EBEF8
:1055600031BD10B5DFF83C46607B58B9012020738F
:105570002069804700202073607B18B1FFF7BCFFD3
:105580000020607310BD00002DE9F84FDFF81446CD
:105590002079002708B1FEF757FC81202071DFF841
:1055A0001406007838B1DFF81056686A000604D493
:1055B000686A400601D42771AAE000F04FFEA86E89
:1055C00040084000A866A77104216079A0722046B7
:1055D000FFF745FF207800F07F00C01EE071C0B2E9
:1055E0007D28BEBF607800F0070104297DDA00F055
:1055F0000700022804BFE07A00284CD16846FFF774
:105600002EFFFDF79BFE00F0010080F00106DFF8A1
:10561000AC05007886282FD1DFF8A495D9F80000D2
:1056200008B9FEF711FC9DF90000A0F149089DF8AA
:10563000010000F07F0A51464FFA88F0FEF778FA31
:10564000D9F800104877D9F8000080F81EA0D9F8E2
:10565000000080F81F800EB1FDF76CFE9DF8010080
:10566000000606D5607800F01001E078FEF776FEBF
:1056700005E0FEF7B5FE02E00EB1FDF75BFE686ADD
:10568000400640D5686A00063DD4DFF83805ED21B4
:105690008160816037E0DFF824050078862808BF44
:1056A000FEF79EFEA07A010010D0E17A71B90128C0
:1056B0005DD0022803D161780722114257D1032817
:1056C00004D1607800F00700032850D1A078C0F31F
:1056D00081094FEA9018DFF8F004006800BBB8F1C8
:1056E000010F18BFB9F1010F1AD1DFF8D804ED216D
:1056F00081608160696A490605D5696A090602D434
:10570000ED21816081602771A079002840F0D6806A
:10571000FEF738FFFEF757F9FEF780FDBDE8F18F81
:105720000FF2B84010F8091010F808004618B8F148
:10573000000FF6B204D06078400644BFB61EF6B241
:10574000E079B11C884212DB801B801E6178607298
:10575000090748BF2527C0B2C0194C3080B2FBF7FB
:10576000D7FA606138B9DFF85C14E820886000F08F
:10577000ABF9BDE8F18FE07A002718B9607800F046
:105780002000A071A079A0B3FDF7D8FD00F00100C2
:1057900080F0010A607800F0070003280CD1FBF7C5
:1057A000A0FA002873D1DFF82404007800286AD01A
:1057B00007F052FEFE286AD0286820F00400286016
:1057C000FDF7BCFD83462A20FDF73CFEDFF8F4130D
:1057D0006FF001000860BBF1000F08BFFDF7AAFDE4
:1057E000A86E40F00100A866BAF1000F18BFFDF7DF
:1057F000A1FD606900F14C0141600164617A0172B0
:105800006069017A80F844106078000710D56169FA
:10581000032081F84400611C60694030027900680F
:10582000FDF7A6F9606950F8401F02791144016044
:10583000606980F82480606980F82E90FFF726FA6E
:1058400061690863FFF70AFA61698886607800F089
:10585000070008736169E07881F83D006178A078FD
:10586000C0F3011001F0780108436169384388737F
:10587000D6B9617A0FF201100A000DD10120A86299
:105880000FF2391019E0FBF71DFA002894D02868B0
:10589000042740F0040092E71029A8BF10212172CC
:1058A000217A491EA96208E026726178207A0907E8
:1058B00058BF401EA8620FF209002061BDE8F18FB9
:1058C00030B5B84C207A85B008B9FEF7BDFA217A18
:1058D0006846FFF7C4FDA0786946C0F38100C8B1EF
:1058E00062699DF800304D7803EB05231387032888
:1058F000138FD38608D10DF1020102F12600FDF7C6
:1059000011FD0DF10A0105E08878C97800EB01204E
:10591000D08401A9A078800915D06269937B5B06C9
:1059200005D40B784D7803EB0523D386891C032817
:1059300004D102F11C00FDF7F5FC04E00878497879
:1059400000EB0120908300206169C875617A0FF235
:1059500029000A0005D19449012008600FF25D007A
:1059600007E01029A8BF102121728F4A217A491E11
:105970001160206105B030BD10B58A4C6069217A94
:10598000006CFFF76CFD6169207A0A6C02440A64BE
:10599000617A081A6072C1B231B983490120086086
:1059A0000FF21900206110BDC0B21028A8BF10204E
:1059B00020727D49207A401E086010BD2DE9F0411B
:1059C000784D02212846FFF74AFD6878002410F040
:1059D000800602D1E87A02283ED102202871FEF723
:1059E000D1FD2857A0F14907687800F07F084146AB
:1059F00078B2FEF79DF8696981F83A00686980F825
:105A00003C70686980F83B806869011D00F14C02B8
:105A1000CA6390F844000B790A68C01A1044086001
:105A2000897A490707D50078042804D062480168BC
:105A300021F0040101606548007818B107F013FDFA
:105A400000B104246869817B44EA06021143817332
:105A50006869FBF791F909E05748816E49084900E8
:105A60008166AC7105F11400FBF764F900206861F0
:105A700005215148816256492961416A490606D586
:105A8000406A000603D45348ED2101600160002004
:105A90002871A87938B9FEF775FDFDF794FFBDE8C8
:105AA000F041FEF7BBBBBDE8F08180B53D48002169
:105AB0008171007938B9FEF765FDFDF784FFBDE817
:105AC0000140FEF7ABBB01BD10B5364C4049206923
:105AD000884218BFFEF7B8F9E079010016D13E48B8
